:020000041000EA
:1000000000B5324B212058609868022188439860DF
:10001000D860186158612E4B002199600221596106
:100020000121F02299502B49196001219960352056
:1000300000F044F80222904214D00621196600F024
:1000400034F8196E01211966002018661A6600F04E
:100050002CF8196E196E196E052000F02FF8012189
:100060000842F9D1002199601B49196000215960AB
:100070001A491B48016001219960EB211966A021F2
:10008000196600F012F800219960164914480160C1
:100090000121996001BC002800D000471248134993
:1000A000086003C880F30888084703B5996A0420EC
:1000B0000142FBD001200142F8D103BD02B5186610
:1000C0001866FFF7F2FF186E186E02BD00000240BE
:1000D000000000180000070000035F00212200005C
:1000E000F4000018222000A00001001008ED00E03C
:1000F00000000000000000000000000074B24E7A12
:1001000000200420F7010010C3010010C5010010F9
:10011000C1010010C1010010C1010010C101001097
:10012000C1010010C1010010C1010010C701001081
:10013000C1010010C1010010C9010010CB01001065
:10014000CD010010CD010010CD010010CD01001037
:10015000CD010010CD010010CD010010CD01001027
:10016000CD010010CD010010CD010010CD01001017
:10017000CD010010CD010010CD010010CD01001007
:10018000CD010010CD010010CD010010CD010010F7
:10019000CD010010CD010010CD010010CD010010E7
:1001A000CD010010CD010010CD010010CD010010D7
:1001B000CD010010CD010010CD010010CD010010C7
:1001C00000BE00BE00BE00BE00BE00BEEFF3058054
:1001D000103800BEF2EB887154240110782401100D
:1001E0003402001090A31AE700201F49086006C8D7
:1001F00081F3088810471D48006800282FD10DA4FE
:100200000ECC002902D000F012F8F9E71849194A7B
:10021000002000E001C19142FCD1174988471749ED
:1002200088471749884700BEFDE701C901C29A42C5
:10023000FBD3704778240110C0000020B8220020B2
:1002400070460110000004200000042070460110D8
:10025000001004200010042000000000704709482E
:1002600008F0C2FB0047000008ED00E0000000D0ED
:10027000B822002058330020E5700010014600101D
:10028000117200105756000006005250ABB3605375
:10029000041D011006005250861C03021C1D011093
:1002A000060052505422A29D400E011005005250EB
:1002B000DE65F46870460110F8B5C0460448054B89
:1002C00010B5834203D0044B002B00D0984710BDDB
:1002D000B8220020B822002000000000064807498C
:1002E000091A8910CB0F591810B5491003D0044BC7
:1002F000002B00D0984710BDB8220020B822002063
:100300000000000010B5074C2378002B09D1FFF73F
:10031000D5FF054B002B02D0044800E000BF0123AD
:10032000237010BDE02300200000000088040110AD
:10033000054B10B5002B03D00449054800E000BF71
:10034000FFF7CCFF10BDC04600000000E4230020F2
:100350008804011070B5002800D070BD8025D0241D
:10036000AD042E001930240604F0C2FE65626661F9
:10037000322005F06DFDFA20A561400005F068FD12
:10038000F5E7C046F0B5DE4657464E464546040002
:10039000431E9841E0B5150087B0C0B20E00FFF7CC
:1003A000D9FF2800431E9841C0B2FFF7D3FF5C225B
:1003B0000021200009F05AFD4248A564A660606053
:1003C00041490CF0B1FA0121206260680CF08EFA0C
:1003D000E061A06804F08CFE3C4A63689446634484
:1003E00019004B1E9941A068063104F0F3FDE36942
:1003F000A7689946236A36489A4680235B02984646
:100400000293534652460833D2011B031343314A29
:100410003840934613408022D205134303932E4B5A
:10042000BA0266680243049328482C4B35181343DC
:1004300005936B1E9D4106352900380004F0CAFD66
:1004400029000125781C04F0C5FD00953A004946B5
:10045000300002230CF0CCFA404602AB0290524628
:10046000494630000CF01CFB484685404046336846
:10047000226A1D433560E06010000830D10103039B
:100480000B43584680210340C9050B432361A168F3
:10049000114B0F4863614B01034089020B43D0218C
:1004A000C9050B43A361230060680C33E1690CF0BC
:1004B000F7FA002007B03CBC90469946A246AB46EE
:1004C000F0BDC04600002050880401100000E0AFDD
:1004D000FF83FFFFFFFFFF9F00000E400000206032
:1004E000F0B5D6464F4646468046431E9841C0B5B5
:1004F000C0B282B08A469146FFF72CFFFA22002351
:10050000D2005046002109F025FB434600259C6C93
:100510004E46E30E6201121BAB41F71736184F41EE
:10052000910F8C4600920193990063461943009BFA
:10053000980000196941CB0642091A43C4062000FD
:100540001100FC07720822437B10801859413200C9
:100550003B0008F0C5FA43465862FD231B069C4643
:10056000074B604418605246434600201A654A46CD
:100570005A6502B01CBC90469946A246F0BDC046E2
:1005800050300020F8B51D000600431E9841C0B24F
:100590001400FFF7DFFEF36C002B24D01F6B5E6BA3
:1005A0003B00334307D1114B00201F685E683B00BE
:1005B000334303D1F8BD0D4B1F605E6000210C4832
:1005C0000C4A00196941002308F0A2FA3A003300EE
:1005D00009F0C0FA0023084A80185941054A00234F
:1005E00008F07EFAE6E70020E4E7C046C0230020DA
:1005F00020A1070040420F0050C3000070B5040066
:10060000431E9841C0B2FFF7A5FE01221300E56921
:100610006168AB40086803430B60A26570BDC046CB
:1006200010B50400431E9841C0B2FFF793FE0122AB
:10063000E069616882400B6893430B600023A36507
:1006400010BDC046F0B5DE4657464E464546E0B5BD
:100650001F00784B00269946040077488DB018603B
:10066000764B8846764915009A461E600CF05CF978
:100670004B461B688022994653461B6852029A4695
:10068000F8235B0204920593C02383461B031022C8
:1006900004A908A80693079609F0EEFB5B465A46A4
:1006A0000D33D2011B03134308A9102204A803939E
:1006B000099309F0E1FBEB03039A0793614B514661
:1006C00013402A06134305932A0001234846009647
:1006D0000CF08EF904AB5A46514648460CF0E0F94E
:1006E00001224B46504619681300834030000B43EB
:1006F000A24270414946C0B20B60FFF72BFE434651
:10070000D80FE12342465B0293427041C0B2FFF72B
:1007100021FE1C23E80FAB427041C0B2FFF71AFE66
:100720004146002C00D179E0474806F0C7F8082080
:10073000022104F04FFC444B09209946022104F0A9
:1007400049FCA4210120490009F068FB0600431E72
:100750009841C0B2FFF7FEFD4346320073603B4B49
:1007600034601E603A4BB560103228001A6004F005
:10077000BFFC0123D022AB40120693622800354B08
:100780000122082104F056FC4B461A6BC0231B02C1
:100790001A4080254B466D0130332B431A60484682
:1007A00000230122082106F01BF9631E9C414846E4
:1007B0001434002106F052F92000274904F0B2FD5C
:1007C0002000012104F06AFD4A4650239363536BD5
:1007D00038221A404B4634332B431A6039001F48E5
:1007E00008F058F91E4B7901C91B18608B015B1A80
:1007F000DB00DB191B4C9B0102005B0839001A4827
:10080000236009F0D1FD30002268184B1A600DB04A
:100810003CBC90469946A246AB46F0BD144806F053
:100820004DF80020022104F0D5FB114B0120994620
:1008300084E7C0462830002000003050D42F00202C
:1008400014060110FFFFFFE000800340D82F0020B6
:10085000DC2F0020F10000208102002080841E0097
:10086000442F002020300020A4040110102A002072
:1008700000400340F0B5D64646464F460500431EAD
:100880009841C0B5C0B28AB02E00FFF763FD802248
:1008900038365200874930000DF0B0F9041E00D1FF
:1008A000EBE04822AB6AFF320133AB62824B9946E0
:1008B0001B689A56062A4EDC804B06AEDA68002189
:1008C000102230009B6809F0D1FA20000DF0EEF8FC
:1008D0000023002100279846874213D0E3191A7895
:1008E0000137FFB22C2AF7D142461A704B1CDBB2FB
:1008F0009A4677540C2B05D020000DF0D7F85146BE
:100900008742EBD13378E318DA78AA745B78EB741A
:100910007379E25C302393429B415B422B74B07944
:1009200020180CF025F94B4648221B686874FF32EA
:100930009A56052A05DDA22252009B5C002B00D1AD
:10094000A7E02B7C002B12D100200AB01CBC9046E3
:100950009946A246F0BDA22252009B5C002BABD16F
:10096000802132004900564809F01EFDA4E777783F
:100970000222E11904A80DF001F9002304AA1000D5
:1009800093700CF0F5F88046B81C20180CF0EAF8CB
:100990004346009001916420584308F05DFB494AAA
:1009A0000290039100980199474B08F0C0FA0200A9
:1009B0000B000298039908F0B1FA0022434B08F0AB
:1009C000D4FA434B002208F0A9FA08F0A5FBA8616D
:1009D000E961B378E35C4E2B06D0532B63D100233F
:1009E00042428B41AA61EB6105AB9846F77803223E
:1009F000E11918000DF0C2F8424600234046D370BA
:100A00000CF0B6F88046F81C20180CF0ABF8434602
:100A1000009001916420584308F01EFB294A02907F
:100A2000039100980199284B08F081FA02000B000D
:100A30000298039908F072FA0022244B08F095FA04
:100A4000234B002208F06AFA08F066FB286269620C
:100A50003379E35C452B06D0572B27D10023424244
:100A60008B412A626B62307A20180CF07BF808F018
:100A70007FFBA0235B00E85066E780221549520007
:100A800030000DF0BBF804000020002C00D15CE722
:100A900007E7FF210140104809F086FC2B7C002B62
:100AA00000D151E763E7022040424EE70320404275
:100AB0004BE7C046E4040110D82F00200040054059
:100AC000F4040110333333333333E33F006AF84027
:100AD0000000E03FEC04011018050110F8B5070014
:100AE0001000431E9841C0B216000D00FFF732FC03
:100AF0000A20B84280414042FFF72CFC902101209F
:100B0000490009F08BF90400431E9841C0B2FFF779
:100B100021FC88235B00A7602573E650124B134A23
:100B20001C600123AB4012491360002004F0FAFB63
:100B3000104E0021002004F0DBFD0121002004F014
:100B4000ADFBB56A00212A0000230B4812184B4167
:100B500022606360084A237B9446043365449B000B
:100B60009D512000F8BDC046E02F002038600540B0
:100B70003D03002000400540204E00000023837309
:100B800043737047F0B545464E46DE465746E0B5DE
:100B9000934C8BB0236806000D009046032B00DDBC
:100BA000EBE0904A34009246032291460132330032
:100BB000022793460C3401951A782F2A1ED0110073
:100BC000B9433C291AD04D46511C514408789446EB
:100BD0002840022807D16146FD3020390140203AE3
:100BE0000131D2B251441A700A785946114205D1E6
:100BF00049460A40012A01D020221A7001339C4242
:100C0000DAD10023019D33730C22310076480CF0B9
:100C1000B5FF28000CF04AFF022302009A43042A81
:100C200000D182E001002A00704809F0BDFB0722D4
:100C30006F49280009F020F928000CF037FF06283A
:100C40004AD0290007226B480CF098FF43464146E2
:100C50003C2B00DD3C2103AC2200674B49B261CB49
:100C600061C261CB61C21B6800261360634B220026
:100C70009C461B780AAD5BB298462300474600208D
:100C80001056013281421ED09542F8D14046002EC6
:100C90001ED100251B3401229A568A4205DD00220E
:100CA0009A56914201DB1000012501339C42F2D19A
:100CB000002D01D0634618700BB03CBC904699469D
:100CC000A246AB46F0BD954203D00F000126D6E701
:100CD000380062461070DCE703212B79484C1A007B
:100CE000E05C0140022902D1203B1A00DBB22B71EB
:100CF000413B172B62D803216B79E05C1A0001405D
:100D0000022902D1203B1A00DBB26B71413B172B49
:100D100097D9FF2305211A403A4809F045FB0722DD
:100D20003949280009F0A8F88BE703222B78344CC6
:100D3000E15C0A40022A01D1203BDBB22B70413B2F
:100D4000112B35D803226B78E15C0A40022A01D1CD
:100D5000203BDBB26B70413B112B3BD8AB78E35CA3
:100D60005B071FD5EB78E35C5B0700D564E70722E0
:100D70002649280009F080F85EE70CF097FE310064
:100D80000200234809F010FB2368032B00DC08E76E
:100D900028000CF08BFE4346020029001D4809F094
:100DA00003FBFEE607221949280009F065F8D9E798
:100DB00007221949280009F05FF8C3E7FF2304213F
:100DC0001A40104809F0F0FA07220F49280009F0EC
:100DD00053F890E707221049280009F04DF8BDE7C5
:100DE00038280020541F01105C290020BC07011086
:100DF000D80701102C2E0020380601104D3000209D
:100E0000551F0110E007011004080110B40701107C
:100E10003C07011070070110AC070110F0B55746F0
:100E20004E46DE464546E0B5C34F8DB03E78019054
:100E30003C2E00D1CCE22F2138000CF0C5FD00285B
:100E400001D100F0FCFCC31B1D000293FB189E782F
:100E50002021320088468A4300D075E108AC073271
:100E60000021200009F002F82A00390020000CF0CF
:100E700085FE03212278B14B1600985C01400229BF
:100E800005D1203EFD310E40203A985DD2B222704D
:100E9000420705D403221040012801D01D322270E0
:100EA00003216278985C16000140022905D1203E9A
:100EB000FD310E40203A985DD2B26270420705D4EF
:100EC00003221040012801D01D3262700321A27854
:100ED000985C16000140022905D1203EFD310E40EC
:100EE000203A985DD2B2A270420705D40322104086
:100EF000012801D01D32A2700321E278985C16000F
:100F00000140022905D1203EFD310E40203A985D76
:100F1000D2B2E270420705D403221040012801D06A
:100F20001D32E27003212279985C160001400229EB
:100F300005D1203EFD310E40203A985DD2B222719B
:100F4000420705D403221040012801D01D3222712E
:100F500003216279985C16000140022905D1203EE8
:100F6000FD310E40203A985DD2B26271420705D43D
:100F700003221040012801D01D3262710321A279A1
:100F8000985C16000140022905D1203EFD310E403B
:100F9000203A985DD2B2A271420705D403221040D4
:100FA000012801D01D32A2710421894660784E4685
:100FB0001A5CE57811408846AC462578A1780395FF
:100FC0005D5D5A5C35400595454692462279002D77
:100FD00000D09BE265465D5D6479AB460425A94679
:100FE00055464E4635400495059D002D01D000F034
:100FF000F3FC4125039E6D42AA46B146CA445546BC
:10100000192D01D900F035FE373EF5B2AA46EE00A3
:101010005644B6004546002D01D000F0B9FC4125EC
:101020006D42A84680444546192D01D900F090FD37
:101030003738C0B23618B0008619049876000028F8
:1010400001D000F0B0FC08004138C0B2192801D925
:1010500000F078FD3739C9B2761871008919C800D7
:1010600009185846400701D500F0A9FC60464138F0
:10107000C0B2192801D900F071FD60463738C0B2FE
:101080000A39081841000918C8000918985C400777
:1010900001D500F09DFC10004138C0B2192801D9DB
:1010A00000F059FD373AD0B20A000A3A121851003E
:1010B0008A181B5DD10052185B0701D500F084FC33
:1010C0002300413BDBB2192B01D900F03EFD373C38
:1010D000E3B20A3AD418029B9C4667447B781E0010
:1010E000303EF6B2092E00D908E2154B9C46664404
:1010F000F3010026134A96574236F618019A23093F
:101100009370230B5370230D1370B3019371B308C5
:101110005371B30A13710023B602360F240134430E
:10112000D470D3711372537293720DB03CBC90465D
:101130009946A246AB46F0BD5C290020551F011020
:10114000606A00004D300020DB788B4300D002E263
:1011500008AC07220021200008F088FE029A39001E
:1011600020000CF00BFD03212278974B9446985CED
:101170000140022906D16146FF2020390140203A72
:10118000585CD2B22270420705D4032210400128D5
:1011900001D01D32227003216278985C9446014090
:1011A000022906D16146FF2020390140203A585CCF
:1011B000D2B26270420705D403221040012801D048
:1011C0001D3262700321A278985C94460140022986
:1011D00006D16146FF2020390140203A585CD2B246
:1011E000A270420705D403221040012801D01D320D
:1011F000A2700321E278985C94460140022906D14E
:101200006146FF2020390140203A585CD2B2E2709A
:10121000420705D403221040012801D01D32E2709C
:1012200003212279985C94460140022906D1614647
:10123000FF2020390140203A585CD2B22271420787
:1012400005D403221040012801D01D322271032150
:101250006279985C94460140022906D16146FF20DC
:1012600020390140203A585CD2B26271420705D45D
:1012700003221040012801D01D32627104200500B4
:10128000804661785A5C1540A2780395985C059277
:10129000424625790490AB462078E578A9461D5C46
:1012A0001540AC46039D002D06D0049D013A2A400E
:1012B000012A01D100F027FC4A469A5C049D92461F
:1012C0000422154062466479A846002A01D000F045
:1012D00001FC41225242944684446246192A01D9B3
:1012E00000F0C0FC3738C2B29446D00060448000A1
:1012F000039A002A00D095E34122524294468C443E
:101300006246192A01D900F07BFC3739C9B242463E
:101310004118880040184000002A00D07EE3059A5A
:1013200011004139C9B2192901D900F066FC373AD8
:10133000D2B2801842001218D10052185146490703
:1013400000D567E349464139C9B2192901D900F0EE
:1013500051FC49463739C9B20A3A51184A00511866
:10136000CA008A185946595C490700D54EE35946C8
:101370004139C9B2192901D900F039FC5946373928
:10138000C9B20A3A51184A0052181B5DD1005218CE
:101390005B0700D537E32300413BDBB2192B01D9B2
:1013A00000F022FC373CE3B20A3AD418029B9C4678
:1013B00067447A78303A93009B185B009E19034B80
:1013C0009C466644F30194E6551F01104AEA00006A
:1013D0000D22002108A808F049FD92233E21380083
:1013E00006930CF0F1FAC21B013A791C08A8079287
:1013F0000CF0C4FB06AA07A908A800F081FDB44BB5
:1014000040049A785F781E78D9785C795A7094464F
:101410001A791F709970DA701C715E71AD4B400CB7
:10142000DD5D6D0700D550E141256D42A846B84409
:101430004546192D00D9D3E3373FFFB2FD00A8463A
:101440004744BD00A84665465F5D7D0700D5D3E2F1
:101450006746413F192F00D9C0E30A37FFB2B844AD
:101460004546AF005D5C47447F006D0700D5C0E294
:1014700041256D42AC468C446546192D00D9ABE33D
:101480003739C9B27F187900C919CF00C9199F5CD3
:101490007D0700D5AAE21700413F192F00D97BE351
:1014A000373AD2B20A3989184A005218D100521874
:1014B000195D490700D596E221004139192900D963
:1014C00068E3373CE4B20A3A12195400A2189B5D53
:1014D000D40014195B0700D592E23300413B192B6D
:1014E00000D95BE3373EF6B20A3CA41900267A4BDA
:1014F000C0019E573F239E1B3618FFE51A00413A54
:10150000192A00D96CE2373BDEB2EEE503255646D8
:101510003540012D00D05DE5654625712025039EEF
:1015200025706271E170A07066705C1EA346212474
:101530005D462C5D4D46254200D176E24446872625
:101540000494059CD346A046B601140062468C461E
:10155000010003985EE5002307AE2A003900300041
:1015600007930CF00BFB290008AC01310722791816
:1015700020000CF003FB4246B378934305D1F3708F
:101580007378B37033783270737003212278514BC3
:101590001700985C0140022900D17CE222704207CA
:1015A00005D403221040012801D01D3222700321EE
:1015B0006278985C17000140022900D164E26270F1
:1015C000420705D403221040012801D01D32627069
:1015D0000321A278985C17000140022900D14CE257
:1015E000A270420705D403221040012801D01D3209
:1015F000A2700321E278985C17000140022900D113
:1016000050E2E270420705D403221040012801D0C5
:101610001D32E27003212279985C170001400229F3
:1016200000D14DE22271420705D403221040012867
:1016300001D01D32227103216279985C17000140AC
:10164000022900D135E26271420705D4032210401D
:10165000012801D01D3262710421894660784F460D
:101660001A5CE57811408846AC462578A178029549
:101670005D5D5A5C3D400495454692462279002DB9
:101680002CD0032557463D40012D27D165462571B5
:101690002025029F25706271E170A07067705C1E4A
:1016A000A34621245D462C5D4D46254200D0BCE278
:1016B00044460394049CD346A046140062468C46DC
:1016C00001003800A227FF0026E0303FB5E6C04603
:1016D0002C2E0020551F01104D30002065465D5D09
:1016E0006479AB460425A94655464F463D400395CF
:1016F000049D002D00D0EAE14125029F6D42AA46DB
:10170000B946CA445546192D00D9B6E2373FFFB253
:10171000FD00AA465744BF004546002D00D036E2E2
:1017200041256D42A84680444546192D00D98FE2D7
:101730003738C0B2381887003F1803987F00002858
:1017400000D021E208004138C0B2192800D97DE25A
:101750003739C9B27F187900C919C8000918584625
:10176000400700D50CE260464138C0B2192800D9C4
:1017700076E260463738C0B20A39081841000918C5
:10178000C8000918985C400700D5F6E11000413800
:10179000C0B2192800D961E2373AD0B20A000A3A39
:1017A000121851008A18D1005218195D490700D546
:1017B000E0E121004139C9B2192900D94CE2373C96
:1017C000E1B230780A3A54181A5C520700D5CEE1DB
:1017D0000200413A192A00D93CE23738C0B2C100B0
:1017E00009188900091870781A5C520700D5BBE106
:1017F0000200413A192A00D926E23738C0B241180E
:10180000B678CA0052189B5D920052185B0700D54B
:10181000A7E13300413B192B00D913E2373EF6B262
:10182000DF4B96191B78DF4A5BB2964200D865E120
:10183000DD4A423394466644F2019E185EE4042178
:101840008946DA4B7878FC781A5C029411408C4611
:101850004C469D5DB978254064465A5CA846924640
:101860003A79002C05D0032455462C40012C00D198
:10187000E9E0029C55461C5D7F79A346042425407F
:101880004446A946002C00D036E141246442A046DB
:10189000B0444446192C00D9E8E1373EF6B2F400D2
:1018A000A0464644B6006446002C00D015E1412411
:1018B0006442A44684446446192C00D9B3E1373805
:1018C000C0B230188600361848467600002800D08E
:1018D00009E108004138C0B2192800D9A1E137391F
:1018E000C9B2761871008919C80009185846029CB7
:1018F000400700D5F4E020004138C0B2192800D9D3
:101900008DE1373CE4B20A3909194C006418E10052
:101910006418995C490700D5EBE011004139C9B260
:10192000192900D979E1373AD1B222000A3A52187E
:101930005400A218DB5DD40014195B0700D5D5E074
:101940003B00413BDBB2192B00D964E1373FFFB2CA
:10195000B42697490A3C0A78E419413A53079B1A7E
:101960009B009B1A8A785B009B1A4A78E333734387
:10197000413A9600B618CA7876009E19303AB218E5
:101980000026874BD2019E574036B618FFF7B6FBAC
:101990003038C0B23618B000861904987600002896
:1019A00001D1FFF750FB3039C9B27618710089199F
:1019B000C80009185846400701D4FFF757FB604696
:1019C0003038C0B2FFF75CFB303CE3B2FFF781FB7D
:1019D000303AD0B2FFF768FB039E303EFFF715FBAD
:1019E000744BFFF786FB303CE4B26CE5303AD2B280
:1019F00058E53039C9B245E56746303FFFB22EE5BC
:101A0000303EF6B270E5303CE3B2CDE459463039B1
:101A1000C9B2B6E449463039C9B29DE4059A303AB4
:101A2000D2B286E43039C9B271E444460494059CCC
:101A3000D346A046140062468C4601003000A22620
:101A4000F600FFF7E7FA029D1F343C707A713D7192
:101A5000F970B8707E7021275C1EE75D4C46D34656
:101A6000E146C4463C4200D0CDE002910100300086
:101A7000A2261700F6002A0015E7203FFD31203A84
:101A80000F40D2B2D85DABE5203FFD31203A0F4088
:101A9000D2B2D85D93E5203FFD31203A0F40D2B25B
:101AA000D85D7BE5203FFD31203A0F40D2B2D85DB2
:101AB000A7E5203FFD31203A0F40D2B2D85DC2E504
:101AC000203FFD31203A0F40D2B2D85DAAE5029FF7
:101AD000303F1CE63038FFF706FC3038C0B2F0E685
:101AE000303CE4B20FE73039C9B2FAE6303FFFB21A
:101AF0002EE7303AD1B218E7303ECFE6F20141335B
:101B00009E18FFF7FBFA5A4662714A46227120225C
:101B1000059D2270E570A170607021245A1E145D2D
:101B20004246224248D1039A0591904662460100FE
:101B3000A2200392049A5C469246CB46C000A94676
:101B4000FFF7D6FB2421FFF787FA2423FFF7C1FA1A
:101B50002420FFF76FFA2420FFF7A6FA2420FFF7CE
:101B60008FFA303EF6B25BE63038C0B247E6303826
:101B7000C0B234E6303CE1B223E6303AD0B20DE6F2
:101B800060463038C0B2F7E53039C9B2E2E53038E6
:101B9000C0B2CFE5242496E4242283E42426A3E4DF
:101BA0004D300020FF7F00000080FFFF551F011017
:101BB0002C2E002000433500039A5C469046624676
:101BC0000392049ACB469246059A0591010087201C
:101BD00091468001FFF78CFB242153E424273EE447
:101BE000A225ED00A8462EE42423FFF7DDFB2421E7
:101BF000FFF7C7FB2421FFF7AFFB2422FFF799FB78
:101C00002421FFF784FB1700029A029101003000A3
:101C10008726B60147E624279AE6242185E6242470
:101C200071E624215DE624204BE644468727039491
:101C3000049CD346A046BF01140062468C460100B6
:101C4000029869E52426EBE52420D8E5242181E5E6
:101C500024206FE52420C2E52421B2E524209DE55F
:101C6000242089E5A220C000FFF742FBA226F6004F
:101C700019E6A226F600FFF7CDF9A227FF004BE5F3
:101C8000F0B5DE4657464E464546E0B50D00E1B09C
:101C9000010006009B4608A86AAB1C7817000BF0F1
:101CA000FDFE290003A80BF0F9FE8D4B1C60032CF0
:101CB00000D9F5E03A0003A908A8FEF763FF05A8DC
:101CC000FFF7ACF802AA1723944663449846002114
:101CD000002505A8037800269C466346B3400122F0
:101CE00000248946DB1113406D001D437D4B1F32DC
:101CF0002B400121013A1940D2B24C405B08002A26
:101D0000F7D1494660AB5B18513BFF3B1C70764BEB
:101D10000F002B40994620234C1CE4B20190494609
:101D2000012001404A404946013B4908DBB289464F
:101D3000002BF4D1390060AFB9464C44513C02311C
:101D4000FF3CC9B201982270A12902D80136082EA1
:101D5000C3D101308045BDD136AA002101920127AF
:101D60004026022540E080246442A04601344022FF
:101D7000FF34C020A44652420D4201D14246604683
:101D80004C0703D52020024352B2D0B20C0703D532
:101D90001020024352B2D0B2CC0603D50820024331
:101DA00052B2D0B28C0603D50420024352B2D0B254
:101DB0000E4203D00220024352B2D0B2CC0902D06C
:101DC00001201043C0B2A12808D860AAD218513A05
:101DD000FF3A1278019C01332254DBB2A12B0CD8BC
:101DE0000131C9B2FF2908D03A000A409446BAD15D
:101DF000002440204022A046BEE7019EA2223100DE
:101E00000CA808F039F8A2223849300008F034F85C
:101E10005B465B0751D134AB9C46354B58469946DF
:101E200034490CAD2B6832680B4034685B000A40C3
:101E300090461A0063404C460A4023406F68424473
:101E40005A4073680F4074687F000B4098463B000F
:101E500067404C460B40434427405F4008350260D2
:101E60004760083608306545DCD12820A02202AB47
:101E7000019C1B189B5CA15C5B005B1859468B5452
:101E800002AB01321B189B5CA15C5B005B185946DE
:101E90008B5461B03CBC90469946A246AB46F0BD1F
:101EA0003100154808F080FA28000BF0FFFD2900EA
:101EB0000200124808F078FAFCE602AA9446594655
:101EC0002725CF240123013965446444EA5CE05CA2
:101ED00052001218CA540133A32BF7D1D9E7C046D8
:101EE000382800205153D0F2473C61E454060110D9
:101EF000808080807F7F7F7FF806011010070110AF
:101F00000B68F0B5DE469B461368D74A57469446A1
:101F10004E4645466344E0B504005B44820743D126
:101F20005A46180019000C2A39D91A25A846023D2C
:101F3000AC460B3D1C221027AA4665684646A946BA
:101F4000A5684944A946256848442D1AA9460500B4
:101F5000D5414B446B401D00F5410818C91A694032
:101F60000D006646F5411B18401A68400500FD410A
:101F7000C9181B1A6B401D005646F5414018C91A76
:101F800069400D00D5411B18401A68400C256D4270
:101F9000A946CB445D46C9180C340C2DCDD85A4601
:101FA0009500B24A52599746C2074FD45A46180074
:101FB00019000C2A45D91A25A846023D1C22AC4618
:101FC0001027E58846462D04A946A588AA466589B6
:101FD000D1442D044944A9462589AA466588D1449F
:101FE0002D044844A94625880C34AA46D1444D46C0
:101FF0002D1AA9460500D5414B446B401D00F54103
:102000000818C91A69400D006646F5411B18401AA8
:1020100068400500FD41C9181B1A6B401D000D26C4
:10202000F5414018C91A69400D00D5411B18401AE6
:1020300068400C256D42A946CB445D46C9180C2D5D
:10204000BFD85A4695008A4A525997465A461800B0
:1020500019000C2A5DD91A25A846023D1C22AC465F
:102060001027657946462D02A946A5792D04AA4672
:102070002579D144AA46E579D1442D06AA46657A48
:10208000D1442D024944A946A57A2D04AA46257AB1
:10209000D144AA46E57AD1442D06AA466578D144B2
:1020A0002D024844A946A5782D04AA462578D14496
:1020B000AA46E578D1442D06AA46D1444D462D1AAC
:1020C000A9460500D5414B446B401D00F541081859
:1020D000C91A69400D006646F5411B18401A684050
:1020E0000500FD41C9181B1A6B401D000D26F54166
:1020F0004018C91A69400D00D5411B18401A6840A4
:102100000C256D42A946CB445D46C9180C340C2DF4
:10211000A7D85A469500574A52599746E27A12066E
:102120008018A27A12048018627A12028018227A29
:102130008018E27912068918A27912048918627946
:102140001202891822798918E27812069B18A2785F
:1021500012049B18627812029B182278D31812225C
:102160000C00D4414840001B05001524E5414340C4
:102170005B1B07241D00E5415940491B10240D003D
:10218000E5414840401B05001C24E54143405B1BE2
:102190005940D3410A3ACB1A5840D341C01A3CBCEB
:1021A00090469946A246AB46F0BDA268944660446C
:1021B00062689446226861449B18D0E7A2781204B2
:1021C0009B182288D318CAE7227989182588ED1828
:1021D00063881B045B19C2E7227A8018A288511811
:1021E000E28812048918F1E7A288891822689B18EE
:1021F000B5E7227A8018DBE722898018D8E7A26841
:102200001202120A8018D3E722681202120AD318A7
:10221000A5E722689B18A2E762681202120A8918D1
:1022200022689B189BE72279891822689B1896E7F9
:10223000A27912048918A2888918C7E7A27A120421
:10224000801822898018C9E722891018628912042F
:102250001018A2885118E288120451182288D21846
:1022600063881B049B187AE7EFBEADDE0C080110F3
:102270004008011074080110F0B5DE464546574687
:102280004E46E0B51F006B4B9BB0984604000D0016
:1022900016001900282206A807F0EEFD4146282264
:1022A000283110A807F0E8FD0022634B3000390008
:1022B00006F034FE614B06000F00200029000022CA
:1022C00006F02CFE249B0400013B0D00092B00D9D5
:1022D000A6E0249B5B109B4600D1A8E006AB9A4683
:1022E000574B05939946002398463AE0002A67D059
:1022F000009A019B3000390006F019FE06F0C4FE7A
:10230000172800DD8AE04130C0B24B462900187022
:10231000029A039B200006F00AFE06F0B5FE17287D
:1023200000DD79E04130C0B24B465870009A019B05
:102330003000390007F01EF8029A039B06000F00D8
:102340002000290007F016F801239C460733E044DB
:102350009C46063BE2449C4604000D00E144D845FF
:102360004BDA53461A685B680092019310AA434601
:102370009446DB0063441A685B680292039301236E
:1023800042461342B2D0009A019B3000390006F059
:10239000CEFD00222B4B06F0C1FD06F099FE4B4608
:1023A00029001870029A039B200006F0C0FD254BFF
:1023B000002206F0B3FD06F08BFE4B465870B5E7E1
:1023C000069A079B3000390006F0B1FD06F05CFE6E
:1023D00017282ADC4130C0B2059B29001870109ADA
:1023E000119B200006F0A3FD06F04EFE17281ADC14
:1023F0004130C0B2059B587098E75B465B009B4636
:10240000059A00235946100053541BB03CBC90461B
:102410009946A246AB46F0BD582085E7582074E7A0
:1024200003239B465AE75820E4E75820D4E7044B9F
:102430000593E5E7A808011000806640008056403B
:10244000342E002000004840F8B5DE4657464E4680
:102450004546E0B51E000DAB1D780EAB1B788246DD
:1024600098460FAB1B7889469B46431E9841C0B2E5
:102470001700FDF76FFF4846431E9841C0B2FDF7B5
:1024800069FF3000431E9841C0B2FDF763FFA421ED
:102490000120490007F0C2FC0400431E9841C0B26D
:1024A000FDF758FF0C22514620000BF067FB20007F
:1024B000072249460C300BF061FB320000213C48FA
:1024C0008A26E774FEF70AFB7600A051431E984166
:1024D000C0B2FDF73FFF0B990A9B8C46A25963449B
:1024E00093518C2300270C995B00D15031480BF09D
:1024F000BFF9314B314E1F60314B2822FF21300094
:102500001F6007F0B3FC9E232E4A5B00E7500433A4
:10251000E2502D4B1F604346FD2B3DD00122AB0006
:10252000F250A81C0A2106F08DFA0223890073508C
:10253000109B1B782D2B06D0281D0A2106F082FA4D
:10254000052389007350109B9B782D2B06D0A81D66
:102550000A2106F077FA0623890073505B46FD2BAB
:102560000ED0A81D0A2106F06DFA03232800890069
:10257000735008300A2106F065FA0423890073506D
:102580000023124A20001360114A13603CBC90469D
:102590009946A246AB46F8BD5B46FD2B04D003220C
:1025A000AB00F250A81CE5E70323AD007351E7E749
:1025B000AB6A0A00050D000050280020A42F00205F
:1025C000942400209F860100402F00204C280020EA
:1025D0002C300020F0B5D6464F464646C0B5804662
:1025E00082B0080016009A46894606F031FD0400C4
:1025F0000D004046664906F04DFA06F029FD654B90
:10260000002206F08BFC06F063FDC0B20300604FB1
:10261000303B5F434346DF1B392800D90730A921EF
:1026200030708900380006F035FA06F011FD0022FE
:10263000594B06F073FC06F04BFDA923C0B29B007A
:102640007070413858433F1A1A21380006F022FAB8
:1026500006F0FEFC0022504B06F060FC06F038FD50
:102660001A23C0B2B070413858433F1A4137002294
:102670004A4BF7702000290006F059FC06F032FEA4
:102680000022454B06F04AFC06F022FD444BC0B246
:1026900030714138584306F0DFFC02000B00200087
:1026A000290006F032FC00223E4B04000D0006F02B
:1026B0003EFC06F017FE0022374B06F02FFC06F01A
:1026C00007FDC3B27371413B5800C0184001C01AE6
:1026D0008300C01806F0C0FC02000B002000290097
:1026E00006F013FC0022304B04000D0006F01FFC26
:1026F00006F0F8FD0022274B06F010FC06F0E8FC7F
:10270000C0B2B071303806F0A7FC0022264B06F0AC
:102710002CFC02000B002000290006F0F6FB002232
:10272000224B04000D0006F002FC06F0DBFD002247
:10273000184B06F0F3FB06F0CBFCC0B2F07130385A
:1027400006F08AFC0022194B06F00FFC02000B0079
:102750002000290006F0D9FB0022154B06F005FCED
:1027600006F070FD06F090FC5246124B41461B5C91
:102770001148137000934A46330007F015FE0023FA
:10278000337202B01CBC90469946A246F0BDC046CA
:10279000A8440000000048400040504000B3C04042
:1027A0006621000000B07D4000C04740000013409B
:1027B00000001040E40B0110A40B0110F0B54546D9
:1027C000DE4657464E460400431E9841E0B5C0B26F
:1027D0008BB00D00FDF7BEFD012D00D1EAE2022D08
:1027E00000D0EBE02025FF3563579846022B00DD33
:1027F000A4E38A235B00E258043BD358DB6C9A467F
:10280000A02352465B00D05807F090FA00225F4B9D
:1028100006F08DFB06F016FD5D4B1D785D4B413DCE
:10282000EDB26A0052191D78D200413D5A4BEDB20B
:10283000AD185D4306F04CFC80B245191A21280002
:1028400006F028F92800CEB21A2106F023F91A2141
:1028500006F020F9CFB2A9212800890006F01AF964
:102860001A2106F017F92800CBB24C49994606F018
:1028700011F9242106F00EF9CBB2092900D824E37E
:102880003733DBB21C2206ADFF32A25C49466B70C7
:102890008E232A7041315B00E35CE9702100AB704C
:1028A0000023213141374136FF312F716E71994636
:1028B00008684968AB710022394B06F056FB0022CC
:1028C000384B06F022FB0022374B06F030FB06F0B7
:1028D000B9FC8F235B000600E0560F0006F0BCFB3E
:1028E0000022324B06F01AFB06F0F2FBC0B2810068
:1028F0000818C300390030009B4606F0E9FBC0B25F
:102900001430282106F09EF82A2653465944714374
:102910005E7C08AF71181E7C49007618760001367F
:102920002349300006F0B6F8122106F0B3F8413121
:10293000397030001F4906F0ADF8122106F0AAF8F0
:10294000413179703000BE2106F0A4F80A2106F06A
:10295000A1F83031B9703000132106F09BF80A213C
:1029600006F098F84B463031F9703B713000132176
:1029700006F090F8104B14345A564346DBB20093DD
:10298000390023002800FFF77BF934E200003440CF
:1029900047300020483000202C040000A8440000EC
:1029A0000000594000C0724000001440000049403F
:1029B000988500006C070000E40B0110032D00D087
:1029C00021E22023FF33E356022B00DDB2E28D2704
:1029D0007F00E35DFD2B00D18DE2CF4B21009B46B4
:1029E00018000AF0CDFF5B460222CC49C61A07F058
:1029F00043FAE35D08A930330B700023701C584480
:102A00004B700BF04BF88A235B00E258043BD35821
:102A1000C349DA6CA0235B00D658301C07F016F9C6
:102A2000002800D054E20023002798469A46BD496A
:102A3000301C07F00BF9002803D0072398469A466C
:102A4000B84FB949301C07F001F9002803D00A2318
:102A500098469A46B44FB549301C07F0F7F800285D
:102A600003D00D2398469A46B04FB149301C07F069
:102A7000EDF8002803D0112398469A46AC4FAD4993
:102A8000301C07F0E3F8002803D0142398469A4638
:102A9000A84FA949301C07F0D9F8002803D0172304
:102AA00098469A46A44FA549301C07F0CFF8002855
:102AB00003D01B2398469A46A04FA149301C07F02B
:102AC000C5F8002803D01E2398469A469C4F9D497E
:102AD000301C07F0BBF8002803D0212398469A4603
:102AE000984F9949301C07F0B1F8002803D02523EE
:102AF00098469A46944F9549301C07F0A7F800284D
:102B000003D0282398469A46904F9149301C07F0ED
:102B10009DF8002803D02B2398469A468C4F8D4968
:102B2000301C07F093F8002803D02F2398469A46CC
:102B3000884F8949301C07F089F8002803D03223D8
:102B400098469A46844F8549301C07F07FF8002844
:102B500003D0352398469A46804F8149301C07F0B0
:102B600075F8002803D0392398469A467C4F7D4952
:102B7000301C07F06BF8002803D03C2398469A4697
:102B8000784F391C301C07F002F87749071C07F012
:102B90005DF8764B9946002800D0C7E100251870F3
:102BA0007349381C07F052F8002803D007234A461F
:102BB000072513706F49381C07F048F8002803D028
:102BC0000A234A460A2513706B49381C07F03EF861
:102BD000002803D00D234A460D2513706749381C81
:102BE00007F034F8002803D011234A46112513704A
:102BF0006349381C07F02AF8002803D014234A46FA
:102C0000142513705F49381C07F020F8002803D002
:102C100017234A46172513705B49381C07F016F82E
:102C2000002803D01B234A461B2513705749381C24
:102C300007F00CF8002803D01E234A461E25137007
:102C40005349381C07F002F8002803D021234A46D4
:102C5000212513704F49381C06F0F8FF002803D0D7
:102C600025234A46252513704B49381C06F0EEFFF4
:102C7000002803D028234A46282513704749381CCA
:102C800006F0E4FF002803D02B234A462B251370BF
:102C90004349381C06F0DAFF002803D02F234A46A8
:102CA0002F2513703F49381C06F0D0FF002803D0B1
:102CB00032234A46322513703B49381C06F0C6FFC2
:102CC000002803D035234A46352513703749381C70
:102CD00006F0BCFF002803D039234A46392513707B
:102CE0003349381C06F0B2FF002803D03C234A4683
:102CF0003C2513702027FF37E257022A00DD23E12D
:102D000023002100D2B2009214330C3142465846BF
:102D1000FEF7B6FF6FE0C046A42400205009011062
:102D2000000061440040034500803B4500C07345FE
:102D300000609F450080BB4500A0D7450020FD45B1
:102D400000A00C4600B01A4600702D4600803B469D
:102D50000090494600505C4600606A460070784624
:102D60000098854600A08C46000070424330002049
:102D700000000C4300004843000082430000AA43C7
:102D80000000C8430000E64300000744000016446A
:102D90000000254400003944000048440000574426
:102DA00000006B4400007A440080844400808E441C
:102DB000000096440A232026E374FF36A5570A270D
:102DC000022D00DDABE0210008AE0C310422300002
:102DD0000AF0D4FE002333712300EDB214333A001D
:102DE000009531002000FEF74BFF227C5D4B1A70EE
:102DF000627C5D4B1A7000200BB03CBC904699463B
:102E0000A246AB46F0BD042D24D12023FF33E35668
:102E1000022B00DD7FE03C2306AA13803E22534DA7
:102E200008AE2B70681C524932800AF0A9FD3100AF
:102E3000022207F021F82020230021004D4AFF3014
:102E4000205C12781433009052B20C312800FEF747
:102E500017FFD0E76B1F012BCDD82023FF33E3569C
:102E6000022B44DC052D38D09A235B00E75804334D
:102E7000E3584148984607F0B5F90F2608AD6E446F
:102E800033002A0041463800FFF7A4FB1C23FF3320
:102E9000E35C06A803702B7804A943708E235B00C3
:102EA000E35C002283706B78C3706B88202583807D
:102EB000099BFF35049300230B712300645DB25618
:102EC00014330094FEF7DCFE95E73033DBB2D9E42F
:102ED00003232A4F9A469846A9E596235B00E758B4
:102EE0000433E3582648984607F07CF9C5E725489F
:102EF00007F078F9B6E71E4B210018009B460AF050
:102F00003FFD00210AF0CAFD2023FF33E256163BA5
:102F1000FF3B9846F4E61C4807F064F97BE713276B
:102F20001A4807F05FF9E757A5574CE703234A46CD
:102F3000137035E6164807F055F948E5154807F0CF
:102F400051F96357984654E4301C06F0EFFE0B002D
:102F500051460200019500910F4807F025FAE2570B
:102F6000CEE6C04647300020483000200C3000201C
:102F7000A424002043300020D00901100000614447
:102F8000BC090110A40901107C090110F808011006
:102F9000280901101009011054090110F0B5DE468E
:102FA00057464E464546E0B50600731E9E41F3B2B5
:102FB00083B0040018000193FDF7CCF98A235B006D
:102FC000E258043BD358DB6C9F6A1D7C03F028F861
:102FD000002900D182E0FA220023920005F098FD3A
:102FE000BA4905F057FD9E235B00E050B84B1A68C4
:102FF000AA4200D18DE01D60002D00D073E0B548DD
:10300000A0235B00E050283BE35C002B00D0ECE009
:10301000002F00D128E18A235B009A46043B9946A1
:1030200053464A46E3589B589846002D11D1202319
:10303000FF33E356002B0CDD43469A6D1A23FF3312
:10304000E15CA54800F03EFA53464A46E3589B58D7
:1030500098464346DB6C9B7C190099469F4B303960
:103060009B4619609E4B9A4652468B00D258501C84
:1030700056D09C480068002809D0002A07DD9A48ED
:103080001E58002E03D1994E3668002E68D1984BF9
:1030900099464B461B68002D02D10422002B02D119
:1030A0000133ED18EAB21A23FF33E254914B1A6848
:1030B000BA4225D1904B1E685F6802F0B1FF801BB9
:1030C000B941002916D18D4B984213D8002003B086
:1030D0003CBC90469946A246AB46F0BDFA21890019
:1030E00005F0D8FC7CE7864B1860002001227F4B5E
:1030F0001A6085E71A230022FF33E2540020E6E736
:103100001F6002F08DFF06000F007B4B1E605F60AA
:10311000D3E7002D00D172E7794B1B68C01AE5E7B1
:1031200029320021704806F0A1FE01226D4B1A6081
:1031300094235B00E356002BA9D048460A21273888
:1031400005F080FC534689005B5801339FD1684BE2
:103150004046994600234A461360FDF761FA98E716
:1031600001261E502023FF33E356022B33DC40465A
:10317000FDF744FA5E4B8A26994601234A461360BE
:103180005B4652461B6820009B00D158FFF716FB98
:103190003220760002F05CFE0198FDF7DBF8A059C2
:1031A000431E9841C0B2FDF7D5F8A35955489B5925
:1031B000984280414042FDF7CDF8A059FDF7DEFC72
:1031C0002100A059A2220F30143106F055FEA22290
:1031D000A3595A735DE74C4807F0E6F88A235B0071
:1031E000E258043BD3589846C1E7484B98461B68C1
:1031F000002B48D1464800F065F91A2304228A259D
:10320000FF336D00E2546259093BD058FDF7F6F9DF
:10321000642002F01DFE0198FDF79CF86059431EE2
:103220009841C0B2FDF796F8635936485B59984209
:1032300080414042FDF78EF86059FDF79FFC210068
:1032400060591431A2220F3006F016FEA2226359F3
:103250005A7302F0E5FE2F4B424618605960012375
:1032600001201360404232E72023FF33E356002B56
:1032700002DD294800F026F91A2300220120FF333D
:10328000E254404223E7234B1E685F6802F0C8FE09
:10329000801BB941002905D1204B984202D801205A
:1032A000404214E70023424613601533FF33E258CF
:1032B000043BD058FDF7B4F9194806F093FFFA2003
:1032C000C00002F0C5FD0120404200E760EA0000B6
:1032D000942400209F8601001C0B01109C290020D3
:1032E000A42F002050280020542F00204C2800201C
:1032F0002C3000208C2F0020D8230020C0C62D00A9
:10330000402F002020A10700600B01101C2A002084
:103310005C0A0110D0230020CC0A0110000E270700
:10332000840A0110F0B504008A25431E984183B039
:103330006D00C0B2FDF70EF860598826431E984113
:10334000C0B2FDF707F8635976009859431E9841BB
:10335000C0B2FCF7FFFF63599B59D86C431E9841DC
:10336000C0B2FCF7F7FF63599B59DC6C206A616AB5
:1033700005F0C6FE0A4A0B4B05F0F7FD06000F00EC
:10338000A069E16905F0BCFE054A064B05F0EDFDBC
:103390000623320000933B00FEF76EFF03B0F0BD42
:1033A00048AFBC9AF2D77A3E70B504008A25431E16
:1033B00098416D00C0B2FCF7CDFF60598826431ECE
:1033C0009841C0B2FCF7C6FF1F4B2048DA689B68E3
:1033D00000F078F8635976009B591D48DB6C1A6B36
:1033E0005B6B00F06FF81A23FF33E15C194800F0C3
:1033F00069F82000FFF796FF0100174800F062F817
:10340000635916489B59DB6C9A69DB6900F05AF8DE
:10341000635913489B59DB6C1A6A5B6A00F052F8D7
:1034200063599B59DA6CA0235B00D05806F07EFCF0
:1034300002000B000B4800F045F80B4B0B481968D5
:1034400000F040F870BDC04600400540E40901109E
:10345000F8090110040A0110140A0110200A0110D1
:103460002C0A0110380A01109C290020480A01107A
:1034700070B504008A25431E98416D00C0B2FCF768
:1034800069FF60598826431E9841C0B2FCF762FF6D
:10349000635976009859431E9841C0B2FCF75AFF11
:1034A00063599B59D86C431E9841C0B2FCF752FF38
:1034B00063599B59DB6C187C013843425841C0B2B8
:1034C00070BDC0460FB4F0B54646D6464F46C0B5AF
:1034D0004B4BE0B098461B68002B00D18DE002F00A
:1034E0009FFD484A142304000D0005F011FB100055
:1034F0001900454A00230A900B9105F009FB089238
:10350000099308980999414A002305F001FB10002E
:1035100019003F4A00230C900D9105F0F9FA43463B
:1035200041461B6881469A4601330B60354A142395
:103530002000290005F0ECFA804648460021C50E1F
:103540004401241A8D4153460693E30D9C4666467A
:103550006B023343620212184B41940EA446664636
:103560009D0135439401A41A9D410C9A0D9B24188A
:103570004D41121BAB4102900492059308980999A2
:10358000224A002305F0C4FA1F4A019000230A983A
:103590000B9905F0BDFA434600901E4A402110A841
:1035A00005F0B0F9802169AB689A490020A80F9313
:1035B00005F0BCF9184CFF2520000AF077FA10A995
:1035C0002A1A20000AF0A6FA20000AF06FFA20A9B1
:1035D0002A1A20000AF09EFA20000AF067FA0F4922
:1035E0002A1A20000AF096FA60B01CBC9046994650
:1035F000A246F0BC08BC04B0184706F0E1FE6EE736
:10360000A02F00200060D71D00A493D6008793034D
:1036100040420F00F80B0110402E00201815011039
:1036200010B5064C2378002B00D110BD21000448B2
:1036300006F0BAFE00232370F7E7C046402E0020B4
:1036400014050110F8B5DE4657464E4645468A46F3
:10365000E0B501001F48914606F0A6FE1E4D00246D
:103660002B686826986809F08FFB1C4B1C4F984606
:103670000CE0082812D03B5CB34303D04B46013B1F
:10368000A3421EDC2B68986809F07EFB06F09CFEC6
:103690000A280AD00D2808D07F28EAD1002CF1D0C2
:1036A0004046013C06F080FEECE7524600230A202B
:1036B000135506F04BFD3CBC90469946A246AB46DE
:1036C000F8BD631C9B465346185506F03FFD5C460B
:1036D000D8E7C04614050110E0180020540C011072
:1036E000551F011000B587B005AB04AA03A90B480C
:1036F00001F0A0FA002803D10849094803F0A6FD0B
:10370000059A0499039801F059FA064B0122009397
:103710000021062003F0D6F907B000BD38C1010032
:10372000200C0110C0C2DA0670B5194E8A25306827
:103730006D00431E9841C0B2FCF70CFE33685A5925
:1037400088235B00D4582000431E9841C0B2FCF788
:1037500001FE336820005A598C235B00D1580D4A72
:10376000FCF710FE43425841C0B2FCF7F3FD33684A
:1037700000225B5920005959FCF7B2FE43425841E0
:10378000C0B2FCF7E7FD20000CF016FE70BDC0468D
:1037900054300020C0C2DA06504BF0B51B684546D5
:1037A000984610234E4699464D4B5746DE469A465C
:1037B000E023E0B54B4FDB013D009B464A4E4B4CAE
:1037C00083B0B9443378303BDBB2052B23D8524663
:1037D0009B00D3589F46C0222368920153405A460B
:1037E0001340434A13600422424B1A60FC322368A0
:1037F0001342FCD0606880B206F039FA3E4906F008
:10380000E0F93E4906F0DDF906F090FA05F01AFD00
:1038100005F05EFC2860043501364D45D2D1962373
:1038200045463C6878685B00EC50B9680433E85062
:10383000FA680433E9500433EA5003B03CBC9046C4
:103840009946A246AB46F0BD802322689B015340B7
:103850005A461340264A13600422264B1A60FC3253
:1038600023681342FCD0606880B206F000FA224957
:10387000C8E7802322685B0153405A4613401C4A24
:10388000136004221B4B1A60FC3223681342FCD0E5
:10389000606880B206F0EBF91749B3E75A4623682F
:1038A0001340134A13600422124B1A60FC3223683F
:1038B0001342FCD0606880B206F0D9F90E49A1E746
:1038C0009E22434652009B5801932B60A3E7A022FF
:1038D000434652009B5801932B609CE754300020D4
:1038E000580C0110FC2F00208030002000C0044044
:1038F00000D0044000E0044000404E3F0000404043
:1039000010B51D4C200006F04FFD1C4806F04CFD84
:103910001B4806F049FD1B4806F064FC1A4806F0F7
:1039200061FC1A4806F040FD194A1A491A4806F087
:103930003BFD1A4806F038FD194806F053FC1948BB
:1039400006F050FC184806F04DFC184806F04AFCFA
:10395000174806F047FC174806F026FD164806F003
:1039600023FD164806F020FD154806F06BFD2000EB
:1039700006F01AFD10BDC0467C110110D00D0110DB
:1039800084110110D40D0110E00D011094110110EB
:10399000340E0110400E01104C0E0110B411011034
:1039A000880E0110D00E0110040F0110500F0110ED
:1039B000DC0F01103010011038100110C41101107B
:1039C00000879303F8B5224F380006F0EDFC21483C
:1039D00006F008FC204E300006F0E6FC1F4806F01A
:1039E00001FC1F4D280006F0DFFC1E4C200006F0F5
:1039F000DBFC1D4806F0F6FB1C4806F0F3FB1C48F8
:103A000006F0F0FB1B4806F0EDFB1B4806F0EAFB56
:103A1000380006F0C9FC300006F0C6FC174806F076
:103A2000E1FB280006F0C0FC200006F0BDFC1448B5
:103A300006F0D8FB134806F0D5FB134806F0D2FB7E
:103A4000124806F0CFFB124806F0CCFBF8BDC0468A
:103A500084110110DC0D011094110110CC11011022
:103A6000B4110110C4110110E8110110301201103D
:103A700068120110B0120110E81201105013011069
:103A80006013011094130110D013011008140110D9
:103A900034140110F0B5C646802500B5334806F051
:103AA00083FC334806F080FC324806F07DFC324847
:103AB00006F07AFC314806F095FB314806F074FCBC
:103AC000304806F071FC304B002498462F4F0F26EB
:103AD0006D0005E02020013406F038FBAC420DD02B
:103AE000E15D404606F060FC330023400F2BF1D12E
:103AF0000A20013406F02AFBAC42F1D1244806F03A
:103B000053FC0622214923480AF038F802222249B0
:103B100022480AF033F80122214922480AF02EF8FF
:103B20000122214921480AF029F80122204921488F
:103B30000AF024F80122204920480AF01FF8012247
:103B40001F4920480AF01AF801221F491F480AF0AD
:103B500015F804221E491F480AF010F801221E49D8
:103B60001E480AF00BF804BC9046F0BD7C11011011
:103B7000841101108C110110941101109C1101107D
:103B8000AC110110B4110110BC110110000004109F
:103B9000C4110110703000200600041058300020BD
:103BA000080004107C300020090004106830002058
:103BB0000A000410603000200B0004105C3000206C
:103BC0000C0004106C3000200D0004106430002044
:103BD0000E000410803000201200041088300020F5
:103BE00030B5C1B006222649684609F0C7FF6B46CA
:103BF0000222981D234909F0C1FF0122224902A88F
:103C000009F0BCFF092001222049684409F0B6FFF1
:103C10000A2001221E49684409F0B0FF0B2001224E
:103C20001C49684409F0AAFF01221B4903A809F0B6
:103C3000A5FF0D2001221949684409F09FFF0E20BD
:103C400004221749684409F099FF122001221549FE
:103C5000684409F093FFEFF3108572B68024802149
:103C6000E402200049010CF0C7FB802269465200A3
:103C700020000CF0A9FB85F3108841B030BDC04690
:103C800070300020583000207C3000206830002048
:103C9000603000205C3000206C3000206430002058
:103CA000803000208830002010B5434803781A0087
:103CB000413A192A03D9303B092B00D974E03F4A15
:103CC0001378303B092B56D83D4803781A00303A18
:103CD000012A03D9512B01D02D2B58D1394A137801
:103CE000303BDBB2082B2FD85621FF31D940CB0710
:103CF0002AD5354A1378313B032B2ED8334A137813
:103D0000303B092B32D8324A1378303B012B03D990
:103D100031231370FFF764FF2E4A1378303B012BD9
:103D200003D930231370FFF75BFF2B480378303B38
:103D3000162B25D8294A1378303B012B03D9302381
:103D40001370FFF74DFF10BD30231370FFF748FFCE
:103D50001D4A1378313B032BD0D932231370FFF760
:103D60003FFF1A4A1378303B092BCCD9312313700B
:103D7000FFF736FFC7E72D231370FFF731FFA3E7E7
:103D80000422174906F078F8FFF72AFFD2E702224B
:103D9000144906F071F8FFF723FF0A4A1378303B05
:103DA000DBB2082BD0D89FE706220F4906F064F853
:103DB000FFF716FF83E7C046703000206030002018
:103DC000583000207C300020683000205C3000201B
:103DD0006C300020643000208030002088300020CB
:103DE000C80D0110C40D0110BC0D01102F4B012096
:103DF0001B781A00413A192A02D9303B092B4FD8B7
:103E00002B4B1B781A00303A092A03D92D2B01D0ED
:103E100001204042274B1B781A00303A012A05D96D
:103E2000512B03D02D2B01D001204042224B1B7877
:103E3000303BDBB2082B30D85622FF32DA40D307B2
:103E40002BD51E4B1B78313B032B01D9012040425F
:103E50001B4B1B78303B092B01D901204042194BE9
:103E60001B78303B012B01D901204042164B1B78B7
:103E7000303B012B01D901204042144B1B781A0022
:103E8000303A162A03D92D2B01D001204042104B85
:103E90001B78303B012B05D8704701204042D0E70A
:103EA0000238ADE701204042F6E7C04670300020FE
:103EB00060300020583000207C3000206830002026
:103EC0005C3000206C300020643000208030002006
:103ED00088300020F8B5364806F066FA354F3800CD
:103EE00006F062FA344E300006F05EFA334806F00F
:103EF00079F9334D280006F057FA324C200006F0CD
:103F000053FA3149314806F04FFA3149314806F049
:103F10004BFA3149314806F047FA3149314806F049
:103F200043FA3149314806F03FFA3149314806F049
:103F30003BFA3149314806F037FA3149314806F049
:103F400033FA3149314806F02FFA3149314806F049
:103F50002BFA380006F028FA300006F025FA2E4831
:103F600006F022FA280006F01FFA200006F01CFADC
:103F70002A4806F019FA2A4806F016FA294806F0E7
:103F800013FA294806F010FA284806F00DFA2848D6
:103F900006F00AFA274806F007FA274806F004FA5E
:103FA000264806F001FA264806F01CF9F8BDC0467E
:103FB0007C1101109411011084110110541401108E
:103FC000B4110110C41101107030002068140110E8
:103FD0006030002078140110583000208414011043
:103FE0007C30002090140110683000209C140110D7
:103FF0005C300020A81401106C300020B8140110AF
:1040000064300020CC14011080300020E81401102E
:1040100088300020FC1401101C150110301501100F
:1040200078150110C4150110101601107816011032
:10403000B4160110E8160110101701102417011012
:1040400044170110A64BF0B51A680123DE46574607
:104050004E464546D0249340E0B5240683B0642004
:10406000A36101F0F5FE80239B046361FFF748FC28
:10407000FFF730FF9B4B9C4F9B469C4B9C4E9A46B8
:104080009C4B99469C4B9846584606F08DF95046F5
:1040900006F08AF9484606F087F9404606F084F9AA
:1040A000380006F081F9954806F0CCF9FF25054067
:1040B000C4B22900300006F077F9FF2C00D100E1EE
:1040C0005A2C02D9203CE4B225000A3CE4B24E2C22
:1040D0001AD88B4BA4001B599F46022289498A4853
:1040E000FFF7B0FAFFF77CFDFFF7DEFDFFF7F2FE0A
:1040F000CAE7864806F058F9854806F055F90121C7
:10410000642002F04DFFFEE7804806F04DF92A00DA
:104110002900804806F048F9FA20C00001F098FE16
:10412000FFF7C2FDFFF7D6FEAEE702227A497B48D1
:10413000FFF788FAFFF754FDFFF7B6FDFFF7CAFE59
:10414000A2E7FFF73FFC052275497648FFF77AFAA8
:10415000FFF746FDFFF7A8FDFFF7BCFE94E702223C
:1041600071497248FFF76EFAFFF73AFDFFF79CFDC1
:10417000FFF7B0FE88E702226D496E48FFF762FA4A
:10418000FFF72EFDFFF790FDFFF7A4FE7CE702226C
:1041900069496A48FFF756FAFFF722FDFFF784FDE9
:1041A000FFF798FE70E7022265496648FFF74AFA72
:1041B000FFF716FDFFF778FDFFF78CFE64E7624C12
:1041C000032221006148FFF73DFA2278002A89D0B6
:1041D000230003245E49885C2040022809D01A701D
:1041E00001331A78002A00D17CE7885C204002283D
:1041F000F5D1203A1A7001331A78002AEBD171E711
:10420000544806F0D1F8072269465348FFF71AFAD6
:10421000684608F0A7FC04F0ABFF0021041C05F081
:10422000FFFC002800D05FE7201C05F07FFD0200A6
:104230000B004A4806F0B8F8494B4A49201C8A2628
:104240001D6805F0BEFC05F06BFD8C230122760095
:10425000AF595B00B851EA5403B03CBC9046994654
:10426000A246AB46F0BD404C072221003F48FFF775
:10427000E9F92278002A00D134E7230003243449E5
:10428000885C2040022809D01A7001331A78002A6D
:1042900000D127E7885C20400228F5D1203A1A7027
:1042A00001331A78002AEBD11CE702223049314849
:1042B000FFF7C8F9FFF794FCFFF7F6FCFFF70AFEDB
:1042C000E2E6124806F070F82B4805F08BFF6420F8
:1042D00001F0BEFD0121642002F062FEFEE7C0464F
:1042E0008C24002094110110C411011084110110BC
:1042F0009C17011070170110B4110110008793036F
:10430000700C011060300020FC1701107C110110AE
:10431000DC1701106C1901105C30002060180110CE
:1043200080300020A818011064300020901801107F
:104330006C300020781801107C30002030180110FB
:104340006830002048180110583000202018011053
:10435000551F0110D0180110341901105419011003
:10436000543000200024744970300020E8170110F8
:1043700088300020B8180110A017011010B59A4B12
:104380001B78302B57D01122984B994C1A60994BBF
:1043900002321A6010231020236000F0A9FE0123CE
:1043A0002268D024934024066362062000F0A0FE19
:1043B000402305206362636100F09AFE202363625C
:1043C00063618D4C2378312B5ED0322B00D1FDE020
:1043D000302B00D1ECE06378312B65D0322B00D14B
:1043E000D8E0302B00D1C7E0A378312B00D16CE0AE
:1043F000322B00D1B2E0302B00D1A1E0E378312B99
:1044000000D173E0322B00D18CE0302B00D17BE067
:104410001D2000F06DFED02380221B0692059A62BB
:10442000002100221D2000F0EDFD08F07FFB02229C
:10443000724B1A6010BD02226C4B6D4C1A606D4BB2
:1044400004321A6005230520236000F051FE012389
:104450002268D0249340240663620820636100F040
:1044600047FE80235B006362092000F041FE802349
:104470009B0063620A2000F03BFE8023DB00636246
:104480005D4C2378312BA0D11B2000F031FED023CE
:1044900080221B0612059A62002100221B2000F0D8
:1044A000B1FD6378312B99D11B2000F021FED02380
:1044B00080221B0612059A62002100221B2000F0B8
:1044C000A1FDA378312B00D092E71B2000F010FE55
:1044D000D02380221B0612059A62002100221B2095
:1044E00000F090FDE378312B00D08BE71B2000F02B
:1044F000FFFDD02380221B0612059A6200210022B4
:104500001B2000F07FFD83E71A2000F0F1FDD0238F
:1045100080221B06D2049A62002100221A2000F099
:1045200071FD75E71C2000F0E3FDD02380221B06FF
:1045300052059A62002100221C2000F063FD67E70B
:104540001A2000F0D5FDD02380221B06D2049A62E7
:10455000002100221A2000F055FD4FE71C2000F03A
:10456000C7FDD02380221B0652059A62002100223B
:104570001C2000F047FD41E71A2000F0B9FDD023D0
:1045800080221B06D2049A62002100221A2000F029
:1045900039FD29E71C2000F0ABFDD02380221B064B
:1045A00052059A62002100221C2000F02BFD1BE71F
:1045B0001A2000F09DFDD02380221B06D2049A62AF
:1045C000002100221A2000F01DFD04E71C2000F04D
:1045D0008FFDD02380221B0652059A620021002203
:1045E0001C2000F00FFDF6E664300020902400202F
:1045F0008C2400209C2400208030002000E0044017
:10460000F0B5DE4657464E464546E0B58025D026F5
:10461000AD0414242F0093B0FFF764F8C848FEF7E8
:1046200051FF3606FEF7FCFF192000F061FD7562B0
:104630006420776101F00CFC013CB561642001F05D
:1046400007FC002CF4D1FFF725FAFFF7CFFBBD4B99
:104650000A93431C00D125E2FFF790FEBA4ABB49FA
:10466000BB4805F0A1FEBB4B1B78313BDBB2032BF3
:1046700000D97DE2B84A9B009A580024B74BB84F46
:104680000693B84BB84999461B78B848303BDBB223
:1046900005933B78303BDBB20493B54B1B78303B42
:1046A000DBB20393B34B1B68009202930A9B0A226E
:1046B00001949A46FDF7C8FE8046431E9841C0B259
:1046C000FBF748FE4246AC4B41461A608C23AB4E8A
:1046D0005B003268AA4DCA541A232022FF33CC54FF
:1046E0002B78FF32303B8B544B4640461B78053AC3
:1046F000303B8B54A34B0E321B781C30303B8B5419
:10470000FF30390009F0CAF99F4808F08FF89F4838
:10471000FEF7D8FE96219E4B89011A689D4B57469D
:10472000187873233038FBF78DFFF864431E9841E7
:10473000C0B2FBF70FFEA222FB6C52009C54462233
:104740003168FF32995448212A78FF31303A5A545F
:1047500001F066FC904B18605960994600230B935A
:104760000F930C334344119390235B004344109305
:104770008A4B40469B468A4B9A46FEF779FE0028B4
:1047800000D083E101214046FEF708FC2023424689
:10479000FF33D356042B09DD0F9B1421013318007E
:1047A0000F9304F04FF9002900D1DDE1002005F05E
:1047B00049FE002809DD0A9B0122DB6C0993A22334
:1047C00009995B00CA54FFF73DFC53461A688023E1
:1047D000DB015340E022D2011340724A13600422ED
:1047E000714B1A60FC3253461B681342FBD0534690
:1047F000586880B205F03BFA6C4905F0E2F96C4963
:1048000005F0C5F96B4905F0C8F9011C6A4805F0C7
:10481000BEF96A49061C05F00BFA002804D0301CCA
:10482000674905F0B7F9061C6649301C05F00EFA19
:10483000002804D0301C624905F0A9F9061C301C80
:1048400005F03CFA8F23424640B25B00D0540A9BED
:10485000DB6C0993A323099A5B00D05453461A6872
:10486000C0239B015340E022D20113404D4A136004
:1048700004224D4B1A60FC3253461B681342FBD096
:104880005346586880B205F0F2F94F4905F099F99E
:10489000464905F096F9071C05F048FA04000D009A
:1048A000381C494905F0C4F900280BD0474A484B49
:1048B0002000290004F032FB04F05AFC05F036FA1F
:1048C00004000D00434A444B2000290004F0AEFBD5
:1048D00000280BD03D4A3E4B2000290004F015FB78
:1048E00004F046FC05F022FA04000D00109B1C6049
:1048F0005D60FEF751FF20234246FF33D356002B65
:104900001CDD0B9B0A21013318000B9304F09AF86D
:10491000002900D107E1314B31489B6809932F4BA7
:104920005B680C932D4B0C9A1B680D932B4B0D99C8
:10493000DB680E930093099B05F036FD0A2764E0BF
:104940001815011030240020340E0110400E011003
:10495000BC10011068300020AC0D01108030002028
:104960005830002060300020EC1001107030002022
:104970007C3000209C24002054300020182A002085
:104980005C3000206C30002029370010F41001103A
:104990009024002064300020B82200202430002021
:1049A00000C0044000D0044000E004403333533AD8
:1049B0006ABC343F2D93E13A0000D841000048C260
:1049C0000000B24200001C42000040403333333349
:1049D0003333FF3FCDCCCCCCCCCC1340FC2F0020CC
:1049E000541101105B465A461B6801331360DB0704
:1049F00000D58CE0D02380221B0692045A6132201D
:104A0000013F01F025FA002F38D01A224346FF3229
:104A10009E5C4B461C685D6801F002FB002EE1D0F5
:104A2000001BA941594A002304000D0004F070F84E
:104A3000864213DB554A0023C11705F08BF822008C
:104A40002B00121A8B411100002B66D1504B99425A
:104A500063D8D02380221B0692045A61002D02D114
:104A60004C4B9C42CBD901F0DBFA4B46013F18601E
:104A70005960322001F0ECF9002FC6D1FEF7D0FDCD
:104A80004046FEF7F5FC002800D17BE64046FEF7E5
:104A900049FC002800D175E601000622119809F0B2
:104AA0006DF86FE63C4805F09DFBD02380273B4D19
:104AB0003B4E1B062C6034609846BF0403E05F61E8
:104AC000384B9C4217D8002005F0BCFC431C51D148
:104AD0002B6835495C1C2C60200003F0DBFF2000B4
:104AE0008946642103F0D6FF43468145E7D89F619C
:104AF0002C4B9C42E7D900232B6033680133336091
:104B00000A2BE0D90121642002F04AFAFEE7D02303
:104B100080221B0692049A6171E7D02380221B0633
:104B200092049A619AE70A9B2049DA6C301C099238
:104B300005F047F88421C90505F02CF805F0F6F8D2
:104B4000099A0600537C0F000493A0235B00D05801
:104B500005F0ECF8009401950290039132003B00BF
:104B60001348FEF7AFFCD6E64046FEF71DFC1DE6F7
:104B7000104A82E5104B01220A93DB6C0993A223B1
:104B800009995B00CA54FFF75DFA65E5801A0600D3
:104B90004FC30000A02526005410011078300020DB
:104BA0008C30002020A10700881300006666E63FD5
:104BB00010110110CC1AD70030240020F0B583B0BA
:104BC00005000E00140000F0B1FA002801D003B077
:104BD000F0BD154F01223B0000970121053001F087
:104BE00071FF33002A0000940121104802F080F97F
:104BF00021002800714303F04DFF04000C4B0022FC
:104C000000930221042001F05DFF230000940022A4
:104C10000121052001F056FF00973B0002220021F0
:104C2000062001F04FFFD2E7006CDC02008002405A
:104C3000001BB700F0B5DE4657464E464546E0B588
:104C400085B003934A4B070099464023FF339B46A8
:104C500001910292474B994500D186E0464E474B61
:104C60004E440624994565D8651C290030006943E7
:104C700003F010FF874245D0002C5BD029003000A4
:104C8000614303F007FF87425CD0631E9846002B08
:104C90002FD019003000694303F0FCFE874254D046
:104CA000A31E9A46002B24D019003000694303F05C
:104CB000F1FE87424DD0E31E9A46002B19D0190011
:104CC0003000694303F0E6FE874246D0231F9A4630
:104CD000002B0ED019003000694303F0DBFE874241
:104CE0003FD0052C05D02900300003F0D3FE8742C9
:104CF0001CD04446651C29003000694303F0CAFEFD
:104D00008742B9D10029B7D12C005A4601201C4B4B
:104D10005343019A1360029B1D60039B1C6005B006
:104D20003CBC90469946A246AB46F0BD0029E0D176
:104D30000124EAE701235B429C46124BE3449C4674
:104D4000E14487E70029A0D1DFE70029A8D1444644
:104D5000DBE70029AFD15446D7E70029B6D1544646
:104D6000D3E70029BDD15446CFE70020D7E7C0469E
:104D700070F72E00704DF7FFB0710B0050F80C006B
:104D8000001BB70020D1FFFFD0231B061B68F0B526
:104D90009A004546904641468A4ADE465258574652
:104DA00093465A1E934130224E465B421A40864B30
:104DB00000249C46854BE0B59A4683B0624400923D
:104DC000E20813002600083300999B005D5808365E
:104DD000002D24D0A64224D95B46002B2AD00123E3
:104DE0000F2799463900294013D04B46524640467A
:104DF000A34012581A420CD1072208002240920008
:104E000090400200E30872483C339B001A50200097
:104E1000D8472D090134002D01D0A642E2D8202E1A
:104E200001D03400CCE703B03CBC90469946A24682
:104E3000AB46F0BD0F232B4007D001214746A140D0
:104E40006248C059084200D1A8E02B09611C002B20
:104E5000E5D08E42E3D90F2213406BD12B0AA11C5F
:104E6000002BDCD08E42DAD90F22134073D12B0BEA
:104E7000E11C002BD3D08E42D1D90F2213407BD11D
:104E80002B0C211D002BCAD08E42C8D90F221340F3
:104E90000FD047460E3A8A404C48C059104208D1BC
:104EA0000720CA08014089008B403C3248499200E3
:104EB00053502B0D611D002BB1D08E42AFD90F2264
:104EC000134006D047460E3A8A404048C059104227
:104ED0006DD02B0EA11D002BA1D08E429FD90F2289
:104EE00013400FD047460E3A8A403848C059104206
:104EF00008D10720CA08014089008B403C32344960
:104F0000920053502D0F0734002D00D187E7012365
:104F10004146A3402D4A525801921A4200D07EE7E2
:104F20000722E3081440A400A5403C33284A9B0014
:104F30009D5074E747460E3A8A402448C0591042B3
:104F40008CD10720CA08014089008B403C3220499F
:104F50009200535082E747460E3A8A401B48C05998
:104F6000104284D10720CA08014089008B403C329E
:104F70001749920053507AE747460E3A8A40134841
:104F8000C059104200D07BE70720CA0801408900C1
:104F90008B403C320E499200535071E7072121406B
:104FA00089008B403C320A49920053504DE707205C
:104FB000CA08014089008B403C3205499200535099
:104FC00087E7C0465429002000410140902F00206F
:104FD00000400140094A830094464022634410B5D2
:104FE0001C68C0006240C024144080225201134358
:104FF0001C60034B9C466044416010BD04C00140EE
:10500000004001400A4B80009C4604236044002974
:1050100001D00C230821002A00D10B000268534064
:105020000C221A4080235B01184302607047C0467F
:1050300004C00140F0B54F469946D0234646D646B7
:105040001B069A461B681400254AC0B59F0090466F
:10505000D25906000D00002A30D04B46002B3AD022
:1050600043464A46DA51D0231B061B685A1E934119
:105070005A423023072013401A4A30409446F2081F
:105080001100800085403C3117486344890092003C
:105090000D509B18002C0CD08022920113431D60F0
:1050A00001210D2000F0FAF81CBC90469946A2465A
:1050B000F0BDC022920113431D60F5E74A46002A65
:1050C000D4D043460949DA510D20002200F054F9AA
:1050D00053461B68CAE705490D2000F031FABFE7C7
:1050E000542900200041014000400140894D00103A
:1050F0000123D0228340120693629361094A830000
:105100009446402263441968C0004A40C0211140BF
:105110008022520113431960034B9C4605236044CF
:105120004360704704C0014000400140024B1868D2
:105130008007C00F7047C04600C00640EFF31080E4
:1051400072B6034A1368002BFCD0BFF35F8F704721
:105150002C0100D0BFF35F8F0022024B1A6080F356
:10516000108870472C0100D0F8B5EFF3108772B6A5
:105170000D4E3368002BFCD0BFF35F8F0725CB08A3
:10518000C01801230D40AB401D000478254007D115
:1051900023430370BFF35F8F356087F31088F8BD3A
:1051A000100002F053F8C0462C0100D0F8B5CE46EE
:1051B00047468C4680B5EFF3108872B6214D2C68B7
:1051C000002CFCD0BFF35F8F9A422CD80721012519
:1051D00011408D40D4080419267835421FD007218C
:1051E0008946063909E04D460F001540AF40D40806
:1051F000041926783D00374211D001329342F2D291
:1052000001204042BFF35F8F00220E4B1A6088F3EB
:10521000108800280FDB0CBC90469946F8BD35433A
:1052200025701000EEE7BFF35F8F00232B6088F33B
:105230001088012040426346002BECD0089802F011
:1052400005F8C0462C0100D00021044B044ABFF3EE
:105250005F8F02C39342FAD17047C046000100D06D
:10526000800100D0044A1078431CDBB2172B00D910
:10527000102313707047C0460818002000B5054B76
:1052800083B00100009318221F230348FFF78EFF0D
:1052900003B000BD9C190110702900200123834038
:1052A000002904D0034A1360034A13607047034A7D
:1052B0001360FBE780E200E000E100E080E100E055
:1052C00001228240034B1B681340581E8341D8B211
:1052D0007047C04600E100E001238340014A1360AB
:1052E0007047C04600E200E0084B10309B68800029
:1052F000C358002B07D0064A00209B1A2F229A423F
:105300004041C0B270470020FCE7C04600ED00E01D
:105310000C180020024B10309B688000C05870476A
:1053200000ED00E070B50D00EFF3108672B60F4A85
:105330001368002BFCD0BFF35F8F0D4B10309B68C0
:1053400084001B590B4A934203D09D4201D001F0C7
:1053500095FF074B9B681D51BFF35F8FBFF35F8FB6
:105360000022024B1A6086F3108870BD240100D021
:1053700000ED00E0CD010010F8B557464546DE4689
:105380004E468A46E0B590460700EFF3108972B6A4
:105390005F4A1368002BFCD0BFF35F8F00205D4B8A
:1053A00018569B46002800DAA2E05A4644005A4D9F
:1053B0002418A4002E19B37910371370574BBA0074
:1053C0009B68934699584B1B2F2B41D801230A0009
:1053D0009A43D3799446434514D90627D7571300E7
:1053E000002F06DA8DE00627DF571A00002F00DABB
:1053F00087E07B00DB199B00EB18DF794745F2D88B
:10540000002A51D1464A63465B1B5B415A43120D49
:10541000444BA11C3380444B6918043B5B1A1B05A9
:1054200042495B0D0B43738063460434043B2D19E2
:105430005D1B43462D05F3716D0D53462943B18025
:10544000B27101216246B360394B3143136018E0F9
:10545000384B994252D1334B02343380324B2D19A1
:10546000043B5D1B2D05314B6D0D1D43324B01215E
:10547000B380FF23B3714346F37153467580B36025
:1054800031435A46254B9B689950BFF35F8FBFF35A
:105490005F8F00221E4B1A6089F310883CBC904637
:1054A0009946A246AB46F8BD0627D757131D9C4622
:1054B000002F2BDB04342D19E024938824025B0594
:1054C0001B1563445B1B1B055B0D23436546341FA3
:1054D000641B2405154D640D2C4394809071B3809A
:1054E0004346F3715346124AB7713260B360C8E75E
:1054F00001F0C4FE5B460020185656E701F0BEFEE0
:10550000A9E71A1D94461A000C4BDFE70B4BDDE7A9
:10551000240100D0493000200C18002000ED00E0EC
:10552000AAAA000000A1FFFF3C18002000E0FFFF36
:1055300001488047CD01001001BDFFFF01BD000003
:10554000F0B54546DE4657464E46E0B50D0083B001
:10555000EFF3108972B6584A1368002BFCD0BFF3E2
:105560005F8F564B9A68030010339F00D459544AFA
:105570009046944234D0AC4245D0524EA21B2F2AC2
:105580002ED801228240924651464F4A126811405D
:10559000019151464D4A1160BFF35F8FEFF30582D1
:1055A0009346002A35D10123220006219A439368AD
:1055B00051569D420AD16AE04B005B1806219B00C0
:1055C000F31898685956A84228D01A000029F3DA2F
:1055D000019B002B19D052463D4B1A603A4B1A6082
:1055E000364B9B68DC51BFF35F8FBFF35F8F0022A8
:1055F000314B1A6089F3108803B03CBC9046994641
:10560000A246AB46F0BD1400EAE752462F4B1A60A3
:10561000E6E79342C7D001F031FEC4E7002921DB61
:105620004A005018800035188046A8689860E879CC
:10563000D871062028569871002826DBAD88F01A0C
:105640006D052D1545444019E0250005400D2D023E
:105650002843988052181F4B9200B6181A78197078
:10566000B271B5E75946002917D1002A22D0FF317F
:1056700091711949918017490A789A71174A9B1BB1
:105680005B415A43120D0A70A2E71548E1E7130087
:105690000029C5DA5A46002A0CD0124A1249D21AF9
:1056A000083A5002400D01439980104952080A43BC
:1056B000DA808DE74446DEE7240100D000ED00E00B
:1056C000CD0100100C18002000E100E080E100E0B6
:1056D00080E200E04930002001BDFFFFAAAA0000DF
:1056E00001BD00004618002000F0FFFF00F8FFFF9A
:1056F00010B5032304009C430340FF20054ADB0050
:105700009446984099406444226882430A43226048
:1057100010BDC04600E400E0F0B5EFF305810124C0
:105720000443EFF3108672B6214A1368002BFCD0B5
:10573000BFF35F8F1F4B204A0500ED1A6D416A438E
:10574000120D1E4D8900AF6852B27F58A7421CD07F
:105750000621595691421CD012215956914222D00D
:105760001E215956914220D02A2159560324914294
:1057700010D0134B19781A708171BFF35F8F00221C
:105780000B4B1A6086F31088F0BDAB680D4C5C5073
:10579000EFE700246100091989005B18FF21997166
:1057A00009499980E5E70124F4E70224F2E7C046BD
:1057B000240100D00C180020AAAA000000ED00E08F
:1057C00049300020CD01001001BDFFFF054B064A06
:1057D0001360064A136053609360D3601361536192
:1057E000936170478080808000E400E004E400E082
:1057F00000B5074B83B00100009300220523054844
:10580000FFF7D4FC002801DB1F23181A03B000BDEA
:10581000B81901104F300020024B9C4661448900AA
:10582000016070474000003410B50400FFF71AFD16
:1058300001002000FFF7F0FFFF232371BFF35F8F0C
:1058400010BDC04610B50400FFF70CFD010020009C
:10585000FFF7E2FFFF23A380BFF35F8F10BDC046B9
:1058600010B504000120FFF709FD044B9C4660447D
:1058700080002060BFF35F8F10BDC0464000003441
:10588000034B9C46614489000160BFF35F8F704702
:105890004000003470B506000D00140000291ED031
:1058A000002A1ED073688068984763006A001B193D
:1058B0005219033B033A3168002808D0CB188A18E4
:1058C0009D70117800290ED11470280008E08A1804
:1058D000CB1894701978002900D051701D702000E9
:1058E00070BD0800FCE7597028001470F8E7C04646
:1058F00083680B4810B58446614462440901120173
:105900009A18591854684B6801209C4201D802D05B
:105910000020C0B210BD12680B689A42F9D8F7E7B0
:10592000FFFFFF0F0A4B1968EFF3108072B60A6889
:10593000002AFCD0BFF35F8F1B68BFF35F8F00228C
:105940001A6080F3108840BF002000217047C046D5
:10595000D02F0020F8B54746CE4680B514001D0074
:105960000BAA0AAB12781B78804691460768002B79
:1059700012D1BE7B002E44D0720092193968033ACE
:10598000891848783300B873002800D1F8730020D4
:1059900088704870087003E01E005A00D218033A5D
:1059A0001A4938008C464146896863448C461B017D
:1059B00008996344996009991C605D60D9603B68EF
:1059C0009C4600236244937053701370797B3200BD
:1059D000FFF760FF7873B04213D143462200187D71
:1059E0002B0000F0AFFB041E07D04B46002B04D168
:1059F00043463100186800F023FF0C9B002B00D0B9
:105A00001C7030000CBC90469946F8BDFFFFFF0F9C
:105A1000F0B5DE4657464E4645460023E0B58BB00E
:105A20000893684B8200D45800239B46099000F0ED
:105A3000F7FA6268EFF3108572B61368002BFCD09A
:105A4000BFF35F8F23689C465B7B9946002B00D198
:105A50006DE0A2685C4B90464B441B019844434662
:105A60001E685F6832003B00121A8B41002B00DC7D
:105A700067E032003B00099800F064FB002300223D
:105A8000984600230692079300239A466368BFF363
:105A90005F8F5A461A6085F310885346002B08D151
:105AA0000028C4D10BB03CBC90469946A246AB46F8
:105AB000F0BD089B414618024B461843D047626828
:105AC00006000F00EFF3108572B61368002BFCD0B0
:105AD000BFF35F8F002F52DB33003B4302D02369BB
