:020000041000EA
:1000000000B5324B212058609868022188439860DF
:10001000D860186158612E4B002199600221596106
:100020000121F02299502B49196001219960352056
:1000300000F044F80222904214D00621196600F024
:1000400034F8196E01211966002018661A6600F04E
:100050002CF8196E196E196E052000F02FF8012189
:100060000842F9D1002199601B49196000215960AB
:100070001A491B48016001219960EB211966A021F2
:10008000196600F012F800219960164914480160C1
:100090000121996001BC002800D000471248134993
:1000A000086003C880F30888084703B5996A0420EC
:1000B0000142FBD001200142F8D103BD02B5186610
:1000C0001866FFF7F2FF186E186E02BD00000240BE
:1000D000000000180000070000035F00212200005C
:1000E000F4000018222000A00001001008ED00E03C
:1000F00000000000000000000000000074B24E7A12
:1001000000200420F7010010C3010010C5010010F9
:10011000C1010010C1010010C1010010C101001097
:10012000C1010010C1010010C1010010C701001081
:10013000C1010010C1010010C9010010CB01001065
:10014000CD010010CD010010CD010010CD01001037
:10015000CD010010CD010010CD010010CD01001027
:10016000CD010010CD010010CD010010CD01001017
:10017000CD010010CD010010CD010010CD01001007
:10018000CD010010CD010010CD010010CD010010F7
:10019000CD010010CD010010CD010010CD010010E7
:1001A000CD010010CD010010CD010010CD010010D7
:1001B000CD010010CD010010CD010010CD010010C7
:1001C00000BE00BE00BE00BE00BE00BEEFF3058054
:1001D000103800BEF2EB8871804D0110AC4D01105B
:1001E0003402001090A31AE700201F49086006C8D7
:1001F00081F3088810471D48006800282FD10DA4FE
:100200000ECC002902D000F012F8F9E71849194A7B
:10021000002000E001C19142FCD1174988471749ED
:1002200088471749884700BEFDE701C901C29A42C5
:10023000FBD37047AC4D0110C000002054240020B7
:1002400040710110000004200000042040710110E2
:10025000001004200010042000000000704709482E
:1002600007F09EFB0047000008ED00E0000000D012
:100270005824002054330020B96000103937001092
:10028000E56100105756000006005250ABB36053B2
:10029000443E011006005250861C0302543E0110D9
:1002A000060052505422A29D603E0110050052509B
:1002B000DE65F46840710110F8B5C0460448054B8E
:1002C00010B5834203D0044B002B00D0984710BDDB
:1002D0005424002054240020000000000648074950
:1002E000091A8910CB0F591810B5491003D0044BC7
:1002F000002B00D0984710BD542400205424002027
:100300000000000010B5074C2378002B09D1FFF73F
:10031000D5FF054B002B02D0044800E000BF0123AD
:10032000237010BD7025002000000000302E011049
:10033000054B10B5002B03D00449054800E000BF71
:10034000FFF7CCFF10BDC046000000007425002060
:10035000302E011070B5002800D070BD8025D0244B
:10036000AD042E001930240603F07AFE6562666142
:10037000322004F025FDFA20A561400004F020FDA4
:10038000F5E7C046F0B5DE4657464E464546040002
:10039000431E9841E0B515008BB0C0B20E00FFF7C8
:1003A000D9FF2800431E9841C0B2FFF7D3FF5C225B
:1003B0000021200008F0F8FC5548A564A6606060A4
:1003C00054490BF023FB0121206260680BF000FB15
:1003D000E061A06803F044FE4F4A636894466344BA
:1003E00019004B1E9941A068063103F0B3FDE36983
:1003F00080229946236A52029A46A36806AD98461F
:1004000000239B460593F8235B0202920393C023CB
:1004100002A91B03102228006768049308F0CAFC95
:1004200052460C3213035246D201134329001022C4
:1004300002A8079308F0BEFC384B42460493802381
:100440009B031343344A0593BE18731E9E41063620
:100450003100404603F07EFD424631000126501C2B
:1004600003F078FD009642464946380002230BF01F
:1004700031FB802252029046029202AA13004946A2
:10048000524638000BF07EFB4A4696403B685A467F
:100490001E43F8235B02EA6042460793C0233E6096
:1004A000266A06921B032900102202A8089308F06E
:1004B00081FC33000C33F2011B03134302A9102209
:1004C0002800039308F076FC23000C3307CD07C304
:1004D000134A636960681A40124BE1691343636110
:1004E0002B68114A1340A26852011343802212055F
:1004F0001343A361230032000C330BF043FB0020B5
:100500000BB03CBC90469946A246AB46F0BDC046F7
:1005100000002050302E01100000E0AF00000E401F
:10052000FFFFF50100000A401FFCFFE3F0B5D646CF
:100530004F4646468046431E9841C0B5C0B282B081
:100540008A469146FFF706FFFA220023D200504662
:10055000002108F095FA434600259C6C4E46E30EB8
:100560006201121BAB41F71736184F41910F8C46B1
:1005700000920193990063461943009B980000196B
:100580006941CB0642091A43C40620001100FC074A
:10059000720822437B108018594132003B0007F05B
:1005A0007BFA43465862FC231B069C46074B60447B
:1005B00018605246434600201A654A465A6502B002
:1005C0001CBC90469946A246F0BDC046683000204B
:1005D000F8B51D000600431E9841C0B21400FFF795
:1005E000B9FEF36C002B26D05133FF331F685E68D1
:1005F0003B00334307D1114B00201F685E683B006E
:10060000334303D1F8BD0D4B1F605E6000210C48E1
:100610000C4A00196941002307F056FA3A003300EA
:1006200008F02EFA0023084A80185941054A002391
:1006300007F032FAE6E70020E4E7C046582500203C
:1006400020A1070040420F0050C3000070B5040015
:10065000431E9841C0B2FFF77DFE01221300E569F9
:100660006168AB40086803430B60A26570BDC0467B
:1006700010B50400431E9841C0B2FFF76BFE012283
:10068000E069616882400B6893430B600023A365B7
:1006900010BDC046F0B50024012305002000C64669
:1006A000AB42604100B5C0B20F001600FFF752FE2A
:1006B000E123F80F5B02BB426041C0B2FFF74AFE84
:1006C0001C23F00FB3426041C0B2FFF743FE390074
:1006D000002D59D0314805F0A9F80820022103F077
:1006E00039FC09202D4C022103F034FC9A21012011
:1006F000890008F021FB8046431E9841C0B2FFF7F5
:1007000029FE434642461D605F609E60244B3000D8
:100710001A60244B10321A6003F0A2FC0123D0228D
:10072000B3401206936230001F4B0122082103F0F0
:1007300041FCC023226B1B021A4080262300760155
:10074000303333431A60200000230122082105F0D2
:1007500031F96B1E9D4120001435002105F068F928
:100760002800124903F096FD2800012103F04EFDF8
:100770005023A363626B183B343434431340404628
:10078000236004BC9046F0BD094805F04FF80020F6
:10079000022103F0DFFB064C0120A4E700800340A8
:1007A0000C30002010300020B9010020F1000020A2
:1007B00000400340F0B5CE4647460600431E984130
:1007C00080B5340085B0C0B2FFF7C4FD8022593433
:1007D000FF345200334920000CF034FB051E58D082
:1007E000314B98461B6899464A46304BD356062BE8
:1007F00040DC00211022684608F0D6FA28000CF0F0
:10080000ADFA0023002100249846844213D02B190E
:100810001A780134E4B22C2AF7D142461A706B469A
:100820004F1CFFB25C540C2F05D028000CF096FA38
:1008300039008442EBD16B464A461B7AED181B4BBC
:10084000D356032B0CDC28000BF0FEF907F06EFCEE
:1008500098239B00F05005B00CBC90469946F0BD23
:1008600099239B00D35C002BEDD12900104808F0A0
:1008700043FDE8E799239B00D35C002BB9D180218D
:10088000220049000B4808F037FD43461B68994693
:10089000AFE780220849520020000CF0D3FA051E71
:1008A000D9D09DE7282F01100C30002067020000EE
:1008B0005C2F0110382F0110302F011070B504008B
:1008C000431E98410D008AB0C0B2FFF743FD2800D7
:1008D000431E9841C0B2FFF73DFD20000CF03EFAE8
:1008E0000026062802D030000AB070BD28000CF0A7
:1008F00035FA0528F7D90C22002107A808F054FA88
:10090000227901A8303A93009B1862795B00343257
:100910009B18A2780693303A93009B18E2785B000C
:10092000313A9B1822780593303A93009B186278ED
:100930005B00303A9B182A780493303A93009B1856
:100940006A785B00303A9B18AA780393303A930098
:100950009B18EA785B00303A9B182A790293303A68
:1009600093009B186A795B00303A9B1801930BF057
:100970007FFD0600B7E7C046F0B5DE464E46454669
:100980005746E0B50500431E98412E008BB0C0B21B
:10099000FFF7E0FC80225936FF3652007E493000D6
:1009A0000CF050FA041E00D1D9E02B6B7B4A0133C6
:1009B0002B637B4B1B689A56062A3CDC794B06AEB0
:1009C000DA689B680021904630001022994608F0B2
:1009D000EBF920000CF0C2F90023002100279A4611
:1009E000874213D0E3191A780137FFB22C2AF7D1C6
:1009F00052461A704B1CDBB29B4677540C2B05D029
:100A000020000CF0ABF959468742EBD13778E71953
:100A1000FB786B747378E25C1300413B59424B41A5
:100A20002B74412A13D000200BB03CBC9046994651
:100A3000A246AB46F0BD992292009B5C002BBDD133
:100A4000802132004900584808F056FCB6E7B378D8
:100A50000222E11804A89B460CF0B4F9002304AA72
:100A6000100093700BF0F6F85B468246981C201835
:100A70000BF0EAF85346009001916420584307F0C8
:100A8000C9FA4A4A0290039100980199484B07F02D
:100A90002AFA02000B000298039907F01BFA0022C1
:100AA000444B07F03EFA444B002207F013FA07F0DC
:100AB00011FB28626962F378E35C4E2B06D0532B5E
:100AC00059D1002342428B412A626B62337903225F
:100AD000E1189B4605AB9A4618000CF073F9524694
:100AE00000235046D3700BF0B5F85B468246D81C05
:100AF00020180BF0A9F85346009001916420584348
:100B000007F088FA294A0290039100980199284B2E
:100B100007F0E9F902000B000298039907F0DAF9EF
:100B20000022244B07F0FDF9234B002207F0D2F9F5
:100B300007F0D0FAA862E9627379E35C452B06D02E
:100B4000572B1BD1002342428B41AA62EB62F37AFE
:100B5000E3185B782A2B14D00420404264E78022FB
:100B60001649520030000CF06DF904000020002CF2
:100B700000D159E719E70220404255E703204042DF
:100B800052E7307A39002018FFF798FE4346AB61F0
:100B90004B466861EB6146E7F42E011067020000E6
:100BA0000C30002000400540042F01103333333354
:100BB0003333E33F006AF8400000E03FFC2E0110B1
:100BC00010B50400431E984182B0C0B2FFF7C2FBCB
:100BD0002178154808F090FB216A144808F08CFB36
:100BE000A269E3690092019311482269636908F0E0
:100BF00083FBA26AE36A0F4808F07EFB226B636BFB
:100C000010200021801859414134CB0642091A4373
:100C1000FF344B09084808F06FFB226863680748F7
:100C200008F06AFB02B010BD542E0110702E0110A6
:100C3000842E0110A82E0110C02E0110D82E0110F4
:100C4000F8B507001000431E9841C0B216000D0011
:100C5000FFF780FB0A20B84280414042FFF77AFB51
:100C600090210120490008F067F80400431E9841D4
:100C7000C0B2FFF76FFB88235B00A7602573E650C7
:100C8000124B134A1C600123AB4012491360002031
:100C900003F000FB104E0021002003F0E1FC0121D5
:100CA000002003F0B3FAB56A00212A0000230B48A4
:100CB00012184B4122606360084A237B9446043338
:100CC00065449B009D512000F8BDC04614300020B3
:100CD00038600540C903002000400540204E000058
:100CE0000023837343737047F0B545464E46DE4696
:100CF0005746E0B5934C8BB0236806000D00904634
:100D0000032B00DDEBE0904A34009246032291462B
:100D100001323300022793460C3401951A782F2AAA
:100D20001ED01100B9433C291AD04D46511C5144E4
:100D3000087894462840022807D16146FD302039C2
:100D40000140203A0131D2B251441A700A78594612
:100D5000114205D149460A40012A01D020221A70C9
:100D600001339C42DAD10023019D33730C22310000
:100D700076480CF027F828000BF0F0FF0223020061
:100D80009A43042A00D182E001002A00704808F04A
:100D9000B3FA07226F49280008F00CF828000BF07E
:100DA000DDFF06284AD0290007226B480CF00AF81C
:100DB000434641463C2B00DD3C2103AC2200674BFF
:100DC00049B261CB61C261CB61C21B68002613606E
:100DD000634B22009C461B780AAD5BB29846230009
:100DE000474600201056013281421ED09542F8D16C
:100DF0004046002E1ED100251B3401229A568A42FD
:100E000005DD00229A56914201DB100001250133D5
:100E10009C42F2D1002D01D0634618700BB03CBC4F
:100E200090469946A246AB46F0BD954203D00F00CE
:100E30000126D6E7380062461070DCE703212B79E3
:100E4000484C1A00E05C0140022902D1203B1A0004
:100E5000DBB22B71413B172B62D803216B79E05C2D
:100E60001A000140022902D1203B1A00DBB26B714B
:100E7000413B172B97D9FF2305211A403A4808F028
:100E80003BFA07223949280007F094FF8BE7032239
:100E90002B78344CE15C0A40022A01D1203BDBB2C2
:100EA0002B70413B112B35D803226B78E15C0A4053
:100EB000022A01D1203BDBB26B70413B112B3BD8A6
:100EC000AB78E35C5B071FD5EB78E35C5B0700D591
:100ED00064E707222649280007F06CFF5EE70BF065
:100EE0003DFF31000200234808F006FA2368032B77
:100EF00000DC08E728000BF031FF43460200290020
:100F00001D4808F0F9F9FEE607221949280007F004
:100F100051FFD9E707221949280007F04BFFC3E723
:100F2000FF2304211A40104808F0E6F907220F4970
:100F3000280007F03FFF90E707221049280007F03C
:100F400039FFBDE780290020D0400110A02A0020F1
:100F50003831011054310110702F0020B42F0110CE
:100F600063300020D14001105C310110803101104C
:100F700030310110B8300110EC300110283101106F
:100F8000F0B557464E46DE464546E0B5C34F8DB0F8
:100F90003E7801903C2E00D1CCE22F2138000BF09E
:100FA0006BFE002801D100F0FCFCC31B1D00029366
:100FB000FB189E782021320088468A4300D075E1D4
:100FC00008AC07320021200007F0EEFE2A003900AD
:100FD00020000BF0F7FE03212278B14B1600985C3D
:100FE0000140022905D1203EFD310E40203A985D96
:100FF000D2B22270420705D403221040012801D04A
:101000001D32227003216278985C1600014002298B
:1010100005D1203EFD310E40203A985DD2B262707B
:10102000420705D403221040012801D01D3262700E
:101030000321A278985C16000140022905D1203EC8
:10104000FD310E40203A985DD2B2A270420705D41D
:1010500003221040012801D01D32A2700321E27842
:10106000985C16000140022905D1203EFD310E405A
:10107000203A985DD2B2E270420705D403221040B4
:10108000012801D01D32E27003212279985C1600FC
:101090000140022905D1203EFD310E40203A985DE5
:1010A000D2B22271420705D403221040012801D098
:1010B0001D32227103216279985C160001400229D9
:1010C00005D1203EFD310E40203A985DD2B26271CA
:1010D000420705D403221040012801D01D3262715D
:1010E0000321A279985C16000140022905D1203E17
:1010F000FD310E40203A985DD2B2A271420705D46C
:1011000003221040012801D01D32A271042189461A
:1011100060784E461A5CE57811408846AC462578E2
:10112000A17803955D5D5A5C35400595454692462C
:101130002279002D00D09BE265465D5D6479AB4667
:101140000425A94655464E4635400495059D002D7B
:1011500001D000F0F3FC4125039E6D42AA46B14642
:10116000CA445546192D01D900F035FE373EF5B277
:10117000AA46EE005644B6004546002D01D000F0C8
:10118000B9FC41256D42A84680444546192D01D938
:1011900000F090FD3738C0B23618B00086190498B8
:1011A0007600002801D000F0B0FC08004138C0B241
:1011B000192801D900F078FD3739C9B276187100C5
:1011C0008919C80009185846400701D500F0A9FC44
:1011D00060464138C0B2192801D900F071FD60465F
:1011E0003738C0B20A39081841000918C800091870
:1011F000985C400701D500F09DFC10004138C0B25A
:10120000192801D900F059FD373AD0B20A000A3A3C
:10121000121851008A181B5DD10052185B0701D5C6
:1012200000F084FC2300413BDBB2192B01D900F014
:101230003EFD373CE3B20A3AD418029B9C46674411
:101240007B781E00303EF6B2092E00D908E2154B1D
:101250009C466644F3010026134A96574236F61818
:10126000019A23099370230B5370230D1370B3015C
:101270009371B3085371B30A13710023B602360F8A
:1012800024013443D470D3711372537293720DB02E
:101290003CBC90469946A246AB46F0BDA02A002031
:1012A000D1400110606A000063300020DB788B437E
:1012B00000D002E208AC07220021200007F074FDF4
:1012C000029A390020000BF07DFD03212278974B14
:1012D0009446985C0140022906D16146FF202039DE
:1012E0000140203A585CD2B22270420705D4032252
:1012F0001040012801D01D32227003216278985CD1
:1013000094460140022906D16146FF202039014060
:10131000203A585CD2B26270420705D403221040D2
:10132000012801D01D3262700321A278985C944696
:101330000140022906D16146FF2020390140203AB0
:10134000585CD2B2A270420705D403221040012893
:1013500001D01D32A2700321E278985C94460140CE
:10136000022906D16146FF2020390140203A585C0D
:10137000D2B2E270420705D403221040012801D006
:101380001D32E27003212279985C944601400229C3
:1013900006D16146FF2020390140203A585CD2B284
:1013A0002271420705D403221040012801D01D32CA
:1013B000227103216279985C94460140022906D18A
:1013C0006146FF2020390140203A585CD2B2627158
:1013D000420705D403221040012801D01D3262715A
:1013E00004200500804661785A5C1540A278039578
:1013F000985C0592424625790490AB462078E578C2
:10140000A9461D5C1540AC46039D002D06D0049DE9
:10141000013A2A40012A01D100F027FC4A469A5C91
:10142000049D92460422154062466479A846002A2B
:1014300001D000F001FC41225242944684446246AD
:10144000192A01D900F0C0FC3738C2B29446D00046
:1014500060448000039A002A00D095E34122524262
:1014600094468C446246192A01D900F07BFC373936
:10147000C9B242464118880040184000002A00D0F6
:101480007EE3059A11004139C9B2192901D900F04A
:1014900066FC373AD2B2801842001218D1005218B6
:1014A0005146490700D567E349464139C9B2192970
:1014B00001D900F051FC49463739C9B20A3A5118EE
:1014C0004A005118CA008A185946595C490700D584
:1014D0004EE359464139C9B2192901D900F039FC06
:1014E00059463739C9B20A3A51184A0052181B5D99
:1014F000D10052185B0700D537E32300413BDBB234
:10150000192B01D900F022FC373CE3B20A3AD41877
:10151000029B9C4667447A78303A93009B185B00A4
:101520009E19034B9C466644F30194E6D14001109A
:101530004AEA00000D22002108A807F035FC92239A
:101540003E21380006930BF097FBC21B013A791C31
:1015500008A807920BF036FC06AA07A908A800F015
:1015600081FDB44B40049A785F781E78D9785C7915
:101570005A7094461A791F709970DA701C715E71F6
:10158000AD4B400CDD5D6D0700D550E141256D424E
:10159000A846B8444546192D00D9D3E3373FFFB2DA
:1015A000FD00A8464744BD00A84665465F5D7D072F
:1015B00000D5D3E26746413F192F00D9C0E30A376F
:1015C000FFB2B8444546AF005D5C47447F006D07FD
:1015D00000D5C0E241256D42AC468C446546192DCC
:1015E00000D9ABE33739C9B27F187900C919CF00E8
:1015F000C9199F5C7D0700D5AAE21700413F192F4A
:1016000000D97BE3373AD2B20A3989184A00521816
:10161000D1005218195D490700D596E221004139E1
:10162000192900D968E3373CE4B20A3A1219540088
:10163000A2189B5DD40014195B0700D592E2330019
:10164000413B192B00D95BE3373EF6B20A3CA419A3
:1016500000267A4BC0019E573F239E1B3618FFE59C
:101660001A00413A192A00D96CE2373BDEB2EEE5A6
:10167000032556463540012D00D05DE565462571B0
:101680002025039E25706271E170A07066705C1E5B
:10169000A34621245D462C5D4D46254200D176E2CD
:1016A000444687260494059CD346A046B601140000
:1016B00062468C46010003985EE5002307AE2A00CF
:1016C0003900300007930BF07DFB290008AC013195
:1016D0000722791820000BF075FB4246B37893433C
:1016E00005D1F3707378B37033783270737003215F
:1016F0002278514B1700985C0140022900D17CE20E
:101700002270420705D403221040012801D01D3267
:10171000227003216278985C17000140022900D1F1
:1017200064E26270420705D403221040012801D010
:101730001D3262700321A278985C170001400229D3
:1017400000D14CE2A270420705D4032210400128C8
:1017500001D01D32A2700321E278985C170001408D
:10176000022900D150E2E270420705D40322104062
:10177000012801D01D32E27003212279985C170004
:101780000140022900D14DE22271420705D4032213
:101790001040012801D01D32227103216279985C2A
:1017A00017000140022900D135E26271420705D4D9
:1017B00003221040012801D01D32627104218946A4
:1017C00060784F461A5CE57811408846AC4625782B
:1017D000A17802955D5D5A5C3D4004954546924670
:1017E0002279002D2CD0032557463D40012D27D1CD
:1017F000654625712025029F25706271E170A070F9
:1018000067705C1EA34621245D462C5D4D46254233
:1018100000D0BCE244460394049CD346A046140086
:1018200062468C4601003800A227FF0026E0303FC8
:10183000B5E6C046702F0020D14001106330002073
:1018400065465D5D6479AB460425A94655464F461D
:101850003D400395049D002D00D0EAE14125029F03
:101860006D42AA46B946CA445546192D00D9B6E27A
:10187000373FFFB2FD00AA465744BF004546002D42
:1018800000D036E241256D42A84680444546192DD8
:1018900000D98FE23738C0B2381887003F18039854
:1018A0007F00002800D021E208004138C0B219288A
:1018B00000D97DE23739C9B27F187900C919C8004B
:1018C00009185846400700D50CE260464138C0B2BE
:1018D000192800D976E260463738C0B20A390818AC
:1018E00041000918C8000918985C400700D5F6E1C6
:1018F00010004138C0B2192800D961E2373AD0B29D
:101900000A000A3A121851008A18D1005218195DBB
:10191000490700D5E0E121004139C9B2192900D9B0
:101920004CE2373CE1B230780A3A54181A5C52075C
:1019300000D5CEE10200413A192A00D93CE23738FD
:10194000C0B2C10009188900091870781A5C5207E2
:1019500000D5BBE10200413A192A00D926E2373806
:10196000C0B24118B678CA0052189B5D9200521856
:101970005B0700D5A7E13300413B192B00D913E2E7
:10198000373EF6B2DF4B96191B78DF4A5BB29642C0
:1019900000D865E1DD4A423394466644F2019E1860
:1019A0005EE404218946DA4B7878FC781A5C02946C
:1019B00011408C464C469D5DB978254064465A5C82
:1019C000A84692463A79002C05D0032455462C406F
:1019D000012C00D1E9E0029C55461C5D7F79A346AD
:1019E000042425404446A946002C00D036E1412479
:1019F0006442A046B0444446192C00D9E8E1373E81
:101A0000F6B2F400A0464644B6006446002C00D06E
:101A100015E141246442A44684446446192C00D94B
:101A2000B3E13738C0B23018860036184846760021
:101A3000002800D009E108004138C0B2192800D9B7
:101A4000A1E13739C9B2761871008919C80009189F
:101A50005846029C400700D5F4E020004138C0B24F
:101A6000192800D98DE1373CE4B20A3909194C0034
:101A70006418E1006418995C490700D5EBE0110097
:101A80004139C9B2192900D979E1373AD1B22200D6
:101A90000A3A52185400A218DB5DD40014195B07EF
:101AA00000D5D5E03B00413BDBB2192B00D964E106
:101AB000373FFFB2B42697490A3C0A78E419413A05
:101AC00053079B1A9B009B1A8A785B009B1A4A78E3
:101AD000E3337343413A9600B618CA7876009E19EC
:101AE000303AB2180026874BD2019E574036B618BE
:101AF000FFF7B6FB3038C0B23618B000861904982C
:101B00007600002801D1FFF750FB3039C9B27618B2
:101B100071008919C80009185846400701D4FFF719
:101B200057FB60463038C0B2FFF75CFB303CE3B295
:101B3000FFF781FB303AD0B2FFF768FB039E303EDF
:101B4000FFF715FB744BFFF786FB303CE4B26CE506
:101B5000303AD2B258E53039C9B245E56746303F30
:101B6000FFB22EE5303EF6B270E5303CE3B2CDE494
:101B700059463039C9B2B6E449463039C9B29DE454
:101B8000059A303AD2B286E43039C9B271E444469B
:101B90000494059CD346A046140062468C4601007E
:101BA0003000A226F600FFF7E7FA029D1F343C70D2
:101BB0007A713D71F970B8707E7021275C1EE75D07
:101BC0004C46D346E146C4463C4200D0CDE00291AB
:101BD00001003000A2261700F6002A0015E7203F7A
:101BE000FD31203A0F40D2B2D85DABE5203FFD3148
:101BF000203A0F40D2B2D85D93E5203FFD31203A24
:101C00000F40D2B2D85D7BE5203FFD31203A0F4036
:101C1000D2B2D85DA7E5203FFD31203A0F40D2B2C5
:101C2000D85DC2E5203FFD31203A0F40D2B2D85DE9
:101C3000AAE5029F303F1CE63038FFF706FC30383B
:101C4000C0B2F0E6303CE4B20FE73039C9B2FAE690
:101C5000303FFFB22EE7303AD1B218E7303ECFE640
:101C6000F20141339E18FFF7FBFA5A4662714A4669
:101C700022712022059D2270E570A17060702124E0
:101C80005A1E145D4246224248D1039A059190465D
:101C900062460100A2200392049A5C469246CB461B
:101CA000C000A946FFF7D6FB2421FFF787FA2423BB
:101CB000FFF7C1FA2420FFF76FFA2420FFF7A6FAF6
:101CC0002420FFF78FFA303EF6B25BE63038C0B220
:101CD00047E63038C0B234E6303CE1B223E6303A71
:101CE000D0B20DE660463038C0B2F7E53039C9B23F
:101CF000E2E53038C0B2CFE5242496E4242283E420
:101D00002426A3E463300020FF7F00000080FFFF53
:101D1000D1400110702F002000433500039A5C462B
:101D2000904662460392049ACB469246059A0591E4
:101D30000100872091468001FFF78CFB242153E4AA
:101D400024273EE4A225ED00A8462EE42423FFF735
:101D5000DDFB2421FFF7C7FB2421FFF7AFFB242283
:101D6000FFF799FB2421FFF784FB1700029A0291E9
:101D7000010030008726B60147E624279AE6242191
:101D800085E6242471E624215DE624204BE64446C2
:101D900087270394049CD346A046BF0114006246E3
:101DA0008C460100029869E52426EBE52420D8E55D
:101DB000242181E524206FE52420C2E52421B2E519
:101DC00024209DE5242089E5A220C000FFF742FBE6
:101DD000A226F60019E6A226F600FFF7CDF9A22703
:101DE000FF004BE5F0B5DE4657464E464546E0B5AA
:101DF0000D00E1B0010006009B4608A86AAB1C7804
:101E000017000AF0A3FF290003A80AF09FFF8D4BDB
:101E10001C60032C00D9F5E03A0003A908A8FEF7DE
:101E200063FF05A8FFF7ACF802AA172394466344A2
:101E300098460021002505A8037800269C466346A5
:101E4000B340012200248946DB1113406D001D437D
:101E50007D4B1F322B400121013A1940D2B24C4038
:101E60005B08002AF7D1494660AB5B18513BFF3B4A
:101E70001C70764B0F002B40994620234C1CE4B27B
:101E800001904946012001404A404946013B49082A
:101E9000DBB28946002BF4D1390060AFB9464C441F
:101EA000513C0231FF3CC9B201982270A12902D8ED
:101EB0000136082EC3D101308045BDD136AA00219C
:101EC000019201274026022540E080246442A0467A
:101ED00001344022FF34C020A44652420D4201D1B9
:101EE000424660464C0703D52020024352B2D0B28E
:101EF0000C0703D51020024352B2D0B2CC0603D552
:101F00000820024352B2D0B28C0603D5042002430B
:101F100052B2D0B20E4203D00220024352B2D0B22B
:101F2000CC0902D001201043C0B2A12808D860AA71
:101F3000D218513AFF3A1278019C01332254DBB295
:101F4000A12B0CD80131C9B2FF2908D03A000A40B0
:101F50009446BAD1002440204022A046BEE7019E0C
:101F6000A22231000CA806F025FFA2223849300039
:101F700006F020FF5B465B0751D134AB9C46354BE6
:101F80005846994634490CAD2B6832680B4034688A
:101F90005B000A4090461A0063404C460A402340CA
:101FA0006F6842445A4073680F4074687F000B406A
:101FB00098463B0067404C460B40434427405F40F7
:101FC000083502604760083608306545DCD12820B6
:101FD000A02202AB019C1B189B5CA15C5B005B1800
:101FE00059468B5402AB01321B189B5CA15C5B0011
:101FF0005B1859468B5461B03CBC90469946A2464A
:10200000AB46F0BD3100154807F076F928000AF01C
:10201000A5FE29000200124807F06EF9FCE602AAAC
:10202000944659462725CF24012301396544644449
:10203000EA5CE05C52001218CA540133A32BF7D1BA
:10204000D9E7C046802900205153D0F2473C61E4D3
:10205000D02F0110808080807F7F7F7F74300110BF
:102060008C3001100B68F0B5DE469B461368D74AEA
:10207000574694464E4645466344E0B504005B44EB
:10208000820743D15A46180019000C2A39D91A255B
:10209000A846023DAC460B3D1C221027AA466568A7
:1020A0004646A946A5684944A946256848442D1ACC
:1020B000A9460500D5414B446B401D00F541081869
:1020C000C91A69400D006646F5411B18401A684060
:1020D0000500FD41C9181B1A6B401D005646F5410D
:1020E0004018C91A69400D00D5411B18401A6840B4
:1020F0000C256D42A946CB445D46C9180C340C2D05
:10210000CDD85A469500B24A52599746C2074FD485
:102110005A46180019000C2A45D91A25A846023D2E
:102120001C22AC461027E58846462D04A946A58802
:10213000AA466589D1442D044944A9462589AA4661
:102140006588D1442D044844A94625880C34AA4604
:10215000D1444D462D1AA9460500D5414B446B404C
:102160001D00F5410818C91A69400D006646F54181
:102170001B18401A68400500FD41C9181B1A6B4026
:102180001D000D26F5414018C91A69400D00D541C2
:102190001B18401A68400C256D42A946CB445D4689
:1021A000C9180C2DBFD85A4695008A4A52599746ED
:1021B0005A46180019000C2A5DD91A25A846023D76
:1021C0001C22AC461027657946462D02A946A57902
:1021D0002D04AA462579D144AA46E579D1442D0695
:1021E000AA46657AD1442D024944A946A57A2D0410
:1021F000AA46257AD144AA46E57AD1442D06AA46B4
:102200006578D1442D024844A946A5782D04AA46F4
:102210002578D144AA46E578D1442D06AA46D14472
:102220004D462D1AA9460500D5414B446B401D0073
:10223000F5410818C91A69400D006646F5411B189A
:10224000401A68400500FD41C9181B1A6B401D006B
:102250000D26F5414018C91A69400D00D5411B18DB
:10226000401A68400C256D42A946CB445D46C9180A
:102270000C340C2DA7D85A469500574A5259974608
:10228000E27A12068018A27A12048018627A120288
:102290008018227A8018E27912068918A27912042D
:1022A000891862791202891822798918E27812064F
:1022B0009B18A27812049B18627812029B1822784D
:1022C000D31812220C00D4414840001B05001524ED
:1022D000E54143405B1B07241D00E5415940491B74
:1022E00010240D00E5414840401B05001C24E54139
:1022F00043405B1B5940D3410A3ACB1A5840D34163
:10230000C01A3CBC90469946A246AB46F0BDA268B6
:102310009446604462689446226861449B18D0E702
:10232000A27812049B182288D318CAE72279891848
:102330002588ED1863881B045B19C2E7227A801890
:10234000A2885118E28812048918F1E7A288891836
:1023500022689B18B5E7227A8018DBE7228980186B
:10236000D8E7A2681202120A8018D3E72268120284
:10237000120AD318A5E722689B18A2E76268120226
:10238000120A891822689B189BE72279891822680B
:102390009B1896E7A27912048918A2888918C7E7C2
:1023A000A27A1204801822898018C9E7228910189D
:1023B000628912041018A2885118E2881204511878
:1023C0002288D21863881B049B187AE7EFBEADDE23
:1023D00088310110BC310110F0310110F0B5DE463A
:1023E000454657464E46E0B51F00604B9BB09846A9
:1023F00004000D0016001900282206A806F0DAFCD9
:1024000041462822283110A806F0D4FC0022584B5F
:102410003000390005F05EFD564B06000F0020002D
:102420002900002205F056FD249B0400013B0D000D
:10243000092B00D994E0249B5B109B4600D192E0CD
:1024400006AB9A464C4B059399460023984632E0DA
:10245000002A5FD0009A019B3000390005F043FD4F
:1024600005F0F0FD4B46413018702900029A039B9D
:10247000200005F038FD05F0E5FD4B464130587071
:10248000009A019B3000390005F00AFF029A039B75
:1024900006000F002000290005F002FF01239C46E2
:1024A0000733E0449C46063BE2449C4604000D0092
:1024B000E144D84545DA53461A685B6800920193B7
:1024C00010AA43469446DB0063441A685B68029294
:1024D0000393012342461342BAD0009A019B300075
:1024E000390005F000FD0022244B05F0F3FC05F057
:1024F000CDFD4B4629001870029A039B200005F081
:10250000F2FC1E4B002205F0E5FC05F0BFFD4B463A
:102510005870B5E7069A079B3000390005F0E3FCD8
:1025200005F090FD059B413018702900109A119B11
:10253000200005F0D8FC05F085FD059B4130587062
:102540009EE75B465B009B46059A002359461000B8
:1025500053541BB03CBC90469946A246AB46F0BDD6
:1025600003239B466CE7044B0593EDE728320110EB
:102570000080664000805640782F002000004840D0
:10258000F8B5CE46474680B51E000BAB1D78804699
:10259000431E98410F00C0B29146FDF7DBFE3800A4
:1025A000431E9841C0B2FDF7D5FE3000431E98414E
:1025B000C0B2FDF7CFFE98210120490006F0BCFB18
:1025C0000400431E9841C0B2FDF7C4FE0C224146F0
:1025D00020000AF0F7FB2000072239000C300AF037
:1025E000F1FB4B463200002126488A26E374FEF7B1
:1025F00027FB7600A051431E9841C0B2FDF7AAFE0A
:102600000999089B8C46A259634493518C230A99DB
:102610005B00D15000221C4B1C4E1A60FF21283257
:10262000300006F0C1FBA81C0A2105F0E7F9902351
:102630005B00E35C2D2B1ED00122AB009A510223DC
:1026400089008B512023FF33E35CFD2B0ED0A81DA6
:102650000A2105F0D3F90323280089008B510830A3
:102660000A2105F0CBF9042389008B5120000CBC12
:1026700090469946F8BD2A3BAD00AB518900013325
:102680008B51F3E7AB6A0A0094290020DC2F00206D
:10269000F0B54546DE464E4657460400431E984177
:1026A000E0B5C0B28DB00D00FDF754FE07AB984603
:1026B0004246714B43CB43C219681160998891809F
:1026C0009B799371012D00D1DCE2022D00D0E7E06F
:1026D0002625FF3563579946022B00DD1DE38A232B
:1026E0005B00E258043BD358DA6C98239B00D05827
:1026F00006F0AAFA0022614B05F0F5FB05F080FD1B
:10270000257C5F4B413DEDB26A005219657CD200D9
:10271000413DEDB2AD185D4305F0B8FC80B24519FE
:102720001A21280005F092F92800CEB21A2105F0EE
:102730008DF91A2105F08AF9CFB2A9212800890064
:1027400005F084F91A2105F081F92800CBB24D4932
:102750009A4605F07BF9242105F078F9CBB20929D6
:1027600000D8D2E23733DBB2902203AD5200A25C34
:1027700051466B7022232A704131FF33E35CE970CC
:102780002100AB700023293141374136FF312F71D1
:102790006E719A4608684968AB7100223A4B05F0A1
:1027A000C0FB0022394B05F08CFB0022384B05F0B2
:1027B0009AFB05F025FD92235B000600E0560F0012
:1027C00005F028FC0022334B05F084FB05F05EFC8D
:1027D000C0B281000818C300390030009B4605F0E4
:1027E00055FCC0B21430282105F008F9542659448C
:1027F0004E43760003362849300005F027F91221B0
:1028000005F024F94131CBB29B462449300005F054
:102810001DF9122105F01AF95B464131CFB23F0292
:102820003B439B46BE21300005F010F90A2105F01C
:102830000DF95B463031CFB2300013213F041F4306
:1028400005F004F90A2105F001F953463031090673
:102850000F43059705AF3B713000132105F0F6F8E3
:1028600043465A564B461434DBB2009339002300DA
:102870002800FFF7B7FA1FE2783201100000344059
:102880002C040000A84400000000594000C0724021
:102890000000144000004940988500006C070000CB
:1028A000032D00D010E2D04B21009B4618000AF007
:1028B000BFF95B460222CD49C61A06F07BFA2023F7
:1028C000FF33E35C05A930330B700023701C5844C0
:1028D0004B700AF03BFA8A235B00E258043BD35862
:1028E000C349DA6C98239B00D658301C06F03CF99B
:1028F000002800D00CE20023002798469A46BD49E4
:10290000301C06F031F9002803D0072398469A4678
:10291000B84FB949301C06F027F9002803D00A2324
:1029200098469A46B44FB549301C06F01DF9002868
:1029300003D00D2398469A46B04FB149301C06F09B
:1029400013F9002803D0112398469A46AC4FAD499D
:10295000301C06F009F9002803D0142398469A4643
:10296000A84FA949301C06F0FFF8002803D0172310
:1029700098469A46A44FA549301C06F0F5F8002861
:1029800003D01B2398469A46A04FA149301C06F05D
:10299000EBF8002803D01E2398469A469C4F9D4989
:1029A000301C06F0E1F8002803D0212398469A460F
:1029B000984F9949301C06F0D7F8002803D02523FA
:1029C00098469A46944F9549301C06F0CDF8002859
:1029D00003D0282398469A46904F9149301C06F020
:1029E000C3F8002803D02B2398469A468C4F8D4974
:1029F000301C06F0B9F8002803D02F2398469A46D9
:102A0000884F8949301C06F0AFF8002803D03223E4
:102A100098469A46844F8549301C06F0A5F8002850
:102A200003D0352398469A46804F8149301C06F0E2
:102A30009BF8002803D0392398469A467C4F7D495D
:102A4000301C06F091F8002803D03C2398469A46A3
:102A5000784F391C301C06F030F87749071C06F017
:102A600083F8764B9946002800D063E10025187062
:102A70007349381C06F078F8002803D007234A462B
:102A8000072513706F49381C06F06EF8002803D034
:102A90000A234A460A2513706B49381C06F064F86D
:102AA000002803D00D234A460D2513706749381CB2
:102AB00006F05AF8002803D011234A461125137056
:102AC0006349381C06F050F8002803D014234A4606
:102AD000142513705F49381C06F046F8002803D00F
:102AE00017234A46172513705B49381C06F03CF83B
:102AF000002803D01B234A461B2513705749381C56
:102B000006F032F8002803D01E234A461E25137013
:102B10005349381C06F028F8002803D021234A46E0
:102B2000212513704F49381C06F01EF8002803D0E9
:102B300025234A46252513704B49381C06F014F806
:102B4000002803D028234A46282513704749381CFB
:102B500006F00AF8002803D02B234A462B251370D1
:102B60004349381C06F000F8002803D02F234A46BA
:102B70002F2513703F49381C05F0F6FF002803D0BD
:102B800032234A46322513703B49381C05F0ECFFCE
:102B9000002803D035234A46352513703749381CA1
:102BA00005F0E2FF002803D039234A463925137087
:102BB0003349381C05F0D8FF002803D03C234A468F
:102BC0003C2513702627FF37E257022A00DDB5E0C7
:102BD00023002100D2B2009214330C3142465846F1
:102BE000FFF700F968E0C046EC250020BC32011078
:102BF000000061440040034500803B4500C0734530
:102C000000609F450080BB4500A0D7450020FD45E2
:102C100000A00C4600B01A4600702D4600803B46CE
:102C20000090494600505C4600606A460070784655
:102C30000098854600A08C46000070425B30002062
:102C400000000C4300004843000082430000AA43F8
:102C50000000C8430000E64300000744000016449B
:102C60000000254400003944000048440000574457
:102C700000006B4400007A440080844400808E444D
:102C8000000096440A232626E374FF36A5570A2738
:102C9000022D48DC210005AE0C31042230000AF080
:102CA00091F8002333712300EDB2143300953A00FC
:102CB00031002000FFF796F800200DB03CBC904694
:102CC0009946A246AB46F0BD042DF5D13C2303AA9C
:102CD00013803E22204D05AE2B70681C1F493280A8
:102CE00009F0A6FF3100022206F064F82620230036
:102CF00021001B4AFF30205C12781433009052B23E
:102D00000C312800FFF76EF8D6E73033DBB22BE545
:102D10000323144F9A469846F1E5134806F000FA4B
:102D200063579946DBE41327104806F0F9F9E75793
:102D3000A557AFE703234A46137099E6301C05F008
:102D400083FF0B005146020001950091084806F0F0
:102D5000D3FAE2573CE7C04630300020EC25002093
:102D60005B30002000006144A43201108C3201105D
:102D7000C0320110F8B55746DE464E464546E0B52E
:102D800005006B1E9D418A2604008827EBB21800BF
:102D900076009A46FDF7DEFAA3597F00D859C36C36
:102DA0001A7C196B94468E225200A25C002A00D035
:102DB00092E0002900D180E06246002A0ED126224E
:102DC000FF32A256002A09DD1E23FF33826DE15C2B
:102DD000714800F0D3F9A359D859C36C597C6F4B93
:102DE0003039984619606E4B9B465A468B00D25834
:102DF000561C4DD06B4E3668002E42D00026002A5D
:102E00003FDD694EB4469E59002E4BD10127B9468D
:102E100067464D46DD512623FF33E356022B43DC44
:102E2000FDF714FC43465A468A251B6820009B0088
:102E3000D158FFF72DFC32206D0001F0C1FF504644
:102E4000FDF788FA6059431E9841C0B2FDF782FA37
:102E5000635956485B59984280414042FDF77AFADF
:102E60006059FDF73DFF21006059A2220F30143157
:102E700005F0A0FFA22263595A731E23A03AFF3324
:102E8000E25430003CBC90469946A246AB46F8BDA1
:102E900029320021444805F087FF0122414B0026DA
:102EA0001A60EEE70026ECE7414806F025FA8A238F
:102EB0005B00E258043BD058B2E72623FF33E356C9
:102EC000002B02DD3B4800F059F91E2300220126A9
:102ED000FF33E2547642D4E7374B98461B68002B09
:102EE00036D1364800F04AF91E230222FF33E2545D
:102EF000A359D859FDF7AAFB642001F061FF5046A1
:102F0000FDF728FAA059431E9841C0B2FDF722FAF6
:102F1000A35926489B59984280414042FDF71AFA2E
:102F2000A059FDF7DDFE2100A0591431A2220F3077
:102F300005F040FFA222A359163E5A7302F028F86A
:102F40001F4B4246186059600123FF3E136098E70B
:102F50001B4B1E685F6802F01BF8801BB9410029FB
:102F600005D1184B984202D80126764289E7002302
:102F7000424613601533FF33E258043BD058FDF747
:102F800077FB114806F0CCF8FA200126C00001F0CA
:102F900017FF764275E7C046FC330110E82A00208F
:102FA000DC2F002094290020902F002020A1070072
:102FB00040340110DC330110602B00206C33011011
:102FC00068250020000E270794330110F0B5040097
:102FD0008A25431E984183B06D00C0B2FDF7BAF94F
:102FE00060598826431E9841C0B2FDF7B3F9635972
:102FF00076009859431E9841C0B2FDF7ABF963596A
:103000009B59D86C431E9841C0B2FDF7A3F9635990
:103010009B59DC6CA06AE16A05F050F80A4A0B4B38
:1030200004F07FFF06000F00206A616A05F046F891
:10303000054A064B04F075FF0623320000933B005F
:10304000FFF7CCF903B0F0BD48AFBC9AF2D77A3E97
:10305000F8B504008A25431E98416D00C0B2FDF703
:1030600079F960598826431E9841C0B2FDF772F97C
:10307000224B2348DA689B6800F080F86359760099
:103080009B592048DF6CBA6BFB6B5137FF3700F060
:1030900075F83A687B681C4800F070F81E23FF330F
:1030A000E15C1A4800F06AF82000FFF78FFF01008A
:1030B000174800F063F8635916489B59DB6C1A6A8D
:1030C0005B6A00F05BF8635913489B59DB6C9A6AA2
:1030D000DB6A00F053F863599B59DA6C98239B0024
:1030E000D05805F0B1FD02000B000C4800F046F886
:1030F0000B4B0C48196800F041F8F8BD0040054042
:10310000E8320110FC3201100833011014330110B1
:1031100024330110303301103C33011048330110C7
:10312000E82A00205833011070B504008A25431E98
:1031300098416D00C0B2FDF70DF960598826431E15
:103140009841C0B2FDF706F9635976009859431EBD
:103150009841C0B2FDF7FEF863599B59D86C431EE5
:103160009841C0B2FDF7F6F863599B59DB6C187CA7
:10317000013843425841C0B270BDC0460FB4F0B5EB
:103180004F46D6464646C0B5454B90B099461B685B
:10319000002B00D180E001F0FBFE424A1423069090
:1031A000079104F091FC14001D00200029003E4A04
:1031B00000230894099504F087FC14001D002000EA
:1031C00029003A4A00230A940B9504F07DFC16006E
:1031D0001F00374A0023300039000C960D9704F089
:1031E00073FC040000258046E10E6001001BA9412C
:1031F000C30D9C4666464B023343420212196B4193
:10320000910E8C466646990190013143801A99418E
:103210000C9E0D9F00196941264C361A8F412000E3
:10322000002106F009F80A980B994B464A461D689A
:103230006B1C13601D4A002304F046FC1A4A8246A8
:1032400008980999002304F03FFC164A8146069825
:103250000799142304F038FC43464A4601000093C2
:103260000495534602960397134806F045F819A9AA
:1032700018980F9105F0F8FF0A2005F005FF0121CD
:10328000200005F0D9FF10B01CBC90469946A2461C
:10329000F0BC08BC04B0184706F03AF87BE7C0461B
:1032A000D82F00200060D71D00A493D60087930379
:1032B00040420F00C01900208434011000B587B0CF
:1032C00005AB04AA03A90B4800F074FC002803D145
:1032D0000849094802F0A4FF059A0499039800F0F0
:1032E0002DFC064B012200930021062002F0D4FBA6
:1032F00007B000BD580F0200AC340110C0EF0B083E
:1033000070B5194E8A2530686D00431E9841C0B2D1
:10331000FDF720F833685A5988235B00D458200001
:10332000431E9841C0B2FDF715F8336820005A5982
:103330008C235B00D1580D4AFDF724F843425841D5
:10334000C0B2FDF707F8336800225B5920005959D5
:10335000FDF7ECF843425841C0B2FCF7FBFF2000F8
:103360000FF0F6FC70BDC0466C300020C0EF0B08BB
:10337000F0B5C6468025224B00B500249846214F63
:103380000F266D0005E02020013405F07DFEAC42E3
:103390000DD0E15D404605F0AFFF330023400F2B19
:1033A000F1D10A20013405F06FFEAC42F1D10622C2
:1033B0001449154809F006FD02221449144809F081
:1033C00001FD01221349144809F0FCFC01221349B4
:1033D000134809F0F7FC01221249134809F0F2FCE6
:1033E000124C01221249200009F0ECFC2378303BFA
:1033F000092B01D93123237004BC9046F0BDC0468F
:1034000098360110000004108030002006000410DF
:1034100070300020080004108830002009000410DB
:103420007C3000200A000410783000207430002026
:103430000B00041000B5094B85B00293084B094AF4
:103440000193094B0949009309480A4B05F054FFC1
:10345000094805F065FE05B000BDC0467430002087
:103460007C30002078300020883000208030002020
:10347000A036011070300020F836011030B5C1B010
:1034800006221A49684609F09DFC6B460222981DE7
:10349000174909F097FC0122164902A809F092FC8D
:1034A000092001221449684409F08CFC0A200122F9
:1034B0001249684409F086FC0B2001221049684437
:1034C00009F080FCEFF3108572B680248021E402BD
:1034D000200049010FF064FC802269465200200060
:1034E0000FF046FC85F3108841B030BD80300020DD
:1034F00070300020883000207C30002078300020A0
:1035000074300020F8B5DE4657464E464546002149
:10351000E0B56E48D02405F08FFE08232406A36191
:10352000642001F04DFC80239B046361684805F032
:10353000F7FD684A6849694805F0DEFE684805F00D
:10354000EFFD684805F0ECFD674805F0E9FDFFF781
:1035500071FF664B00249B46654B664F9A46664B4F
:10356000664D9946664B674E9846674805F0D8FE0B
:10357000C1B2FF2920D05A2901D92039C9B20B0084
:103580000A3BDBB24E2B00D998E0604A9B00D3582F
:103590009F465F4805F0B0FE5E49280009F028FB11
:1035A0005C4B5C70FFF76AFFFFF744FF564805F07D
:1035B000B7FEC1B2FF29DED1574805F09DFE0121BB
:1035C000642002F0D7FCFEE7544805F095FE514612
:1035D000280009F00DFB53465C70FFF74FFFFFF723
:1035E00029FFC2E74E4805F087FE4946280009F04A
:1035F000FFFA4B465C70FFF741FFFFF71BFFB4E794
:10360000484805F079FE4146280009F0F1FA4346A2
:103610005C70FFF733FFFFF70DFFA6E7424805F0A8
:103620006BFE3100280009F0E3FA3378B470002B08
:10363000B8D0320059460320C95C014002290AD0A3
:10364000137001321378002BACD059460320C95CAB
:1036500001400229F4D1203B137001321378002B72
:10366000E8D19FE7314805F047FE3900280009F00E
:10367000BFFA3B78BC713A00002B93D05946032027
:10368000C95C014002290AD0137001321378002B63
:1036900088D059460320C95C01400229F4D1203B5F
:1036A000137001321378002BE8D17BE7204805F036
:1036B00023FE0121642002F05DFCFEE70A001D48A4
:1036C00005F01AFEFFF7B6FE4FE7C046C01900200E
:1036D00084380110903801109C380110A83801106E
:1036E000E43801101439011048390110D14001109B
:1036F000783000208030002088300020303A0110DF
:103700007C3000207030002000879303E0340110EB
:10371000983A011074300020D4390110343A011065
:10372000683A0110803A0110583A01101C3A011011
:10373000103A0110B03A0110F0B5DE4657464E4639
:103740004546E0B5D02580269FB02D06B604192049
:1037500000F086FC19206E6200F082FC6E621D2073
:103760006E6100F07DFC80239B05AB62002200218E
:103770001D2000F007FC08F04BFA0222CD4BCE488A
:103780001A60FFF7FBFC1424370064206F6101F01E
:1037900017FB013CAE61642001F012FB002CF4D158
:1037A000FFF7E6FDC54AC649C648FFF7E7FCFFF745
:1037B00085FD5C22002107A805F0F6FAC248FFF754
:1037C000DDFCC24B1B78313BDBB2032B00D96FE130
:1037D000BF4A9B009A58BF4B00251B78BE49303B1F
:1037E000DBB203930623009202930A2207AB0195F2
:1037F000BA48FEF7C5FE0400431E9841C0B2FCF76C
:10380000A9FDB74B00221C608E235B00E5520233FA
:10381000E25424230322FF33E2542022B14BFF322F
:103820001B782000303BA3542622AF4EFF32337862
:103830002130303BA354AD49FF3009F087FAAC4842
:1038400008F066F8AB48FFF799FC032000F008FC8D
:10385000D023082296211B065A6289015A61002052
:10386000063AFCF717FF1A90431E9841C0B2FCF7C6
:1038700071FD99231A9A9B00D55233789E49303BAB
:103880005354002399469A469C4B9B462000FFF7D1
:103890004BFC002800D0C3E001212000FFF76AFAAA
:1038A0002623FF33E356042B09DD01239C46E24423
:1038B0001421504604F0A2F8002900D1EDE058464A
:1038C000002105F0B9FC002005F02AFD002800DDEC
:1038D000E7E080238A4DDB012A6829005340E0227B
:1038E000D2011340874A13600422724B1A60FC32E3
:1038F0000B681342FCD0686880B205F046F9824933
:1039000005F0F5F8814905F0D8F8814905F0DBF8B4
:10391000011C804805F0D1F8804605F05DF992233E
:1039200040B25B00E0541A9B80210593059A7A4BC4
:103930004900D054C0232A689B015340E022D201A1
:103940001340704A136004225A4B1A606C4A136881
:103950000B42FCD0506880B205F017F96F4905F0B2
:10396000C6F8694905F0C3F8051C05F06DF90600B5
:103970000F00281C694905F0E9F800280BD0684AB7
:10398000684B3000390004F0A5FA04F0CFFB05F0D5
:103990005BF906000F00644A644B3000390004F004
:1039A00021FB00280BD05E4A5E4B3000390004F04A
:1039B00088FA04F0BBFB05F047F906000F0023006E
:1039C0002933FF331E605F602623FF33E356002B4D
:1039D00005DD01239C46E1444B469B074BD0D02696
:1039E00080271E253606BF047761FF35635D002BF7
:1039F00025D0012B2ED0022B00D047E7DC20400041
:103A000001F0DEF9D02380221B0692041E209A6169
:103A100001F0D6F92000FFF787FB002800D13BE733
:103A20002000FFF7D3FA002800D135E7010020007D
:103A300006220C3009F0C6F90023E3742CE71420A9
:103A400001F0BEF9DC20B761400001F0B9F9635D17
:103A5000012BD0D18220400001F0B2F9D023802286
:103A600082201B0692049A61400001F0A9F91E23EE
:103A7000FF33E35CBFE72E49404605F038F8842168
:103A8000C90505F01DF805F0DFF800960197020062
:103A90000B00284805F030FCA1E72000FFF7D8FA1A
:103AA0000DE7992301211A9A9B00D154FFF72AFDB3
:103AB000214A90E600E0044080380110903801105F
:103AC0009C3801102C360110483601107C30002043
:103AD0001C360110883000205C3601108030002038
:103AE0006C300020783000207430002070300020CE
:103AF000013300106436011067020000C019002075
:103B000000C0044000D004403333533A6ABC343F11
:103B10002D93E13A0000D8416602000000004040C9
:103B2000333333333333FF3FCDCCCCCCCCCC134009
:103B30006666E63F7C360110CC1AD700F0B583B03C
:103B400005000E00140000F0A9FA002801D003B00F
:103B5000F0BD154F01223B0000970121053001F017
:103B60009BFF33002A0000940121104802F0AAF9BB
:103B700021002800714303F069FF04000C4B002270
:103B800000930221042001F087FF2300009400220B
:103B90000121052001F080FF00973B000222002157
:103BA000062001F079FFD2E7006CDC0200800240C1
:103BB000001BB700F0B5DE4657464E464546E0B519
:103BC00085B003934A4B070099464023FF339B4639
:103BD00001910292474B994500D186E0464E474BF2
:103BE0004E440624994565D8651C29003000694378
:103BF00003F02CFF874245D0002C5BD02900300019
:103C0000614303F023FF87425CD0631E9846002B7C
:103C10002FD019003000694303F018FF874254D0B9
:103C2000A31E9A46002B24D019003000694303F0EC
:103C30000DFF87424DD0E31E9A46002B19D0190084
:103C40003000694303F002FF874246D0231F9A46A3
:103C5000002B0ED019003000694303F0F7FE8742B5
:103C60003FD0052C05D02900300003F0EFFE87423D
:103C70001CD04446651C29003000694303F0E6FE71
:103C80008742B9D10029B7D12C005A4601201C4BDC
:103C90005343019A1360029B1D60039B1C6005B097
:103CA0003CBC90469946A246AB46F0BD0029E0D107
:103CB0000124EAE701235B429C46124BE3449C4605
:103CC000E14487E70029A0D1DFE70029A8D14446D5
:103CD000DBE70029AFD15446D7E70029B6D15446D7
:103CE000D3E70029BDD15446CFE70020D7E7C0462F
:103CF00070F72E00704DF7FFB0710B0050F80C00FC
:103D0000001BB70020D1FFFFD0231B061B68F0B5B6
:103D10009A004546904641468A4ADE4652585746E2
:103D200093465A1E934130224E465B421A40864BC0
:103D300000249C46854BE0B59A4683B062440092CD
:103D4000E20813002600083300999B005D580836EE
:103D5000002D24D0A64224D95B46002B2AD0012373
:103D60000F2799463900294013D04B46524640460A
:103D7000A34012581A420CD1072208002240920098
:103D800090400200E30872483C339B001A50200028
:103D9000D8472D090134002D01D0A642E2D8202EAB
:103DA00001D03400CCE703B03CBC90469946A24613
:103DB000AB46F0BD0F232B4007D001214746A14061
:103DC0006248C059084200D1A8E02B09611C002BB1
:103DD000E5D08E42E3D90F2213406BD12B0AA11CF0
:103DE000002BDCD08E42DAD90F22134073D12B0B7B
:103DF000E11C002BD3D08E42D1D90F2213407BD1AE
:103E00002B0C211D002BCAD08E42C8D90F22134083
:103E10000FD047460E3A8A404C48C059104208D14C
:103E20000720CA08014089008B403C324849920073
:103E300053502B0D611D002BB1D08E42AFD90F22F4
:103E4000134006D047460E3A8A404048C0591042B7
:103E50006DD02B0EA11D002BA1D08E429FD90F2219
:103E600013400FD047460E3A8A403848C059104296
:103E700008D10720CA08014089008B403C323449F0
:103E8000920053502D0F0734002D00D187E70123F6
:103E90004146A3402D4A525801921A4200D07EE773
:103EA0000722E3081440A400A5403C33284A9B00A5
:103EB0009D5074E747460E3A8A402448C059104244
:103EC0008CD10720CA08014089008B403C32204930
:103ED0009200535082E747460E3A8A401B48C05929
:103EE000104284D10720CA08014089008B403C322F
:103EF0001749920053507AE747460E3A8A401348D2
:103F0000C059104200D07BE70720CA080140890051
:103F10008B403C320E499200535071E707212140FB
:103F200089008B403C320A49920053504DE70720EC
:103F3000CA08014089008B403C3205499200535029
:103F400087E7C046982A002000410140C82F002082
:103F500000400140094A830094464022634410B562
:103F60001C68C0006240C0241440802252011343E8
:103F70001C60034B9C466044416010BD04C001407E
:103F8000004001400A4B80009C4604236044002905
:103F900001D00C230821002A00D10B0002685340F5
:103FA0000C221A4080235B01184302607047C04610
:103FB00004C00140F8B51D00D0231B061B68140087
:103FC0005A1E934130225B421340214AC608944650
:103FD000072202409200914032001E483C32634466
:103FE0009200B60011509B19002C11D08022920132
:103FF00013431960D0231B061E68174FB600BB5928
:10400000002B11D0002D1ED0BD51002C16D1F8BDB3
:10401000C022920113431960D0231B061E680E4F65
:10402000B600BB59002BEDD1002DEED000220B497C
:104030000D20BD5100F058F9002CE8D001210D20D1
:1040400000F0E4F8E3E705490D2000F031FADBE782
:104050000041014000400140982A0020093D001025
:104060000123D0228340120693629361094A8300A0
:104070009446402263441968C0004A40C021114060
:104080008022520113431960034B9C460523604470
:104090004360704704C0014000400140024B186873
:1040A0008007C00F7047C04600C00640EFF3108085
:1040B00072B6034A1368002BFCD0BFF35F8F7047C2
:1040C0002C0100D0BFF35F8F0022024B1A6080F3F7
:1040D000108870472C0100D0F8B5EFF3108772B646
:1040E0000D4E3368002BFCD0BFF35F8F0725CB0844
:1040F000C01801230D40AB401D000478254007D1B6
:1041000023430370BFF35F8F356087F31088F8BDDA
:10411000100002F085F8C0462C0100D0F8B5CE465C
:1041200047468C4680B5EFF3108872B6214D2C6857
:10413000002CFCD0BFF35F8F9A422CD807210125B9
:1041400011408D40D4080419267835421FD007212C
:104150008946063909E04D460F001540AF40D408A6
:10416000041926783D00374211D001329342F2D231
:1041700001204042BFF35F8F00220E4B1A6088F38C
:10418000108800280FDB0CBC90469946F8BD3543DB
:1041900025701000EEE7BFF35F8F00232B6088F3DC
:1041A0001088012040426346002BECD0089802F0B2
:1041B00037F8C0462C0100D00021044B044ABFF35D
:1041C0005F8F02C39342FAD17047C046000100D00E
:1041D000800100D0044A1078431CDBB2172B00D9B1
:1041E000102313707047C0462019002000B5054BFE
:1041F00083B00100009318221F230348FFF78EFFAE
:1042000003B000BDDC3A0110BC2A0020012383402A
:10421000002904D0034A1360034A13607047034A1D
:104220001360FBE780E200E000E100E080E100E0F5
:1042300001228240034B1B681340581E8341D8B2B1
:104240007047C04600E100E001238340014A13604B
:104250007047C04600E200E0084B10309B688000C9
:10426000C358002B07D0064A00209B1A2F229A42DF
:104270004041C0B270470020FCE7C04600ED00E0BE
:1042800024190020024B10309B688000C0587047F2
:1042900000ED00E070B50D00EFF3108672B60F4A26
:1042A0001368002BFCD0BFF35F8F0D4B10309B6861
:1042B00084001B590B4A934203D09D4201D001F068
:1042C000C7FF074B9B681D51BFF35F8FBFF35F8F25
:1042D0000022024B1A6086F3108870BD240100D0C2
:1042E00000ED00E0CD010010F8B557464546DE462A
:1042F0004E468A46E0B590460700EFF3108972B645
:104300005F4A1368002BFCD0BFF35F8F00205D4B2A
:1043100018569B46002800DAA2E05A4644005A4D3F
:104320002418A4002E19B37910371370574BBA0014
:104330009B68934699584B1B2F2B41D801230A00A9
:104340009A43D3799446434514D90627D757130087
:10435000002F06DA8DE00627DF571A00002F00DA5B
:1043600087E07B00DB199B00EB18DF794745F2D82B
:10437000002A51D1464A63465B1B5B415A43120DEA
:10438000444BA11C3380444B6918043B5B1A1B054A
:1043900042495B0D0B43738063460434043B2D1983
:1043A0005D1B43462D05F3716D0D53462943B180C6
:1043B000B27101216246B360394B3143136018E09A
:1043C000384B994252D1334B02343380324B2D1942
:1043D000043B5D1B2D05314B6D0D1D43324B0121FF
:1043E000B380FF23B3714346F37153467580B360C6
:1043F00031435A46254B9B689950BFF35F8FBFF3FB
:104400005F8F00221E4B1A6089F310883CBC9046D7
:104410009946A246AB46F8BD0627D757131D9C46C2
:10442000002F2BDB04342D19E024938824025B0534
:104430001B1563445B1B1B055B0D23436546341F43
:10444000641B2405154D640D2C4394809071B3803A
:104450004346F3715346124AB7713260B360C8E7FE
:1044600001F0F6FE5B460020185656E701F0F0FE1C
:10447000A9E71A1D94461A000C4BDFE70B4BDDE74A
:10448000240100D05F3000202419002000ED00E05E
:10449000AAAA000000A1FFFF5419002000E0FFFFBE
:1044A00001488047CD01001001BDFFFF01BD0000A4
:1044B000F0B54546DE4657464E46E0B50D0083B0A2
:1044C000EFF3108972B6584A1368002BFCD0BFF383
:1044D0005F8F564B9A68030010339F00D459544A9B
:1044E0009046944234D0AC4245D0524EA21B2F2A63
:1044F0002ED801228240924651464F4A12681140FE
:10450000019151464D4A1160BFF35F8FEFF3058271
:104510009346002A35D10123220006219A4393684D
:1045200051569D420AD16AE04B005B1806219B0060
:10453000F31898685956A84228D01A000029F3DACF
:10454000019B002B19D052463D4B1A603A4B1A6022
:10455000364B9B68DC51BFF35F8FBFF35F8F002248
:10456000314B1A6089F3108803B03CBC90469946E1
:10457000A246AB46F0BD1400EAE752462F4B1A6044
:10458000E6E79342C7D001F063FEC4E7002921DBD0
:104590004A005018800035188046A8689860E8796D
:1045A000D871062028569871002826DBAD88F01AAD
:1045B0006D052D1545444019E0250005400D2D02DF
:1045C0002843988052181F4B9200B6181A78197019
:1045D000B271B5E75946002917D1002A22D0FF3120
:1045E00091711949918017490A789A71174A9B1B52
:1045F0005B415A43120D0A70A2E71548E1E7130028
:104600000029C5DA5A46002A0CD0124A1249D21A99
:10461000083A5002400D01439980104952080A435C
:10462000DA808DE74446DEE7240100D000ED00E0AB
:10463000CD0100102419002000E100E080E100E03D
:1046400080E200E05F30002001BDFFFFAAAA000069
:1046500001BD00005E19002000F0FFFF00F8FFFF21
:1046600010B5032304009C430340FF20054ADB00F0
:104670009446984099406444226882430A432260E9
:1046800010BDC04600E400E0F0B5EFF30581012461
:104690000443EFF3108672B6214A1368002BFCD056
:1046A000BFF35F8F1F4B204A0500ED1A6D416A432F
:1046B000120D1E4D8900AF6852B27F58A7421CD020
:1046C0000621595691421CD012215956914222D0AE
:1046D0001E215956914220D02A2159560324914235
:1046E00010D0134B19781A708171BFF35F8F0022BD
:1046F0000B4B1A6086F31088F0BDAB680D4C5C5014
:10470000EFE700246100091989005B18FF21997106
:1047100009499980E5E70124F4E70224F2E7C0465D
:10472000240100D024190020AAAA000000ED00E016
:104730005F300020CD01001001BDFFFF054B064A90
:104740001360064A136053609360D3601361536132
:10475000936170478080808000E400E004E400E022
:1047600000B5074B83B001000093002205230548E4
:10477000FFF7D4FC002801DB1F23181A03B000BD8B
:10478000F83A011065300020024B9C4661448900D4
:10479000016070474000003410B50400FFF71AFDB7
:1047A00001002000FFF7F0FFFF232371BFF35F8FAD
:1047B00010BDC04610B50400FFF70CFD010020003D
:1047C000FFF7E2FFFF23A380BFF35F8F10BDC0465A
:1047D00010B504000120FFF709FD044B9C4660441E
:1047E00080002060BFF35F8F10BDC04640000034E2
:1047F000034B9C46614489000160BFF35F8F7047A3
:104800004000003470B506000D00140000291ED0D1
:10481000002A1ED073688068984763006A001B19DD
:104820005219033B033A3168002808D0CB188A1884
:104830009D70117800290ED11470280008E08A18A4
:10484000CB1894701978002900D051701D70200089
:1048500070BD0800FCE7597028001470F8E7C046E6
:1048600083680B4810B58446614462440901120113
:104870009A18591854684B6801209C4201D802D0FC
:104880000020C0B210BD12680B689A42F9D8F7E751
:10489000FFFFFF0F0A4B1968EFF3108072B60A682A
:1048A000002AFCD0BFF35F8F1B68BFF35F8F00222D
:1048B0001A6080F3108840BF002000217047C04676
:1048C00008300020F8B54746CE4680B514001D00DC
:1048D0000BAA0AAB12781B78804691460768002B1A
:1048E00012D1BE7B002E44D0720092193968033A6F
:1048F000891848783300B873002800D1F873002075
:1049000088704870087003E01E005A00D218033AFD
:104910001A4938008C464146896863448C461B011D
:1049200008996344996009991C605D60D9603B688F
:104930009C4600236244937053701370797B32005D
:10494000FFF760FF7873B04213D143462200187D11
:104950002B0000F0AFFB041E07D04B46002B04D108
:1049600043463100186800F023FF0C9B002B00D059
:104970001C7030000CBC90469946F8BDFFFFFF0F3D
:10498000F0B5DE4657464E4645460023E0B58BB0AF
:104990000893684B8200D45800239B46099000F08E
:1049A000F7FA6268EFF3108572B61368002BFCD03B
:1049B000BFF35F8F23689C465B7B9946002B00D139
:1049C0006DE0A2685C4B90464B441B019844434603
:1049D0001E685F6832003B00121A8B41002B00DC1E
:1049E00067E032003B00099800F064FB00230022DE
:1049F000984600230692079300239A466368BFF304
:104A00005F8F5A461A6085F310885346002B08D1F1
:104A10000028C4D10BB03CBC90469946A246AB4698
:104A2000F0BD089B414618024B461843D0476268C8
:104A300006000F00EFF3108572B61368002BFCD050
:104A4000BFF35F8F002F52DB33003B4302D023695B
:104A5000002B63D12368DA7B002A07D051008A1823
:104A600019688C4649466244033A51709A7B002A81
:104A700001D14A469A734A46DA73E2684B46944635
:104A8000013B63441A7801321A705B462361636804
:104A9000BFF35F8F5A461A6085F310887FE70023C3
:104AA00000229846002306920793002300209A468E
:104AB000A4E7002B02D1002A00D092E70021604633
:104AC00000F094FD43461A685B68069207934346DC
:104AD0009B689A464346DB689846E3684B44013B33
:104AE0001B7808931B0203432361002086E7236998
:104AF000002BAFD0069A079B921BBB41002B15DB06
:104B00005946049101210391494602914146019180
:104B1000514620000091FFF7D5FEB6E700F038FAC5
:104B200032003B0012184B41002BE9DA0122034B03
:104B30005242E5E7B82F0020FFFFFF0FFFFFFF7F86
:104B400010B5144C6368002B04D00A211248FFF7FB
:104B50001BFE10BD2300114A1021206800F064FBE9
:104B6000032000F009FA032000F010FB0C49032099
:104B700000F05AFAFFF72EFB0A4B9C4603232375DD
:104B8000D0231B061B6860446375074B8000606080
:104B9000DC60DAE76C190020083000206148001062
:104BA0008149001040000034B82F002000487047B1
:104BB0006C190020F0B54E4657464546DE46E0B536
:104BC00083B0009201930EAB1B7807009946002337
:104BD000002698467A68EFF3108A72B61368002BA5
:104BE000FCD0BFF35F8F3D68AC7B002C00D168E048
:104BF00063001B192A68033BD2185178A346A97396
:104C0000002900D1E973967056701670B968384A59
:104C10008C4600980199A2181201624410605160FC
:104C20000C99280091600D99D1602A6894466344DC
:104C30009E705E701E70697B2200FFF7E3FD687353
:104C4000844244D0FB681B19013B18787B68BFF392
:104C50005F8F1E608AF31088002C45D04346002BDE
:104C600009D15B460002184303B03CBC904699460C
:104C7000A246AB46F0BD4B46002B26D00C9B0D99AF
:104C80000020984703000B431FD004000D1E09DAD3
:104C9000009A019B121BAB4100920193002B09DB90
:104CA000C84697E700F074F924184D410094019527
:104CB000002DF5DA01230F4C5B4200930194C846A6
:104CC00088E7002300209B46C0E70020CCE7387D22
:104CD000009A019B00F0EEF980460028B2D0210036
:104CE000386800F065FDADE701204042BCE7C046F2
:104CF000FFFFFF0FFFFFFF7F407D7047F0B504000F
:104D00000D0006267642F717C64636196F4100B5E4
:104D100084B08F4214D811D000F03AF932003B0031
:104D2000121A8B41002B15DC002B3ED020002900ED
:104D300000F06AF904B004BC9046F0BD8642EBD99D
:104D40000026002700F024F932003B00121A8B41A4
:104D5000002BE9DD002302930193154B32000093F1
:104D600014483B00FFF726FF0028DFDB00239846AE
:104D7000BC46114A114F7B6A9C4504D8B96AB142BE
:104D8000D4D29C45D2D11168EFF3108072B60B6873
:104D9000002BFCD0BFF35F8F1368BFF35F8F4146DA
:104DA000196080F3108820BFE5E7002ABED0D1E764
:104DB000954800106C190020083000200040054084
:104DC00070B5060000F0E4F8FA2204000D0092002D
:104DD00000233000002103F053FE0019694100292F
:104DE00002DBFFF78BFF70BD012001494042F8E76D
:104DF000FFFFFF7FF0B5EFF30583CE46474680B552
:104E0000050085B00C00002B11D02B4A0020536AFE
:104E1000A34207D3926A0130AA4203D21C1B601E30
:104E20008441E0B205B00CBC90469946F0BD234EDB
:104E300002930193224B0200009330000B00FFF716
:104E4000B9FE0028E1DD20BF7268EFF3108772B66B
:104E50001368002BFCD0BFF35F8F3368C1B29C4650
:104E60006246FF23527B03408A420BD05A00914690
:104E700062461268994490464A464244033A927800
:104E8000002A10D0F268000A90464344013B1A7889
:104E9000C0B282420CD07368BFF35F8F00221A60E9
:104EA00087F31088B1E733699842F4D13261F2E7B1
:104EB000604600F07DFCEEE7004005406C190020E4
:104EC00095480010F8B5EFF30582CE46474610002E
:104ED00080B51038EFF3108C72B6204C2368002B8D
:104EE000FCD0BFF35F8F0123190081401C4D1D4E84
:104EF000716329601C4DA9462D782F00C7403B40A7
:104F000015D0736A194E984683009E59B04517D341
:104F1000174A8D439B584A461570BFF35F8F002296
:104F200022608CF31088002B06D0984704E0BFF372
:104F30005F8F23608CF310880CBC90469946F8BDB7
:104F40000C4B92009846424413681360BFF35F8F86
:104F5000002323608CF31088EEE7C046280100D0C0
:104F60003C700540004005406430002020300020A7
:104F700084290020D03F054010B50100024A0348B3
:104F8000FFF7AAF810BDC046203B01105D3000209D
:104F9000044A516A00E01900906A536A9942FAD1B2
:104FA0007047C04600400540164A70B5546A00E09C
:104FB0001C00956A536AA342FAD12A002300801884
:104FC000594105000E008C4202D819D1824217D9EE
:104FD000012201256D42EE1752420A4C636A934248
:104FE000FCD39A420BD1074B2800996AA94203D3FC
:104FF00005E0996A814202D2596A9142F9D070BDA6
:105000003200EAE700400540064A536A9942FCD85C
:1050100007D1044B02E05A6A914202D19A6A824255
:10502000F9D370470040054070B504000D00EFF360
:10503000108672B61A4A1368002BFCD0BFF35F8F3C
:10504000002D1BD02000FFF71DF9164988420AD019
:105050002000FFF71FF901212000FFF7D7F80123F7
:10506000A340114A1360114BA400E550BFF35F8FBA
:1050700000220B4B1A6086F3108870BD0B4BA20008
:10508000D5500122A2400A4920000B7893430B70AF
:105090000449FFF70DFA00212000FFF7B7F8E5E714
:1050A000280100D0C54E001038600540842900203A
:1050B00064300020F0B5D6464F4646462E4CC0B56B
:1050C000656A00E00D00A66A616AA942FAD1AB42A6
:1050D00009D806D0012420001CBC90469946A2465F
:1050E000F0BDB242F6D9EFF3108972B6234C2168B5
:1050F0000029FCD0BFF35F8F0126214986408C46F2
:105100000978204D0F0037438846F9B28A46614638
:1051100054460C701849041DA4004E63625084006C
:1051200063510D6A002435421AD04D6A00E0250013
:105130008F6A4C6AAC42FAD1AB4219D801D1BA425B
:1051400016D8C24516D00C4B0F4A1E625E631F2351
:1051500018401E3B834013606346424601241A7088
:10516000BFF35F8F0022054B1A6089F31088B2E706
:105170000024F5E70124F3E700400540280100D0B2
:10518000643000202030002080E200E010B5EFF312
:10519000108472B60A490B68002BFCD0BFF35F8FF6
:1051A00001238340074A0848136202789A43027039
:1051B000BFF35F8F00230B6084F3108810BDC046DF
:1051C000280100D0004005406430002070B5060082
:1051D0000D00140000291ED0002A1ED073688068BC
:1051E000984763006A001B195219033B033A316860
:1051F000002808D0CB188A189D70117800290ED18C
:105200001470280008E08A18CB18947019780029C7
:1052100000D051701D70200070BD0800FCE759706F
:1052200028001470F8E7C046F0B5DE4657464E46F3
:105230004546E0B58360002389B04260026806916C
:105240004373C9B20133059101738373C17304922F
:10525000012900D8A4E00A004B1ED9B2931E079181
:10526000072B00D8AEE00025CB080393049B564CD7
:10527000591C564B56489B46564B9A46564B9C4695
:10528000564B0293524663465F465E4662401A4062
:10529000504B2740FB185A4006405346019666463D
:1052A000434033404B4E0A70B046019E0135B14633
:1052B000C844464673401604360ECE701602120ECF
:1052C0004A721A04120E0B73CA731A021B0E4B7524
:1052D000029B360E5C4063461C40404B120E9846C3
:1052E000029B47445840634618404B46434458404D
:1052F000039BEDB28E718A747C401831AB42C1D1F0
:10530000079907230A009A43531CDBB2914247D006
:10531000049C5A00A446D218591C6244059DC9B287
:10532000033A51708D423BD94A005218981C62448E
:10533000C0B2033A5070854232D942001218D91CCB
:105340006244C9B2033A51708D4229D94A005218B9
:10535000181D6244C0B2033A5070854220D9420001
:105360001218591D6244C9B2033A51708D4217D9BF
:105370004A005218981D6244C0B2033A50708542E8
:105380000ED942001218D91D6244C9B2033A5170B5
:105390008D4205D94A0052186244033A08335370CB
:1053A000FF23069A13405900C918049B9C4600230A
:1053B000614403394B7009B03CBC90469946A24603
:1053C000AB46F0BD0123A3E7010203047F7F7F7F8B
:1053D000050607080101010180808080080808088F
:1053E00070B50400002907D04B0000685B18033B30
:1053F000C3185A78002A01D1080070BD5500AD18B5
:10540000033D40190025467845705D702000FFF788
:10541000DDFE310005002000FFF7E2FF2900020059
:105420002000FFF7D3FE0100E6E7C046F0B54E4688
:105430004546DE465746E0B50E0074000168A419E3
:1054400085B0033C01920A1905001078002850D05D
:1054500043001B18033BCB185F78BC46002F1AD1C2
:10546000019C002C42D0EC7B002C04D063001B1963
:10547000CB18033B5E70AB7B002B00D1AE73EE7399
:1054800000282FD10023537005B03CBC90469946AC
:10549000A246AB46F0BD7A006244033A89184A78C6
:1054A000934600224A7090465A7001003A00280044
:1054B000FFF78CFE5B468146002B07D05B00296816
:1054C0005B44033BCB185A78002A16D15A4649460A
:1054D0002800FFF77BFE2968019B0A19002BC2D127
:1054E0000028CFD043001B18033BCB180021997034
:1054F000C8E7019B002BB6D1C4E7500080180338E1
:105500000918487882464046487058705946280025
:10551000FFF75CFE53468346002B07D05B002968EB
:105520005344033BCB185A78002A06D159465246B9
:105530002800FFF74BFE8346C8E750008018033869
:10554000091840464F784870587051462800029715
:10555000FFF73CFE8246002F08D0BC467B0029683E
:105560006344033BCB185A78002A06D15146029A6D
:105570002800FFF72BFE8246D8E75000801803383A
:10558000091840464F7848705870029928000397D0
:10559000FFF71CFE8046002F08D0BC467B00296820
:1055A0006344033BCB185A78002A06D1039A41463C
:1055B0002800FFF70BFE0290D8E703205043033882
:1055C000091800204F784870587003992800FFF799
:1055D000FDFD390002902800FFF702FF029902004A
:1055E0002800FFF7F3FD0390E0E7C046F0B54E4614
:1055F0004546DE465746E0B5467B04007500006828
:10560000AD19033D85B0421901911178002952D09E
:105610004B005B18033BC3185F78BC46002F1CD1BE
:10562000019D002D44D0E57B002D04D06B005B195B
:10563000C318033B5E70A37B002B00D1A673E673F7
:10564000002931D1002330005370617305B03CBC98
:1056500090469946A246AB46F0BD7A006244033AB2
:105660008018427893460022427090465A7020007B
:105670003A00FFF7ABFD5B468146002B07D05B008D
:1056800021685B44033BCB185A78002A17D15A464D
:1056900049462000FFF79AFD019B0100206842194E
:1056A000002BC0D10029CDD04B005B18033BC318A1
:1056B00000209870C6E7019B002BB4D1C2E75000D0
:1056C0008018033809184878824640464870587058
:1056D00059462000FFF77AFD53468346002B07D03A
:1056E0005B0021685344033BCB185A78002A06D14B
:1056F000594652462000FFF769FD8346C7E7500030
:1057000080180338091840464F7848705870514641
:1057100020000297FFF75AFD8246002F08D0BC46B2
:105720007B0021686344033BCB185A78002A06D1DA
:105730005146029A2000FFF749FD8246D8E7500003
:1057400080180338091840464F78487058700299FD
:1057500020000397FFF73AFD8046002F08D0BC4693
:105760007B0021686344033BCB185A78002A06D19A
:10577000039A41462000FFF729FD0290D8E7032055
:1057800050430338091800204F7848705870039927
:105790002000FFF71BFD390002902000FFF720FEDC
:1057A000029902002000FFF711FD0390E0E7C046D8
:1057B00070B5040000292CD0437B8B422ED00568A5
:1057C00048004018033828188278002A21D0530056
:1057D0009B18033BEB181A788A4202D11BE0002A7F
:1057E00008D053009B18033BEB185A788A42F6D135
:1057F00042785A7000230122837043702000FFF723
:1058000015FE617B02002000FFF7E0FC60730120C1
:1058100000E0002070BD42781A70EBE70122190009
:10582000FFF704FE60730120F4E7C046F8B5CE46EA
:105830004746040080B506200D0000F03DFB061E23
:1058400052D0524B5249E3185A4253418022D2035C
:1058500094465B4213404F4A634413604E4A1360C0
:1058600018008A689043FBD1484B8021E3185A42C4
:1058700053414A4A5B0049000620995200F01CFB44
:105880002900C00002F0E2F8C30932D1402290465C
:105890003F3A6262A362266BF30736D42700802565
:1058A000E36A00232C376D013D432B6006202663FD
:1058B00000F002FB4146800002F0C8F8236B0600AE
:1058C0009846DB073BD46022E36A5A406E231340BC
:1058D0002B6043462363802310229B013B431A60C5
:1058E0002F4B23630323A36430000CBC90469946DE
:1058F000F8BD2C4A93423FD900232B4A90462B4AAD
:105900006262A362266BF307C8D52200C02330323F
:105910009B011343224A06201A60656AA36AAD01FF
:10592000ED1800F0C9FA224902F090F8AD0201002A
:10593000280002F08BF80021FFF736FBAEE72200CB
:10594000C02330329B011343154A06201A60636A54
:10595000A26A9B019946914400F0AEFA4B46144965
:105960009B02994602F072F80100484602F06EF878
:105970000021FFF719FBA6E77F2210409A0190460D
:10598000013040081A008044030082E70080FCBF19
:1059900000C0004000E0004000F000408C300020DB
:1059A00001030000FEFF0000C0FF3F00FFFF0000FA
:1059B0004E0E0000F8B5013A4C1F6401D2000500FC
:1059C0001443002B05D002222243012B2AD1053398
:1059D0001C432E6BF3070BD4E96A2A008023614035
:1059E0006E242C325B010C4013431C602E63F8BD07
:1059F0002A00C02330329B0113430B4A06201A6051
:105A00006F6AAB6ABF01FF1800F056FA074902F04F
:105A10001DF8BF020100380002F018F80021FFF75E
:105A2000C3FAD9E71400D4E7010300004E0E0000CA
:105A3000F8B50C00611E8C41066B05002401F307CC
:105A40000BD41023E96A2A004C401C4080232C32DE
:105A50005B0113431C602E63F8BD0200C02330328B
:105A60009B0113430A4A1A60476A836ABF010620F2
:105A7000FF1800F021FA074901F0E8FFBF0201001A
:105A8000380001F0E3FF0021FFF78EFAD9E7C046A6
:105A9000010300004E0E0000F0B5DE4657464546B5
:105AA0004E46E0B583B017000C9A05008B469A422B
:105AB00000D973E01A0E92461E020C9A00233000A1
:105AC000514602F001F8454B6C009C466419A40055
:105AD000644463688046834200D260602B1FDAB260
