:020000041000EA
:1000000000B5324B212058609868022188439860DF
:10001000D860186158612E4B002199600221596106
:100020000121F02299502B49196001219960352056
:1000300000F044F80222904214D00621196600F024
:1000400034F8196E01211966002018661A6600F04E
:100050002CF8196E196E196E052000F02FF8012189
:100060000842F9D1002199601B49196000215960AB
:100070001A491B48016001219960EB211966A021F2
:10008000196600F012F800219960164914480160C1
:100090000121996001BC002800D000471248134993
:1000A000086003C880F30888084703B5996A0420EC
:1000B0000142FBD001200142F8D103BD02B5186610
:1000C0001866FFF7F2FF186E186E02BD00000240BE
:1000D000000000180000070000035F00212200005C
:1000E000F4000018222000A00001001008ED00E03C
:1000F00000000000000000000000000074B24E7A12
:1001000000200420F7010010C3010010C5010010F9
:10011000C1010010C1010010C1010010C101001097
:10012000C1010010C1010010C1010010C701001081
:10013000C1010010C1010010C9010010CB01001065
:10014000CD010010CD010010CD010010CD01001037
:10015000CD010010CD010010CD010010CD01001027
:10016000CD010010CD010010CD010010CD01001017
:10017000CD010010CD010010CD010010CD01001007
:10018000CD010010CD010010CD010010CD010010F7
:10019000CD010010CD010010CD010010CD010010E7
:1001A000CD010010CD010010CD010010CD010010D7
:1001B000CD010010CD010010CD010010CD010010C7
:1001C00000BE00BE00BE00BE00BE00BEEFF3058054
:1001D000103800BEF2EB88714C1201107012011041
:1001E0003402001090A31AE700201F49086006C8D7
:1001F00081F3088810471D48006800282FD10DA4FE
:100200000ECC002902D000F012F8F9E71849194A7B
:10021000002000E001C19142FCD1174988471749ED
:1002200088471749884700BEFDE701C901C29A42C5
:10023000FBD3704770120110C0000020B8220020CC
:10024000683401100000042000000420683401100C
:10025000001004200010042000000000704709482E
:1002600007F0A4FD0047000008ED00E0000000D00A
:10027000B82200202C330020A9640010953A001009
:10028000D56500105756000006005250ABB36053BE
:10029000FC0A011006005250861C03020C0B0110D0
:1002A000060052505422A29D180B01100500525016
:1002B000DE65F46868340110F8B5C0460448054BA3
:1002C00010B5834203D0044B002B00D0984710BDDB
:1002D000B8220020B822002000000000064807498C
:1002E000091A8910CB0F591810B5491003D0044BC7
:1002F000002B00D0984710BDB8220020B822002063
:100300000000000010B5074C2378002B09D1FFF73F
:10031000D5FF054B002B02D0044800E000BF0123AD
:10032000237010BDE023002000000000C8F700107B
:10033000054B10B5002B03D00449054800E000BF71
:10034000FFF7CCFF10BDC04600000000E4230020F2
:10035000C8F7001070B5002800D070BD8025D024EB
:10036000AD042E001930240604F072F8656266614F
:10037000322004F01DFFFA20A561400004F018FFB0
:10038000F5E7C046F0B5DE4657464E464546040002
:10039000431E9841E0B5150087B0C0B20E00FFF7CC
:1003A000D9FF2800431E9841C0B2FFF7D3FF5C225B
:1003B0000021200008F0F6FE4248A564A6606060B7
:1003C00041490BF073FC0121206260680BF050FC86
:1003D000E061A06804F03CF83C4A636894466344DA
:1003E00019004B1E9941A068063103F0ABFFE36989
:1003F000A7689946236A36489A4680235B02984646
:100400000293534652460833D2011B031343314A29
:100410003840934613408022D205134303932E4B5A
:10042000BA0266680243049328482C4B35181343DC
:1004300005936B1E9D4106352900380003F082FFAD
:1004400029000125781C03F07DFF00953A004946FC
:10045000300002230BF08EFC404602AB0290524665
:10046000494630000BF0DEFC484685404046336884
:10047000226A1D433560E06010000830D10103039B
:100480000B43584680210340C9050B432361A168F3
:10049000114B0F4863614B01034089020B43D0218C
:1004A000C9050B43A361230060680C33E1690BF0BD
:1004B000B9FC002007B03CBC90469946A246AB462A
:1004C000F0BDC04600002050C8F700100000E0AFAB
:1004D000FF83FFFFFFFFFF9F00000E400000206032
:1004E000F0B5D6464F4646468046431E9841C0B5B5
:1004F000C0B282B08A469146FFF72CFFFA22002351
:10050000D2005046002108F0C1FC434600259C6CF7
:100510004E46E30E6201121BAB41F71736184F41EE
:10052000910F8C4600920193990063461943009BFA
:10053000980000196941CB0642091A43C4062000FD
:100540001100FC07720822437B10801859413200C9
:100550003B0007F0A7FC43465862FD231B069C4660
:10056000074B604418605246434600201A654A46CD
:100570005A6502B01CBC90469946A246F0BDC046E2
:1005800038300020F8B51D000600431E9841C0B267
:100590001400FFF7DFFEF36C002B24D01F6B5E6BA3
:1005A0003B00334307D1114B00201F685E683B00BE
:1005B000334303D1F8BD0D4B1F605E6000210C4832
:1005C0000C4A00196941002307F084FC3A0033000B
:1005D00008F05CFC0023084A80185941054A0023B2
:1005E00007F060FCE6E70020E4E7C046C0230020F7
:1005F00020A1070040420F0050C3000070B5040066
:10060000431E9841C0B2FFF7A5FE01221300E56921
:100610006168AB40086803430B60A26570BDC046CB
:1006200010B50400431E9841C0B2FFF793FE0122AB
:10063000E069616882400B6893430B600023A36507
:1006400010BDC046F0B5DE4657464E464546E0B5BD
:100650001F00814B00269946040080488DB0186029
:100660007F4B88467F4915009A461E600BF01EFBA3
:100670004B461B688022994653461B6852029A4695
:10068000F8235B0204920593C02383461B031022C8
:1006900004A908A80693079608F08AFD5B465A4607
:1006A0000D33D2011B03134308A9102204A803939E
:1006B000099308F07DFDEB03039A07936A4B5146BB
:1006C00013402A06134305932A0001234846009647
:1006D0000BF050FB04AB5A46514648460BF0A2FBC8
:1006E00001224B46504619681300834030000B43EB
:1006F000A24270414946C0B20B60FFF72BFE434651
:10070000D80FE12342465B0293427041C0B2FFF72B
:1007100021FE1C23E80FAB427041C0B2FFF71AFE66
:100720004146002C00D182E0504805F077FA4F4A4C
:1007300021004F4808F0D4FF4E494F4808F0D0FF41
:100740000820022103F0FEFD484B092099460221B2
:1007500003F0F8FDA4210120490008F0FBFC06008D
:10076000431E9841C0B2FFF7F5FD43463200736067
:10077000424B34601E60424BB560103228001A6054
:1007800003F066FE0123D022AB40120693622800DC
:100790003C4B0122082103F005FE4B461A6BC02397
:1007A0001B021A4080254B466D0130332B431A60E3
:1007B000484600230122082105F0F4FA631E9C41FB
:1007C00048461434002105F02BFB20002E4903F08D
:1007D00059FF2000012103F011FF4A465023936383
:1007E000536B38221A404B4634332B431A6039007E
:1007F000264807F031FB264B7901C91B18608B0195
:100800005B1ADB00DB19234C9B0102005B083900FB
:100810002148236008F064FF300022681F4B1A60F3
:100820000DB03CBC90469946A246AB46F0BD11487F
:1008300005F0F4F90D4A00210D4808F051FF0D496B
:100840000D4808F04DFF0020022103F07BFD094B0D
:10085000012099467BE7C046103000200000305050
:10086000CC2F0020ACF90010FFFFFFE00080034018
:1008700024F800100040034060F80010D02F002042
:10088000D42F0020F10000208102002080841E006F
:100890003C2F002008300020E4F700100C2A002034
:1008A000F0B5D64646464F460500431E9841C0B5B2
:1008B000C0B28AB02E00FFF74DFD802238365200BC
:1008C000874930000CF038FB041E00D1EBE04822D1
:1008D000AB6AFF320133AB62824B99461B689A5672
:1008E000062A4EDC804B06AEDA680021102230006A
:1008F0009B6808F057FC20000CF076FA00230021DA
:1009000000279846874213D0E3191A780137FFB2BF
:100910002C2AF7D142461A704B1CDBB29A46775408
:100920000C2B05D020000CF05FFA51468742EBD12A
:100930003378E318DA78AA745B78EB747379E25C45
:10094000302393429B415B422B74B07920180BF00B
:10095000D1FA4B4648221B686874FF329A56052A22
:1009600005DDA22252009B5C002B00D1A7E02B7C6E
:10097000002B12D100200AB01CBC90469946A2461A
:10098000F0BDA22252009B5C002BABD18021320033
:100990004900564808F0A4FEA4E777780222E1193E
:1009A00004A80CF089FA002304AA100093700BF03D
:1009B000A1FA8046B81C20180BF096FA4346009026
:1009C00001916420584307F02BFD494A029003919E
:1009D00000980199474B07F08CFC02000B0002982D
:1009E000039907F07DFC0022434B07F0A0FC434B2A
:1009F000002207F075FC07F073FDA861E961B37888
:100A0000E35C4E2B06D0532B63D1002342428B4133
:100A1000AA61EB6105AB9846F7780322E11918004B
:100A20000CF04AFA424600234046D3700BF062FABB
:100A30008046F81C20180BF057FA434600900191AD
:100A40006420584307F0ECFC294A02900391009877
:100A50000199284B07F04DFC02000B000298039906
:100A600007F03EFC0022244B07F061FC234B0022E0
:100A700007F036FC07F034FD286269623379E35CE5
:100A8000452B06D0572B27D1002342428B412A62A7
:100A90006B62307A20180BF027FA07F04DFDA02387
:100AA0005B00E85066E780221549520030000CF0E8
:100AB00043FA04000020002C00D15CE707E7FF2187
:100AC0000140104808F00CFE2B7C002B00D151E7B0
:100AD00063E7022040424EE7032040424BE7C04616
:100AE0007CF80010D02F0020004005408CF800104A
:100AF000333333333333E33F006AF8400000E03FE1
:100B000084F80010B0F80010F8B507001000431E7C
:100B10009841C0B216000D00FFF71CFC0A20B84235
:100B200080414042FFF716FC90210120490008F067
:100B300011FB0400431E9841C0B2FFF70BFC882351
:100B40005B00A7602573E650124B134A1C6001231B
:100B5000AB4012491360002003F094FD104E0021B9
:100B6000002003F075FF0121002003F047FDB56A66
:100B700000212A0000230B4812184B4122606360B9
:100B8000084A237B9446043365449B009D51200012
:100B9000F8BDC046D82F0020386005403D03002036
:100BA00000400540204E00000023837343737047CC
:100BB000F0B545464E46DE465746E0B5934C8BB001
:100BC000236806000D009046032B00DDEBE0904A01
:100BD00034009246032291460132330002279346A5
:100BE0000C3401951A782F2A1ED01100B9433C29E4
:100BF0001AD04D46511C514408789446284002288A
:100C000007D16146FD3020390140203A0131D2B28E
:100C100051441A700A785946114205D149460A4092
:100C2000012A01D020221A7001339C42DAD100231C
:100C3000019D33730C22310076480CF03DF92800F9
:100C40000CF0D2F8022302009A43042A00D182E079
:100C500001002A00704808F043FD07226F49280070
:100C600008F0A6FA28000CF0BFF806284AD02900A0
:100C700007226B480CF020F9434641463C2B00DD2F
:100C80003C2103AC2200674B49B261CB61C261CB0E
:100C900061C21B6800261360634B22009C461B78D0
:100CA0000AAD5BB298462300474600201056013239
:100CB00081421ED09542F8D14046002E1ED100251B
:100CC0001B3401229A568A4205DD00229A5691422F
:100CD00001DB1000012501339C42F2D1002D01D02F
:100CE000634618700BB03CBC90469946A246AB4692
:100CF000F0BD954203D00F000126D6E738006246CA
:100D00001070DCE703212B79484C1A00E05C0140AD
:100D1000022902D1203B1A00DBB22B71413B172B79
:100D200062D803216B79E05C1A000140022902D1EC
:100D3000203B1A00DBB26B71413B172B97D9FF2385
:100D400005211A403A4808F0CBFC0722394928000F
:100D500008F02EFA8BE703222B78344CE15C0A4032
:100D6000022A01D1203BDBB22B70413B112B35D83D
:100D700003226B78E15C0A40022A01D1203BDBB2FE
:100D80006B70413B112B3BD8AB78E35C5B071FD505
:100D9000EB78E35C5B0700D564E70722264928006F
:100DA00008F006FA5EE70CF01FF831000200234855
:100DB00008F096FC2368032B00DC08E728000CF001
:100DC00013F84346020029001D4808F089FCFEE69E
:100DD00007221949280008F0EBF9D9E70722194939
:100DE000280008F0E5F9C3E7FF2304211A40104862
:100DF00008F076FC07220F49280008F0D9F990E79F
:100E000007221049280008F0D3F9BDE73428002054
:100E1000500D01105829002054FB001070FB0010E9
:100E2000282E0020D0F9001033300020510D011081
:100E300078FB00109CFB00104CFB0010D4FA001053
:100E400008FB001044FB0010F0B557464E46DE4646
:100E50004546E0B5C34F8DB03E7801903C2E00D1A1
:100E6000CCE22F2138000BF04DFF002801D100F01B
:100E7000FCFCC31B1D000293FB189E78202132004E
:100E800088468A4300D075E108AC07320021200073
:100E900008F088F92A00390020000CF00DF8032131
:100EA0002278B14B1600985C0140022905D1203E02
:100EB000FD310E40203A985DD2B22270420705D42F
:100EC00003221040012801D01D32227003216278D4
:100ED000985C16000140022905D1203EFD310E40EC
:100EE000203A985DD2B26270420705D403221040C6
:100EF000012801D01D3262700321A278985C16008F
:100F00000140022905D1203EFD310E40203A985D76
:100F1000D2B2A270420705D403221040012801D0AA
:100F20001D32A2700321E278985C1600014002296C
:100F300005D1203EFD310E40203A985DD2B2E270DC
:100F4000420705D403221040012801D01D32E2706F
:100F500003212279985C16000140022905D1203E28
:100F6000FD310E40203A985DD2B22271420705D47D
:100F700003221040012801D01D3222710321627921
:100F8000985C16000140022905D1203EFD310E403B
:100F9000203A985DD2B26271420705D40322104014
:100FA000012801D01D3262710321A279985C1600DC
:100FB0000140022905D1203EFD310E40203A985DC6
:100FC000D2B2A271420705D403221040012801D0F9
:100FD0001D32A2710421894660784E461A5CE5787C
:100FE00011408846AC462578A17803955D5D5A5C32
:100FF00035400595454692462279002D00D09BE26A
:1010000065465D5D6479AB460425A94655464E4666
:1010100035400495059D002D01D000F0F3FC4125DD
:10102000039E6D42AA46B146CA445546192D01D9C0
:1010300000F035FE373EF5B2AA46EE005644B60043
:101040004546002D01D000F0B9FC41256D42A8466F
:1010500080444546192D01D900F090FD3738C0B2C3
:101060003618B000861904987600002801D000F0E8
:10107000B0FC08004138C0B2192801D900F078FD51
:101080003739C9B2761871008919C800091858464D
:10109000400701D500F0A9FC60464138C0B21928CC
:1010A00001D900F071FD60463738C0B20A3908181E
:1010B00041000918C8000918985C400701D500F0E4
:1010C0009DFC10004138C0B2192801D900F059FD2B
:1010D000373AD0B20A000A3A121851008A181B5D3A
:1010E000D10052185B0701D500F084FC2300413B7E
:1010F000DBB2192B01D900F03EFD373CE3B20A3ACE
:10110000D418029B9C4667447B781E00303EF6B2A2
:10111000092E00D908E2154B9C466644F3010026CF
:10112000134A96574236F618019A23099370230BF7
:101130005370230D1370B3019371B3085371B30A45
:1011400013710023B602360F24013443D470D371D7
:101150001372537293720DB03CBC90469946A246EE
:10116000AB46F0BD58290020510D0110606A000007
:1011700033300020DB788B4300D002E208AC07223A
:101180000021200008F00EF8029A390020000BF030
:1011900093FE03212278974B9446985C01400229E4
:1011A00006D16146FF2020390140203A585CD2B276
:1011B0002270420705D403221040012801D01D32BD
:1011C000227003216278985C94460140022906D17E
:1011D0006146FF2020390140203A585CD2B262704B
:1011E000420705D403221040012801D01D3262704D
:1011F0000321A278985C94460140022906D16146F9
:10120000FF2020390140203A585CD2B2A270420738
:1012100005D403221040012801D01D32A270032101
:10122000E278985C94460140022906D16146FF208D
:1012300020390140203A585CD2B2E270420705D40E
:1012400003221040012801D01D32E27003212279CF
:10125000985C94460140022906D16146FF2020395E
:101260000140203A585CD2B22271420705D40322D1
:101270001040012801D01D32227103216279985C4F
:1012800094460140022906D16146FF2020390140E1
:10129000203A585CD2B26271420705D40322104052
:1012A000012801D01D32627104200500804661785A
:1012B0005A5C1540A2780395985C059242462579C0
:1012C0000490AB462078E578A9461D5C1540AC46F5
:1012D000039D002D06D0049D013A2A40012A01D128
:1012E00000F027FC4A469A5C049D92460422154071
:1012F00062466479A846002A01D000F001FC412230
:101300005242944684446246192A01D900F0C0FC36
:101310003738C2B29446D00060448000039A002A55
:1013200000D095E34122524294468C446246192AE9
:1013300001D900F07BFC3739C9B242464118880018
:1013400040184000002A00D07EE3059A1100413980
:10135000C9B2192901D900F066FC373AD2B2801817
:1013600042001218D10052185146490700D567E3D0
:1013700049464139C9B2192901D900F051FC494601
:101380003739C9B20A3A51184A005118CA008A18A6
:101390005946595C490700D54EE359464139C9B20F
:1013A000192901D900F039FC59463739C9B20A3A2E
:1013B00051184A0052181B5DD10052185B0700D526
:1013C00037E32300413BDBB2192B01D900F022FCAB
:1013D000373CE3B20A3AD418029B9C4667447A78B9
:1013E000303A93009B185B009E19034B9C46664461
:1013F000F30194E6510D01104AEA00000D2200218C
:1014000008A807F0CFFE92233E21380006930BF088
:1014100079FCC21B013A791C08A807920BF04CFD1D
:1014200006AA07A908A800F081FDB44B40049A78E9
:101430005F781E78D9785C795A7094461A791F7053
:101440009970DA701C715E71AD4B400CDD5D6D07FB
:1014500000D550E141256D42A846B8444546192DB6
:1014600000D9D3E3373FFFB2FD00A8464744BD0093
:10147000A84665465F5D7D0700D5D3E26746413FDC
:10148000192F00D9C0E30A37FFB2B8444546AF0070
:101490005D5C47447F006D0700D5C0E241256D4289
:1014A000AC468C446546192D00D9ABE33739C9B237
:1014B0007F187900C919CF00C9199F5C7D0700D535
:1014C000AAE21700413F192F00D97BE3373AD2B285
:1014D0000A3989184A005218D1005218195D490773
:1014E00000D596E221004139192900D968E3373C3B
:1014F000E4B20A3A12195400A2189B5DD4001419E0
:101500005B0700D592E23300413B192B00D95BE326
:10151000373EF6B20A3CA41900267A4BC0019E570A
:101520003F239E1B3618FFE51A00413A192A00D9BD
:101530006CE2373BDEB2EEE5032556463540012D21
:1015400000D05DE5654625712025039E25706271FA
:10155000E170A07066705C1EA34621245D462C5D80
:101560004D46254200D176E2444687260494059CE8
:10157000D346A046B601140062468C46010003988B
:101580005EE5002307AE2A003900300007930BF018
:1015900093FC290008AC01310722791820000BF0D8
:1015A0008BFC4246B378934305D1F3707378B370E4
:1015B00033783270737003212278514B1700985C96
:1015C0000140022900D17CE22270420705D40322A7
:1015D0001040012801D01D32227003216278985CEE
:1015E00017000140022900D164E26270420705D46D
:1015F00003221040012801D01D3262700321A2781D
:10160000985C17000140022900D14CE2A270420709
:1016100005D403221040012801D01D32A2700321FD
:10162000E278985C17000140022900D150E2E27094
:10163000420705D403221040012801D01D32E27078
:1016400003212279985C17000140022900D14DE264
:101650002271420705D403221040012801D01D3217
:10166000227103216279985C17000140022900D1A0
:1016700035E26271420705D403221040012801D0EF
:101680001D3262710421894660784F461A5CE57804
:1016900011408846AC462578A17802955D5D5A5C7C
:1016A0003D400495454692462279002D2CD00325D5
:1016B00057463D40012D27D1654625712025029FC3
:1016C00025706271E170A07067705C1EA3462124D2
:1016D0005D462C5D4D46254200D0BCE24446039455
:1016E000049CD346A046140062468C460100380094
:1016F000A227FF0026E0303FB5E6C046282E002096
:10170000510D01103330002065465D5D6479AB46B4
:101710000425A94655464F463D400395049D002D9E
:1017200000D0EAE14125029F6D42AA46B946CA446B
:101730005546192D00D9B6E2373FFFB2FD00AA4643
:101740005744BF004546002D00D036E241256D428A
:10175000A84680444546192D00D98FE23738C0B2DB
:10176000381887003F1803987F00002800D021E236
:1017700008004138C0B2192800D97DE23739C9B212
:101780007F187900C919C80009185846400700D5C4
:101790000CE260464138C0B2192800D976E26046B2
:1017A0003738C0B20A39081841000918C8000918AA
:1017B000985C400700D5F6E110004138C0B2192806
:1017C00000D961E2373AD0B20A000A3A1218510041
:1017D0008A18D1005218195D490700D5E0E12100AF
:1017E0004139C9B2192900D94CE2373CE1B230780D
:1017F0000A3A54181A5C520700D5CEE10200413A69
:10180000192A00D93CE23738C0B2C1000918890052
:10181000091870781A5C520700D5BBE10200413A02
:10182000192A00D926E23738C0B24118B678CA0062
:1018300052189B5D920052185B0700D5A7E1330058
:10184000413B192B00D913E2373EF6B2DF4B961914
:101850001B78DF4A5BB2964200D865E1DD4A42332D
:1018600094466644F2019E185EE404218946DA4BF0
:101870007878FC781A5C029411408C464C469D5D49
:10188000B978254064465A5CA84692463A79002CBD
:1018900005D0032455462C40012C00D1E9E0029CE0
:1018A00055461C5D7F79A346042425404446A9463D
:1018B000002C00D036E141246442A046B0444446A6
:1018C000192C00D9E8E1373EF6B2F400A0464644B0
:1018D000B6006446002C00D015E141246442A446C1
:1018E00084446446192C00D9B3E13738C0B23018AB
:1018F0008600361848467600002800D009E1080026
:101900004138C0B2192800D9A1E13739C9B27618D7
:1019100071008919C80009185846029C400700D573
:10192000F4E020004138C0B2192800D98DE1373CDD
:10193000E4B20A3909194C006418E1006418995C92
:10194000490700D5EBE011004139C9B2192900D986
:1019500079E1373AD1B222000A3A52185400A2185B
:10196000DB5DD40014195B0700D5D5E03B00413B9B
:10197000DBB2192B00D964E1373FFFB2B426974997
:101980000A3C0A78E419413A53079B1A9B009B1AB8
:101990008A785B009B1A4A78E3337343413A960096
:1019A000B618CA7876009E19303AB2180026874BCE
:1019B000D2019E574036B618FFF7B6FB3038C0B29A
:1019C0003618B000861904987600002801D1FFF778
:1019D00050FB3039C9B2761871008919C80009184E
:1019E0005846400701D4FFF757FB60463038C0B275
:1019F000FFF75CFB303CE3B2FFF781FB303AD0B23B
:101A0000FFF768FB039E303EFFF715FB744BFFF7B3
:101A100086FB303CE4B26CE5303AD2B258E530395E
:101A2000C9B245E56746303FFFB22EE5303EF6B21B
:101A300070E5303CE3B2CDE459463039C9B2B6E482
:101A400049463039C9B29DE4059A303AD2B286E4AB
:101A50003039C9B271E444460494059CD346A0468B
:101A6000140062468C4601003000A226F600FFF703
:101A7000E7FA029D1F343C707A713D71F970B870BD
:101A80007E7021275C1EE75D4C46D346E146C44686
:101A90003C4200D0CDE0029101003000A2261700A8
:101AA000F6002A0015E7203FFD31203A0F40D2B260
:101AB000D85DABE5203FFD31203A0F40D2B2D85D72
:101AC00093E5203FFD31203A0F40D2B2D85D7BE54F
:101AD000203FFD31203A0F40D2B2D85DA7E5203F2C
:101AE000FD31203A0F40D2B2D85DC2E5203FFD3132
:101AF000203A0F40D2B2D85DAAE5029F303F1CE6E3
:101B00003038FFF706FC3038C0B2F0E6303CE4B2C3
:101B10000FE73039C9B2FAE6303FFFB22EE7303A6C
:101B2000D1B218E7303ECFE6F20141339E18FFF7FD
:101B3000FBFA5A4662714A4622712022059D2270A4
:101B4000E570A170607021245A1E145D4246224245
:101B500048D1039A0591904662460100A220039263
:101B6000049A5C469246CB46C000A946FFF7D6FBD6
:101B70002421FFF787FA2423FFF7C1FA2420FFF777
:101B80006FFA2420FFF7A6FA2420FFF78FFA303EE1
:101B9000F6B25BE63038C0B247E63038C0B234E661
:101BA000303CE1B223E6303AD0B20DE66046303840
:101BB000C0B2F7E53039C9B2E2E53038C0B2CFE59E
:101BC000242496E4242283E42426A3E43330002052
:101BD000FF7F00000080FFFF510D0110282E002024
:101BE00000433500039A5C46904662460392049A8D
:101BF000CB469246059A05910100872091468001C7
:101C0000FFF78CFB242153E424273EE4A225ED00BA
:101C1000A8462EE42423FFF7DDFB2421FFF7C7FBB2
:101C20002421FFF7AFFB2422FFF799FB2421FFF7C4
:101C300084FB1700029A0291010030008726B6014A
:101C400047E624279AE6242185E6242471E6242108
:101C50005DE624204BE6444687270394049CD34644
:101C6000A046BF01140062468C460100029869E557
:101C70002426EBE52420D8E5242181E524206FE506
:101C80002420C2E52421B2E524209DE5242089E515
:101C9000A220C000FFF742FBA226F60019E6A2260A
:101CA000F600FFF7CDF9A227FF004BE5F0B5DE46C1
:101CB00057464E464546E0B50D00E1B0010006002E
:101CC0009B4608A86AAB1C7817000BF085F8290022
:101CD00003A80BF081F88D4B1C60032C00D9F5E0B4
:101CE0003A0003A908A8FEF763FF05A8FFF7ACF8C0
:101CF00002AA17239446634498460021002505A8AC
:101D0000037800269C466346B3400122002489469E
:101D1000DB1113406D001D437D4B1F322B40012111
:101D2000013A1940D2B24C405B08002AF7D149462B
:101D300060AB5B18513BFF3B1C70764B0F002B4098
:101D4000994620234C1CE4B20190494601200140F1
:101D50004A404946013B4908DBB28946002BF4D191
:101D6000390060AFB9464C44513C0231FF3CC9B226
:101D700001982270A12902D80136082EC3D1013062
:101D80008045BDD136AA00210192012740260225B7
:101D900040E080246442A04601344022FF34C02049
:101DA000A44652420D4201D1424660464C0703D53B
:101DB0002020024352B2D0B20C0703D510200243B8
:101DC00052B2D0B2CC0603D50820024352B2D0B2F0
:101DD0008C0603D50420024352B2D0B20E4203D087
:101DE0000220024352B2D0B2CC0902D001201043EB
:101DF000C0B2A12808D860AAD218513AFF3A127886
:101E0000019C01332254DBB2A12B0CD80131C9B2A1
:101E1000FF2908D03A000A409446BAD10024402055
:101E20004022A046BEE7019EA22231000CA807F086
:101E3000BFF9A2223849300007F0BAF95B465B07C8
:101E400051D134AB9C46354B5846994634490CAD7C
:101E50002B6832680B4034685B000A4090461A00D9
:101E600063404C460A4023406F6842445A407368BE
:101E70000F4074687F000B4098463B0067404C461B
:101E80000B40434427405F400835026047600836F6
:101E900008306545DCD12820A02202AB019C1B182C
:101EA0009B5CA15C5B005B1859468B5402AB013212
:101EB0001B189B5CA15C5B005B1859468B5461B09E
:101EC0003CBC90469946A246AB46F0BD3100154851
:101ED00007F006FC28000AF087FF290002001248DC
:101EE00007F0FEFBFCE602AA944659462725CF24BC
:101EF0000123013965446444EA5CE05C5200121835
:101F0000CA540133A32BF7D1D9E7C04634280020A7
:101F10005153D0F2473C61E4ECF90010808080809E
:101F20007F7F7F7F90FA0010A8FA00100B68F0B551
:101F3000DE469B461368D74A574694464E4645466A
:101F40006344E0B504005B44820743D15A4618005D
:101F500019000C2A39D91A25A846023DAC460B3D7A
:101F60001C221027AA4665684646A946A56849442A
:101F7000A946256848442D1AA9460500D5414B4479
:101F80006B401D00F5410818C91A69400D006646EE
:101F9000F5411B18401A68400500FD41C9181B1A7D
:101FA0006B401D005646F5414018C91A69400D00A6
:101FB000D5411B18401A68400C256D42A946CB44F8
:101FC0005D46C9180C340C2DCDD85A469500B24A3E
:101FD00052599746C2074FD45A46180019000C2A86
:101FE00045D91A25A846023D1C22AC461027E58893
:101FF00046462D04A946A588AA466589D1442D04E4
:102000004944A9462589AA466588D1442D044844F7
:10201000A94625880C34AA46D1444D462D1AA94616
:102020000500D5414B446B401D00F5410818C91A05
:1020300069400D006646F5411B18401A68400500CE
:10204000FD41C9181B1A6B401D000D26F5414018B3
:10205000C91A69400D00D5411B18401A68400C256B
:102060006D42A946CB445D46C9180C2DBFD85A46CF
:1020700095008A4A525997465A46180019000C2A68
:102080005DD91A25A846023D1C22AC461027657969
:1020900046462D02A946A5792D04AA462579D144A4
:1020A000AA46E579D1442D06AA46657AD1442D0287
:1020B0004944A946A57A2D04AA46257AD144AA46C0
:1020C000E57AD1442D06AA466578D1442D024844CC
:1020D000A946A5782D04AA462578D144AA46E578D4
:1020E000D1442D06AA46D1444D462D1AA9460500D5
:1020F000D5414B446B401D00F5410818C91A694091
:102100000D006646F5411B18401A68400500FD4168
:10211000C9181B1A6B401D000D26F5414018C91A3D
:1021200069400D00D5411B18401A68400C256D42CE
:10213000A946CB445D46C9180C340C2DA7D85A4685
:102140009500574A52599746E27A12068018A27AA9
:1021500012048018627A12028018227A8018E279BA
:1021600012068918A2791204891862791202891854
:1021700022798918E27812069B18A27812049B181B
:10218000627812029B182278D31812220C00D441D4
:102190004840001B05001524E54143405B1B072414
:1021A0001D00E5415940491B10240D00E541484000
:1021B000401B05001C24E54143405B1B5940D341B3
:1021C0000A3ACB1A5840D341C01A3CBC90469946B3
:1021D000A246AB46F0BDA26894466044626894464D
:1021E000226861449B18D0E7A27812049B182288C9
:1021F000D318CAE7227989182588ED1863881B044B
:102200005B19C2E7227A8018A2885118E28812046A
:102210008918F1E7A288891822689B18B5E7227A05
:102220008018DBE722898018D8E7A2681202120A18
:102230008018D3E722681202120AD318A5E7226891
:102240009B18A2E762681202120A891822689B187A
:102250009BE72279891822689B1896E7A2791204D5
:102260008918A2888918C7E7A27A120480182289DF
:102270008018C9E722891018628912041018A288F0
:102280005118E288120451182288D21863881B045E
:102290009B187AE7EFBEADDEA4FB0010D8FB001060
:1022A0000CFC0010F0B5DE46454657464E46E0B5FC
:1022B0001F00604B9BB0984604000D0016001900EB
:1022C000282206A806F074FF41462822283110A8CB
:1022D00006F06EFF0022584B3000390006F000F87F
:1022E000564B06000F0020002900002205F0F8FFE1
:1022F000249B0400013B0D00092B00D994E0249B92
:102300005B109B4600D192E006AB9A464C4B05937E
:1023100099460023984632E0002A5FD0009A019B3C
:102320003000390005F0E5FF06F092F84B464130E9
:1023300018702900029A039B200005F0DAFF06F0CE
:1023400087F84B4641305870009A019B30003900A5
:1023500006F0ACF9029A039B06000F00200029004A
:1023600006F0A4F901239C460733E0449C46063B53
:10237000E2449C4604000D00E144D84545DA53464A
:102380001A685B680092019310AA43469446DB00EA
:1023900063441A685B680292039301234246134226
:1023A000BAD0009A019B3000390005F0A2FF00224C
:1023B000244B05F095FF06F06FF84B462900187086
:1023C000029A039B200005F094FF1E4B002205F0AB
:1023D00087FF06F061F84B465870B5E7069A079BF1
:1023E0003000390005F085FF06F032F8059B4130DA
:1023F00018702900109A119B200005F07AFF06F052
:1024000027F8059B413058709EE75B465B009B4672
:10241000059A00235946100053541BB03CBC90460B
:102420009946A246AB46F0BD03239B466CE7044B9E
:102430000593EDE740FC00100080664000805640A8
:10244000302E002000004840F8B5DE4657464E4684
:102450004546E0B51E000DAB1D780EAB1F780FABE7
:102460001B7882469846431E98418946C0B29346DF
:10247000FDF770FF4846431E9841C0B2FDF76AFF62
:102480003000431E9841C0B2FDF764FF982101203F
:10249000490006F05FFE0400431E9841C0B2FDF7FC
:1024A00059FF0C22514620000AF006FD20000722A9
:1024B00049460C300AF000FD5B46320000212848F6
:1024C0008A26E374FEF720FB7600A051431E984154
:1024D000C0B2FDF73FFF0B990A9B8C46A25963449B
:1024E00093518C230C995B00D15000221D4B1E4E42
:1024F0001A60FF212832300006F054FEA81C0A2181
:1025000005F082FCFD2F23D00122AB009A5102235B
:1025100089008B514346FD2B0ED0A81D0A2105F0E2
:1025200073FC0323280089008B5108300A2105F031
:102530006BFC042389008B5100230C4A200013609C
:102540000B4A13603CBC90469946A246AB46F8BD88
:102550000323AD00AB51890001338B51ECE7C0463A
:10256000AB6A0A004C2800209C2F0020482800203D
:1025700014300020F0B54546DE464E46574604006E
:10258000431E9841E0B5C0B28FB00E00FDF7E2FEE9
:1025900009AB98464246714B23CB23C219681160A0
:1025A000998891809B799371012E00D1E2E2022EED
:1025B00000D0E7E02025FF3563579946022B00DD68
:1025C00044E38A235B00E258043BD358644EDB6C3F
:1025D0009B46A0235A465B00D05806F043FD614B52
:1025E000002205F086FE06F011F8257C413DEDB293
:1025F0006A005219657CD200413DEDB2AD1805F07C
:102600004BFF6E4385B2AD191A21280005F024FC5A
:102610002800CEB21A2105F01FFC1A2105F01CFC7F
:10262000CFB2A9212800890005F016FC1A2105F077
:1026300013FC2800CBB24C499A4605F00DFC24212E
:1026400005F00AFCCBB2092900D9E0E23033DBB255
:102650001C2205ADFF32A25C51466B708E232A709E
:1026600041315B00E35CE9702100AB700023213154
:1026700041374136FF312F716E719A4608684968BB
:10268000AB710022394B05F052FE0022384B05F0A9
:102690001EFE0022374B05F02CFE05F0B7FF8F23FE
:1026A0005B000600E0560F0005F0BAFE0022324B38
:1026B00005F016FE05F0F0FEC0B281000818C30058
:1026C00039003000039305F0E7FEC0B21430282132
:1026D00005F09AFB039B2A279C465B46614479439D
:1026E0005F7C07AE79181F7C49007F187F00013797
:1026F0002249380005F0B0FB122105F0ADFB413155
:10270000317038001E4905F0A7FB122105F0A4FB2B
:10271000413171703800BE2105F09EFB0A2105F0A1
:102720009BFB3031B1703800132105F095FB0A2175
:1027300005F092FB53463031F170337138001321AC
:1027400005F08AFB43465A564B461434DBB20093DD
:10275000310023002800FFF7A9FA25E290FC0010C1
:102760002C04000000003440A84400000000594040
:1027700000C07240000014400000494098850000ED
:102780006C070000032E00D016E22023FF33E3562F
:10279000022B00DD60E2D04B21009B4618000AF0BE
:1027A0008DFA5B460222CD49C51A06F001FD8D2344
:1027B0005B00E35C07A930330B700023681C5844AE
:1027C0004B700AF009FB8A235B00E258043BD358A4
:1027D000C349DA6CA0235B00D558281C06F0D2FB55
:1027E000002800D00EE20023002798469A46BD49F3
:1027F000281C06F0C7FB002803D0072398469A46FA
:10280000B84FB949281C06F0BDFB002803D00A23A5
:1028100098469A46B44FB549281C06F0B3FB0028E9
:1028200003D00D2398469A46B04FB149281C06F0B4
:10283000A9FB002803D0112398469A46AC4FAD4916
:10284000281C06F09FFB002803D0142398469A46C4
:10285000A84FA949281C06F095FB002803D0172390
:1028600098469A46A44FA549281C06F08BFB0028E1
:1028700003D01B2398469A46A04FA149281C06F076
:1028800081FB002803D01E2398469A469C4F9D4901
:10289000281C06F077FB002803D0212398469A468F
:1028A000984F9949281C06F06DFB002803D025237A
:1028B00098469A46944F9549281C06F063FB0028D9
:1028C00003D0282398469A46904F9149281C06F039
:1028D00059FB002803D02B2398469A468C4F8D49EC
:1028E000281C06F04FFB002803D02F2398469A4659
:1028F000884F8949281C06F045FB002803D0322365
:1029000098469A46844F8549281C06F03BFB0028D0
:1029100003D0352398469A46804F8149281C06F0FB
:1029200031FB002803D0392398469A467C4F7D49D5
:10293000281C06F027FB002803D03C2398469A4623
:10294000784F391C281C06F0BEFA7749071C06F0A0
:1029500019FB764B9946002800D05BE100261870E1
:102960007349381C06F00EFB002803D007234A46A3
:10297000072613706F49381C06F004FB002803D0AB
:102980000A234A460A2613706B49381C06F0FAFAE5
:10299000002803D00D234A460D2613706749381CC2
:1029A00006F0F0FA002803D011234A4611261370CE
:1029B0006349381C06F0E6FA002803D014234A467F
:1029C000142613705F49381C06F0DCFA002803D087
:1029D00017234A46172613705B49381C06F0D2FAB3
:1029E000002803D01B234A461B2613705749381C66
:1029F00006F0C8FA002803D01E234A461E2613708C
:102A00005349381C06F0BEFA002803D021234A4659
:102A1000212613704F49381C06F0B4FA002803D061
:102A200025234A46252613704B49381C06F0AAFA7E
:102A3000002803D028234A46282613704749381C0B
:102A400006F0A0FA002803D02B234A462B26137049
:102A50004349381C06F096FA002803D02F234A4633
:102A60002F2613703F49381C06F08CFA002803D03B
:102A700032234A46322613703B49381C06F082FA4C
:102A8000002803D035234A46352613703749381CB1
:102A900006F078FA002803D039234A463926137005
:102AA0003349381C06F06EFA002803D03C234A460E
:102AB0003C2613702027FF37E257022A00DDADE0E5
:102AC00023002100D2B2009214330C314246584602
:102AD000FFF7ECF868E0C046A0240020FCFC0010E2
:102AE000000061440040034500803B4500C0734541
:102AF00000609F450080BB4500A0D7450020FD45F4
:102B000000A00C4600B01A4600702D4600803B46DF
:102B10000090494600505C4600606A460070784666
:102B20000098854600A08C46000070422B300020A3
:102B300000000C4300004843000082430000AA4309
:102B40000000C8430000E6430000074400001644AC
:102B50000000254400003944000048440000574468
:102B600000006B4400007A440080844400808E445E
:102B7000000096440A232026E374FF36A5570A274F
:102B8000022D5CDC210007AE0C31042230000AF07B
:102B900093F9002333712300EDB2143300953A000A
:102BA00031002000FFF782F800200FB03CBC9046B7
:102BB0009946A246AB46F0BD042EF5D12023FF3343
:102BC000E356022B37DC3C2305AA13803E22244D1A
:102BD00007AE2B70681C234932800AF06FF8310071
:102BE000022206F0E5FA2020230021001E4AFF30D1
:102BF000205C12781433009052B20C312800FFF799
:102C000055F8D1E70323194F9A469846EFE5373335
:102C1000DBB21DE503234A461370A1E6281C06F02B
:102C200021FA0B005146020001960091104806F06F
:102C300057FDE25744E70F4806F070FCC3E713273F
:102C40000D4806F06BFCE757A5579BE70B4806F0CD
:102C500065FC63579946B4E4094806F05FFC9AE5C1
:102C6000F42F0020A02400202B300020000061441D
:102C700000FD001028FD0010A4FC0010BCFC00109A
:102C8000D4FC0010F0B54546DE4657464E46E0B54A
:102C90000600731E9E41F3B283B004001800019336
:102CA000FDF758FB8A235B00E258043BD358984653
:102CB000DB6C1D7C9F6A002D02D00121AB4A1160A4
:102CC0008C225200A25C002A00D0EDE0002F00D13F
:102CD000DBE0002D13D12022FF32A256002A0EDDA8
:102CE00043469A6D1A23FF33E15CA14800F032FAA3
:102CF0008A235B00E258043BD3589846DB6C9B7CEC
:102D0000190099469B4B30399B4619609A4B9A465D
:102D100052468B00D258501C00D18AE09748006878
:102D2000002841D1964B99464B461B68002D1ED07A
:102D30000133ED181A23EAB2FF33E254914B1A68BB
:102D4000BA421ED1904B1E685F6802F019FB801BCF
:102D5000B941002923D01A2300220020FF33E25476
:102D600003B03CBC90469946A246AB46F0BD042257
:102D7000002BDDD01A23FF33E254824B1A68BA428B
:102D8000E0D01F6002F0FCFA06000F007E4B1E60D0
:102D90005F6002F0F5FA801BB9410029DBD17B4B63
:102DA0009842D8D80020DBE7002ABBDD78481E58BF
:102DB000002EB7D16D4E3668002EB3D001261E50BE
:102DC0002023FF33E356022B55DC4046FDF716FC6B
:102DD0006B4B8A26994601234A4613605B4652464E
:102DE0001B6820009B00D158FFF7C4FB32207600FF
:102DF00002F0DEF90198FDF7ADFAA059431E9841A3
:102E0000C0B2FDF7A7FAA35962489B599842804186
:102E10004042FDF79FFAA059FDF7C6FE2100A059D8
:102E2000A2220F30143106F0C3F9A222A3595A731B
:102E30007AE729320021564806F0B4F901224F4BB7
:102E40001A6094235B00E356002B00D16AE74846E2
:102E50000A21273804F0D8FF534689005B58013314
:102E600000D05FE7464B4046994600234A46136030
:102E7000FDF7D6FB58E7484806F032FC8A235B0092
:102E8000E258043BD35898469FE72023FF33E3568C
:102E9000002B02DD414800F05DF91A2300220120D9
:102EA000FF33E25440425BE73D4B98461B68002BE2
:102EB00039D13C4800F04EF91A2304228A25FF3309
:102EC0006D00E2546259093BD058FDF797FB64202E
:102ED00002F06EF90198FDF73DFA6059431E9841E2
:102EE000C0B2FDF737FA63592A485B5998428041CE
:102EF0004042FDF72FFA6059FDF756FE2100605958
:102F00001431A2220F3006F053F9A22263595A73EA
:102F100002F036FA244B4246186059600123012022
:102F2000136040421CE7204B1E685F6802F028FADD
:102F3000801BB941002905D11C4B984202D80120C1
:102F400040420DE70023424613601533FF33E25839
:102F5000043BD058FDF764FB154806F0DFFAFA2071
:102F6000C00002F025F901204042F9E6482800207F
:102F700088FE0010982900209C2F00204C2800205B
:102F800014300020842F0020D8230020C0C62D003C
:102F90004C2F002020A10700CCFE001038FE0010AE
:102FA000182A0020C8FD0010D0230020000E27079B
:102FB000F0FD0010F0B504008A25431E984183B04F
:102FC0006D00C0B2FDF7C6F960598826431E9841CE
:102FD000C0B2FDF7BFF9635976009859431E984176
:102FE000C0B2FDF7B7F963599B59D86C431E98419D
:102FF000C0B2FDF7AFF963599B59DC6C206A616A76
:1030000005F062FA0A4A0B4B05F091F906000F0031
:10301000A069E16905F058FA054A064B05F087F901
:103020000623320000933B00FFF73CF903B0F0BDEC
:1030300048AFBC9AF2D77A3E70B504008A25431E89
:1030400098416D00C0B2FDF785F960598826431E8E
:103050009841C0B2FDF77EF91F4B2048DA689B68A3
:1030600000F078F8635976009B591D48DB6C1A6BA9
:103070005B6B00F06FF81A23FF33E15C194800F036
:1030800069F82000FFF796FF0100174800F062F88A
:10309000635916489B59DB6C9A69DB6900F05AF852
:1030A000635913489B59DB6C1A6A5B6A00F052F84B
:1030B00063599B59DA6CA0235B00D05805F0D2FF0E
:1030C00002000B000B4800F045F80B4B0B48196849
:1030D00000F040F870BDC0460040054050FD0010B3
:1030E00064FD001070FD001080FD00108CFD0010CC
:1030F00098FD0010A4FD001098290020B4FD0010D8
:1031000070B504008A25431E98416D00C0B2FDF7DA
:1031100021F960598826431E9841C0B2FDF71AF97B
:10312000635976009859431E9841C0B2FDF712F9D1
:1031300063599B59D86C431E9841C0B2FDF70AF9F8
:1031400063599B59DB6C187C013843425841C0B22B
:1031500070BDC0460FB4F0B54646D6464F46C0B522
:103160004B4BE0B098461B68002B00D18DE002F07D
:1031700007F9484A142304000D0004F0ABFE1000C8
:103180001900454A00230A900B9104F0A3FE08920F
:10319000099308980999414A002304F09BFE100006
:1031A00019003F4A00230C900D9104F093FE434612
:1031B00041461B6881469A4601330B60354A142309
:1031C0002000290004F086FE804648460021C50EF6
:1031D0004401241A8D4153460693E30D9C466646EE
:1031E0006B023343620212184B41940EA4466646AA
:1031F0009D0135439401A41A9D410C9A0D9B2418FE
:103200004D41121BAB410290049205930898099915
:10321000224A002304F05EFE1F4A019000230A9810
:103220000B9904F057FE434600901E4A402110A817
:1032300004F04AFD802169AB689A490020A80F93E9
:1032400004F056FD184CFF25200009F0CDFD10A913
:103250002A1A200009F0FCFD200009F0C5FD20A974
:103260002A1A200009F0F4FD200009F0BDFD0F49E5
:103270002A1A200009F0ECFD60B01CBC904699466B
:10328000A246F0BC08BC04B0184706F035FA6EE759
:10329000982F00200060D71D00A493D600879303C9
:1032A00040420F0010FF00103C2E00205CF8001080
:1032B00010B5064C2378002B00D110BD2100044826
:1032C00006F00EFA00232370F7E7C0463C2E0020DC
:1032D000ACF80010F8B5DE4657464E4645468A46DD
:1032E000E0B501001F48914606F0FAF91E4D002492
:1032F0002B686826986808F009FF1C4B1C4F9846FD
:103300000CE0082812D03B5CB34303D04B46013B92
:10331000A3421EDC2B68986808F0F8FE06F0F0F96E
:103320000A280AD00D2808D07F28EAD1002CF1D035
:103330004046013C06F0D4F9ECE7524600230A204F
:10334000135506F09FF83CBC90469946A246AB4602
:10335000F8BD631C9B465346185506F093F85C462F
:10336000D8E7C046ACF80010E01800206CFF001051
:10337000510D011000B587B005AB04AA03A90B4895
:1033800000F010FE002803D10849094803F040F975
:10339000059A0499039800F0C9FD064B0122009399
:1033A0000021062002F070FD07B000BD38C1010009
:1033B00038FF0010C0C2DA0670B5194E8A25306891
:1033C0006D00431E9841C0B2FCF7C4FF33685A59E0
:1033D00088235B00D4582000431E9841C0B2FCF7FC
:1033E000B9FF336820005A598C235B00D1580D4A2D
:1033F000FCF7C8FF43425841C0B2FCF7ABFF33684B
:1034000000225B5920005959FDF76AF843425841A0
:10341000C0B2FCF79FFF20000CF06EF970BDC046F3
:103420003C300020C0C2DA0630B5C1B006222049C7
:10343000684609F041FD6B460222981D1D4909F0BE
:103440003BFD01221C4902A809F036FD092001229A
:103450001A49684409F030FD0A20012218496844DD
:1034600009F02AFD0B2001221649684409F024FDC9
:103470000122154903A809F01FFD0D20012213495F
:10348000684409F019FDEFF3108572B6802480219D
:10349000E402200049010CF057F9802269465200ED
:1034A00020000CF031F985F3108841B030BDC046E2
:1034B0005830002040300020603000205030002084
:1034C0004830002044300020543000204C30002090
:1034D00010B5384803781A00413A192A02D9303B0E
:1034E000092B5FD8344A1378303B092B48D833482E
:1034F00003781A00303A012A03D9512B01D02D2B21
:1035000043D12F4A1378303BDBB2082B21D8562108
:10351000FF31D940CB071CD52A4A1378313B032B06
:1035200020D8294A1378303B092B24D8274A13780E
:10353000303B012B03D931231370FFF775FF244A69
:103540001378303B012B03D930231370FFF76CFF46
:1035500010BD30231370FFF767FF1A4A1378313B11
:10356000032BDED932231370FFF75EFF164A137860
:10357000303B092BDAD931231370FFF755FFD5E71C
:103580002D231370FFF750FFB1E70222114905F018
:103590000FFEFFF749FF0A4A1378303BDBB2082BD6
:1035A000D7D8B4E706220C4905F002FEFFF73CFF2E
:1035B00098E7C046583000204830002040300020B6
:1035C0006030002050300020443000205430002073
:1035D0004C300020C4000110BC000110F0B5C646FC
:1035E000802500B5254805F099FF254B0024984615
:1035F000244F0F266D0005E02020013405F042FF26
:10360000AC420DD0E15D404606F06AF8330023403D
:103610000F2BF1D10A20013405F034FFAC42F1D177
:1036200006221849184809F047FC02221749184891
:1036300009F042FC01221749174809F03DFC01221C
:103640001649174809F038FC01221649164809F0B6
:1036500033FC01221549164809F02EFC01221549B8
:10366000154809F029FC01221449154809F024FCE9
:10367000FFF72EFF04BC9046F0BDC046600101106C
:1036800070010110000004105830002006000410E2
:1036900040300020080004106030002009000410B1
:1036A000503000200A000410483000200B000410A5
:1036B000443000200C000410543000200D00041091
:1036C0004C3000209B4BF0B51A680123DE4657466C
:1036D0004E464546D0249340E0B5240689B0A36108
:1036E000642001F065FD80239B046361924805F02E
:1036F00015FF924A9249934805F0F2FF924805F06F
:103700000DFF924805F00AFF914805F007FF914828
:1037100005F004FF904B914F9B460493904B914EC4
:103720009A460393904B99460293904B9846019387
:103730008F4B31008F4A00938F483B0005F0D0FF3C
:103740008E4805F0CDFF8E4805F0CAFF8D4805F084
:10375000C7FF8D4805F0C4FF8C4805F0DFFE8C489C
:1037600005F0BEFF8B4806F009F8FF250540C4B2FE
:103770002900894805F0B4FFFF2C00D1CFE05A2C76
:1037800002D9203CE4B225000A3CE4B24E2C1CD8FD
:10379000824BA4001B599F46022276498048FFF7BE
:1037A00099FDFFF741FEFFF793FE5B4604935346F6
:1037B00003934B4602934346B9E77A4805F090FFDE
:1037C0000121642002F0CEFDFEE72A0029007648A0
:1037D00005F086FFFA20C00001F0EAFCE3E70222D0
:1037E00049467248FFF776FDFFF71EFEDBE770489B
:1037F00005F076FF072206A96E48FFF76BFD06A8C5
:1038000008F072FB04F098FE0021041C05F0A4FBF4
:103810000028C8D1201C05F025FC02000B006648DA
:1038200005F05EFF654B201C1D6805F015FC8A261F
:103830004201121A93019B1A7600DB00AF591B1844
:103840009B01BB518C2301225B00EA5409B03CBCB4
:1038500090469946A246AB46F0BD022259465848CA
:10386000FFF738FDFFF7E0FD9DE70222514655487E
:10387000FFF730FDFFF7D8FD95E702223C4952489B
:10388000FFF728FDFFF7D0FD8DE7022241464F48A4
:10389000FFF720FDFFF7C8FD85E7032239004C48FC
:1038A000FFF718FD3B78002B00D17AE73A0003249C
:1038B0004849C85C2040022809D0137001321378AF
:1038C000002B00D16DE7C85C20400228F5D1203BD9
:1038D000137001321378002BEBD162E7072231001D
:1038E0003D48FFF7F7FC3378002B00D159E7320051
:1038F00003243849C85C2040022809D013700132E3
:103900001378002B00D14CE7C85C20400228F5D189
:10391000203B137001321378002BEBD141E72F4885
:1039200005F0DEFE642001F043FC0121642002F07A
:1039300019FDFEE78C24002004040110100401107E
:103940001C040110280401106404011094040110E7
:10395000C80401101C0501104C300020403000202C
:1039600054300020583000204430002050300020D7
:103970006030002048300020780101100002011062
:1039800058020110A4020110F002011058030110A6
:10399000A805011000879303D405011070FF0010E3
:1039A0003406011014060110640701109806011076
:1039B000E00601102C0701104C0701103C300020DC
:1039C000C8060110B006011068060110800601103B
:1039D00058060110510D011020060110D8050110E4
:1039E00010B5274B1B78302B24D01122254B264CA9
:1039F0001A60264B033A1A6010231020236000F04F
:103A000027FD012322689340D022120653621D2015
:103A100000F01EFDD02380221B0692059A62002131
:103A200000221D2000F0A6FC08F042FA0222184BEA
:103A30001A6010BD0222134B134C1A60134B043250
:103A40001A6005230520236000F002FD012322688F
:103A5000D0249340240663620820636100F0F8FCE0
:103A600080235B006362092000F0F2FC80239B004E
:103A700063620A2000F0ECFC8023DB006362C6E78F
:103A80004C300020902400208C240020982400201A
:103A900000E00440F0B5DE4657464E4645468024D9
:103AA000E0B5D025A404142627008DB0FFF762FCF2
:103AB000DD48FFF74FFB2D06FFF7FAFB192000F05A
:103AC000C7FC6C6264206F6101F072FB013EAC6167
:103AD000642001F06DFB002EF4D1FFF77FFDFFF7AE
:103AE0007FFFD24AD249D34805F0FAFDD24B1B786A
:103AF000313BDBB2032B00D910E2D04A9B009A582D
:103B00000024CF4BCF4F98461B78CF49303BDBB2D8
:103B100005933B78CD48303BDBB20493CC4B1B780C
:103B2000303BDBB20393CB4B1B68009202930A221B
:103B3000C94B0194FEF788FC8146431E9841C0B2F0
:103B4000FCF708FC4A46C54B49461A608C23C44E14
:103B50005B003268C34DCA541A232022FF33CC5471
:103B60002B78FF32303B8B54434648461B78053A4E
:103B7000303B8B54BC4B0E321B781C30303B8B548B
:103B8000FF30390009F028F9B84808F011F8B848B2
:103B9000FFF7E0FA9621B74B89011A68B64B1878FF
:103BA00073233038FCF74EFDAB4BD864431E98416D
:103BB000C0B2FCF7CFFBA222A74B5200DB6C3168EE
:103BC0009C544622FF32995448212A78FF31303ADA
:103BD0005A5401F0D5FBA94B186059609846002350
:103BE000089309930C334B440B9390235B004B4495
:103BF0000A93A34B48469B46A24B9A46FFF780FA8E
:103C0000002800D004E101214846FFF73BF82023BB
:103C10004A46FF33D356042B09DD099B1421013397
:103C20001800099304F0F0F8002900D172E1002097
:103C300005F0A4FD002809DD874B0122DB6C07930A
:103C4000A22307995B00CA54FFF73CFD53461A684C
:103C50008023DB015340E022D20113408A4A1360E3
:103C600004228A4B1A60FC3253461B681342FBD075
:103C70005346586880B205F096F9854905F03DF93C
:103C8000844905F020F9844905F023F9011C834893
:103C900005F019F9071C05F0ADF98F234A4640B22B
:103CA0005B00D0546C4BDB6C1A000793A3235B00C2
:103CB000D05453461A68C0239B015340E022D201DE
:103CC0001340714A13600422704B1A60FC32534651
:103CD0001B681342FBD05346586880B205F063F965
:103CE0006F4905F00AF96A4905F007F9061C05F065
:103CF000B9F904000D00301C694905F035F90028B8
:103D00000BD0684A684B2000290004F0E9FA04F05F
:103D100013FC05F0A7F904000D00644A644B200071
:103D2000290004F065FB00280BD05E4A5E4B2000A2
:103D3000290004F0CCFA04F0FFFB05F093F904002D
:103D40000D000A9B4A461C605D602023FF33D3565A
:103D5000002B05DD089B013308939B0700D1AFE0E2
:103D60000A2712E05B465A461B6801331360DB07E3
:103D700000D5C3E0D02380221B0692045A61322072
:103D8000013F01F015FA002F3AD01A224B46FF32BC
:103D90009E5C43461C685D6801F0F2FA002EE1D09B
:103DA000001BA941434A002304000D0004F092F8CF
:103DB000864215DB3F4A0023C11705F067F8220051
:103DC0002B00121A8B411100002B00D09CE03A4BC3
:103DD000994200D998E0D02380221B0692045A61B0
:103DE000002D02D1354B9C42C9D901F0C9FA434696
:103DF000013F18605960322001F0DAF9002FC4D178
:103E0000FFF756FA4846FFF77BF9002800D1FAE69B
:103E10004846FFF7CFF8002800D1F4E6010006225B
:103E20000B9809F049F8EEE65CF800101004011058
:103E30001C040110C800011050300020AC0001101B
:103E40004830002040300020F80001105830002099
:103E50006030002098240020302400203C300020D6
:103E6000142A00204430002054300020B9330010C0
:103E700000010110902400204C300020B8220020C6
:103E80000C30002000C0044000D0044000E004409A
:103E90003333533A6ABC343F2D93E13A0000D841A2
:103EA00000004040333333333333FF3FCDCCCCCCF1
:103EB000CCCC1340801A06004FC30000A02526007A
:103EC0001749381C05F019F88421C90504F0FEFFD4
:103ED00005F0C8F8079A0600537C0F000493A0234E
:103EE0005B00D05805F0BEF8009401950290039154
:103EF00032003B000B48FFF72DF931E7D023802239
:103F00001B0692049A613AE7D02380221B06920492
:103F10009A6165E74846FFF78FF888E6024AEFE5C1
:103F20006666E63F1C010110CC1AD700F0B583B0DD
:103F300005000E00140000F0A9FA002801D003B01B
:103F4000F0BD154F01223B0000970121053001F023
:103F50009BFF33002A0000940121104802F0AAF9C7
:103F600021002800714303F077FF04000C4B00226E
:103F700000930221042001F087FF23000094002217
:103F80000121052001F080FF00973B000222002163
:103F9000062001F079FFD2E7006CDC0200800240CD
:103FA000001BB700F0B5DE4657464E464546E0B525
:103FB00085B003934A4B070099464023FF339B4645
:103FC00001910292474B994500D186E0464E474BFE
:103FD0004E440624994565D8651C29003000694384
:103FE00003F03AFF874245D0002C5BD02900300017
:103FF000614303F031FF87425CD0631E9846002B7B
:104000002FD019003000694303F026FF874254D0B7
:10401000A31E9A46002B24D019003000694303F0F8
:104020001BFF87424DD0E31E9A46002B19D0190082
:104030003000694303F010FF874246D0231F9A46A1
:10404000002B0ED019003000694303F005FF8742B2
:104050003FD0052C05D02900300003F0FDFE87423B
:104060001CD04446651C29003000694303F0F4FE6F
:104070008742B9D10029B7D12C005A4601201C4BE8
:104080005343019A1360029B1D60039B1C6005B0A3
:104090003CBC90469946A246AB46F0BD0029E0D113
:1040A0000124EAE701235B429C46124BE3449C4611
:1040B000E14487E70029A0D1DFE70029A8D14446E1
:1040C000DBE70029AFD15446D7E70029B6D15446E3
:1040D000D3E70029BDD15446CFE70020D7E7C0463B
:1040E00070F72E00704DF7FFB0710B0050F80C0008
:1040F000001BB70020D1FFFFD0231B061B68F0B5C3
:104100009A004546904641468A4ADE4652585746EE
:1041100093465A1E934130224E465B421A40864BCC
:1041200000249C46854BE0B59A4683B062440092D9
:10413000E20813002600083300999B005D580836FA
:10414000002D24D0A64224D95B46002B2AD001237F
:104150000F2799463900294013D04B465246404616
:10416000A34012581A420CD10722080022409200A4
:1041700090400200E30872483C339B001A50200034
:10418000D8472D090134002D01D0A642E2D8202EB7
:1041900001D03400CCE703B03CBC90469946A2461F
:1041A000AB46F0BD0F232B4007D001214746A1406D
:1041B0006248C059084200D1A8E02B09611C002BBD
:1041C000E5D08E42E3D90F2213406BD12B0AA11CFC
:1041D000002BDCD08E42DAD90F22134073D12B0B87
:1041E000E11C002BD3D08E42D1D90F2213407BD1BA
:1041F0002B0C211D002BCAD08E42C8D90F22134090
:104200000FD047460E3A8A404C48C059104208D158
:104210000720CA08014089008B403C32484992007F
:1042200053502B0D611D002BB1D08E42AFD90F2200
:10423000134006D047460E3A8A404048C0591042C3
:104240006DD02B0EA11D002BA1D08E429FD90F2225
:1042500013400FD047460E3A8A403848C0591042A2
:1042600008D10720CA08014089008B403C323449FC
:10427000920053502D0F0734002D00D187E7012302
:104280004146A3402D4A525801921A4200D07EE77F
:104290000722E3081440A400A5403C33284A9B00B1
:1042A0009D5074E747460E3A8A402448C059104250
:1042B0008CD10720CA08014089008B403C3220493C
:1042C0009200535082E747460E3A8A401B48C05935
:1042D000104284D10720CA08014089008B403C323B
:1042E0001749920053507AE747460E3A8A401348DE
:1042F000C059104200D07BE70720CA08014089005E
:104300008B403C320E499200535071E70721214007
:1043100089008B403C320A49920053504DE70720F8
:10432000CA08014089008B403C3205499200535035
:1043300087E7C0465029002000410140882F002017
:1043400000400140094A830094464022634410B56E
:104350001C68C0006240C0241440802252011343F4
:104360001C60034B9C466044416010BD04C001408A
:10437000004001400A4B80009C4604236044002911
:1043800001D00C230821002A00D10B000268534001
:104390000C221A4080235B01184302607047C0461C
:1043A00004C00140F8B51D00D0231B061B68140093
:1043B0005A1E934130225B421340214AC60894465C
:1043C000072202409200914032001E483C32634472
:1043D0009200B60011509B19002C11D0802292013E
:1043E00013431960D0231B061E68174FB600BB5934
:1043F000002B11D0002D1ED0BD51002C16D1F8BDC0
:10440000C022920113431960D0231B061E680E4F71
:10441000B600BB59002BEDD1002DEED000220B4988
:104420000D20BD5100F058F9002CE8D001210D20DD
:1044300000F0E4F8E3E705490D2000F031FADBE78E
:10444000004101400040014050290020F940001087
:104450000123D0228340120693629361094A8300AC
:104460009446402263441968C0004A40C02111406C
:104470008022520113431960034B9C46052360447C
:104480004360704704C0014000400140024B18687F
:104490008007C00F7047C04600C00640EFF3108091
:1044A00072B6034A1368002BFCD0BFF35F8F7047CE
:1044B0002C0100D0BFF35F8F0022024B1A6080F303
:1044C000108870472C0100D0F8B5EFF3108772B652
:1044D0000D4E3368002BFCD0BFF35F8F0725CB0850
:1044E000C01801230D40AB401D000478254007D1C2
:1044F00023430370BFF35F8F356087F31088F8BDE7
:10450000100002F085F8C0462C0100D0F8B5CE4668
:1045100047468C4680B5EFF3108872B6214D2C6863
:10452000002CFCD0BFF35F8F9A422CD807210125C5
:1045300011408D40D4080419267835421FD0072138
:104540008946063909E04D460F001540AF40D408B2
:10455000041926783D00374211D001329342F2D23D
:1045600001204042BFF35F8F00220E4B1A6088F398
:10457000108800280FDB0CBC90469946F8BD3543E7
:1045800025701000EEE7BFF35F8F00232B6088F3E8
:104590001088012040426346002BECD0089802F0BE
:1045A00037F8C0462C0100D00021044B044ABFF369
:1045B0005F8F02C39342FAD17047C046000100D01A
:1045C000800100D0044A1078431CDBB2172B00D9BD
:1045D000102313707047C0460818002000B5054B23
:1045E00083B00100009318221F230348FFF78EFFBA
:1045F00003B000BD940701106C2900200123834003
:10460000002904D0034A1360034A13607047034A29
:104610001360FBE780E200E000E100E080E100E001
:1046200001228240034B1B681340581E8341D8B2BD
:104630007047C04600E100E001238340014A136057
:104640007047C04600E200E0084B10309B688000D5
:10465000C358002B07D0064A00209B1A2F229A42EB
:104660004041C0B270470020FCE7C04600ED00E0CA
:104670000C180020024B10309B688000C058704717
:1046800000ED00E070B50D00EFF3108672B60F4A32
:104690001368002BFCD0BFF35F8F0D4B10309B686D
:1046A00084001B590B4A934203D09D4201D001F074
:1046B000C7FF074B9B681D51BFF35F8FBFF35F8F31
:1046C0000022024B1A6086F3108870BD240100D0CE
:1046D00000ED00E0CD010010F8B557464546DE4636
:1046E0004E468A46E0B590460700EFF3108972B651
:1046F0005F4A1368002BFCD0BFF35F8F00205D4B37
:1047000018569B46002800DAA2E05A4644005A4D4B
:104710002418A4002E19B37910371370574BBA0020
:104720009B68934699584B1B2F2B41D801230A00B5
:104730009A43D3799446434514D90627D757130093
:10474000002F06DA8DE00627DF571A00002F00DA67
:1047500087E07B00DB199B00EB18DF794745F2D837
:10476000002A51D1464A63465B1B5B415A43120DF6
:10477000444BA11C3380444B6918043B5B1A1B0556
:1047800042495B0D0B43738063460434043B2D198F
:104790005D1B43462D05F3716D0D53462943B180D2
:1047A000B27101216246B360394B3143136018E0A6
:1047B000384B994252D1334B02343380324B2D194E
:1047C000043B5D1B2D05314B6D0D1D43324B01210B
:1047D000B380FF23B3714346F37153467580B360D2
:1047E00031435A46254B9B689950BFF35F8FBFF307
:1047F0005F8F00221E4B1A6089F310883CBC9046E4
:104800009946A246AB46F8BD0627D757131D9C46CE
:10481000002F2BDB04342D19E024938824025B0540
:104820001B1563445B1B1B055B0D23436546341F4F
:10483000641B2405154D640D2C4394809071B38046
:104840004346F3715346124AB7713260B360C8E70A
:1048500001F0F6FE5B460020185656E701F0F0FE28
:10486000A9E71A1D94461A000C4BDFE70B4BDDE756
:10487000240100D02F3000200C18002000ED00E0B3
:10488000AAAA000000A1FFFF3C18002000E0FFFFE3
:1048900001488047CD01001001BDFFFF01BD0000B0
:1048A000F0B54546DE4657464E46E0B50D0083B0AE
:1048B000EFF3108972B6584A1368002BFCD0BFF38F
:1048C0005F8F564B9A68030010339F00D459544AA7
:1048D0009046944234D0AC4245D0524EA21B2F2A6F
:1048E0002ED801228240924651464F4A126811400A
:1048F000019151464D4A1160BFF35F8FEFF305827E
:104900009346002A35D10123220006219A43936859
:1049100051569D420AD16AE04B005B1806219B006C
:10492000F31898685956A84228D01A000029F3DADB
:10493000019B002B19D052463D4B1A603A4B1A602E
:10494000364B9B68DC51BFF35F8FBFF35F8F002254
:10495000314B1A6089F3108803B03CBC90469946ED
:10496000A246AB46F0BD1400EAE752462F4B1A6050
:10497000E6E79342C7D001F063FEC4E7002921DBDC
:104980004A005018800035188046A8689860E87979
:10499000D871062028569871002826DBAD88F01AB9
:1049A0006D052D1545444019E0250005400D2D02EB
:1049B0002843988052181F4B9200B6181A78197025
:1049C000B271B5E75946002917D1002A22D0FF312C
:1049D00091711949918017490A789A71174A9B1B5E
:1049E0005B415A43120D0A70A2E71548E1E7130034
:1049F0000029C5DA5A46002A0CD0124A1249D21AA6
:104A0000083A5002400D01439980104952080A4368
:104A1000DA808DE74446DEE7240100D000ED00E0B7
:104A2000CD0100100C18002000E100E080E100E062
:104A300080E200E02F30002001BDFFFFAAAA0000A5
:104A400001BD00004618002000F0FFFF00F8FFFF46
:104A500010B5032304009C430340FF20054ADB00FC
:104A60009446984099406444226882430A432260F5
:104A700010BDC04600E400E0F0B5EFF3058101246D
:104A80000443EFF3108672B6214A1368002BFCD062
:104A9000BFF35F8F1F4B204A0500ED1A6D416A433B
:104AA000120D1E4D8900AF6852B27F58A7421CD02C
:104AB0000621595691421CD012215956914222D0BA
:104AC0001E215956914220D02A2159560324914241
:104AD00010D0134B19781A708171BFF35F8F0022C9
:104AE0000B4B1A6086F31088F0BDAB680D4C5C5020
:104AF000EFE700246100091989005B18FF21997113
:104B000009499980E5E70124F4E70224F2E7C04669
:104B1000240100D00C180020AAAA000000ED00E03B
:104B20002F300020CD01001001BDFFFF054B064ACC
:104B30001360064A136053609360D360136153613E
:104B4000936170478080808000E400E004E400E02E
:104B500000B5074B83B001000093002205230548F0
:104B6000FFF7D4FC002801DB1F23181A03B000BD97
:104B7000B007011035300020024B9C46614489008B
:104B8000016070474000003410B50400FFF71AFDC3
:104B900001002000FFF7F0FFFF232371BFF35F8FB9
:104BA00010BDC04610B50400FFF70CFD0100200049
:104BB000FFF7E2FFFF23A380BFF35F8F10BDC04666
:104BC00010B504000120FFF709FD044B9C4660442A
:104BD00080002060BFF35F8F10BDC04640000034EE
:104BE000034B9C46614489000160BFF35F8F7047AF
:104BF0004000003470B506000D00140000291ED0DE
:104C0000002A1ED073688068984763006A001B19E9
:104C10005219033B033A3168002808D0CB188A1890
:104C20009D70117800290ED11470280008E08A18B0
:104C3000CB1894701978002900D051701D70200095
:104C400070BD0800FCE7597028001470F8E7C046F2
:104C500083680B4810B5844661446244090112011F
:104C60009A18591854684B6801209C4201D802D008
:104C70000020C0B210BD12680B689A42F9D8F7E75D
:104C8000FFFFFF0F0A4B1968EFF3108072B60A6836
:104C9000002AFCD0BFF35F8F1B68BFF35F8F002239
:104CA0001A6080F3108840BF002000217047C04682
:104CB000C82F0020F8B54746CE4680B514001D0029
:104CC0000BAA0AAB12781B78804691460768002B26
:104CD00012D1BE7B002E44D0720092193968033A7B
:104CE000891848783300B873002800D1F873002081
:104CF00088704870087003E01E005A00D218033A0A
:104D00001A4938008C464146896863448C461B0129
:104D100008996344996009991C605D60D9603B689B
:104D20009C4600236244937053701370797B320069
:104D3000FFF760FF7873B04213D143462200187D1D
:104D40002B0000F0AFFB041E07D04B46002B04D114
:104D500043463100186800F023FF0C9B002B00D065
:104D60001C7030000CBC90469946F8BDFFFFFF0F49
:104D7000F0B5DE4657464E4645460023E0B58BB0BB
:104D80000893684B8200D45800239B46099000F09A
:104D9000F7FA6268EFF3108572B61368002BFCD047
:104DA000BFF35F8F23689C465B7B9946002B00D145
:104DB0006DE0A2685C4B90464B441B01984443460F
:104DC0001E685F6832003B00121A8B41002B00DC2A
:104DD00067E032003B00099800F064FB00230022EA
:104DE000984600230692079300239A466368BFF310
:104DF0005F8F5A461A6085F310885346002B08D1FE
:104E00000028C4D10BB03CBC90469946A246AB46A4
:104E1000F0BD089B414618024B461843D0476268D4
:104E200006000F00EFF3108572B61368002BFCD05C
:104E3000BFF35F8F002F52DB33003B4302D0236967
:104E4000002B63D12368DA7B002A07D051008A182F
:104E500019688C4649466244033A51709A7B002A8D
:104E600001D14A469A734A46DA73E2684B46944641
:104E7000013B63441A7801321A705B462361636810
:104E8000BFF35F8F5A461A6085F310887FE70023CF
:104E900000229846002306920793002300209A469A
:104EA000A4E7002B02D1002A00D092E7002160463F
:104EB00000F094FD43461A685B68069207934346E8
:104EC0009B689A464346DB689846E3684B44013B3F
:104ED0001B7808931B0203432361002086E72369A4
:104EE000002BAFD0069A079B921BBB41002B15DB12
:104EF000594604910121039149460291414601918D
:104F0000514620000091FFF7D5FEB6E700F038FAD1
:104F100032003B0012184B41002BE9DA0122034B0F
:104F20005242E5E7742F0020FFFFFF0FFFFFFF7FD6
:104F300010B5144C6368002B04D00A211248FFF707
:104F40001BFE10BD2300114A1021206800F064FBF5
:104F5000032000F009FA032000F010FB0C490320A5
:104F600000F05AFAFFF72EFB0A4B9C4603232375E9
:104F7000D0231B061B6860446375074B800060608C
:104F8000DC60DAE754180020C82F0020514C0010D4
:104F9000714D001040000034742F0020004870470D
:104FA00054180020F0B54E4657464546DE46E0B55B
:104FB00083B0009201930EAB1B7807009946002343
:104FC000002698467A68EFF3108A72B61368002BB1
:104FD000FCD0BFF35F8F3D68AC7B002C00D168E054
:104FE00063001B192A68033BD2185178A346A973A2
:104FF000002900D1E973967056701670B968384A66
:105000008C4600980199A218120162441060516008
:105010000C99280091600D99D1602A6894466344E8
:105020009E705E701E70697B2200FFF7E3FD68735F
:10503000844244D0FB681B19013B18787B68BFF39E
:105040005F8F1E608AF31088002C45D04346002BEA
:1050500009D15B460002184303B03CBC9046994618
:10506000A246AB46F0BD4B46002B26D00C9B0D99BB
:105070000020984703000B431FD004000D1E09DADF
:10508000009A019B121BAB4100920193002B09DB9C
:10509000C84697E700F074F924184D410094019533
:1050A000002DF5DA01230F4C5B4200930194C846B2
:1050B00088E7002300209B46C0E70020CCE7387D2E
:1050C000009A019B00F0EEF980460028B2D0210042
:1050D000386800F065FDADE701204042BCE7C046FE
:1050E000FFFFFF0FFFFFFF7F407D7047F0B504001B
:1050F0000D0006267642F717C64636196F4100B5F1
:1051000084B08F4214D811D000F03AF932003B003D
:10511000121A8B41002B15DC002B3ED020002900F9
:1051200000F06AF904B004BC9046F0BD8642EBD9A9
:105130000026002700F024F932003B00121A8B41B0
:10514000002BE9DD002302930193154B32000093FD
:1051500014483B00FFF726FF0028DFDB00239846BA
:10516000BC46114A114F7B6A9C4504D8B96AB142CA
:10517000D4D29C45D2D11168EFF3108072B60B687F
:10518000002BFCD0BFF35F8F1368BFF35F8F4146E6
:10519000196080F3108820BFE5E7002ABED0D1E770
:1051A000854C001054180020C82F002000400540F6
:1051B00070B5060000F0E4F8FA2204000D00920039
:1051C00000233000002103F061FE0019694100292D
:1051D00002DBFFF78BFF70BD012001494042F8E779
:1051E000FFFFFF7FF0B5EFF30583CE46474680B55E
:1051F000050085B00C00002B11D02B4A0020536A0B
:10520000A34207D3926A0130AA4203D21C1B601E3C
:105210008441E0B205B00CBC90469946F0BD234EE7
:1052200002930193224B0200009330000B00FFF722
:10523000B9FE0028E1DD20BF7268EFF3108772B677
:105240001368002BFCD0BFF35F8F3368C1B29C465C
:105250006246FF23527B03408A420BD05A0091469C
:1052600062461268994490464A464244033A92780C
:10527000002A10D0F268000A90464344013B1A7895
:10528000C0B282420CD07368BFF35F8F00221A60F5
:1052900087F31088B1E733699842F4D13261F2E7BD
:1052A000604600F07DFCEEE7004005405418002009
:1052B000854C0010F8B5EFF30582CE464746100046
:1052C00080B51038EFF3108C72B6204C2368002B99
:1052D000FCD0BFF35F8F0123190081401C4D1D4E90
:1052E000716329601C4DA9462D782F00C7403B40B3
:1052F00015D0736A194E984683009E59B04517D34E
:10530000174A8D439B584A461570BFF35F8F0022A2
:1053100022608CF31088002B06D0984704E0BFF37E
:105320005F8F23608CF310880CBC90469946F8BDC3
:105330000C4B92009846424413681360BFF35F8F92
:10534000002323608CF31088EEE7C046280100D0CC
:105350003C7005400040054034300020E42F002020
:1053600038280020D03F054010B50100024A03480C
:10537000FFF7AAF810BDC046D80701102D30002055
:10538000044A516A00E01900906A536A9942FAD1BE
:105390007047C04600400540164A70B5546A00E0A8
:1053A0001C00956A536AA342FAD12A002300801890
:1053B000594105000E008C4202D819D1824217D9FA
:1053C000012201256D42EE1752420A4C636A934254
:1053D000FCD39A420BD1074B2800996AA94203D308
:1053E00005E0996A814202D2596A9142F9D070BDB2
:1053F0003200EAE700400540064A536A9942FCD869
:1054000007D1044B02E05A6A914202D19A6A824261
:10541000F9D370470040054070B504000D00EFF36C
:10542000108672B61A4A1368002BFCD0BFF35F8F48
:10543000002D1BD02000FFF71DF9164988420AD025
:105440002000FFF71FF901212000FFF7D7F8012303
:10545000A340114A1360114BA400E550BFF35F8FC6
:1054600000220B4B1A6086F3108870BD0B4BA20014
:10547000D5500122A2400A4920000B7893430B70BB
:105480000449FFF70DFA00212000FFF7B7F8E5E720
:10549000280100D0B552001038600540382800209F
:1054A00034300020F0B5D6464F4646462E4CC0B5A7
:1054B000656A00E00D00A66A616AA942FAD1AB42B2
:1054C00009D806D0012420001CBC90469946A2466B
:1054D000F0BDB242F6D9EFF3108972B6234C2168C1
:1054E0000029FCD0BFF35F8F0126214986408C46FE
:1054F0000978204D0F0037438846F9B28A46614645
:1055000054460C701849041DA4004E636250840078
:1055100063510D6A002435421AD04D6A00E025001F
:105520008F6A4C6AAC42FAD1AB4219D801D1BA4267
:1055300016D8C24516D00C4B0F4A1E625E631F235D
:1055400018401E3B834013606346424601241A7094
:10555000BFF35F8F0022054B1A6089F31088B2E712
:105560000024F5E70124F3E700400540280100D0BE
:1055700034300020E42F002080E200E010B5EFF38B
:10558000108472B60A490B68002BFCD0BFF35F8F02
:1055900001238340074A0848136202789A43027045
:1055A000BFF35F8F00230B6084F3108810BDC046EB
:1055B000280100D0004005403430002070B50600BE
:1055C0000D00140000291ED0002A1ED073688068C8
:1055D000984763006A001B195219033B033A31686C
:1055E000002808D0CB188A189D70117800290ED198
:1055F0001470280008E08A18CB18947019780029D4
:1056000000D051701D70200070BD0800FCE759707B
:1056100028001470F8E7C046F0B5DE4657464E46FF
:105620004546E0B58360002389B042600268069178
:105630004373C9B20133059101738373C17304923B
:10564000012900D8A4E00A004B1ED9B2931E07918D
:10565000072B00D8AEE00025CB080393049B564CE3
:10566000591C564B56489B46564B9A46564B9C46A1
:10567000564B0293524663465F465E4662401A406E
:10568000504B2740FB185A40064053460196664649
:10569000434033404B4E0A70B046019E0135B1463F
:1056A000C844464673401604360ECE701602120EDB
:1056B0004A721A04120E0B73CA731A021B0E4B7530
:1056C000029B360E5C4063461C40404B120E9846CF
:1056D000029B47445840634618404B464344584059
:1056E000039BEDB28E718A747C401831AB42C1D1FC
:1056F000079907230A009A43531CDBB2914247D013
:10570000049C5A00A446D218591C6244059DC9B293
:10571000033A51708D423BD94A005218981C62449A
:10572000C0B2033A5070854232D942001218D91CD7
:105730006244C9B2033A51708D4229D94A005218C5
:10574000181D6244C0B2033A5070854220D942000D
:105750001218591D6244C9B2033A51708D4217D9CB
:105760004A005218981D6244C0B2033A50708542F4
:105770000ED942001218D91D6244C9B2033A5170C1
:105780008D4205D94A0052186244033A08335370D7
:10579000FF23069A13405900C918049B9C46002316
:1057A000614403394B7009B03CBC90469946A2460F
:1057B000AB46F0BD0123A3E7010203047F7F7F7F97
:1057C000050607080101010180808080080808089B
:1057D00070B50400002907D04B0000685B18033B3C
:1057E000C3185A78002A01D1080070BD5500AD18C1
:1057F000033D40190025467845705D702000FFF795
:10580000DDFE310005002000FFF7E2FF2900020065
:105810002000FFF7D3FE0100E6E7C046F0B54E4694
:105820004546DE465746E0B50E0074000168A419EF
:1058300085B0033C01920A1905001078002850D069
:1058400043001B18033BCB185F78BC46002F1AD1CE
:10585000019C002C42D0EC7B002C04D063001B196F
:10586000CB18033B5E70AB7B002B00D1AE73EE73A5
:1058700000282FD10023537005B03CBC90469946B8
:10588000A246AB46F0BD7A006244033A89184A78D2
:10589000934600224A7090465A7001003A00280050
:1058A000FFF78CFE5B468146002B07D05B00296822
:1058B0005B44033BCB185A78002A16D15A46494616
:1058C0002800FFF77BFE2968019B0A19002BC2D133
:1058D0000028CFD043001B18033BCB180021997040
:1058E000C8E7019B002BB6D1C4E7500080180338ED
:1058F0000918487882464046487058705946280032
:10590000FFF75CFE53468346002B07D05B002968F7
:105910005344033BCB185A78002A06D159465246C5
:105920002800FFF74BFE8346C8E750008018033875
:10593000091840464F784870587051462800029721
:10594000FFF73CFE8246002F08D0BC467B0029684A
:105950006344033BCB185A78002A06D15146029A79
:105960002800FFF72BFE8246D8E750008018033846
:10597000091840464F7848705870029928000397DC
:10598000FFF71CFE8046002F08D0BC467B0029682C
:105990006344033BCB185A78002A06D1039A414648
:1059A0002800FFF70BFE0290D8E70320504303388E
:1059B000091800204F784870587003992800FFF7A5
:1059C000FDFD390002902800FFF702FF0299020056
:1059D0002800FFF7F3FD0390E0E7C046F0B54E4620
:1059E0004546DE465746E0B5467B04007500006834
:1059F000AD19033D85B0421901911178002952D0AB
:105A00004B005B18033BC3185F78BC46002F1CD1CA
:105A1000019D002D44D0E57B002D04D06B005B1967
:105A2000C318033B5E70A37B002B00D1A673E67303
:105A3000002931D1002330005370617305B03CBCA4
:105A400090469946A246AB46F0BD7A006244033ABE
:105A50008018427893460022427090465A70200087
:105A60003A00FFF7ABFD5B468146002B07D05B0099
:105A700021685B44033BCB185A78002A17D15A4659
:105A800049462000FFF79AFD019B0100206842195A
:105A9000002BC0D10029CDD04B005B18033BC318AD
:105AA00000209870C6E7019B002BB4D1C2E75000DC
:105AB0008018033809184878824640464870587064
:105AC00059462000FFF77AFD53468346002B07D046
:105AD0005B0021685344033BCB185A78002A06D157
