:020000041000EA
:1000000000B5324B212058609868022188439860DF
:10001000D860186158612E4B002199600221596106
:100020000121F02299502B49196001219960352056
:1000300000F044F80222904214D00621196600F024
:1000400034F8196E01211966002018661A6600F04E
:100050002CF8196E196E196E052000F02FF8012189
:100060000842F9D1002199601B49196000215960AB
:100070001A491B48016001219960EB211966A021F2
:10008000196600F012F800219960164914480160C1
:100090000121996001BC002800D000471248134993
:1000A000086003C880F30888084703B5996A0420EC
:1000B0000142FBD001200142F8D103BD02B5186610
:1000C0001866FFF7F2FF186E186E02BD00000240BE
:1000D000000000180000070000035F00212200005C
:1000E000F4000018222000A00001001008ED00E03C
:1000F00000000000000000000000000074B24E7A12
:1001000000200420F7010010C3010010C5010010F9
:10011000C1010010C1010010C1010010C101001097
:10012000C1010010C1010010C1010010C701001081
:10013000C1010010C1010010C9010010CB01001065
:10014000CD010010CD010010CD010010CD01001037
:10015000CD010010CD010010CD010010CD01001027
:10016000CD010010CD010010CD010010CD01001017
:10017000CD010010CD010010CD010010CD01001007
:10018000CD010010CD010010CD010010CD010010F7
:10019000CD010010CD010010CD010010CD010010E7
:1001A000CD010010CD010010CD010010CD010010D7
:1001B000CD010010CD010010CD010010CD010010C7
:1001C00000BE00BE00BE00BE00BE00BEEFF3058054
:1001D000103800BEF2EB88716C2F0110982F0110BF
:1001E0003402001090A31AE700201F49086006C8D7
:1001F00081F3088810471D48006800282FD10DA4FE
:100200000ECC002902D000F012F8F9E71849194A7B
:10021000002000E001C19142FCD1174988471749ED
:1002200088471749884700BEFDE701C901C29A42C5
:10023000FBD37047982F0110C0000020E02300205E
:10024000B85201100000042000000420B852011030
:10025000001004200010042000000000704709482E
:1002600007F0E6FA0047000008ED00E0000000D0CB
:10027000E0230020B4320020495F0010B1350010A7
:10028000756000105756000006005250ABB3605323
:10029000F423011006005250861C030204240110AE
:1002A000060052505422A29D102401100500525005
:1002B000DE65F468B8520110F8B5C0460448054B35
:1002C00010B5834203D0044B002B00D0984710BDDB
:1002D000E0230020E023002000000000064807493A
:1002E000091A8910CB0F591810B5491003D0044BC7
:1002F000002B00D0984710BDE0230020E023002011
:100300000000000010B5074C2378002B09D1FFF73F
:10031000D5FF054B002B02D0044800E000BF0123AD
:10032000237010BDF824002000000000D813011035
:10033000054B10B5002B03D00449054800E000BF71
:10034000FFF7CCFF10BDC04600000000FC240020D9
:10035000D813011070B5002800D070BD8025D024BE
:10036000AD042E001930240603F0C2FD65626661FB
:10037000322004F06DFCFA20A561400004F068FC16
:10038000F5E7C046F0B5DE4657464E464546040002
:10039000431E9841E0B515008BB0C0B20E00FFF7C8
:1003A000D9FF2800431E9841C0B2FFF7D3FF5C225B
:1003B0000021200008F030FC5548A564A66060606C
:1003C00054490BF05BFA0121206260680BF038FAA7
:1003D000E061A06803F08CFD4F4A63689446634473
:1003E00019004B1E9941A068063103F0FBFCE3693C
:1003F00080229946236A52029A46A36806AD98461F
:1004000000239B460593F8235B0202920393C023CB
:1004100002A91B03102228006768049308F002FC5D
:1004200052460C3213035246D201134329001022C4
:1004300002A8079308F0F6FB384B4246049380234A
:100440009B031343344A0593BE18731E9E41063620
:100450003100404603F0C6FC424631000126501CE4
:1004600003F0C0FC009642464946380002230BF0D8
:1004700069FA802252029046029202AA130049466B
:10048000524638000BF0B6FA4A4696403B685A4648
:100490001E43F8235B02EA6042460793C0233E6096
:1004A000266A06921B032900102202A8089308F06E
:1004B000B9FB33000C33F2011B03134302A91022D2
:1004C0002800039308F0AEFB23000C3307CD07C3CD
:1004D000134A636960681A40124BE1691343636110
:1004E0002B68114A1340A26852011343802212055F
:1004F0001343A361230032000C330BF07BFA00207E
:100500000BB03CBC90469946A246AB46F0BDC046F7
:1005100000002050D81301100000E0AF00000E4092
:10052000FFFFF50100000A401FFCFFE3F0B5D646CF
:100530004F4646468046431E9841C0B5C0B282B081
:100540008A469146FFF706FFFA220023D200504662
:10055000002108F0DDF9434600259C6C4E46E30E71
:100560006201121BAB41F71736184F41910F8C46B1
:1005700000920193990063461943009B980000196B
:100580006941CB0642091A43C40620001100FC074A
:10059000720822437B108018594132003B0007F05B
:1005A000C3F943465862FC231B069C46074B604434
:1005B00018605246434600201A654A465A6502B002
:1005C0001CBC90469946A246F0BDC046C82F0020EC
:1005D000F8B51D000600431E9841C0B21400FFF795
:1005E000B9FEF36C002B26D05133FF331F685E68D1
:1005F0003B00334307D1114B00201F685E683B006E
:10060000334303D1F8BD0D4B1F605E6000210C48E1
:100610000C4A00196941002307F09EF93A003300A3
:1006200008F076F90023084A80185941054A00234A
:1006300007F07AF9E6E70020E4E7C046E02400206E
:1006400020A1070040420F0050C3000070B5040015
:10065000431E9841C0B2FFF77DFE01221300E569F9
:100660006168AB40086803430B60A26570BDC0467B
:1006700010B50400431E9841C0B2FFF76BFE012283
:10068000E069616882400B6893430B600023A365B7
:1006900010BDC046F0B50024012305002000C64669
:1006A000AB42604100B5C0B20F001600FFF752FE2A
:1006B000E123F80F5B02BB426041C0B2FFF74AFE84
:1006C0001C23F00FB3426041C0B2FFF743FE390074
:1006D000002D59D0314804F0F1FF0820022103F029
:1006E00081FB09202D4C022103F07CFB9A21012083
:1006F000890008F069FA8046431E9841C0B2FFF7AE
:1007000029FE434642461D605F609E60244B3000D8
:100710001A60244B10321A6003F0EAFB0123D02246
:10072000B3401206936230001F4B0122082103F0F0
:1007300089FBC023226B1B021A408026230076010E
:10074000303333431A60200000230122082105F0D2
:1007500079F86B1E9D4120001435002105F0B0F89A
:100760002800124903F0DEFC2800012103F096FC6A
:100770005023A363626B183B343434431340404628
:10078000236004BC9046F0BD094804F097FF0020A8
:10079000022103F027FB064C0120A4E70080034060
:1007A0006C2F0020702F0020B5010020F1000020E8
:1007B00000400340F0B5DE464E4645465746E0B59C
:1007C0000500431E98412E008DB0C0B2FFF7C2FD58
:1007D00080225936FF3652008C4930000BF06CFFF6
:1007E000041E00D1F6E02B6B894A01332B63894B41
:1007F00098461B689A56062A4EDC874B08AEDA6884
:100800009B680021934630001022019308F004FAFF
:1008100020000BF0DDFE0023002100279A468742CE
:1008200013D0E3191A780137FFB22C2AF7D15246B8
:100830001A704B1CDBB2994677540C2B05D0200064
:100840000BF0C6FE49468742EBD13378E318DB78DC
:10085000AB747379E25C302393429B415B422B740F
:10086000B07920180BF02EF94346694A1B6868746A
:100870009A56052A05DD992292009B5C002B00D137
:10088000B4E02B7C002B13D100200DB03CBC904673
:100890009946A246AB46F0BD992292009B5C002B84
:1008A000ABD18021320049005C4808F05DFCA4E730
:1008B00073780222E11806A899460BF0BDFE0023CA
:1008C00006AA100093700BF0FDF84B468046981C6A
:1008D00020180BF0F1F8434602900391642058432E
:1008E00007F0E0FA4E4A04900591029803994D4BA7
:1008F00007F041FA02000B000498059907F032FA5C
:100900000022494B07F055FA484B002207F02AFA1B
:1009100007F028FB28626962F378A4469846B3780A
:10092000C444E35C4E2B08D063461B78532B67D13D
:10093000002342428B412A626B6207AB99466146B3
:10094000032218000BF078FE4A4600234846D37075
:100950000BF0B8F881464046033020180BF0ACF895
:100960004B46029003916420584307F09BFA2C4AAF
:1009700004900591029803992A4B07F0FCF90200B4
:100980000B000498059907F0EDF90022264B07F0BB
:1009900010FA264B002207F0E5F907F0E3FAA86207
:1009A000E9623379E35C452B06D0572B2BD100232A
:1009B00042428B41AA62EB625B46AB61019BEB61F9
:1009C000307A20180BF078F807F0F8FA98239B009B
:1009D000E85059E780221649520030000BF06CFEB7
:1009E00004000020002C00D14FE7FCE6FF2101406D
:1009F000104808F0B9FB2B7C002B00D144E757E7E7
:100A00000220404241E7032040423EE79C1401108F
:100A1000670200006C2F002000400540AC1401105C
:100A2000333333333333E33F006AF8400000E03FB1
:100A3000A4140110D014011010B50400431E9841F5
:100A400082B0C0B2FFF786FC2178154808F08CFB15
:100A5000216A144808F088FBA269E36900920193B7
:100A600011482269636908F07FFBA26AE36A0F48B4
:100A700008F07AFB226B636B10200021801859412B
:100A80004134CB0642091A43FF344B09084808F0A9
:100A90006BFB22686368074808F066FB02B010BD74
:100AA000FC130110181401102C1401105014011023
:100AB0006814011080140110F8B507001000431EDF
:100AC0009841C0B216000D00FFF744FC0A20B8425E
:100AD00080414042FFF73EFC90210120490008F090
:100AE00073F80400431E9841C0B2FFF733FC88231B
:100AF0005B00A7602573E650124B134A1C6001236C
:100B0000AB4012491360002003F00CFB104E002193
:100B1000002003F0EDFC0121002003F0BFFAB56ACC
:100B200000212A0000230B4812184B412260636009
:100B3000084A237B9446043365449B009D51200062
:100B4000F8BDC046742F002038600540C503002062
:100B500000400540204E000000238373437370471C
:100B6000F0B545464E46DE465746E0B5934C8BB051
:100B7000236806000D009046032B00DDEBE0904A51
:100B800034009246032291460132330002279346F5
:100B90000C3401951A782F2A1ED01100B9433C2934
:100BA0001AD04D46511C51440878944628400228DA
:100BB00007D16146FD3020390140203A0131D2B2DF
:100BC00051441A700A785946114205D149460A40E3
:100BD000012A01D020221A7001339C42DAD100236D
:100BE000019D33730C22310076480BF025FD28005F
:100BF0000BF0EEFC022302009A43042A00D182E0AB
:100C000001002A00704808F0AFFA07226F49280057
:100C100008F008F828000BF0DBFC06284AD0290071
:100C200007226B480BF008FD434641463C2B00DD94
:100C30003C2103AC2200674B49B261CB61C261CB5E
:100C400061C21B6800261360634B22009C461B7820
:100C50000AAD5BB298462300474600201056013289
:100C600081421ED09542F8D14046002E1ED100256B
:100C70001B3401229A568A4205DD00229A5691427F
:100C800001DB1000012501339C42F2D1002D01D07F
:100C9000634618700BB03CBC90469946A246AB46E2
:100CA000F0BD954203D00F000126D6E7380062461A
:100CB0001070DCE703212B79484C1A00E05C0140FE
:100CC000022902D1203B1A00DBB22B71413B172BCA
:100CD00062D803216B79E05C1A000140022902D13D
:100CE000203B1A00DBB26B71413B172B97D9FF23D6
:100CF00005211A403A4808F037FA072239492800F6
:100D000007F090FF8BE703222B78344CE15C0A401C
:100D1000022A01D1203BDBB22B70413B112B35D88D
:100D200003226B78E15C0A40022A01D1203BDBB24E
:100D30006B70413B112B3BD8AB78E35C5B071FD555
:100D4000EB78E35C5B0700D564E7072226492800BF
:100D500007F068FF5EE70BF03BFC31000200234820
:100D600008F002FA2368032B00DC08E728000BF0E8
:100D70002FFC4346020029001D4808F0F5F9FEE665
:100D800007221949280007F04DFFD9E70722194922
:100D9000280007F047FFC3E7FF2304211A4010484B
:100DA00008F0E2F907220F49280007F03BFF90E71F
:100DB00007221049280007F035FFBDE7E028002092
:100DC00080260110002A0020AC160110C816011060
:100DD000D02E002028150110C32F002081260110DD
:100DE000D0160110F4160110A41601102C160110D3
:100DF000601601109C160110F0B557464E46DE46AF
:100E00004546E0B5C34F8DB03E7801903C2E00D1F1
:100E1000CCE22F2138000BF069FB002801D100F053
:100E2000FCFCC31B1D000293FB189E78202132009E
:100E300088468A4300D075E108AC073200212000C3
:100E400007F0EAFE2A00390020000BF0F5FB032131
:100E50002278B14B1600985C0140022905D1203E52
:100E6000FD310E40203A985DD2B22270420705D47F
:100E700003221040012801D01D3222700321627824
:100E8000985C16000140022905D1203EFD310E403C
:100E9000203A985DD2B26270420705D40322104016
:100EA000012801D01D3262700321A278985C1600DF
:100EB0000140022905D1203EFD310E40203A985DC7
:100EC000D2B2A270420705D403221040012801D0FB
:100ED0001D32A2700321E278985C160001400229BD
:100EE00005D1203EFD310E40203A985DD2B2E2702D
:100EF000420705D403221040012801D01D32E270C0
:100F000003212279985C16000140022905D1203E78
:100F1000FD310E40203A985DD2B22271420705D4CD
:100F200003221040012801D01D3222710321627971
:100F3000985C16000140022905D1203EFD310E408B
:100F4000203A985DD2B26271420705D40322104064
:100F5000012801D01D3262710321A279985C16002C
:100F60000140022905D1203EFD310E40203A985D16
:100F7000D2B2A271420705D403221040012801D049
:100F80001D32A2710421894660784E461A5CE578CC
:100F900011408846AC462578A17803955D5D5A5C82
:100FA00035400595454692462279002D00D09BE2BA
:100FB00065465D5D6479AB460425A94655464E46B7
:100FC00035400495059D002D01D000F0F3FC41252E
:100FD000039E6D42AA46B146CA445546192D01D911
:100FE00000F035FE373EF5B2AA46EE005644B60094
:100FF0004546002D01D000F0B9FC41256D42A846C0
:1010000080444546192D01D900F090FD3738C0B213
:101010003618B000861904987600002801D000F038
:10102000B0FC08004138C0B2192801D900F078FDA1
:101030003739C9B2761871008919C800091858469D
:10104000400701D500F0A9FC60464138C0B219281C
:1010500001D900F071FD60463738C0B20A3908186E
:1010600041000918C8000918985C400701D500F034
:101070009DFC10004138C0B2192801D900F059FD7B
:10108000373AD0B20A000A3A121851008A181B5D8A
:10109000D10052185B0701D500F084FC2300413BCE
:1010A000DBB2192B01D900F03EFD373CE3B20A3A1E
:1010B000D418029B9C4667447B781E00303EF6B2F3
:1010C000092E00D908E2154B9C466644F301002620
:1010D000134A96574236F618019A23099370230B48
:1010E0005370230D1370B3019371B3085371B30A96
:1010F00013710023B602360F24013443D470D37128
:101100001372537293720DB03CBC90469946A2463E
:10111000AB46F0BD002A002081260110606A000065
:10112000C32F0020DB788B4300D002E208AC0722FB
:101130000021200007F070FD029A390020000BF01A
:101140007BFA03212278974B9446985C0140022950
:1011500006D16146FF2020390140203A585CD2B2C6
:101160002270420705D403221040012801D01D320D
:10117000227003216278985C94460140022906D1CE
:101180006146FF2020390140203A585CD2B262709B
:10119000420705D403221040012801D01D3262709D
:1011A0000321A278985C94460140022906D1614649
:1011B000FF2020390140203A585CD2B2A270420789
:1011C00005D403221040012801D01D32A270032152
:1011D000E278985C94460140022906D16146FF20DE
:1011E00020390140203A585CD2B2E270420705D45F
:1011F00003221040012801D01D32E2700321227920
:10120000985C94460140022906D16146FF202039AE
:101210000140203A585CD2B22271420705D4032221
:101220001040012801D01D32227103216279985C9F
:1012300094460140022906D16146FF202039014031
:10124000203A585CD2B26271420705D403221040A2
:10125000012801D01D3262710420050080466178AA
:101260005A5C1540A2780395985C05924246257910
:101270000490AB462078E578A9461D5C1540AC4645
:10128000039D002D06D0049D013A2A40012A01D178
:1012900000F027FC4A469A5C049D924604221540C1
:1012A00062466479A846002A01D000F001FC412280
:1012B0005242944684446246192A01D900F0C0FC87
:1012C0003738C2B29446D00060448000039A002AA6
:1012D00000D095E34122524294468C446246192A3A
:1012E00001D900F07BFC3739C9B242464118880069
:1012F00040184000002A00D07EE3059A11004139D1
:10130000C9B2192901D900F066FC373AD2B2801867
:1013100042001218D10052185146490700D567E320
:1013200049464139C9B2192901D900F051FC494651
:101330003739C9B20A3A51184A005118CA008A18F6
:101340005946595C490700D54EE359464139C9B25F
:10135000192901D900F039FC59463739C9B20A3A7E
:1013600051184A0052181B5DD10052185B0700D576
:1013700037E32300413BDBB2192B01D900F022FCFB
:10138000373CE3B20A3AD418029B9C4667447A7809
:10139000303A93009B185B009E19034B9C466644B1
:1013A000F30194E6812601104AEA00000D22002193
:1013B00008A807F031FC92233E21380006930BF079
:1013C00095F8C21B013A791C08A807920BF034F972
:1013D00006AA07A908A800F081FDB44B40049A783A
:1013E0005F781E78D9785C795A7094461A791F70A4
:1013F0009970DA701C715E71AD4B400CDD5D6D074C
:1014000000D550E141256D42A846B8444546192D06
:1014100000D9D3E3373FFFB2FD00A8464744BD00E3
:10142000A84665465F5D7D0700D5D3E26746413F2C
:10143000192F00D9C0E30A37FFB2B8444546AF00C0
:101440005D5C47447F006D0700D5C0E241256D42D9
:10145000AC468C446546192D00D9ABE33739C9B287
:101460007F187900C919CF00C9199F5C7D0700D585
:10147000AAE21700413F192F00D97BE3373AD2B2D5
:101480000A3989184A005218D1005218195D4907C3
:1014900000D596E221004139192900D968E3373C8B
:1014A000E4B20A3A12195400A2189B5DD400141930
:1014B0005B0700D592E23300413B192B00D95BE377
:1014C000373EF6B20A3CA41900267A4BC0019E575B
:1014D0003F239E1B3618FFE51A00413A192A00D90E
:1014E0006CE2373BDEB2EEE5032556463540012D72
:1014F00000D05DE5654625712025039E257062714B
:10150000E170A07066705C1EA34621245D462C5DD0
:101510004D46254200D176E2444687260494059C38
:10152000D346A046B601140062468C4601000398DB
:101530005EE5002307AE2A003900300007930BF068
:101540007BF8290008AC01310722791820000BF044
:1015500073F84246B378934305D1F3707378B37050
:1015600033783270737003212278514B1700985CE6
:101570000140022900D17CE22270420705D40322F7
:101580001040012801D01D32227003216278985C3E
:1015900017000140022900D164E26270420705D4BD
:1015A00003221040012801D01D3262700321A2786D
:1015B000985C17000140022900D14CE2A27042075A
:1015C00005D403221040012801D01D32A27003214E
:1015D000E278985C17000140022900D150E2E270E5
:1015E000420705D403221040012801D01D32E270C9
:1015F00003212279985C17000140022900D14DE2B5
:101600002271420705D403221040012801D01D3267
:10161000227103216279985C17000140022900D1F0
:1016200035E26271420705D403221040012801D03F
:101630001D3262710421894660784F461A5CE57854
:1016400011408846AC462578A17802955D5D5A5CCC
:101650003D400495454692462279002D2CD0032525
:1016600057463D40012D27D1654625712025029F13
:1016700025706271E170A07067705C1EA346212422
:101680005D462C5D4D46254200D0BCE244460394A5
:10169000049CD346A046140062468C4601003800E4
:1016A000A227FF0026E0303FB5E6C046D02E00203E
:1016B00081260110C32F002065465D5D6479AB462D
:1016C0000425A94655464F463D400395049D002DEF
:1016D00000D0EAE14125029F6D42AA46B946CA44BC
:1016E0005546192D00D9B6E2373FFFB2FD00AA4694
:1016F0005744BF004546002D00D036E241256D42DB
:10170000A84680444546192D00D98FE23738C0B22B
:10171000381887003F1803987F00002800D021E286
:1017200008004138C0B2192800D97DE23739C9B262
:101730007F187900C919C80009185846400700D514
:101740000CE260464138C0B2192800D976E2604602
:101750003738C0B20A39081841000918C8000918FA
:10176000985C400700D5F6E110004138C0B2192856
:1017700000D961E2373AD0B20A000A3A1218510091
:101780008A18D1005218195D490700D5E0E12100FF
:101790004139C9B2192900D94CE2373CE1B230785D
:1017A0000A3A54181A5C520700D5CEE10200413AB9
:1017B000192A00D93CE23738C0B2C10009188900A3
:1017C000091870781A5C520700D5BBE10200413A53
:1017D000192A00D926E23738C0B24118B678CA00B3
:1017E00052189B5D920052185B0700D5A7E13300A9
:1017F000413B192B00D913E2373EF6B2DF4B961965
:101800001B78DF4A5BB2964200D865E1DD4A42337D
:1018100094466644F2019E185EE404218946DA4B40
:101820007878FC781A5C029411408C464C469D5D99
:10183000B978254064465A5CA84692463A79002C0D
:1018400005D0032455462C40012C00D1E9E0029C30
:1018500055461C5D7F79A346042425404446A9468D
:10186000002C00D036E141246442A046B0444446F6
:10187000192C00D9E8E1373EF6B2F400A046464400
:10188000B6006446002C00D015E141246442A44611
:1018900084446446192C00D9B3E13738C0B23018FB
:1018A0008600361848467600002800D009E1080076
:1018B0004138C0B2192800D9A1E13739C9B2761828
:1018C00071008919C80009185846029C400700D5C4
:1018D000F4E020004138C0B2192800D98DE1373C2E
:1018E000E4B20A3909194C006418E1006418995CE3
:1018F000490700D5EBE011004139C9B2192900D9D7
:1019000079E1373AD1B222000A3A52185400A218AB
:10191000DB5DD40014195B0700D5D5E03B00413BEB
:10192000DBB2192B00D964E1373FFFB2B4269749E7
:101930000A3C0A78E419413A53079B1A9B009B1A08
:101940008A785B009B1A4A78E3337343413A9600E6
:10195000B618CA7876009E19303AB2180026874B1E
:10196000D2019E574036B618FFF7B6FB3038C0B2EA
:101970003618B000861904987600002801D1FFF7C8
:1019800050FB3039C9B2761871008919C80009189E
:101990005846400701D4FFF757FB60463038C0B2C5
:1019A000FFF75CFB303CE3B2FFF781FB303AD0B28B
:1019B000FFF768FB039E303EFFF715FB744BFFF704
:1019C00086FB303CE4B26CE5303AD2B258E53039AF
:1019D000C9B245E56746303FFFB22EE5303EF6B26C
:1019E00070E5303CE3B2CDE459463039C9B2B6E4D3
:1019F00049463039C9B29DE4059A303AD2B286E4FC
:101A00003039C9B271E444460494059CD346A046DB
:101A1000140062468C4601003000A226F600FFF753
:101A2000E7FA029D1F343C707A713D71F970B8700D
:101A30007E7021275C1EE75D4C46D346E146C446D6
:101A40003C4200D0CDE0029101003000A2261700F8
:101A5000F6002A0015E7203FFD31203A0F40D2B2B0
:101A6000D85DABE5203FFD31203A0F40D2B2D85DC2
:101A700093E5203FFD31203A0F40D2B2D85D7BE59F
:101A8000203FFD31203A0F40D2B2D85DA7E5203F7C
:101A9000FD31203A0F40D2B2D85DC2E5203FFD3182
:101AA000203A0F40D2B2D85DAAE5029F303F1CE633
:101AB0003038FFF706FC3038C0B2F0E6303CE4B214
:101AC0000FE73039C9B2FAE6303FFFB22EE7303ABD
:101AD000D1B218E7303ECFE6F20141339E18FFF74E
:101AE000FBFA5A4662714A4622712022059D2270F5
:101AF000E570A170607021245A1E145D4246224296
:101B000048D1039A0591904662460100A2200392B3
:101B1000049A5C469246CB46C000A946FFF7D6FB26
:101B20002421FFF787FA2423FFF7C1FA2420FFF7C7
:101B30006FFA2420FFF7A6FA2420FFF78FFA303E31
:101B4000F6B25BE63038C0B247E63038C0B234E6B1
:101B5000303CE1B223E6303AD0B20DE66046303890
:101B6000C0B2F7E53039C9B2E2E53038C0B2CFE5EE
:101B7000242496E4242283E42426A3E4C32F002013
:101B8000FF7F00000080FFFF81260110D02E002083
:101B900000433500039A5C46904662460392049ADD
:101BA000CB469246059A0591010087209146800117
:101BB000FFF78CFB242153E424273EE4A225ED000B
:101BC000A8462EE42423FFF7DDFB2421FFF7C7FB03
:101BD0002421FFF7AFFB2422FFF799FB2421FFF715
:101BE00084FB1700029A0291010030008726B6019B
:101BF00047E624279AE6242185E6242471E6242159
:101C00005DE624204BE6444687270394049CD34694
:101C1000A046BF01140062468C460100029869E5A7
:101C20002426EBE52420D8E5242181E524206FE556
:101C30002420C2E52421B2E524209DE5242089E565
:101C4000A220C000FFF742FBA226F60019E6A2265A
:101C5000F600FFF7CDF9A227FF004BE5F0B5DE4611
:101C600057464E464546E0B50D00E1B0010006007E
:101C70009B4608A86AAB1C7817000AF0A1FC290053
:101C800003A80AF09DFC8D4B1C60032C00D9F5E0E5
:101C90003A0003A908A8FEF763FF05A8FFF7ACF810
:101CA00002AA17239446634498460021002505A8FC
:101CB000037800269C466346B340012200248946EF
:101CC000DB1113406D001D437D4B1F322B40012162
:101CD000013A1940D2B24C405B08002AF7D149467C
:101CE00060AB5B18513BFF3B1C70764B0F002B40E9
:101CF000994620234C1CE4B2019049460120014042
:101D00004A404946013B4908DBB28946002BF4D1E1
:101D1000390060AFB9464C44513C0231FF3CC9B276
:101D200001982270A12902D80136082EC3D10130B2
:101D30008045BDD136AA0021019201274026022507
:101D400040E080246442A04601344022FF34C02099
:101D5000A44652420D4201D1424660464C0703D58B
:101D60002020024352B2D0B20C0703D51020024308
:101D700052B2D0B2CC0603D50820024352B2D0B240
:101D80008C0603D50420024352B2D0B20E4203D0D7
:101D90000220024352B2D0B2CC0902D0012010433B
:101DA000C0B2A12808D860AAD218513AFF3A1278D6
:101DB000019C01332254DBB2A12B0CD80131C9B2F2
:101DC000FF2908D03A000A409446BAD100244020A6
:101DD0004022A046BEE7019EA22231000CA806F0D8
:101DE00021FFA2223849300006F01CFF5B465B074A
:101DF00051D134AB9C46354B5846994634490CADCD
:101E00002B6832680B4034685B000A4090461A0029
:101E100063404C460A4023406F6842445A4073680E
:101E20000F4074687F000B4098463B0067404C466B
:101E30000B40434427405F40083502604760083646
:101E400008306545DCD12820A02202AB019C1B187C
:101E50009B5CA15C5B005B1859468B5402AB013262
:101E60001B189B5CA15C5B005B1859468B5461B0EE
:101E70003CBC90469946A246AB46F0BD31001548A1
:101E800007F072F928000AF0A3FB290002001248AB
:101E900007F06AF9FCE602AA944659462725CF24A2
:101EA0000123013965446444EA5CE05C5200121885
:101EB000CA540133A32BF7D1D9E7C046E02800204C
:101EC0005153D0F2473C61E444150110808080807A
:101ED0007F7F7F7FE8150110001601100B68F0B5B9
:101EE000DE469B461368D74A574694464E464546BB
:101EF0006344E0B504005B44820743D15A461800AE
:101F000019000C2A39D91A25A846023DAC460B3DCA
:101F10001C221027AA4665684646A946A56849447A
:101F2000A946256848442D1AA9460500D5414B44C9
:101F30006B401D00F5410818C91A69400D0066463E
:101F4000F5411B18401A68400500FD41C9181B1ACD
:101F50006B401D005646F5414018C91A69400D00F6
:101F6000D5411B18401A68400C256D42A946CB4448
:101F70005D46C9180C340C2DCDD85A469500B24A8E
:101F800052599746C2074FD45A46180019000C2AD6
:101F900045D91A25A846023D1C22AC461027E588E3
:101FA00046462D04A946A588AA466589D1442D0434
:101FB0004944A9462589AA466588D1442D04484448
:101FC000A94625880C34AA46D1444D462D1AA94667
:101FD0000500D5414B446B401D00F5410818C91A56
:101FE00069400D006646F5411B18401A684005001F
:101FF000FD41C9181B1A6B401D000D26F541401804
:10200000C91A69400D00D5411B18401A68400C25BB
:102010006D42A946CB445D46C9180C2DBFD85A461F
:1020200095008A4A525997465A46180019000C2AB8
:102030005DD91A25A846023D1C22AC4610276579B9
:1020400046462D02A946A5792D04AA462579D144F4
:10205000AA46E579D1442D06AA46657AD1442D02D7
:102060004944A946A57A2D04AA46257AD144AA4610
:10207000E57AD1442D06AA466578D1442D0248441C
:10208000A946A5782D04AA462578D144AA46E57824
:10209000D1442D06AA46D1444D462D1AA946050025
:1020A000D5414B446B401D00F5410818C91A6940E1
:1020B0000D006646F5411B18401A68400500FD41B9
:1020C000C9181B1A6B401D000D26F5414018C91A8E
:1020D00069400D00D5411B18401A68400C256D421F
:1020E000A946CB445D46C9180C340C2DA7D85A46D6
:1020F0009500574A52599746E27A12068018A27AFA
:1021000012048018627A12028018227A8018E2790A
:1021100012068918A27912048918627912028918A4
:1021200022798918E27812069B18A27812049B186B
:10213000627812029B182278D31812220C00D44124
:102140004840001B05001524E54143405B1B072464
:102150001D00E5415940491B10240D00E541484050
:10216000401B05001C24E54143405B1B5940D34103
:102170000A3ACB1A5840D341C01A3CBC9046994603
:10218000A246AB46F0BDA26894466044626894469D
:10219000226861449B18D0E7A27812049B18228819
:1021A000D318CAE7227989182588ED1863881B049B
:1021B0005B19C2E7227A8018A2885118E2881204BB
:1021C0008918F1E7A288891822689B18B5E7227A56
:1021D0008018DBE722898018D8E7A2681202120A69
:1021E0008018D3E722681202120AD318A5E72268E2
:1021F0009B18A2E762681202120A891822689B18CB
:102200009BE72279891822689B1896E7A279120425
:102210008918A2888918C7E7A27A1204801822892F
:102220008018C9E722891018628912041018A28840
:102230005118E288120451182288D21863881B04AE
:102240009B187AE7EFBEADDEFC16011030170110C7
:1022500064170110F0B5DE46454657464E46E0B5D8
:102260001F00604B9BB0984604000D00160019003B
:10227000282206A806F0D6FC41462822283110A8BC
:1022800006F0D0FC0022584B3000390005F06AFD02
:10229000564B06000F0020002900002205F062FDC9
:1022A000249B0400013B0D00092B00D994E0249BE2
:1022B0005B109B4600D192E006AB9A464C4B0593CF
:1022C00099460023984632E0002A5FD0009A019B8D
:1022D0003000390005F04FFD05F0FCFD4B46413064
:1022E00018702900029A039B200005F044FD05F0B8
:1022F000F1FD4B4641305870009A019B3000390087
:1023000005F016FF029A039B06000F00200029002B
:1023100005F00EFF01239C460733E0449C46063B34
:10232000E2449C4604000D00E144D84545DA53469A
:102330001A685B680092019310AA43469446DB003A
:1023400063441A685B680292039301234246134276
:10235000BAD0009A019B3000390005F00CFD002234
:10236000244B05F0FFFC05F0D9FD4B462900187001
:10237000029A039B200005F0FEFC1E4B002205F094
:10238000F1FC05F0CBFD4B465870B5E7069A079B6C
:102390003000390005F0EFFC05F09CFD059B413055
:1023A00018702900109A119B200005F0E4FC05F03C
:1023B00091FD059B413058709EE75B465B009B4654
:1023C000059A00235946100053541BB03CBC90465C
:1023D0009946A246AB46F0BD03239B466CE7044BEF
:1023E0000593EDE798170110008066400080564085
:1023F000D82E002000004840F8B5CE46474680B5AC
:102400001E000BAB1D788046431E98410F00C0B2E2
:102410009146FDF79FFF3800431E9841C0B2FDF77B
:1024200099FF3000431E9841C0B2FDF793FF9821F9
:102430000120490006F0C8FB0400431E9841C0B2C9
:10244000FDF788FF0C22414620000AF0F5F8200035
:10245000072239000C300AF0EFF84B463200002119
:1024600026488A26E374FEF727FB7600A051431E18
:102470009841C0B2FDF76EFF0999089B8C46A2599E
:10248000634493518C230A995B00D15000221C4B6A
:102490001C4E1A60FF212832300006F0BDFBA81C3C
:1024A0000A2105F0F3F990235B00E35C2D2B1ED08D
:1024B0000122AB009A51022389008B512023FF3364
:1024C000E35CFD2B0ED0A81D0A2105F0DFF90323E4
:1024D000280089008B5108300A2105F0D7F9042320
:1024E00089008B5120000CBC90469946F8BD2A3BD0
:1024F000AD00AB51890001338B51F3E7AB6A0A00A1
:10250000F42800203C2F0020F0B54546DE464E461C
:1025100057460400431E9841E0B5C0B28FB00D008D
:10252000FDF718FF09AB98464246714B43CB43C2B7
:1025300019681160998891809B799371012D00D160
:10254000DCE2022D00D0E7E02625FF3563579946EF
:10255000022B00DD1DE38A235B00E258043BD358C5
:10256000644EDB6C9B4698235A469B00D05806F07D
:10257000B3FA614B002205F0FEFB05F089FD257CD6
:10258000413DEDB26A005219657CD200413DEDB289
:10259000AD1805F0C3FC6E4385B2AD191A212800B1
:1025A00005F09CF92800CEB21A2105F097F91A21FE
:1025B00005F094F9CFB2A9212800890005F08EF921
:1025C0001A2105F08BF92800CBB24C499A4605F048
:1025D00085F9242105F082F9CBB2092900D8D0E28F
:1025E0003733DBB2902205AD5200A25C51466B70CE
:1025F00022232A704131FF33E35CE9702100AB7084
:102600000023293141374136FF312F716E719A46CF
:1026100008684968AB710022394B05F0CAFB0022FB
:10262000384B05F096FB0022374B05F0A4FB05F074
:102630002FFD92235B000600E0560F0005F032FCF0
:102640000022324B05F08EFB05F068FCC0B2810021
:102650000818C30039003000039305F05FFCC0B2D6
:102660001430282105F012F9039B2A279C465B466B
:10267000614479435F7C07AE79181F7C49007F185D
:102680007F0001372249380005F028F9122105F0B2
:1026900025F94131317038001E4905F01FF912212A
:1026A00005F01CF9413171703800BE2105F016F9B2
:1026B0000A2105F013F93031B1703800132105F00B
:1026C0000DF90A2105F00AF953463031F1703371E2
:1026D0003800132105F002F943465A564B4614348C
:1026E000DBB20093310023002800FFF7B7FA1FE2A6
:1026F000E81701102C04000000003440A84400003A
:102700000000594000C072400000144000004940E1
:10271000988500006C070000032D00D010E2D04B1C
:1027200021009B46180009F0BDFE5B460222CD4900
:10273000C61A06F077FA2023FF33E35C07A930338B
:102740000B700023701C58444B7009F039FF8A232A
:102750005B00E258043BD358C349DA6C98239B00D2
:10276000D658301C06F048F9002800D00CE20023AF
:10277000002798469A46BD49301C06F03DF90028CE
:1027800003D0072398469A46B84FB949301C06F043
:1027900033F9002803D00A2398469A46B44FB54926
:1027A000301C06F029F9002803D00D2398469A46DC
:1027B000B04FB149301C06F01FF9002803D0112397
:1027C00098469A46AC4FAD49301C06F015F90028E2
:1027D00003D0142398469A46A84FA949301C06F006
:1027E0000BF9002803D0172398469A46A44FA54911
:1027F000301C06F001F9002803D01B2398469A46A6
:10280000A04FA149301C06F0F7F8002803D01E2382
:1028100098469A469C4F9D49301C06F0EDF80028DA
:1028200003D0212398469A46984F9949301C06F0C8
:10283000E3F8002803D0252398469A46944F9549FB
:10284000301C06F0D9F8002803D0282398469A4671
:10285000904F9149301C06F0CFF8002803D02B236D
:1028600098469A468C4F8D49301C06F0C5F80028D2
:1028700003D02F2398469A46884F8949301C06F08A
:10288000BBF8002803D0322398469A46844F8549E6
:10289000301C06F0B1F8002803D0352398469A463C
:1028A000804F8149301C06F0A7F8002803D0392357
:1028B00098469A467C4F7D49301C06F09DF80028CA
:1028C00003D03C2398469A46784F391C301C06F0BA
:1028D0003CF87749071C06F08FF8764B994600289C
:1028E00000D063E1002518707349381C06F084F8A5
:1028F000002803D007234A46072513706F49381C68
:1029000006F07AF8002803D00A234A460A251370F5
:102910006B49381C06F070F8002803D00D234A4696
:102920000D2513706749381C06F066F8002803D09F
:1029300011234A46112513706349381C06F05CF8D0
:10294000002803D014234A46142513705F49381C0D
:1029500006F052F8002803D017234A4617251370B3
:102960005B49381C06F048F8002803D01B234A4670
:102970001B2513705749381C06F03EF8002803D079
:102980001E234A461E2513705349381C06F034F89E
:10299000002803D021234A46212513704F49381CB3
:1029A00006F02AF8002803D025234A46252513706F
:1029B0004B49381C06F020F8002803D028234A464B
:1029C000282513704749381C06F016F8002803D054
:1029D0002B234A462B2513704349381C06F00CF86C
:1029E000002803D02F234A462F2513703F49381C57
:1029F00006F002F8002803D032234A46322513702D
:102A00003B49381C05F0F8FF002803D035234A461F
:102A1000352513703749381C05F0EEFF002803D028
:102A200039234A46392513703349381C05F0E4FF31
:102A3000002803D03C234A463C2513702627FF3745
:102A4000E257022A00DDB5E023002100D2B2009255
:102A500014330C3142465846FFF700F968E0C0468F
:102A60004C2500202C180110000061440040034553
:102A700000803B4500C0734500609F450080BB451A
:102A800000A0D7450020FD4500A00C4600B01A4626
:102A900000702D4600803B460090494600505C4641
:102AA00000606A46007078460098854600A08C4613
:102AB00000007042BB2F002000000C430000484380
:102AC000000082430000AA430000C8430000E64320
:102AD000000007440000164400002544000039446B
:102AE000000048440000574400006B4400007A4452
:102AF0000080844400808E44000096440A232626E9
:102B0000E374FF36A5570A27022D48DC210007AEE3
:102B10000C310422300009F08FFD002333712300B3
:102B2000EDB2143300953A0031002000FFF796F81B
:102B300000200FB03CBC90469946A246AB46F0BD83
:102B4000042DF5D13C2305AA13803E22204D07AE6B
:102B50002B70681C1F49328009F0A4FC310002224E
:102B600006F060F82620230021001B4AFF30205C7D
:102B700012781433009052B20C312800FFF76EF82F
:102B8000D6E73033DBB22DE50323144F9A4698463F
:102B9000F1E5134806F0FCF963579946DBE4132787
:102BA000104806F0F5F9E757A557AFE703234A4663
:102BB000137099E6301C05F08FFF0B0051460200A0
:102BC00001950091084806F0CFFAE2573CE7C0466D
:102BD000902F00204C250020BB2F002000006144D6
:102BE00014180110FC17011030180110F8B55746E1
:102BF000DE464E464546E0B505006B1E9D418A26E1
:102C000004008827EBB2180076009A46FDF7A2FB75
:102C1000A3597F00D859C36C1A7C196B94468E2235
:102C20005200A25C002A00D092E0002900D180E08E
:102C30006246002A0ED12622FF32A256002A09DD62
:102C40001E23FF33826DE15C714800F0D3F9A35974
:102C5000D859C36C997C6F4B3039984619606E4BCC
:102C60009B465A468B00D258561C4DD06B4E366848
:102C7000002E42D00026002A3FDD694EB4469E5900
:102C8000002E4BD10127B94667464D46DD5126231C
:102C9000FF33E356022B43DCFDF7D8FC43465A468C
:102CA0008A251B6820009B00D158FFF72DFC32209D
:102CB0006D0001F0CDFF5046FDF74CFB6059431EFF
:102CC0009841C0B2FDF746FB635956485B5998429C
:102CD00080414042FDF73EFB6059FDF73DFF21007A
:102CE0006059A2220F30143105F09CFFA2226359D3
:102CF0005A731E23A03AFF33E25430003CBC904686
:102D00009946A246AB46F8BD29320021444805F059
:102D100083FF0122414B00261A60EEE70026ECE714
:102D2000414806F021FA8A235B00E258043BD05860
:102D3000B2E72623FF33E356002B02DD3B4800F0C9
:102D400059F91E2300220126FF33E2547642D4E7CC
:102D5000374B98461B68002B36D1364800F04AF9AD
:102D60001E230222FF33E254A359D859FDF76EFC0B
:102D7000642001F06DFF5046FDF7ECFAA059431EA8
:102D80009841C0B2FDF7E6FAA35926489B599842EC
:102D900080414042FDF7DEFAA059FDF7DDFE21003B
:102DA000A0591431A2220F3005F03CFFA222A359F2
:102DB000163E5A7302F034F81F4B424618605960B1
:102DC0000123FF3E136098E71B4B1E685F6802F00B
:102DD00027F8801BB941002905D1184B984202D829
:102DE0000126764289E70023424613601533FF33FC
:102DF000E258043BD058FDF73BFC114806F0C8F8F8
:102E0000FA200126C00001F023FF764275E7C04694
:102E100080190110482A00203C2F0020F4280020AF
:102E2000F02E002020A10700C41901104C19011038
:102E3000C02A0020DC180110F0240020000E270713
:102E400004190110F0B504008A25431E984183B08F
:102E50006D00C0B2FDF77EFA60598826431E984186
:102E6000C0B2FDF777FA635976009859431E98412E
:102E7000C0B2FDF76FFA63599B59D86C431E984155
:102E8000C0B2FDF767FA63599B59DC6CA06AE16A2E
:102E900005F05CF80A4A0B4B04F08BFF06000F00AC
:102EA000206A616A05F052F8054A064B04F081FF7A
:102EB0000623320000933B00FFF7CCF903B0F0BDCE
:102EC00048AFBC9AF2D77A3EF8B504008A25431E73
:102ED00098416D00C0B2FDF73DFA60598826431E47
:102EE0009841C0B2FDF736FA224B2348DA689B6856
:102EF00000F080F8635976009B592048DF6CBA6B6C
:102F0000FB6B5137FF3700F075F83A687B681C4857
:102F100000F070F81E23FF33E15C1A4800F06AF8F5
:102F20002000FFF78FFF0100174800F063F8635996
:102F300016489B59DB6C1A6A5B6A00F05BF86359B0
:102F400013489B59DB6C9A6ADB6A00F053F86359AB
:102F50009B59DA6C98239B00D05805F0BDFD020008
:102F60000B000C4800F046F80B4B0C48196800F0B9
:102F700041F8F8BD00400540581801106C180110C8
:102F8000781801108418011094180110A01801106D
:102F9000AC180110B8180110482A0020C8180110F8
:102FA00070B504008A25431E98416D00C0B2FDF73C
:102FB000D1F960598826431E9841C0B2FDF7CAF97D
:102FC000635976009859431E9841C0B2FDF7C2F983
:102FD00063599B59D86C431E9841C0B2FDF7BAF9AA
:102FE00063599B59DB6C187C013843425841C0B28D
:102FF00070BDC0460FB4F0B54F46D6464646C0B584
:10300000454B90B099461B68002B00D180E001F041
:1030100007FF424A14230690079104F09DFC140018
:103020001D00200029003E4A00230894099504F061
:1030300093FC14001D00200029003A4A00230A9442
:103040000B9504F089FC16001F00374A002330005E
:1030500039000C960D9704F07FFC04000025804693
:10306000E10E6001001BA941C30D9C4666464B0260
:103070003343420212196B41910E8C466646990108
:1030800090013143801A99410C9E0D9F00196941AE
:10309000264C361A8F412000002106F005F80A98C8
:1030A0000B994B464A461D686B1C13601D4A002352
:1030B00004F052FC1A4A824608980999002304F049
:1030C0004BFC164A814606980799142304F044FCE9
:1030D00043464A46010000930495534602960397DF
:1030E000134806F041F819A918980F9105F0F4FF5C
:1030F0000A2005F001FF0121200005F0D5FF10B0E6
:103100001CBC90469946A246F0BC08BC04B01847C7
:1031100006F036F87BE7C046382F00200060D71D48
:1031200000A493D60087930340420F00B0190020FB
:10313000081A011000B587B005AB04AA03A90B4813
:1031400000F080FC002803D10849094802F0B0FFD4
:10315000059A0499039800F039FC064B012200936C
:103160000021062002F0E0FB07B000BD580F02006E
:10317000301A0110C0EF0B0870B5194E8A2530685F
:103180006D00431E9841C0B2FDF7E4F833685A5908
:1031900088235B00D4582000431E9841C0B2FDF73D
:1031A000D9F8336820005A598C235B00D1580D4A56
:1031B000FDF7E8F843425841C0B2FDF7CBF8336859
:1031C00000225B5920005959FDF7B0F9434258419C
:1031D000C0B2FDF7BFF820000EF096F870BDC046F3
:1031E000CC2F0020C0EF0B08F0B5C6468025224B3F
:1031F00000B500249846214F0F266D0005E02020E1
:10320000013405F079FEAC420DD0E15D404605F099
:10321000ABFF330023400F2BF1D10A20013405F01E
:103220006BFEAC42F1D106221449154809F004FAAC
:1032300002221449144809F0FFF9012213491448E5
:1032400009F0FAF901221349134809F0F5F90122AE
:103250001249134809F0F0F9124C012212492000DA
:1032600009F0EAF92378303B092B01D93123237087
:1032700004BC9046F0BDC046441C01100000041080
:10328000E02F002006000410D02F002008000410BA
:10329000E82F002009000410DC2F00200A00041091
:1032A000D82F0020D42F00200B00041000B5094BAC
:1032B00085B00293084B094A0193094B09490093D1
:1032C00009480A4B05F050FF094805F061FE05B0BA
:1032D00000BDC046D42F0020DC2F0020D82F0020B6
:1032E000E82F0020E02F00204C1C0110D02F0020E0
:1032F000A41C011030B5C1B006221A49684609F075
:103300009BF96B460222981D174909F095F9012295
:10331000164902A809F090F90920012214496844CD
:1033200009F08AF90A2001221249684409F084F957
:103330000B2001221049684409F07EF9EFF3108553
:1033400072B680248021E402200049010DF0FCFFC8
:1033500080226946520020000DF0DEFF85F31088C0
:1033600041B030BDE02F0020D02F0020E82F0020FA
:10337000DC2F0020D82F0020D42F0020F8B5DE4607
:1033800057464E4645460021E0B56E48D02405F02C
:103390008BFE08232406A361642001F059FC8023DE
:1033A0009B046361684805F0F3FD684A6849694811
:1033B00005F0DAFE684805F0EBFD684805F0E8FD29
:1033C000674805F0E5FDFFF771FF664B00249B465B
:1033D000654B664F9A46664B664D9946664B674EFF
:1033E0009846674805F0D4FEC1B2FF2920D05A297B
:1033F00001D92039C9B20B000A3BDBB24E2B00D9F0
:1034000098E0604A9B00D3589F465F4805F0ACFEA9
:103410005E49280009F026F85C4B5C70FFF76AFFF4
:10342000FFF744FF564805F0B3FEC1B2FF29DED1D5
:10343000574805F099FE0121642002F0E3FCFEE705
:10344000544805F091FE5146280009F00BF8534608
:103450005C70FFF74FFFFFF729FFC2E74E4805F00A
:1034600083FE4946280008F0FDFF4B465C70FFF7DD
:1034700041FFFFF71BFFB4E7484805F075FE4146E2
:10348000280008F0EFFF43465C70FFF733FFFFF7BB
:103490000DFFA6E7424805F067FE3100280008F05E
:1034A000E1FF3378B470002BB8D0320059460320C6
:1034B000C95C014002290AD0137001321378002B35
:1034C000ACD059460320C95C01400229F4D1203B0D
:1034D000137001321378002BE8D19FE7314805F0D3
:1034E00043FE3900280008F0BDFF3B78BC713A006C
:1034F000002B93D059460320C95C014002290AD011
:10350000137001321378002B88D059460320C95C10
:1035100001400229F4D1203B137001321378002BB3
:10352000E8D17BE7204805F01FFE0121642002F06E
:1035300069FCFEE70A001D4805F016FEFFF7B6FE1F
:103540004FE7C046B0190020301E01103C1E01108C
:10355000481E0110541E0110901E0110C01E0110C3
:10356000F41E011081260110D82F0020E02F00202A
:10357000E82F0020DC1F0110DC2F0020D02F0020BE
:1035800000879303641A011044200110D42F0020F7
:10359000801F0110E01F0110142001102C200110C9
:1035A00004200110C81F0110BC1F01105C20011075
:1035B000F0B5DE4657464E464546E0B5D025802656
:1035C000A1B02D06B604192000F092FC19206E62FD
:1035D00000F08EFC6E621D206E6100F089FC80237D
:1035E0009B05AB62002200211D2000F013FC08F0B7
:1035F00047FA0222D34BD4481A60FFF7FBFC14248D
:10360000370064206F6101F023FB013CAE61642050
:1036100001F01EFB002CF4D1FFF7E6FDCB4ACC49AC
:10362000CC48FFF7E7FCFFF785FD5C22002109A8E5
:1036300005F0F2FAC848FFF7DDFCC84B1B78313BB8
:10364000DBB2032B00D97AE1C54A9B009A58C54BDF
:1036500000241B78C449303BDBB20393062300925D
:1036600002930A2209AB0194C048FEF7C5FE070089
:10367000431E9841C0B2FCF76DFEBD4B00221F6097
:103680008E235B00FC520233FA5424230322FF33BF
:10369000FA542022B74BFF321B783800303BBB5422
:1036A0002622B54DFF322B782130303BBB54B34935
:1036B000FF3008F085FFB24808F062F8B148FFF724
:1036C00099FC032000F014FCD023082296211B064D
:1036D0005A6289015A610020063AFCF7DBFF1C9010
:1036E000431E9841C0B2FCF735FE99231C9A9B00FB
:1036F000D4522B78A449303B535400239A469B461E
:103700003800FFF74DFC002800D0C3E0012138004D
:10371000FFF76CFA2623FF33FB56042B09DD012348
:103720009C46E3441421584604F0B0F8002900D127
:10373000FAE09648002105F0B7FC002005F028FDCE
:10374000002800DDF4E08023914CDB012268210099
:103750005340E022D20113408E4A13600422794B79
:103760001A60FC320B681342FCD0606880B205F02E
:1037700054F9894905F003F9884905F0E6F88849C4
:1037800005F0E9F8011C874805F0DFF8061C05F094
:103790006BF9922340B25B00F8541C9B8021994640
:1037A0004A46814B4900D054C02322689B015340B4
:1037B000E022D2011340774A13600422614B1A6061
:1037C000734A13680B42FCD0506880B205F025F9AB
:1037D000764905F0D4F8704905F0D1F8804605F037
:1037E0007BF904000D004046704905F0F7F8002809
:1037F0000BD06F4A6F4B2000290004F0B3FA04F09D
:10380000DDFB05F069F904000D006B4A6B4B2000ED
:10381000290004F02FFB00280BD0654A654B2000DF
:10382000290004F096FA04F0C9FB05F055F90400EC
:103830000D003B002933FF331C605D602623FF33FE
:10384000FB56002B05DD01239C46E24453469B07B3
:103850004BD0D02580261E242D06B6046E61FF3481
:103860003B5D002B25D0012B2ED0022B00D047E74B
:10387000DC20400001F0ECF9D02380221B069204EA
:103880001E209A6101F0E4F93800FFF789FB002857
:1038900000D13BE73800FFF7D5FA002800D135E723
:1038A0000100380006220C3008F0C6FE0023FB742D
:1038B0002CE7142001F0CCF9DC20AE61400001F0CF
:1038C000C7F93B5D012BD0D18220400001F0C0F947
:1038D000D023802282201B0692049A61400001F0CE
:1038E000B7F91E23FF33FB5CBFE73549301C05F0F9
:1038F00046F88421C90505F02BF805F0EDF84B4694
:10390000069007915B7C4946049398239B00C85816
:1039100005F0E2F8069A079B029003910094019546
:10392000284805F021FC94E73800FFF7CDFA00E7BE
:10393000992301211C9A9B00D154FFF71FFD224AB5
:1039400085E6C04600E004402C1E01103C1E01101C
:10395000481E0110B01B0110CC1B0110DC2F0020F1
:10396000A01B0110E82F0020E01B0110E02F002019
:10397000CC2F0020D82F0020D42F0020D02F0020C3
:1039800079310010E81B011067020000B019002017
:1039900000C0044000D004403333533A6ABC343F83
:1039A0002D93E13A0000D84166020000000040403B
:1039B000333333333333FF3FCDCCCCCCCCCC13407B
:1039C0006666E63F001C0110CC1AD700F0B583B044
:1039D00005000E00140000F0A9FA002801D003B081
:1039E000F0BD154F01223B0000970121053001F089
:1039F0009BFF33002A0000940121104802F0AAF92D
:103A000021002800714303F069FF04000C4B0022E1
:103A100000930221042001F087FF2300009400227C
:103A20000121052001F080FF00973B0002220021C8
:103A3000062001F079FFD2E7006CDC020080024032
:103A4000001BB700F0B5DE4657464E464546E0B58A
:103A500085B003934A4B070099464023FF339B46AA
:103A600001910292474B994500D186E0464E474B63
:103A70004E440624994565D8651C290030006943E9
:103A800003F02CFF874245D0002C5BD0290030008A
:103A9000614303F023FF87425CD0631E9846002BEE
:103AA0002FD019003000694303F018FF874254D02B
:103AB000A31E9A46002B24D019003000694303F05E
:103AC0000DFF87424DD0E31E9A46002B19D01900F6
:103AD0003000694303F002FF874246D0231F9A4615
:103AE000002B0ED019003000694303F0F7FE874227
:103AF0003FD0052C05D02900300003F0EFFE8742AF
:103B00001CD04446651C29003000694303F0E6FEE2
:103B10008742B9D10029B7D12C005A4601201C4B4D
:103B20005343019A1360029B1D60039B1C6005B008
:103B30003CBC90469946A246AB46F0BD0029E0D178
:103B40000124EAE701235B429C46124BE3449C4676
:103B5000E14487E70029A0D1DFE70029A8D1444646
:103B6000DBE70029AFD15446D7E70029B6D1544648
:103B7000D3E70029BDD15446CFE70020D7E7C046A0
:103B800070F72E00704DF7FFB0710B0050F80C006D
:103B9000001BB70020D1FFFFD0231B061B68F0B528
:103BA0009A004546904641468A4ADE465258574654
:103BB00093465A1E934130224E465B421A40864B32
:103BC00000249C46854BE0B59A4683B0624400923F
:103BD000E20813002600083300999B005D58083660
:103BE000002D24D0A64224D95B46002B2AD00123E5
:103BF0000F2799463900294013D04B46524640467C
:103C0000A34012581A420CD1072208002240920009
:103C100090400200E30872483C339B001A50200099
:103C2000D8472D090134002D01D0A642E2D8202E1C
:103C300001D03400CCE703B03CBC90469946A24684
:103C4000AB46F0BD0F232B4007D001214746A140D2
:103C50006248C059084200D1A8E02B09611C002B22
:103C6000E5D08E42E3D90F2213406BD12B0AA11C61
:103C7000002BDCD08E42DAD90F22134073D12B0BEC
:103C8000E11C002BD3D08E42D1D90F2213407BD11F
:103C90002B0C211D002BCAD08E42C8D90F221340F5
:103CA0000FD047460E3A8A404C48C059104208D1BE
:103CB0000720CA08014089008B403C3248499200E5
:103CC00053502B0D611D002BB1D08E42AFD90F2266
:103CD000134006D047460E3A8A404048C059104229
:103CE0006DD02B0EA11D002BA1D08E429FD90F228B
:103CF00013400FD047460E3A8A403848C059104208
:103D000008D10720CA08014089008B403C32344961
:103D1000920053502D0F0734002D00D187E7012367
:103D20004146A3402D4A525801921A4200D07EE7E4
:103D30000722E3081440A400A5403C33284A9B0016
:103D40009D5074E747460E3A8A402448C0591042B5
:103D50008CD10720CA08014089008B403C322049A1
:103D60009200535082E747460E3A8A401B48C0599A
:103D7000104284D10720CA08014089008B403C32A0
:103D80001749920053507AE747460E3A8A40134843
:103D9000C059104200D07BE70720CA0801408900C3
:103DA0008B403C320E499200535071E7072121406D
:103DB00089008B403C320A49920053504DE707205E
:103DC000CA08014089008B403C320549920053509B
:103DD00087E7C046F829002000410140282F002035
:103DE00000400140094A830094464022634410B5D4
:103DF0001C68C0006240C02414408022520113435A
:103E00001C60034B9C466044416010BD04C00140EF
:103E1000004001400A4B80009C4604236044002976
:103E200001D00C230821002A00D10B000268534066
:103E30000C221A4080235B01184302607047C04681
:103E400004C00140F8B51D00D0231B061B681400F8
:103E50005A1E934130225B421340214AC6089446C1
:103E6000072202409200914032001E483C326344D7
:103E70009200B60011509B19002C11D080229201A3
:103E800013431960D0231B061E68174FB600BB5999
:103E9000002B11D0002D1ED0BD51002C16D1F8BD25
:103EA000C022920113431960D0231B061E680E4FD7
:103EB000B600BB59002BEDD1002DEED000220B49EE
:103EC0000D20BD5100F058F9002CE8D001210D2043
:103ED00000F0E4F8E3E705490D2000F031FADBE7F4
:103EE0000041014000400140F8290020993B0010AA
:103EF0000123D0228340120693629361094A830012
:103F00009446402263441968C0004A40C0211140D1
:103F10008022520113431960034B9C4605236044E1
:103F20004360704704C0014000400140024B1868E4
:103F30008007C00F7047C04600C00640EFF31080F6
:103F400072B6034A1368002BFCD0BFF35F8F704733
:103F50002C0100D0BFF35F8F0022024B1A6080F368
:103F6000108870472C0100D0F8B5EFF3108772B6B7
:103F70000D4E3368002BFCD0BFF35F8F0725CB08B5
:103F8000C01801230D40AB401D000478254007D127
:103F900023430370BFF35F8F356087F31088F8BD4C
:103FA000100002F085F8C0462C0100D0F8B5CE46CE
:103FB00047468C4680B5EFF3108872B6214D2C68C9
:103FC000002CFCD0BFF35F8F9A422CD8072101252B
:103FD00011408D40D4080419267835421FD007219E
:103FE0008946063909E04D460F001540AF40D40818
:103FF000041926783D00374211D001329342F2D2A3
:1040000001204042BFF35F8F00220E4B1A6088F3FD
:10401000108800280FDB0CBC90469946F8BD35434C
:1040200025701000EEE7BFF35F8F00232B6088F34D
:104030001088012040426346002BECD0089802F023
:1040400037F8C0462C0100D00021044B044ABFF3CE
:104050005F8F02C39342FAD17047C046000100D07F
:10406000800100D0044A1078431CDBB2172B00D922
:10407000102313707047C0461019002000B5054B7F
:1040800083B00100009318221F230348FFF78EFF1F
:1040900003B000BD8C2001101C2A002001238340A6
:1040A000002904D0034A1360034A13607047034A8F
:1040B0001360FBE780E200E000E100E080E100E067
:1040C00001228240034B1B681340581E8341D8B223
:1040D0007047C04600E100E001238340014A1360BD
:1040E0007047C04600E200E0084B10309B6880003B
:1040F000C358002B07D0064A00209B1A2F229A4251
:104100004041C0B270470020FCE7C04600ED00E02F
:1041100014190020024B10309B688000C058704773
:1041200000ED00E070B50D00EFF3108672B60F4A97
:104130001368002BFCD0BFF35F8F0D4B10309B68D2
:1041400084001B590B4A934203D09D4201D001F0D9
:10415000C7FF074B9B681D51BFF35F8FBFF35F8F96
:104160000022024B1A6086F3108870BD240100D033
:1041700000ED00E0CD010010F8B557464546DE469B
:104180004E468A46E0B590460700EFF3108972B6B6
:104190005F4A1368002BFCD0BFF35F8F00205D4B9C
:1041A00018569B46002800DAA2E05A4644005A4DB1
:1041B0002418A4002E19B37910371370574BBA0086
:1041C0009B68934699584B1B2F2B41D801230A001B
:1041D0009A43D3799446434514D90627D7571300F9
:1041E000002F06DA8DE00627DF571A00002F00DACD
:1041F00087E07B00DB199B00EB18DF794745F2D89D
:10420000002A51D1464A63465B1B5B415A43120D5B
:10421000444BA11C3380444B6918043B5B1A1B05BB
:1042200042495B0D0B43738063460434043B2D19F4
:104230005D1B43462D05F3716D0D53462943B18037
:10424000B27101216246B360394B3143136018E00B
:10425000384B994252D1334B02343380324B2D19B3
:10426000043B5D1B2D05314B6D0D1D43324B012170
:10427000B380FF23B3714346F37153467580B36037
:1042800031435A46254B9B689950BFF35F8FBFF36C
:104290005F8F00221E4B1A6089F310883CBC904649
:1042A0009946A246AB46F8BD0627D757131D9C4634
:1042B000002F2BDB04342D19E024938824025B05A6
:1042C0001B1563445B1B1B055B0D23436546341FB5
:1042D000641B2405154D640D2C4394809071B380AC
:1042E0004346F3715346124AB7713260B360C8E770
:1042F00001F0F6FE5B460020185656E701F0F0FE8E
:10430000A9E71A1D94461A000C4BDFE70B4BDDE7BB
:10431000240100D0BF2F00201419002000ED00E080
:10432000AAAA000000A1FFFF4419002000E0FFFF3F
:1043300001488047CD01001001BDFFFF01BD000015
:10434000F0B54546DE4657464E46E0B50D0083B013
:10435000EFF3108972B6584A1368002BFCD0BFF3F4
:104360005F8F564B9A68030010339F00D459544A0C
:104370009046944234D0AC4245D0524EA21B2F2AD4
:104380002ED801228240924651464F4A126811406F
:10439000019151464D4A1160BFF35F8FEFF30582E3
:1043A0009346002A35D10123220006219A439368BF
:1043B00051569D420AD16AE04B005B1806219B00D2
:1043C000F31898685956A84228D01A000029F3DA41
:1043D000019B002B19D052463D4B1A603A4B1A6094
:1043E000364B9B68DC51BFF35F8FBFF35F8F0022BA
:1043F000314B1A6089F3108803B03CBC9046994653
:10440000A246AB46F0BD1400EAE752462F4B1A60B5
:10441000E6E79342C7D001F063FEC4E7002921DB41
:104420004A005018800035188046A8689860E879DE
:10443000D871062028569871002826DBAD88F01A1E
:104440006D052D1545444019E0250005400D2D0250
:104450002843988052181F4B9200B6181A7819708A
:10446000B271B5E75946002917D1002A22D0FF3191
:1044700091711949918017490A789A71174A9B1BC3
:104480005B415A43120D0A70A2E71548E1E7130099
:104490000029C5DA5A46002A0CD0124A1249D21A0B
:1044A000083A5002400D01439980104952080A43CE
:1044B000DA808DE74446DEE7240100D000ED00E01D
:1044C000CD0100101419002000E100E080E100E0BF
:1044D00080E200E0BF2F002001BDFFFFAAAA00007C
:1044E00001BD00004E19002000F0FFFF00F8FFFFA3
:1044F00010B5032304009C430340FF20054ADB0062
:104500009446984099406444226882430A4322605A
:1045100010BDC04600E400E0F0B5EFF305810124D2
:104520000443EFF3108672B6214A1368002BFCD0C7
:10453000BFF35F8F1F4B204A0500ED1A6D416A43A0
:10454000120D1E4D8900AF6852B27F58A7421CD091
:104550000621595691421CD012215956914222D01F
:104560001E215956914220D02A21595603249142A6
:1045700010D0134B19781A708171BFF35F8F00222E
:104580000B4B1A6086F31088F0BDAB680D4C5C5085
:10459000EFE700246100091989005B18FF21997178
:1045A00009499980E5E70124F4E70224F2E7C046CF
:1045B000240100D014190020AAAA000000ED00E098
:1045C000BF2F0020CD01001001BDFFFF054B064AA3
:1045D0001360064A136053609360D36013615361A4
:1045E000936170478080808000E400E004E400E094
:1045F00000B5074B83B00100009300220523054856
:10460000FFF7D4FC002801DB1F23181A03B000BDFC
:10461000A8200110C52F0020024B9C466144890050
:10462000016070474000003410B50400FFF71AFD28
:1046300001002000FFF7F0FFFF232371BFF35F8F1E
:1046400010BDC04610B50400FFF70CFD01002000AE
:10465000FFF7E2FFFF23A380BFF35F8F10BDC046CB
:1046600010B504000120FFF709FD044B9C4660448F
:1046700080002060BFF35F8F10BDC0464000003453
:10468000034B9C46614489000160BFF35F8F704714
:104690004000003470B506000D00140000291ED043
:1046A000002A1ED073688068984763006A001B194F
:1046B0005219033B033A3168002808D0CB188A18F6
:1046C0009D70117800290ED11470280008E08A1816
:1046D000CB1894701978002900D051701D702000FB
:1046E00070BD0800FCE7597028001470F8E7C04658
:1046F00083680B4810B58446614462440901120185
:104700009A18591854684B6801209C4201D802D06D
:104710000020C0B210BD12680B689A42F9D8F7E7C2
:10472000FFFFFF0F0A4B1968EFF3108072B60A689B
:10473000002AFCD0BFF35F8F1B68BFF35F8F00229E
:104740001A6080F3108840BF002000217047C046E7
:10475000682F0020F8B54746CE4680B514001D00EE
:104760000BAA0AAB12781B78804691460768002B8B
:1047700012D1BE7B002E44D0720092193968033AE0
:10478000891848783300B873002800D1F8730020E6
:1047900088704870087003E01E005A00D218033A6F
:1047A0001A4938008C464146896863448C461B018F
:1047B00008996344996009991C605D60D9603B6801
:1047C0009C4600236244937053701370797B3200CF
:1047D000FFF760FF7873B04213D143462200187D83
:1047E0002B0000F0AFFB041E07D04B46002B04D17A
:1047F00043463100186800F023FF0C9B002B00D0CB
:104800001C7030000CBC90469946F8BDFFFFFF0FAE
:10481000F0B5DE4657464E4645460023E0B58BB020
:104820000893684B8200D45800239B46099000F0FF
:10483000F7FA6268EFF3108572B61368002BFCD0AC
:10484000BFF35F8F23689C465B7B9946002B00D1AA
:104850006DE0A2685C4B90464B441B019844434674
:104860001E685F6832003B00121A8B41002B00DC8F
:1048700067E032003B00099800F064FB002300224F
:10488000984600230692079300239A466368BFF375
:104890005F8F5A461A6085F310885346002B08D163
:1048A0000028C4D10BB03CBC90469946A246AB460A
:1048B000F0BD089B414618024B461843D04762683A
:1048C00006000F00EFF3108572B61368002BFCD0C2
:1048D000BFF35F8F002F52DB33003B4302D02369CD
:1048E000002B63D12368DA7B002A07D051008A1895
:1048F00019688C4649466244033A51709A7B002AF3
:1049000001D14A469A734A46DA73E2684B469446A6
:10491000013B63441A7801321A705B462361636875
:10492000BFF35F8F5A461A6085F310887FE7002334
:1049300000229846002306920793002300209A46FF
:10494000A4E7002B02D1002A00D092E700216046A4
:1049500000F094FD43461A685B680692079343464D
:104960009B689A464346DB689846E3684B44013BA4
:104970001B7808931B0203432361002086E7236909
:10498000002BAFD0069A079B921BBB41002B15DB77
:1049900059460491012103914946029141460191F2
:1049A000514620000091FFF7D5FEB6E700F038FA37
:1049B00032003B0012184B41002BE9DA0122034B75
:1049C0005242E5E7182F0020FFFFFF0FFFFFFF7F98
:1049D00010B5144C6368002B04D00A211248FFF76D
:1049E0001BFE10BD2300114A1021206800F064FB5B
:1049F000032000F009FA032000F010FB0C4903200B
:104A000000F05AFAFFF72EFB0A4B9C46032323754E
:104A1000D0231B061B6860446375074B80006060F1
:104A2000DC60DAE75C190020682F0020F1460010F6
:104A30001148001040000034182F00200048704733
:104A40005C190020F0B54E4657464546DE46E0B5B7
:104A500083B0009201930EAB1B78070099460023A8
:104A6000002698467A68EFF3108A72B61368002B16
:104A7000FCD0BFF35F8F3D68AC7B002C00D168E0B9
:104A800063001B192A68033BD2185178A346A97307
:104A9000002900D1E973967056701670B968384ACB
:104AA0008C4600980199A21812016244106051606E
:104AB0000C99280091600D99D1602A68944663444E
:104AC0009E705E701E70697B2200FFF7E3FD6873C5
:104AD000844244D0FB681B19013B18787B68BFF304
:104AE0005F8F1E608AF31088002C45D04346002B50
:104AF00009D15B460002184303B03CBC904699467E
:104B0000A246AB46F0BD4B46002B26D00C9B0D9920
:104B10000020984703000B431FD004000D1E09DA44
:104B2000009A019B121BAB4100920193002B09DB01
:104B3000C84697E700F074F924184D410094019598
:104B4000002DF5DA01230F4C5B4200930194C84617
:104B500088E7002300209B46C0E70020CCE7387D93
:104B6000009A019B00F0EEF980460028B2D02100A7
:104B7000386800F065FDADE701204042BCE7C04663
:104B8000FFFFFF0FFFFFFF7F407D7047F0B5040080
:104B90000D0006267642F717C64636196F4100B556
:104BA00084B08F4214D811D000F03AF932003B00A3
:104BB000121A8B41002B15DC002B3ED0200029005F
:104BC00000F06AF904B004BC9046F0BD8642EBD90F
:104BD0000026002700F024F932003B00121A8B4116
:104BE000002BE9DD002302930193154B3200009363
:104BF00014483B00FFF726FF0028DFDB0023984620
:104C0000BC46114A114F7B6A9C4504D8B96AB1422F
:104C1000D4D29C45D2D11168EFF3108072B60B68E4
:104C2000002BFCD0BFF35F8F1368BFF35F8F41464B
:104C3000196080F3108820BFE5E7002ABED0D1E7D5
:104C4000254700105C190020682F00200040054017
:104C500070B5060000F0E4F8FA2204000D0092009E
:104C600000233000002103F053FE001969410029A0
:104C700002DBFFF78BFF70BD012001494042F8E7DE
:104C8000FFFFFF7FF0B5EFF30583CE46474680B5C3
:104C9000050085B00C00002B11D02B4A0020536A70
:104CA000A34207D3926A0130AA4203D21C1B601EA2
:104CB0008441E0B205B00CBC90469946F0BD234E4D
:104CC00002930193224B0200009330000B00FFF788
:104CD000B9FE0028E1DD20BF7268EFF3108772B6DD
:104CE0001368002BFCD0BFF35F8F3368C1B29C46C2
:104CF0006246FF23527B03408A420BD05A00914602
:104D000062461268994490464A464244033A927871
:104D1000002A10D0F268000A90464344013B1A78FA
:104D2000C0B282420CD07368BFF35F8F00221A605A
:104D300087F31088B1E733699842F4D13261F2E722
:104D4000604600F07DFCEEE7004005405C19002065
:104D500025470010F8B5EFF30582CE464746100010
:104D600080B51038EFF3108C72B6204C2368002BFE
:104D7000FCD0BFF35F8F0123190081401C4D1D4EF5
:104D8000716329601C4DA9462D782F00C7403B4018
:104D900015D0736A194E984683009E59B04517D3B3
:104DA000174A8D439B584A461570BFF35F8F002208
:104DB00022608CF31088002B06D0984704E0BFF3E4
:104DC0005F8F23608CF310880CBC90469946F8BD29
:104DD0000C4B92009846424413681360BFF35F8FF8
:104DE000002323608CF31088EEE7C046280100D032
:104DF0003C70054000400540C42F0020802F00205B
:104E0000E4280020D03F054010B50100024A0348C5
:104E1000FFF7AAF810BDC046D0200110BD2F00201A
:104E2000044A516A00E01900906A536A9942FAD123
:104E30007047C04600400540164A70B5546A00E00D
:104E40001C00956A536AA342FAD12A0023008018F5
:104E5000594105000E008C4202D819D1824217D95F
:104E6000012201256D42EE1752420A4C636A9342B9
:104E7000FCD39A420BD1074B2800996AA94203D36D
:104E800005E0996A814202D2596A9142F9D070BD17
:104E90003200EAE700400540064A536A9942FCD8CE
:104EA00007D1044B02E05A6A914202D19A6A8242C7
:104EB000F9D370470040054070B504000D00EFF3D2
:104EC000108672B61A4A1368002BFCD0BFF35F8FAE
:104ED000002D1BD02000FFF71DF9164988420AD08B
:104EE0002000FFF71FF901212000FFF7D7F8012369
:104EF000A340114A1360114BA400E550BFF35F8F2C
:104F000000220B4B1A6086F3108870BD0B4BA20079
:104F1000D5500122A2400A4920000B7893430B7020
:104F20000449FFF70DFA00212000FFF7B7F8E5E785
:104F3000280100D0554D001038600540E4280020BD
:104F4000C42F0020F0B5D6464F4646462E4CC0B57D
:104F5000656A00E00D00A66A616AA942FAD1AB4217
:104F600009D806D0012420001CBC90469946A246D0
:104F7000F0BDB242F6D9EFF3108972B6234C216826
:104F80000029FCD0BFF35F8F0126214986408C4663
:104F90000978204D0F0037438846F9B28A466146AA
:104FA00054460C701849041DA4004E6362508400DE
:104FB00063510D6A002435421AD04D6A00E0250085
:104FC0008F6A4C6AAC42FAD1AB4219D801D1BA42CD
:104FD00016D8C24516D00C4B0F4A1E625E631F23C3
:104FE00018401E3B834013606346424601241A70FA
:104FF000BFF35F8F0022054B1A6089F31088B2E778
:105000000024F5E70124F3E700400540280100D023
:10501000C42F0020802F002080E200E010B5EFF3C5
:10502000108472B60A490B68002BFCD0BFF35F8F67
:1050300001238340074A0848136202789A430270AA
:10504000BFF35F8F00230B6084F3108810BDC04650
:10505000280100D000400540C42F002070B5060094
:105060000D00140000291ED0002A1ED0736880682D
:10507000984763006A001B195219033B033A3168D1
:10508000002808D0CB188A189D70117800290ED1FD
:105090001470280008E08A18CB1894701978002939
:1050A00000D051701D70200070BD0800FCE75970E1
:1050B00028001470F8E7C046F0B5DE4657464E4665
:1050C0004546E0B58360002389B0426002680691DE
:1050D0004373C9B20133059101738373C1730492A1
:1050E000012900D8A4E00A004B1ED9B2931E0791F3
:1050F000072B00D8AEE00025CB080393049B564C49
:10510000591C564B56489B46564B9A46564B9C4606
:10511000564B0293524663465F465E4662401A40D3
:10512000504B2740FB185A400640534601966646AE
:10513000434033404B4E0A70B046019E0135B146A4
:10514000C844464673401604360ECE701602120E40
:105150004A721A04120E0B73CA731A021B0E4B7595
:10516000029B360E5C4063461C40404B120E984634
:10517000029B47445840634618404B4643445840BE
:10518000039BEDB28E718A747C401831AB42C1D161
:10519000079907230A009A43531CDBB2914247D078
:1051A000049C5A00A446D218591C6244059DC9B2F9
:1051B000033A51708D423BD94A005218981C624400
:1051C000C0B2033A5070854232D942001218D91C3D
:1051D0006244C9B2033A51708D4229D94A0052182B
:1051E000181D6244C0B2033A5070854220D9420073
:1051F0001218591D6244C9B2033A51708D4217D931
:105200004A005218981D6244C0B2033A5070854259
:105210000ED942001218D91D6244C9B2033A517026
:105220008D4205D94A0052186244033A083353703C
:10523000FF23069A13405900C918049B9C4600237B
:10524000614403394B7009B03CBC90469946A24674
:10525000AB46F0BD0123A3E7010203047F7F7F7FFC
:105260000506070801010101808080800808080800
:1052700070B50400002907D04B0000685B18033BA1
:10528000C3185A78002A01D1080070BD5500AD1826
:10529000033D40190025467845705D702000FFF7FA
:1052A000DDFE310005002000FFF7E2FF29000200CB
:1052B0002000FFF7D3FE0100E6E7C046F0B54E46FA
:1052C0004546DE465746E0B50E0074000168A41955
:1052D00085B0033C01920A1905001078002850D0CF
:1052E00043001B18033BCB185F78BC46002F1AD134
:1052F000019C002C42D0EC7B002C04D063001B19D5
:10530000CB18033B5E70AB7B002B00D1AE73EE730A
:1053100000282FD10023537005B03CBC904699461D
:10532000A246AB46F0BD7A006244033A89184A7837
:10533000934600224A7090465A7001003A002800B5
:10534000FFF78CFE5B468146002B07D05B00296887
:105350005B44033BCB185A78002A16D15A4649467B
:105360002800FFF77BFE2968019B0A19002BC2D198
:105370000028CFD043001B18033BCB1800219970A5
:10538000C8E7019B002BB6D1C4E750008018033852
:105390000918487882464046487058705946280097
:1053A000FFF75CFE53468346002B07D05B0029685D
:1053B0005344033BCB185A78002A06D1594652462B
:1053C0002800FFF74BFE8346C8E7500080180338DB
:1053D000091840464F784870587051462800029787
:1053E000FFF73CFE8246002F08D0BC467B002968B0
:1053F0006344033BCB185A78002A06D15146029ADF
:105400002800FFF72BFE8246D8E7500080180338AB
:10541000091840464F784870587002992800039741
:10542000FFF71CFE8046002F08D0BC467B00296891
:105430006344033BCB185A78002A06D1039A4146AD
:105440002800FFF70BFE0290D8E7032050430338F3
:10545000091800204F784870587003992800FFF70A
:10546000FDFD390002902800FFF702FF02990200BB
:105470002800FFF7F3FD0390E0E7C046F0B54E4685
:105480004546DE465746E0B5467B04007500006899
:10549000AD19033D85B0421901911178002952D010
:1054A0004B005B18033BC3185F78BC46002F1CD130
:1054B000019D002D44D0E57B002D04D06B005B19CD
:1054C000C318033B5E70A37B002B00D1A673E67369
:1054D000002931D1002330005370617305B03CBC0A
:1054E00090469946A246AB46F0BD7A006244033A24
:1054F0008018427893460022427090465A702000ED
:105500003A00FFF7ABFD5B468146002B07D05B00FE
:1055100021685B44033BCB185A78002A17D15A46BE
:1055200049462000FFF79AFD019B010020684219BF
:10553000002BC0D10029CDD04B005B18033BC31812
:1055400000209870C6E7019B002BB4D1C2E7500041
:1055500080180338091848788246404648705870C9
:1055600059462000FFF77AFD53468346002B07D0AB
:105570005B0021685344033BCB185A78002A06D1BC
:10558000594652462000FFF769FD8346C7E75000A1
:1055900080180338091840464F78487058705146B3
:1055A00020000297FFF75AFD8246002F08D0BC4624
:1055B0007B0021686344033BCB185A78002A06D14C
:1055C0005146029A2000FFF749FD8246D8E7500075
:1055D00080180338091840464F784870587002996F
:1055E00020000397FFF73AFD8046002F08D0BC4605
:1055F0007B0021686344033BCB185A78002A06D10C
:10560000039A41462000FFF729FD0290D8E70320C6
:1056100050430338091800204F7848705870039998
:105620002000FFF71BFD390002902000FFF720FE4D
:10563000029902002000FFF711FD0390E0E7C04649
:1056400070B5040000292CD0437B8B422ED0056816
:1056500048004018033828188278002A21D05300C7
:105660009B18033BEB181A788A4202D11BE0002AF0
:1056700008D053009B18033BEB185A788A42F6D1A6
:1056800042785A7000230122837043702000FFF794
:1056900015FE617B02002000FFF7E0FC6073012033
:1056A00000E0002070BD42781A70EBE7012219007B
:1056B000FFF704FE60730120F4E7C046F8B5CE465C
:1056C0004746040080B506200D0000F03DFB061E95
:1056D00052D0524B5249E3185A4253418022D203CE
:1056E00094465B4213404F4A634413604E4A136032
:1056F00018008A689043FBD1484B8021E3185A4236
:1057000053414A4A5B0049000620995200F01CFBB5
:105710002900C00002F0E2F8C30932D140229046CD
:105720003F3A6262A362266BF30736D427008025D6
:10573000E36A00232C376D013D432B60062026636E
:1057400000F002FB4146800002F0C8F8236B06001F
:105750009846DB073BD46022E36A5A406E2313402D
:105760002B6043462363802310229B013B431A6036
:105770002F4B23630323A36430000CBC904699464F
:10578000F8BD2C4A93423FD900232B4A90462B4A1E
:105790006262A362266BF307C8D52200C0233032B1
:1057A0009B011343224A06201A60656AA36AAD0171
:1057B000ED1800F0C9FA224902F090F8AD0201009C
:1057C000280002F08BF80021FFF736FBAEE722003D
:1057D000C02330329B011343154A06201A60636AC6
:1057E000A26A9B019946914400F0AEFA4B461449D7
:1057F0009B02994602F072F80100484602F06EF8EA
:105800000021FFF719FBA6E77F2210409A0190467E
:10581000013040081A008044030082E70080FCBF8A
:1058200000C0004000E0004000F00040EC2F0020ED
:1058300001030000FEFF0000C0FF3F00FFFF00006B
:105840004E0E0000F8B5013A4C1F6401D20005006D
:105850001443002B05D002222243012B2AD1053309
:105860001C432E6BF3070BD4E96A2A0080236140A6
:105870006E242C325B010C4013431C602E63F8BD78
:105880002A00C02330329B0113430B4A06201A60C2
:105890006F6AAB6ABF01FF1800F056FA074902F0C1
:1058A0001DF8BF020100380002F018F80021FFF7D0
:1058B000C3FAD9E71400D4E7010300004E0E00003C
:1058C000F8B50C00611E8C41066B05002401F3073E
:1058D0000BD41023E96A2A004C401C4080232C3250
:1058E0005B0113431C602E63F8BD0200C0233032FD
:1058F0009B0113430A4A1A60476A836ABF01062064
:10590000FF1800F021FA074901F0E8FFBF0201008B
:10591000380001F0E3FF0021FFF78EFAD9E7C04617
:10592000010300004E0E0000F0B5DE465746454626
:105930004E46E0B583B017000C9A05008B469A429C
:1059400000D973E01A0E92461E020C9A0023300012
:10595000514602F001F8454B6C009C466419A400C6
:10596000644463688046834200D260602B1FDAB2D1
:10597000C0239B0101922343012A35D980221201C1
:105980001A603B4BAD0059599946002950D04B46FF
:10599000586901F0A3FF431C5800C0180338FDD21A
:1059A00023687F017B40E0271F408023019A5B0131
:1059B00023431F60012A2CD9802380229B0123438B
:1059C00012011A604346424663603000002351468C
:1059D00001F0C2FF4B465851012003B03CBC904639
:1059E0009946A246AB46F0BD5A46012A2AD08022EB
:1059F00012011A601E4BAD00595999460029C6D1B3
:105A000023687F017B40E0271F4080235B01234305
:105A10001F605A462168514003220A401A60012241
:105A20005B469A40A3681A42FCD0C5E70020D4E741
:105A300023687F017B40E0271F4080235B012343D5
:105A40001F60B9E702321A60023AA3681A42FCD01A
:105A500023687F017B40E0271F408023044A5B01CD
:105A600023431F609146AD00D3E7C046008000404D
:105A7000202A002030B50C2083B000F0BBF9FEF7DF
:105A800055FA00280ED0994B994A1A605A609A60CC
:105A9000DA601A615A619A61DA611A62954A5A6249
:105AA00003B030BD944CA06700F03AFA0122934B4A
:105AB0001A60636C012BFCD10322914B1A608E4A51
:105AC000936B012BFCD1013300938E4A04330121E7
:105AD0008D4800F03FF905238C4A009301218C4842
