:020000041000EA
:1000000000B5324B212058609868022188439860DF
:10001000D860186158612E4B002199600221596106
:100020000121F02299502B49196001219960352056
:1000300000F044F80222904214D00621196600F024
:1000400034F8196E01211966002018661A6600F04E
:100050002CF8196E196E196E052000F02FF8012189
:100060000842F9D1002199601B49196000215960AB
:100070001A491B48016001219960EB211966A021F2
:10008000196600F012F800219960164914480160C1
:100090000121996001BC002800D000471248134993
:1000A000086003C880F30888084703B5996A0420EC
:1000B0000142FBD001200142F8D103BD02B5186610
:1000C0001866FFF7F2FF186E186E02BD00000240BE
:1000D000000000180000070000035F00212200005C
:1000E000F4000018222000A00001001008ED00E03C
:1000F00000000000000000000000000074B24E7A12
:1001000000200420F7010010C3010010C5010010F9
:10011000C1010010C1010010C1010010C101001097
:10012000C1010010C1010010C1010010C701001081
:10013000C1010010C1010010C9010010CB01001065
:10014000CD010010CD010010CD010010CD01001037
:10015000CD010010CD010010CD010010CD01001027
:10016000CD010010CD010010CD010010CD01001017
:10017000CD010010CD010010CD010010CD01001007
:10018000CD010010CD010010CD010010CD010010F7
:10019000CD010010CD010010CD010010CD010010E7
:1001A000CD010010CD010010CD010010CD010010D7
:1001B000CD010010CD010010CD010010CD010010C7
:1001C00000BE00BE00BE00BE00BE00BEEFF3058054
:1001D000103800BEF2EB887178450110A44501107B
:1001E0003402001090A31AE700201F49086006C8D7
:1001F00081F3088810471D48006800282FD10DA4FE
:100200000ECC002902D000F012F8F9E71849194A7B
:10021000002000E001C19142FCD1174988471749ED
:1002200088471749884700BEFDE701C901C29A42C5
:10023000FBD37047A4450110C0000020E422002039
:10024000C86701100000042000000420C8670110E6
:10025000001004200010042000000000704709482E
:1002600007F06CF80047000008ED00E0000000D047
:10027000E822002068310020555A00107931001022
:10028000815B00105756000006005250ABB360531C
:100290004436011006005250861C030254360110E9
:1002A000060052505422A29D903001100500525079
:1002B000DE65F468C8670110F8B5C0460448054B10
:1002C00010B5834203D0044B002B00D0984710BDDB
:1002D000E4220020E4220020000000000648074934
:1002E000091A8910CB0F591810B5491003D0044BC7
:1002F000002B00D0984710BDE4220020E42200200B
:100300000000000010B5074C2378002B09D1FFF73F
:10031000D5FF054B002B02D0044800E000BF0123AD
:10032000237010BD0024002000000000F8270110F9
:10033000054B10B5002B03D00449054800E000BF71
:10034000FFF7CCFF10BDC0460000000004240020D1
:10035000F827011070B5002800D070BD8025D0248A
:10036000AD042E001930240603F048FB6562666177
:10037000322004F0F3F9FA20A561400004F0EEF910
:10038000F5E7C046F0B5DE4657464E464546040002
:10039000431E9841E0B515008BB0C0B20E00FFF7C8
:1003A000D9FF2800431E9841C0B2FFF7D3FF5C225B
:1003B0000021200008F0C2F95548A564A6606060DD
:1003C00054490BF02BF80121206260680BF008F80B
:1003D000E061A06803F012FB4F4A636894466344EF
:1003E00019004B1E9941A068063103F081FAE369B8
:1003F00080229946236A52029A46A36806AD98461F
:1004000000239B460593F8235B0202920393C023CB
:1004100002A91B03102228006768049308F094F9CE
:1004200052460C3213035246D201134329001022C4
:1004300002A8079308F088F9384B424604938023BA
:100440009B031343344A0593BE18731E9E41063620
:100450003100404603F04CFA424631000126501C60
:1004600003F046FA009642464946380002230BF054
:1004700039F8802252029046029202AA130049469D
:10048000524638000BF086F84A4696403B685A467A
:100490001E43F8235B02EA6042460793C0233E6096
:1004A000266A06921B032900102202A8089308F06E
:1004B0004BF933000C33F2011B03134302A9102242
:1004C0002800039308F040F923000C3307CD07C33D
:1004D000134A636960681A40124BE1691343636110
:1004E0002B68114A1340A26852011343802212055F
:1004F0001343A361230032000C330BF04BF80020B0
:100500000BB03CBC90469946A246AB46F0BDC046F7
:1005100000002050F82701100000E0AF00000E405E
:10052000FFFFF50100000A401FFCFFE3F0B5D646CF
:100530004F4646468046431E9841C0B5C0B282B081
:100540008A469146FFF706FFFA220023D200504662
:10055000002107F063FF434600259C6C4E46E30EE6
:100560006201121BAB41F71736184F41910F8C46B1
:1005700000920193990063461943009B980000196B
:100580006941CB0642091A43C40620001100FC074A
:10059000720822437B108018594132003B0006F05C
:1005A00049FF43465862FC231B069C46074B6044A8
:1005B00018605246434600201A654A465A6502B002
:1005C0001CBC90469946A246F0BDC046842E002031
:1005D000F8B51D000600431E9841C0B21400FFF795
:1005E000B9FEF36C002B26D05133FF331F685E68D1
:1005F0003B00334307D1114B00201F685E683B006E
:10060000334303D1F8BD0D4B1F605E6000210C48E1
:100610000C4A00196941002306F024FF3A00330018
:1006200007F0FCFE0023084A80185941054A0023C0
:1006300006F000FFE6E70020E4E7C046E8230020DC
:1006400020A1070040420F0050C3000070B5040015
:10065000431E9841C0B2FFF77DFE01221300E569F9
:100660006168AB40086803430B60A26570BDC0467B
:1006700010B50400431E9841C0B2FFF76BFE012283
:10068000E069616882400B6893430B600023A365B7
:1006900010BDC046F0B50024012305002000C64669
:1006A000AB42604100B5C0B20F001600FFF752FE2A
:1006B000E123F80F5B02BB426041C0B2FFF74AFE84
:1006C0001C23F00FB3426041C0B2FFF743FE354830
:1006D00008F0DCFA3900002D59D0334804F074FDDD
:1006E0000820022103F004F909202F4C022103F015
:1006F000FFF89A210120890007F0E8FF8046431E99
:100700009841C0B2FFF726FE434642461D605F6037
:100710009E60264B30001A60254B10321A6003F0A1
:100720006DF90123D022B340120693623000214BB1
:100730000122082103F00CF9C023226B1B021A408E
:10074000802623007601303333431A6020000023D3
:100750000122082104F0FCFD6B1E9D412000143590
:10076000002104F033FE2800134903F061FA280049
:10077000012103F019FA5023A363626B183B343450
:10078000344313404046236004BC9046F0BD0B4800
:1007900004F01AFD0020022103F0AAF8074C012002
:1007A000A4E7C0461C280110008003403C2E002016
:1007B000402E0020F10000202D02002000400340C8
:1007C000F0B5C6460700431E984100B53C0084B012
:1007D000C0B2FFF7BFFD80225934FF3452002249D6
:1007E00020000CF013F8051E35D0802122004900AE
:1007F0001E4808F04BFA00211022684607F09EFFC1
:1008000028000BF08FFF002300210024984684422B
:1008100013D02B191A780134E4B22C2AF7D14246AE
:100820001A706B464E1CF6B25C540C2E05D0280094
:100830000BF078FF31008442EBD16B46187A281810
:100840000AF00AFF07F040F998239B00F85004B023
:1008500004BC9046F0BD80220549520020000BF0F8
:10086000D5FF051EF3D0C0E76C2801107C280110CD
:100870007428011070B50400431E98410D008AB021
:10088000C0B2FFF767FD2800431E9841C0B2FFF7D2
:1008900061FD20000BF046FF0026062802D0300044
:1008A0000AB070BD28000BF03DFF0528F7D90C22D7
:1008B000002107A807F042FF227901A8303A9300EF
:1008C0009B1862795B0034329B18A2780693303A09
:1008D00093009B18E2785B00313A9B1822780593CD
:1008E000303A93009B1862785B00303A9B182A7864
:1008F0000493303A93009B186A785B00303A9B1857
:10090000AA780393303A93009B18EA785B00303A58
:100910009B182A790293303A93009B186A795B00FE
:10092000303A9B1801930BF0ABFA0600B7E7C046CC
:10093000F0B5DE464E4645465746E0B50500431E37
:1009400098412E008BB0C0B2FFF704FD80225936CB
:10095000FF365200774930000BF058FF041E45D097
:1009600080212B6B320001332B634900724808F061
:100970008DF9724B06AEDA689B6800219046300014
:100980001022994607F0DAFE20000BF0CBFE002380
:10099000002100279A46874213D0E3191A780137BD
:1009A000FFB22C2AF7D152461A704B1CDBB29B4681
:1009B00077540C2B05D020000BF0B4FE594687422B
:1009C000EBD13778E719FB786B747378E25C13002E
:1009D000413B59424B412B74412A12D000200BB0AD
:1009E0003CBC90469946A246AB46F0BD8022544995
:1009F000520030000BF00AFF04000020002CEED063
:100A0000AEE7B3780222E11804A89B460BF0BEFEC5
:100A1000002304AA100093700AF024FE5B4682466D
:100A2000981C20180AF018FE53460090019164208B
:100A3000584306F0BDFF434A029003910098019984
:100A4000414B06F01EFF02000B000298039906F0CE
:100A50000FFF00223D4B06F032FF3D4B002206F017
:100A600007FF07F005F828626962F378E35C4E2B14
:100A700006D0532B4DD1002342428B412A626B6238
:100A800033790322E1189B4605AB9A4618000BF018
:100A90007DFE524600235046D3700AF0E3FD5B46CC
:100AA0008246D81C20180AF0D7FD534600900191C9
:100AB0006420584306F07CFF224A0290039100987C
:100AC0000199214B06F0DDFE02000B00029803990C
:100AD00006F0CEFE00221D4B06F0F1FE1C4B00225C
:100AE00006F0C6FE06F0C4FFA862E9627379E35C13
:100AF000452B06D0572B0FD1002342428B41AA62CF
:100B0000EB62F37AE3185B782A2B08D0042040428A
:100B100065E70220404262E7032040425FE7307A07
:100B200039002018FFF7A6FE4346AB614B466861CB
:100B3000EB6153E7382801104828011000400540B8
:100B400040280110333333333333E33F006AF84036
:100B50000000E03FF8B507001000431E9841C0B206
:100B600016000D00FFF7F6FB0A20B8428041404214
:100B7000FFF7F0FB90210120490007F0A7FD0400DA
:100B8000431E9841C0B2FFF7E5FB88235B00A760D6
:100B90002573E650124B134A1C600123AB401249E7
:100BA0001360002003F044F8104E0021002003F0F1
:100BB00025FA0121002002F0F7FFB56A00212A0082
:100BC00000230B4812184B4122606360084A237BC4
:100BD0009446043365449B009D512000F8BDC046F7
:100BE000442E002038600540C1020020004005402E
:100BF000204E00000023837343737047F0B5DE4638
:100C000057464E464546E0B58BB00D00060090466F
:100C10000BF088FD310002008B4808F037F82800FF
:100C20000BF080FD434602002900884808F02EF8AA
:100C3000874A34009246032291460132330002274C
:100C400093460C3401951A782F2A1ED01100B9430F
:100C50003C291AD04D46511C5144087894462840EE
:100C6000022807D16146FD3020390140203A013188
:100C7000D2B251441A700A785946114205D14946F8
:100C80000A40012A01D020221A7001339C42DAD195
:100C90000023019D33730C2231006E480BF076FD6A
:100CA00028000BF03FFD022302009A43042A00D1E2
:100CB00082E001002A00684807F0E8FF0722674940
:100CC000280007F041FD28000BF02CFD06284AD033
:100CD0002900072262480BF059FD434641463C2B50
:100CE00000DD3C2103AB9C46624600275D4B00269D
:100CF00031CB31C231CB31C21B6849B213605A4B80
:100D00006246DF5798463C0063460AAD0020105605
:100D1000013288421ED09542F8D1002E1FD1604684
:100D200000241B3001229A568A4205DD00229A5681
:100D3000914201DB1700012401339842F2D1002CCB
:100D400001D043461F700BB03CBC90469946A2466A
:100D5000AB46F0BD954257D00C000126D6E72700E0
:100D600042461770DBE703212B79404C1A00E05C08
:100D70000140022902D1203B1A00DBB22B71413B1A
:100D8000172B4FD803216B79E05C1A000140022930
:100D900002D1203B1A00DBB26B71413B172B97D974
:100DA000FF2305211A40324807F070FF072231491E
:100DB000280007F0C9FC8BE703222B782B4CE15C61
:100DC0000A40022A01D1203BDBB22B70413B112BA0
:100DD00022D803226B78E15C0A40022A01D1203B31
:100DE000DBB26B70413B112B28D8AB78E35C5B071F
:100DF0000CD5EB78E35C5B0700D564E707221E495E
:100E0000280007F0A1FC5EE70F00A9E707221A49B6
:100E1000280007F099FCECE707221849280007F0A2
:100E200093FCD6E7FF2304211A40114807F02EFF58
:100E300007221049280007F087FCA3E707220F4983
:100E4000280007F081FCD0E7A4290110D82901105F
:100E5000C43801101C290020282A0110442A01103E
:100E6000F02D0020A02801107E2E0020C538011092
:100E70004C2A0110702A0110202A0110182A011092
:100E8000F0B557464E46DE464546E0B5C34F8DB0F9
:100E90003E7801903C2E00D1CCE22F2138000BF09F
:100EA000CFFB002801D100F0FCFCC31B1D00029306
:100EB000FB189E782021320088468A4300D075E1D5
:100EC00008AC07320021200007F038FC2A00390066
:100ED00020000BF05BFC03212278B14B1600985CDC
:100EE0000140022905D1203EFD310E40203A985D97
:100EF000D2B22270420705D403221040012801D04B
:100F00001D32227003216278985C1600014002298C
:100F100005D1203EFD310E40203A985DD2B262707C
:100F2000420705D403221040012801D01D3262700F
:100F30000321A278985C16000140022905D1203EC9
:100F4000FD310E40203A985DD2B2A270420705D41E
:100F500003221040012801D01D32A2700321E27843
:100F6000985C16000140022905D1203EFD310E405B
:100F7000203A985DD2B2E270420705D403221040B5
:100F8000012801D01D32E27003212279985C1600FD
:100F90000140022905D1203EFD310E40203A985DE6
:100FA000D2B22271420705D403221040012801D099
:100FB0001D32227103216279985C160001400229DA
:100FC00005D1203EFD310E40203A985DD2B26271CB
:100FD000420705D403221040012801D01D3262715E
:100FE0000321A279985C16000140022905D1203E18
:100FF000FD310E40203A985DD2B2A271420705D46D
:1010000003221040012801D01D32A271042189461B
:1010100060784E461A5CE57811408846AC462578E3
:10102000A17803955D5D5A5C35400595454692462D
:101030002279002D00D09BE265465D5D6479AB4668
:101040000425A94655464E4635400495059D002D7C
:1010500001D000F0F3FC4125039E6D42AA46B14643
:10106000CA445546192D01D900F035FE373EF5B278
:10107000AA46EE005644B6004546002D01D000F0C9
:10108000B9FC41256D42A84680444546192D01D939
:1010900000F090FD3738C0B23618B00086190498B9
:1010A0007600002801D000F0B0FC08004138C0B242
:1010B000192801D900F078FD3739C9B276187100C6
:1010C0008919C80009185846400701D500F0A9FC45
:1010D00060464138C0B2192801D900F071FD604660
:1010E0003738C0B20A39081841000918C800091871
:1010F000985C400701D500F09DFC10004138C0B25B
:10110000192801D900F059FD373AD0B20A000A3A3D
:10111000121851008A181B5DD10052185B0701D5C7
:1011200000F084FC2300413BDBB2192B01D900F015
:101130003EFD373CE3B20A3AD418029B9C46674412
:101140007B781E00303EF6B2092E00D908E2154B1E
:101150009C466644F3010026134A96574236F61819
:10116000019A23099370230B5370230D1370B3015D
:101170009371B3085371B30A13710023B602360F8B
:1011800024013443D470D3711372537293720DB02F
:101190003CBC90469946A246AB46F0BD1C290020B7
:1011A000C5380110606A00007E2E0020DB788B437A
:1011B00000D002E208AC07220021200007F0BEFAAE
:1011C000029A390020000BF0E1FA03212278974BB4
:1011D0009446985C0140022906D16146FF202039DF
:1011E0000140203A585CD2B22270420705D4032253
:1011F0001040012801D01D32227003216278985CD2
:1012000094460140022906D16146FF202039014061
:10121000203A585CD2B26270420705D403221040D3
:10122000012801D01D3262700321A278985C944697
:101230000140022906D16146FF2020390140203AB1
:10124000585CD2B2A270420705D403221040012894
:1012500001D01D32A2700321E278985C94460140CF
:10126000022906D16146FF2020390140203A585C0E
:10127000D2B2E270420705D403221040012801D007
:101280001D32E27003212279985C944601400229C4
:1012900006D16146FF2020390140203A585CD2B285
:1012A0002271420705D403221040012801D01D32CB
:1012B000227103216279985C94460140022906D18B
:1012C0006146FF2020390140203A585CD2B2627159
:1012D000420705D403221040012801D01D3262715B
:1012E00004200500804661785A5C1540A278039579
:1012F000985C0592424625790490AB462078E578C3
:10130000A9461D5C1540AC46039D002D06D0049DEA
:10131000013A2A40012A01D100F027FC4A469A5C92
:10132000049D92460422154062466479A846002A2C
:1013300001D000F001FC41225242944684446246AE
:10134000192A01D900F0C0FC3738C2B29446D00047
:1013500060448000039A002A00D095E34122524263
:1013600094468C446246192A01D900F07BFC373937
:10137000C9B242464118880040184000002A00D0F7
:101380007EE3059A11004139C9B2192901D900F04B
:1013900066FC373AD2B2801842001218D1005218B7
:1013A0005146490700D567E349464139C9B2192971
:1013B00001D900F051FC49463739C9B20A3A5118EF
:1013C0004A005118CA008A185946595C490700D585
:1013D0004EE359464139C9B2192901D900F039FC07
:1013E00059463739C9B20A3A51184A0052181B5D9A
:1013F000D10052185B0700D537E32300413BDBB235
:10140000192B01D900F022FC373CE3B20A3AD41878
:10141000029B9C4667447A78303A93009B185B00A5
:101420009E19034B9C466644F30194E6C5380110AF
:101430004AEA00000D22002108A807F07FF9922354
:101440003E21380006930BF0FBF8C21B013A791CD1
:1014500008A807920BF09AF906AA07A908A800F0B5
:1014600077FDB44B40049A785F781E78D9785C7920
:101470005A7094461A791F709970DA701C715E71F7
:10148000AD4B400CDD5D6D0700D550E141256D424F
:10149000A846B8444546192D00D9D3E3373FFFB2DB
:1014A000FD00A8464744BD00A84665465F5D7D0730
:1014B00000D5D3E26746413F192F00D9C0E30A3770
:1014C000FFB2B8444546AF005D5C47447F006D07FE
:1014D00000D5C0E241256D42AC468C446546192DCD
:1014E00000D9ABE33739C9B27F187900C919CF00E9
:1014F000C9199F5C7D0700D5AAE21700413F192F4B
:1015000000D97BE3373AD2B20A3989184A00521817
:10151000D1005218195D490700D596E221004139E2
:10152000192900D968E3373CE4B20A3A1219540089
:10153000A2189B5DD40014195B0700D592E233001A
:10154000413B192B00D95BE3373EF6B20A3CA419A4
:1015500000267A4BC0019E573F239E1B3618FFE59D
:101560001A00413A192A00D96CE2373BDEB2EEE5A7
:10157000032556463540012D00D05DE565462571B1
:101580002025039E25706271E170A07066705C1E5C
:10159000A34621245D462C5D4D46254200D176E2CE
:1015A000444687260494059CD346A046B601140001
:1015B00062468C46010003985EE5002307AE2A00D0
:1015C0003900300007930BF0E1F8290008AC013135
:1015D0000722791820000BF0D9F84246B3789343DC
:1015E00005D1F3707378B370337832707370032160
:1015F0002278514B1700985C0140022900D17CE20F
:101600002270420705D403221040012801D01D3268
:10161000227003216278985C17000140022900D1F2
:1016200064E26270420705D403221040012801D011
:101630001D3262700321A278985C170001400229D4
:1016400000D14CE2A270420705D4032210400128C9
:1016500001D01D32A2700321E278985C170001408E
:10166000022900D150E2E270420705D40322104063
:10167000012801D01D32E27003212279985C170005
:101680000140022900D14DE22271420705D4032214
:101690001040012801D01D32227103216279985C2B
:1016A00017000140022900D135E26271420705D4DA
:1016B00003221040012801D01D32627104218946A5
:1016C00060784F461A5CE57811408846AC4625782C
:1016D000A17802955D5D5A5C3D4004954546924671
:1016E0002279002D2CD0032557463D40012D27D1CE
:1016F000654625712025029F25706271E170A070FA
:1017000067705C1EA34621245D462C5D4D46254234
:1017100000D0BCE244460394049CD346A046140087
:1017200062468C4601003800A227FF0026E0303FC9
:10173000B5E6C046F02D0020C53801107E2E0020F1
:1017400065465D5D6479AB460425A94655464F461E
:101750003D400395049D002D00D0EAE14125029F04
:101760006D42AA46B946CA445546192D00D9B6E27B
:10177000373FFFB2FD00AA465744BF004546002D43
:1017800000D036E241256D42A84680444546192DD9
:1017900000D98FE23738C0B2381887003F18039855
:1017A0007F00002800D021E208004138C0B219288B
:1017B00000D97DE23739C9B27F187900C919C8004C
:1017C00009185846400700D50CE260464138C0B2BF
:1017D000192800D976E260463738C0B20A390818AD
:1017E00041000918C8000918985C400700D5F6E1C7
:1017F00010004138C0B2192800D961E2373AD0B29E
:101800000A000A3A121851008A18D1005218195DBC
:10181000490700D5E0E121004139C9B2192900D9B1
:101820004CE2373CE1B230780A3A54181A5C52075D
:1018300000D5CEE10200413A192A00D93CE23738FE
:10184000C0B2C10009188900091870781A5C5207E3
:1018500000D5BBE10200413A192A00D926E2373807
:10186000C0B24118B678CA0052189B5D9200521857
:101870005B0700D5A7E13300413B192B00D913E2E8
:10188000373EF6B2DF4B96191B78DF4A5BB29642C1
:1018900000D865E1DD4A423394466644F2019E1861
:1018A0005EE404218946DA4B7878FC781A5C02946D
:1018B00011408C464C469D5DB978254064465A5C83
:1018C000A84692463A79002C05D0032455462C4070
:1018D000012C00D1E9E0029C55461C5D7F79A346AE
:1018E000042425404446A946002C00D036E141247A
:1018F0006442A046B0444446192C00D9E8E1373E82
:10190000F6B2F400A0464644B6006446002C00D06F
:1019100015E141246442A44684446446192C00D94C
:10192000B3E13738C0B23018860036184846760022
:10193000002800D009E108004138C0B2192800D9B8
:10194000A1E13739C9B2761871008919C8000918A0
:101950005846029C400700D5F4E020004138C0B250
:10196000192800D98DE1373CE4B20A3909194C0035
:101970006418E1006418995C490700D5EBE0110098
:101980004139C9B2192900D979E1373AD1B22200D7
:101990000A3A52185400A218DB5DD40014195B07F0
:1019A00000D5D5E03B00413BDBB2192B00D964E107
:1019B000373FFFB2B42697490A3C0A78E419413A06
:1019C00053079B1A9B009B1A8A785B009B1A4A78E4
:1019D000E3337343413A9600B618CA7876009E19ED
:1019E000303AB2180026874BD2019E574036B618BF
:1019F000FFF7B6FB3038C0B23618B000861904982D
:101A00007600002801D1FFF750FB3039C9B27618B3
:101A100071008919C80009185846400701D4FFF71A
:101A200057FB60463038C0B2FFF75CFB303CE3B296
:101A3000FFF781FB303AD0B2FFF768FB039E303EE0
:101A4000FFF715FB744BFFF786FB303CE4B26CE507
:101A5000303AD2B258E53039C9B245E56746303F31
:101A6000FFB22EE5303EF6B270E5303CE3B2CDE495
:101A700059463039C9B2B6E449463039C9B29DE455
:101A8000059A303AD2B286E43039C9B271E444469C
:101A90000494059CD346A046140062468C4601007F
:101AA0003000A226F600FFF7E7FA029D1F343C70D3
:101AB0007A713D71F970B8707E7021275C1EE75D08
:101AC0004C46D346E146C4463C4200D0CDE00291AC
:101AD00001003000A2261700F6002A0015E7203F7B
:101AE000FD31203A0F40D2B2D85DABE5203FFD3149
:101AF000203A0F40D2B2D85D93E5203FFD31203A25
:101B00000F40D2B2D85D7BE5203FFD31203A0F4037
:101B1000D2B2D85DA7E5203FFD31203A0F40D2B2C6
:101B2000D85DC2E5203FFD31203A0F40D2B2D85DEA
:101B3000AAE5029F303F1CE63038FFF706FC30383C
:101B4000C0B2F0E6303CE4B20FE73039C9B2FAE691
:101B5000303FFFB22EE7303AD1B218E7303ECFE641
:101B6000F20141339E18FFF7FBFA5A4662714A466A
:101B700022712022059D2270E570A17060702124E1
:101B80005A1E145D4246224248D1039A059190465E
:101B900062460100A2200392049A5C469246CB461C
:101BA000C000A946FFF7D6FB2421FFF787FA2423BC
:101BB000FFF7C1FA2420FFF76FFA2420FFF7A6FAF7
:101BC0002420FFF78FFA303EF6B25BE63038C0B221
:101BD00047E63038C0B234E6303CE1B223E6303A72
:101BE000D0B20DE660463038C0B2F7E53039C9B240
:101BF000E2E53038C0B2CFE5242496E4242283E421
:101C00002426A3E47E2E0020FF7F00000080FFFF3B
:101C1000C5380110F02D002000433500039A5C46C2
:101C2000904662460392049ACB469246059A0591E5
:101C30000100872091468001FFF78CFB242153E4AB
:101C400024273EE4A225ED00A8462EE42423FFF736
:101C5000DDFB2421FFF7C7FB2421FFF7AFFB242284
:101C6000FFF799FB2421FFF784FB1700029A0291EA
:101C7000010030008726B60147E624279AE6242192
:101C800085E6242471E624215DE624204BE64446C3
:101C900087270394049CD346A046BF0114006246E4
:101CA0008C460100029869E52426EBE52420D8E55E
:101CB000242181E524206FE52420C2E52421B2E51A
:101CC00024209DE5242089E5A220C000FFF742FBE7
:101CD000A226F60019E6A226F600FFF7CDF9A22704
:101CE000FF004BE5F0B5DE4645464E4657460C0034
:101CF000E0B50500E1B0010008A89B4616000AF017
:101D000009FD210003A80AF005FD2900894806F015
:101D1000BDFF20000AF006FD21000200864806F003
:101D2000B5FF320003A908A8FEF768FF05A8FFF772
:101D3000A7F802AA17239446634498460021002579
:101D400005A8037800269C466346B3400122002480
:101D50008946DB1113406D001D43784B1F322B4029
:101D60000121013A1940D2B24C405B08002AF7D158
:101D7000494660AB5B18513BFF3B1C70704B0F003A
:101D80002B40994620234C1CE4B201904946012087
:101D900001404A404946013B4908DBB28946002BD5
:101DA000F4D1390060AFB9464C44513C0231FF3C9C
:101DB000C9B201982270A12902D80136082EC3D1D8
:101DC00001308045BDD136AA00210192012740266D
:101DD000022540E080246442A04601344022FF34C2
:101DE000C020A44652420D4201D1424660464C07F3
:101DF00003D52020024352B2D0B20C0703D51020E5
:101E0000024352B2D0B2CC0603D50820024352B2EC
:101E1000D0B28C0603D50420024352B2D0B20E4297
:101E200003D00220024352B2D0B2CC0902D001202A
:101E30001043C0B2A12808D860AAD218513AFF3A7C
:101E40001278019C01332254DBB2A12B0CD8013152
:101E5000C9B2FF2908D03A000A409446BAD10024FA
:101E600040204022A046BEE7019EA22231000CA8DD
:101E700006F06AFCA2223349300006F065FC5B469E
:101E80005B0744D134AB9C462F4B584699462F49AB
:101E90000CAD2B6832680B4034685B000A409046FA
:101EA0001A0063404C460A4023406F6842445A403F
:101EB00073680F4074687F000B4098463B00674092
:101EC0004C460B40434427405F4008350260476062
:101ED000083608306545DCD12820A02202AB019CE1
:101EE0001B189B5CA15C5B005B1859468B5402ABD2
:101EF00001321B189B5CA15C5B005B1859468B543C
:101F000061B03CBC90469946A246AB46F0BD02AAE1
:101F1000944659462725CF2401230139654464445A
:101F2000EA5CE05C52001218CA540133A32BF7D1CB
:101F3000E6E7C04660290110782901105153D0F21C
:101F4000473C61E4BC280110808080807F7F7F7FD8
:101F50000B68F0B5DE469B461368D74A5746944651
:101F60004E4645466344E0B504005B44820743D1D6
:101F70005A46180019000C2A39D91A25A846023DDC
:101F8000AC460B3D1C221027AA4665684646A9466A
:101F9000A5684944A946256848442D1AA946050064
:101FA000D5414B446B401D00F5410818C91A6940E2
:101FB0000D006646F5411B18401A68400500FD41BA
:101FC000C9181B1A6B401D005646F5414018C91A26
:101FD00069400D00D5411B18401A68400C256D4220
:101FE000A946CB445D46C9180C340C2DCDD85A46B1
:101FF0009500B24A52599746C2074FD45A46180024
:1020000019000C2A45D91A25A846023D1C22AC46C7
:102010001027E58846462D04A946A588AA46658965
:10202000D1442D044944A9462589AA466588D1444E
:102030002D044844A94625880C34AA46D1444D466F
:102040002D1AA9460500D5414B446B401D00F541B2
:102050000818C91A69400D006646F5411B18401A58
:1020600068400500FD41C9181B1A6B401D000D2674
:10207000F5414018C91A69400D00D5411B18401A96
:1020800068400C256D42A946CB445D46C9180C2D0D
:10209000BFD85A4695008A4A525997465A46180060
:1020A00019000C2A5DD91A25A846023D1C22AC460F
:1020B0001027657946462D02A946A5792D04AA4622
:1020C0002579D144AA46E579D1442D06AA46657AF8
:1020D000D1442D024944A946A57A2D04AA46257A61
:1020E000D144AA46E57AD1442D06AA466578D14462
:1020F0002D024844A946A5782D04AA462578D14446
:10210000AA46E578D1442D06AA46D1444D462D1A5B
:10211000A9460500D5414B446B401D00F541081808
:10212000C91A69400D006646F5411B18401A6840FF
:102130000500FD41C9181B1A6B401D000D26F54115
:102140004018C91A69400D00D5411B18401A684053
:102150000C256D42A946CB445D46C9180C340C2DA4
:10216000A7D85A469500574A52599746E27A12061E
:102170008018A27A12048018627A12028018227AD9
:102180008018E27912068918A279120489186279F6
:102190001202891822798918E27812069B18A2780F
:1021A00012049B18627812029B182278D31812220C
:1021B0000C00D4414840001B05001524E541434074
:1021C0005B1B07241D00E5415940491B10240D00ED
:1021D000E5414840401B05001C24E54143405B1B92
:1021E0005940D3410A3ACB1A5840D341C01A3CBC9B
:1021F00090469946A246AB46F0BDA268944660441C
:1022000062689446226861449B18D0E7A278120461
:102210009B182288D318CAE7227989182588ED18D7
:1022200063881B045B19C2E7227A8018A2885118C0
:10223000E28812048918F1E7A288891822689B189D
:10224000B5E7227A8018DBE722898018D8E7A268F0
:102250001202120A8018D3E722681202120AD31857
:10226000A5E722689B18A2E762681202120A891881
:1022700022689B189BE72279891822689B1896E7A9
:10228000A27912048918A2888918C7E7A27A1204D1
:10229000801822898018C9E72289101862891204DF
:1022A0001018A2885118E288120451182288D218F6
:1022B00063881B049B187AE7EFBEADDE782A011015
:1022C000AC2A0110E02A0110F0B5DE46454657461B
:1022D0004E46E0B51F00604B9BB0984604000D00D1
:1022E00016001900282206A806F02EFA41462822D8
:1022F000283110A806F028FA0022584B3000390087
:1023000005F0B6FA564B06000F0020002900002207
:1023100005F0AEFA249B0400013B0D00092B00D907
:1023200094E0249B5B109B4600D192E006AB9A465A
:102330004C4B059399460023984632E0002A5FD023
:10234000009A019B3000390005F09BFA05F048FB2C
:102350004B46413018702900029A039B200005F07B
:1023600090FA05F03DFB4B4641305870009A019BB6
:102370003000390005F062FC029A039B06000F0052
:102380002000290005F05AFC01239C460733E04455
:102390009C46063BE2449C4604000D00E144D845BF
:1023A00045DA53461A685B680092019310AA4346C7
:1023B0009446DB0063441A685B680292039301232E
:1023C00042461342BAD0009A019B3000390005F012
:1023D00058FA0022244B05F04BFA05F025FB4B463A
:1023E00029001870029A039B200005F04AFA1E4B40
:1023F000002205F03DFA05F017FB4B465870B5E793
:10240000069A079B3000390005F03BFA05F0E8FA20
:10241000059B413018702900109A119B200005F08F
:1024200030FA05F0DDFA059B413058709EE75B46B7
:102430005B009B46059A00235946100053541BB07D
:102440003CBC90469946A246AB46F0BD03239B4652
:102450006CE7044B0593EDE7182B011000806640F4
:1024600000805640F82D002000004840F0B5C646D8
:102470001D000700431E98410E0000B5C0B29046F3
:10248000FDF768FF3000431E9841C0B2FDF762FFC0
:102490002800431E9841C0B2FDF75CFF982101203F
:1024A000490006F013F90400431E9841C0B2FDF73D
:1024B00051FF39000C2220000AF068F92000310099
:1024C00007220C300AF062F943462A0000210D4829
:1024D0008A25E374FEF73EFB6D006051431E984170
:1024E000C0B2FDF737FF0799069B8C4662596344DB
:1024F00053518C2308995B002000D15004BC9046B6
:10250000F0BDC046AB6A0A00F0B5CE4647460400AF
:10251000431E984180B5C0B285B00D00FDF71AFF8B
:102520000023E37414339846A044002D18D10021F1
:10253000704806F0ABFB210002AE0C3104223000E3
:102540000AF024F913223571A256434631002000C7
:10255000FFF7C8FB002005B00CBC90469946F0BDC3
:102560002900644806F092FB8A235B00E258043B92
:10257000D358DA6C98239B00D05806F02FF800222D
:102580005D4B05F07EF905F009FB257C5B4B413D79
:10259000EDB26A005219657CD200413DEDB2AD1832
:1025A0005D4305F041FA80B245191A21280004F074
:1025B0001BFF2800CEB21A2104F016FF1A2104F0E6
:1025C00013FFCFB2A9212800890004F00DFF1A21C2
:1025D00004F00AFF2800CBB24949994604F004FFF1
:1025E000242104F001FFCBB2092900D97FE0303368
:1025F000DBB2902269465200A25C4B7022230A7023
:10260000FF33E35C6A468B7049464131D17021004B
:102610000025293141374136FF31177156719571C7
:10262000384B00220868496805F049F90022364B0A
:1026300005F015F90022354B05F023F905F0AEFA47
:1026400092235B000600E0560F0005F0B1F900226E
:102650002F4B05F00DF905F0E7F9C0B28400390001
:102660002418300005F0E0F9C0B21430282104F03D
:1026700093FEE400091954244C43640003342549B3
:10268000200004F0B1FE122104F0AEFE4131CEB2C2
:102690002000214904F0A8FE122104F0A5FE4131DA
:1026A000C9B209020E432000BE2104F09DFE0A219A
:1026B00004F09AFE3031C9B209040E432000132100
:1026C00004F092FE0A2104F08FFE303109063143F6
:1026D00002AE029120003571132104F085FE0F4BEC
:1026E00068465A5643463100FFF7FCFA32E7373363
:1026F000DBB27EE77C2B0110000034402C0400008C
:10270000A84400000000594000C07240000014407E
:1027100000004940988500006C070000682B0110FC
:10272000F0B54E464546DE465746E0B505006B1E01
:102730009D418A2604008827EDB285B028007600E6
:102740008946FDF707FEA3597F00DA59D36C196B50
:102750008846197C8E235B00E35C002B00D045E1AA
:102760004346002B00D137E18F235B00E35C926D81
:10277000002927D0002B00D086E1012101201E2353
:10278000FF33E054C24800F073FA8A238F265B00BF
:10279000E258043BD3587600DB6C597CBD4B303992
:1027A0001960A75D9846002F25D12023FF33E35CF5
:1027B000994214D0002005B03CBC90469946A246F0
:1027C000AB46F0BD02310220002BD8D11E23FF33CF
:1027D000B148E15C00F04CFA01204042EBE70A000E
:1027E000AE4806F053FA0123A35502F09FF8AC4B14
:1027F00018605960A75D012FDCD1A94B9A461A6871
:102800005B680092019302F091F8009A019B801A94
:102810009941002900D085E0A24B984200D981E07F
:10282000A14B1A68002A52D11F604B461F32FF325B
:10283000A754002B00D0C2E08A2688230027760008
:10284000A2595B00D058FDF701FF984806F032F915
:102850002800FDF77FFDE7740021954806F016FA81
:1028600003AB21009B4604220C31180009F08EFFB7
:102870005B461F71270013221437A25659463B00AE
:102880002000FFF72FFA642001F068FF2800FDF711
:1028900061FDA059431E9841C0B2FDF75BFDA359ED
:1028A00084489B59984280414042FDF753FDA0590E
:1028B000FEF7A0F9A2223900A0590F3005F044FF1D
:1028C000A222A3595A731E23A03AFF33E25453465F
:1028D0001E685F6802F02AF8801BB941002903D105
:1028E000754B984200D865E700236F4A8A2613602B
:1028F000724A882513601E230122FF33E2547600BA
:10290000A3596D0058594B46002B5CD1FDF7B0FE22
:1029100043466B48196806F0B9F98F2300225B0023
:10292000E25447E753461E685F6801F0FFFF801BD3
:10293000B94100293FD0614E3368002BC7D1153310
:10294000FF33E258043BD058FDF792FE5D4806F095
:10295000B1F8012333604B46002B00D090E08A266B
:1029600088237600A2595B00D058FDF76FFE5648C9
:1029700006F0A0F801212000FFF7C6FD642001F059
:10298000EDFE2800FDF7E6FCA059431E9841C0B2B9
:10299000FDF7E0FCA35947489B59984280414042CB
:1029A000FDF7D8FCA059FEF725F92100A059A22275
:1029B0000F30143182E7454B984288D9BBE7444831
:1029C00000F056F938E74146836D0968414800F048
:1029D0004FF9A359585999E73F4800F049F91E2388
:1029E00042460120FF33E2544042E4E63B4800F017
:1029F0003FF91E230222FF33E254A359D85900277E
:102A0000FDF724FE2800FDF7A5FCE7740021284807
:102A100006F03CF903AB210098460C310422180063
:102A200009F0B4FE43461F71270013221437A25643
:102A300041463B002000FFF755F9642001F08EFE6F
:102A40002800FDF787FCA059431E9841C0B2FDF74E
:102A500081FCA35917489B59984280414042FDF799
:102A600079FCA059FEF7C6F8A059A2220F30390010
:102A700005F06AFEA2220120A35940425A739AE649
:102A8000174800F0F5F86AE70221022077E6C04611
:102A9000942C011064290020502C0110CC2C011022
:102AA000F8230020FF0D2707E02D00203C2D01100A
:102AB0007C2B011020A10700001C4E0EE42D0020ED
:102AC000342E01105C2D0110BC2D0110000E2707C3
:102AD000102D0110DC2D0110302C0110082C0110DC
:102AE0007C2D0110F0B504008A25431E984183B067
:102AF0006D00C0B2FDF72EFC60598826431E984138
:102B0000C0B2FDF727FC635976009859431E9841DF
:102B1000C0B2FDF71FFC63599B59D86C431E984106
:102B2000C0B2FDF717FC63599B59DC6CA06AE16ADF
:102B300004F092FF0A4A0B4B04F0C1FE06000F009E
:102B4000206A616A04F088FF054A064B04F0B7FE6C
:102B50000623320000933B00FFF7B6FB03B0F0BD45
:102B600048AFBC9AF2D77A3E70B504008A25431E5E
:102B700098416D00C0B2FDF7EDFB60598826431EF9
:102B80009841C0B2FDF7E6FB1B4B1C48DA689B6816
:102B900000F06EF81E23FF33E15C194800F068F87E
:102BA0002000FFF79FFF0100164800F061F863590D
:102BB00076009B591448DB6C1A6A5B6A00F058F87F
:102BC000635912489B59DB6C9A6ADB6A00F050F833
:102BD00063599B59DA6C98239B00D05805F0FEFC92
:102BE00002000B000A4800F043F80A4B0A48196833
:102BF00000F03EF870BDC046004005409C2B01101F
:102C0000B02B0110C02B0110CC2B0110D82B0110C0
:102C1000E42B011064290020F42B011070B504008E
:102C20008A25431E98416D00C0B2FDF793FB6059A1
:102C30008826431E9841C0B2FDF78CFB635976008D
:102C40009859431E9841C0B2FDF784FB63599B59C4
:102C5000D86C431E9841C0B2FDF77CFB63599B5969
:102C6000DB6C187C013843425841C0B270BDC0468D
:102C70000FB4F0B54F46D6464646C0B5454B90B06A
:102C800099461B68002B00D180E001F04FFE424ABC
:102C900014230690079104F0E5FB14001D002000AA
:102CA00029003E4A00230894099504F0DBFB140038
:102CB0001D00200029003A4A00230A940B9504F0D5
:102CC000D1FB16001F00374A0023300039000C9654
:102CD0000D9704F0C7FB040000258046E10E60015B
:102CE000001BA941C30D9C4666464B02334342027A
:102CF00012196B41910E8C46664699019001314341
:102D0000801A99410C9E0D9F00196941264C361A74
:102D10008F412000002105F059FF0A980B994B467E
:102D20004A461D686B1C13601D4A002304F09AFB81
:102D30001A4A824608980999002304F093FB164A20
:102D4000814606980799142304F08CFB43464A46B3
:102D5000010000930495534602960397134805F02B
:102D600095FF19A918980F9105F048FF0A2005F062
:102D700055FE0121200005F029FF10B01CBC904633
:102D80009946A246F0BC08BC04B0184705F08AFF7B
:102D90007BE7C046302E00200060D71D00A493D6EC
:102DA0000087930340420F00501800205C2E011052
:102DB00000B587B005AB04AA03A90B4800F0C8FB17
:102DC000002803D10849094802F0F8FE059A049941
:102DD000039800F081FB064B01220093002106209E
:102DE00002F028FB07B000BD580F0200842E01102E
:102DF000C0EF0B0870B5194E8A2530686D00431E70
:102E00009841C0B2FDF7A6FA33685A5988235B008F
:102E1000D4582000431E9841C0B2FDF79BFA336896
:102E200020005A598C235B00D1580D4AFDF7AAFAAD
:102E300043425841C0B2FDF78DFA336800225B5916
:102E400020005959FDF772FB43425841C0B2FDF7CB
:102E500081FA20000FF060FC70BDC046882E002073
:102E6000C0EF0B08F0B5C6468025194B00B500240D
:102E70009846184F0F266D0005E02020013405F01C
:102E8000CDFDAC420DD0E15D404605F0FFFE3300C4
:102E900023400F2BF1D10A20013405F0BFFDAC42D5
:102EA000F1D106220B490C4809F070FC02220B49B3
:102EB0000B4809F06BFC01220A490B4809F066FC3B
:102EC00001220A490A4809F061FC04BC9046F0BDA1
:102ED000182F011000000410942E0020060004108A
:102EE0008C2E0020080004109C2E002009000410E5
:102EF000902E002000B5074B83B00093064A074B85
:102F00000749084805F0C2FE074805F0D3FD03B0A5
:102F100000BDC046902E00208C2E00209C2E00204C
:102F2000942E0020202F01108C2F011030B5C1B03D
:102F300006221449684609F029FC6B460222981DB6
:102F4000114909F023FC0122104902A809F01EFCD6
:102F5000092001220E49684409F018FCEFF310859E
:102F600072B680248021E402200049010FF0FCFBAE
:102F700080226946520020000FF0D6FB85F31088AE
:102F800041B030BD942E00208C2E00209C2E0020BD
:102F9000902E0020F8B5D024DE46082357464E4632
:102FA00045462406E0B56420A36101F0D7FB8023E9
:102FB0009B0463615B4805F07DFD5B4A5B495C48AF
:102FC00005F064FE5B4805F075FD5B4805F072FD99
:102FD0005A4805F06FFD5A4805F06CFD05F06AFE91
:102FE000C0B27E280BD0574805F050FEFA20C00032
:102FF00001F0B4FB0121642002F08AFCFEE7FFF738
:1030000079FF514B00249B46504B514F9A46514BF0
:10301000514E994603239846504D05F04BFEC1B2E0
:103020005A2901D92039C9B2492937D00CD94D299B
:103030006ED0582964D04C2954D00A00484805F075
:1030400025FEFFF757FFE8E70D29E6D043291BD1FE
:10305000444805F01BFE3900300009F0D1FA3B78F6
:10306000BC713A00002B0AD059464046C95C014069
:1030700002290CD0137001321378002BF4D1FFF722
:1030800055FFFFF737FFC8E70A29D6D1C5E7203B30
:10309000137001321378002BE6D1F0E7324805F0C7
:1030A000F5FD2900300009F0ABFA2B78AC70002B4D
:1030B000E5D02A0059464046C95C014002290AD0A1
:1030C000137001321378002BD9D059464046C95CA1
:1030D00001400229F4D1203B137001321378002BF8
:1030E000E8D1CCE7214805F0D1FD4946300009F090
:1030F00087FA4B465C70FFF719FFFFF7FBFE8CE782
:103100001B4805F0C3FD0121642002F001FCFEE72D
:10311000184805F0BBFD5146300009F071FA5346DE
:103120005C70ACE7783001108430011090300110F1
:103130009C300110D8300110083101103C310110D1
:10314000C83101102C320110C53801109C2E00200E
:10315000942E0020902E00206C3201108C2E002026
:10316000B032011058320110703201109832011043
:103170004C32011080320110F0B5C646D0258026B1
:1031800000B52D069CB0B604192000F037FC1920BC
:103190006E6200F033FC6E621D206E6100F02EFC4A
:1031A00080239B05AB62002200211D2000F0B8FBAC
:1031B00008F036FA0222AE4BAE481A60FFF758FD0F
:1031C0001424370064206F6101F0C8FA013CAE613D
:1031D000642001F0C3FA002CF4D1FFF743FEA64AA5
:1031E000A649A748FFF744FDFFF7E2FD5C22002156
:1031F00005A805F0A3FAA348FFF73AFDA24B1B78F8
:10320000313BDBB2032B03D8A04A9B009B58984666
:1032100006230025029343460A229D490093019507
:1032200005AB9C48FFF722F90400431E9841C0B249
:10323000FDF790F8984B06221C608C23FF325B0050
:10324000E25200220233E5540233E5520233E254E3
:1032500024230322FF33E254200020228F4BFF322D
:103260001B782130303BA3548D49FF3009F052FACE
:103270008C4808F055F88C48FFF7FAFC032000F062
:10328000BDFBD023082296211B065A6289015A6190
:103290000020063AFDF7FEF91890431E9841C0B28F
:1032A000FDF758F82000FFF7B9FC002800D0A7E090
:1032B000012120000135FFF733FA1421280004F022
:1032C0006BF8002900D1AAE0002005F031FD0028AC
:1032D00000DDADE08023754EDB01326831005340E4
:1032E000E022D2011340724A13600422604B1A603C
:1032F000FC320B681342FCD0706880B205F00EF906
:103300006C4905F0C2F86C4905F0A5F86B4905F069
:10331000A8F8011C6A4805F09EF805F027F99223E9
:103320005B00E054C02332689B015340E022D2018D
:1033300013405F4A8021136004224D4B49001A60FC
:103340005A4A13680B42FCD0506880B205F0E6F888
:103350005C4905F09AF8574905F097F8804605F062
:103360003DF906000F004046564905F0BDF800281B
:103370000BD0554A554B3000390004F079FA04F06F
:10338000A3FB05F02BF906000F00514A514B30000A
:10339000390004F0F5FA00280BD04B4A4B4B3000B3
:1033A000390004F05CFA04F08FFB05F017F9060011
:1033B0000F0023002933FF331E605F60D027802376
:1033C0001E269B043F067B61FF369846A35D002BBB
:1033D00030D0012B3AD0022B00D063E7DC208000F4
:1033E00001F0BCF9D02380221B06920414209A61BC
:1033F00001F0B4F92000FFF711FC002800D157E7D5
:103400002000FFF76FFB002800D151E701002000EA
:1034100006220C3009F0BAF90023E37448E72000D3
:10342000FFF7A2FB002005F083FC002800DC51E739
:10343000FFF7B0FD142001F091F94346DC20BB6199
:10344000800001F08BF9A35D012BC4D1E120400085
:1034500001F084F9D0238022E1201B0692049A61B6
:10346000400001F07BF91E23FF33E35CB3E7C04665
:1034700000E004400C2D0110843001109030011048
:10348000C82E0110E42E0110902E0020B82E01103D
:10349000F82E0110942E0020882E00209C2E002053
:1034A0008C2E0020F52D0010002F011000C00440CC
:1034B00000D004403333533A6ABC343F2D93E13A91
:1034C0000000D84100004040333333333333FF3FF3
:1034D000CDCCCCCCCCCC1340F0B583B005000E00E5
:1034E000140000F0A9FA002801D003B0F0BD154F78
:1034F00001223B0000970121053001F09BFF3300C2
:103500002A0000940121104802F0AAF921002800A5
:10351000714303F069FF04000C4B00220093022169
:10352000042001F087FF23000094002201210520E0
:1035300001F080FF00973B0002220021062001F0ED
:1035400079FFD2E7006CDC0200800240001BB7006C
:10355000F0B5DE4657464E464546E0B585B0039386
:103560004A4B070099464023FF339B460191029244
:10357000474B994500D186E0464E474B4E440624C2
:10358000994565D8651C29003000694303F02CFF7C
:10359000874245D0002C5BD029003000614303F006
:1035A00023FF87425CD0631E9846002B2FD0190062
:1035B0003000694303F018FF874254D0A31E9A4697
:1035C000002B24D019003000694303F00DFF87421F
:1035D0004DD0E31E9A46002B19D0190030006943E4
:1035E00003F002FF874246D0231F9A46002B0ED0DD
:1035F00019003000694303F0F7FE87423FD0052CE5
:1036000005D02900300003F0EFFE87421CD044466D
:10361000651C29003000694303F0E6FE8742B9D1FA
:103620000029B7D12C005A4601201C4B5343019A64
:103630001360029B1D60039B1C6005B03CBC904660
:103640009946A246AB46F0BD0029E0D10124EAE745
:1036500001235B429C46124BE3449C46E14487E7CE
:103660000029A0D1DFE70029A8D14446DBE70029E3
:10367000AFD15446D7E70029B6D15446D3E7002945
:10368000BDD15446CFE70020D7E7C04670F72E00E3
:10369000704DF7FFB0710B0050F80C00001BB70025
:1036A00020D1FFFFD0231B061B68F0B59A004546CA
:1036B000904641468A4ADE465258574693465A1E1D
:1036C000934130224E465B421A40864B00249C4672
:1036D000854BE0B59A4683B062440092E20813003D
:1036E0002600083300999B005D580836002D24D031
:1036F000A64224D95B46002B2AD001230F279946E6
:103700003900294013D04B4652464046A340125838
:103710001A420CD107220800224092009040020079
:10372000E30872483C339B001A502000D8472D090B
:103730000134002D01D0A642E2D8202E01D0340061
:10374000CCE703B03CBC90469946A246AB46F0BDE0
:103750000F232B4007D001214746A1406248C059A2
:10376000084200D1A8E02B09611C002BE5D08E4255
:10377000E3D90F2213406BD12B0AA11C002BDCD004
:103780008E42DAD90F22134073D12B0BE11C002B90
:10379000D3D08E42D1D90F2213407BD12B0C211DC7
:1037A000002BCAD08E42C8D90F2213400FD04746F3
:1037B0000E3A8A404C48C059104208D10720CA0826
:1037C000014089008B403C324849920053502B0DF8
:1037D000611D002BB1D08E42AFD90F22134006D00D
:1037E00047460E3A8A404048C05910426DD02B0ED1
:1037F000A11D002BA1D08E429FD90F2213400FD0C4
:1038000047460E3A8A403848C059104208D107202E
:10381000CA08014089008B403C3234499200535021
:103820002D0F0734002D00D187E701234146A34027
:103830002D4A525801921A4200D07EE70722E3082F
:103840001440A400A5403C33284A9B009D5074E7D7
:1038500047460E3A8A402448C05910428CD107206E
:10386000CA08014089008B403C32204992005350E5
:1038700082E747460E3A8A401B48C059104284D11D
:103880000720CA08014089008B403C32174992004A
:1038900053507AE747460E3A8A401348C0591042BF
:1038A00000D07BE70720CA08014089008B403C32EA
:1038B0000E499200535071E70721214089008B4047
:1038C0003C320A49920053504DE70720CA08014094
:1038D00089008B403C3205499200535087E7C0462F
:1038E0001429002000410140202E0020004001400A
:1038F000094A830094464022634410B51C68C00006
:103900006240C02414408022520113431C60034BC8
:103910009C466044416010BD04C00140004001402D
:103920000A4B80009C4604236044002901D00C23EC
:103930000821002A00D10B00026853400C221A40D3
:1039400080235B01184302607047C04604C00140F9
:10395000F8B51D00D0231B061B6814005A1E9341A6
:1039600030225B421340214AC60894460722024097
:103970009200914032001E483C3263449200B600EF
:1039800011509B19002C11D0802292011343196011
:10399000D0231B061E68174FB600BB59002B11D051
:1039A000002D1ED0BD51002C16D1F8BDC0229201B1
:1039B00013431960D0231B061E680E4FB600BB5977
:1039C000002BEDD1002DEED000220B490D20BD5172
:1039D00000F058F9002CE8D001210D2000F0E4F8A7
:1039E000E3E705490D2000F031FADBE70041014033
:1039F0000040014014290020A53600100123D022E8
:103A00008340120693629361094A830094464022E0
:103A100063441968C0004A40C0211140802252010D
:103A200013431960034B9C46052360444360704771
:103A300004C0014000400140024B18688007C00FDD
:103A40007047C04600C00640EFF3108072B6034ACC
:103A50001368002BFCD0BFF35F8F70472C0100D0A0
:103A6000BFF35F8F0022024B1A6080F3108870470B
:103A70002C0100D0F8B5EFF3108772B60D4E336805
:103A8000002BFCD0BFF35F8F0725CB08C0180123A4
:103A90000D40AB401D000478254007D1234303703F
:103AA000BFF35F8F356087F31088F8BD100002F018
:103AB00085F8C0462C0100D0F8B5CE4647468C4666
:103AC00080B5EFF3108872B6214D2C68002CFCD025
:103AD000BFF35F8F9A422CD80721012511408D40FA
:103AE000D4080419267835421FD0072189460639A3
:103AF00009E04D460F001540AF40D4080419267860
:103B00003D00374211D001329342F2D201204042AF
:103B1000BFF35F8F00220E4B1A6088F310880028D5
:103B20000FDB0CBC90469946F8BD3543257010005C
:103B3000EEE7BFF35F8F00232B6088F3108801202E
:103B400040426346002BECD0089802F037F8C0469C
:103B50002C0100D00021044B044ABFF35F8F02C345
:103B60009342FAD17047C046000100D0800100D0D6
:103B7000044A1078431CDBB2172B00D910231370B2
:103B80007047C046B817002000B5054B83B0010050
:103B9000009318221F230348FFF78EFF03B000BDD8
:103BA000DC3201103829002001238340002904D091
:103BB000034A1360034A13607047034A1360FBE72C
:103BC00080E200E000E100E080E100E001228240CC
:103BD000034B1B681340581E8341D8B27047C04640
:103BE00000E100E001238340014A13607047C046B2
:103BF00000E200E0084B10309B688000C358002BA7
:103C000007D0064A00209B1A2F229A424041C0B298
:103C100070470020FCE7C04600ED00E0BC17002024
:103C2000024B10309B688000C058704700ED00E0E8
:103C300070B50D00EFF3108672B60F4A1368002BB3
:103C4000FCD0BFF35F8F0D4B10309B6884001B5975
:103C50000B4A934203D09D4201D001F0C7FF074BAE
:103C60009B681D51BFF35F8FBFF35F8F0022024B34
:103C70001A6086F3108870BD240100D000ED00E0CA
:103C8000CD010010F8B557464546DE464E468A46F9
:103C9000E0B590460700EFF3108972B65F4A1368EB
:103CA000002BFCD0BFF35F8F00205D4B18569B4666
:103CB000002800DAA2E05A4644005A4D2418A40015
:103CC0002E19B37910371370574BBA009B6893467F
:103CD00099584B1B2F2B41D801230A009A43D379C3
:103CE0009446434514D90627D7571300002F06DA08
:103CF0008DE00627DF571A00002F00DA87E07B00EF
:103D0000DB199B00EB18DF794745F2D8002A51D127
:103D1000464A63465B1B5B415A43120D444BA11C50
:103D20003380444B6918043B5B1A1B0542495B0D09
:103D30000B43738063460434043B2D195D1B4346DB
:103D40002D05F3716D0D53462943B180B2710121E8
:103D50006246B360394B3143136018E0384B9942E7
:103D600052D1334B02343380324B2D19043B5D1B4F
:103D70002D05314B6D0D1D43324B0121B380FF23C7
:103D8000B3714346F37153467580B36031435A466D
:103D9000254B9B689950BFF35F8FBFF35F8F002265
:103DA0001E4B1A6089F310883CBC90469946A24687
:103DB000AB46F8BD0627D757131D9C46002F2BDBBB
:103DC00004342D19E024938824025B051B156344F9
:103DD0005B1B1B055B0D23436546341F641B2405D9
:103DE000154D640D2C4394809071B3804346F3715C
:103DF0005346124AB7713260B360C8E701F0F6FE6D
:103E00005B460020185656E701F0F0FEA9E71A1DA0
:103E100094461A000C4BDFE70B4BDDE7240100D082
:103E20007A2E0020BC17002000ED00E0AAAA0000B6
:103E300000A1FFFFEC17002000E0FFFF01488047D2
:103E4000CD01001001BDFFFF01BD0000F0B54546EA
:103E5000DE4657464E46E0B50D0083B0EFF31089BD
:103E600072B6584A1368002BFCD0BFF35F8F564BD5
:103E70009A68030010339F00D459544A90469442E4
:103E800034D0AC4245D0524EA21B2F2A2ED801224C
:103E90008240924651464F4A126811400191514664
:103EA0004D4A1160BFF35F8FEFF305829346002AFE
:103EB00035D10123220006219A43936851569D4231
:103EC0000AD16AE04B005B1806219B00F318986842
:103ED0005956A84228D01A000029F3DA019B002B7A
:103EE00019D052463D4B1A603A4B1A60364B9B68CC
:103EF000DC51BFF35F8FBFF35F8F0022314B1A603D
:103F000089F3108803B03CBC90469946A246AB4664
:103F1000F0BD1400EAE752462F4B1A60E6E79342E1
:103F2000C7D001F063FEC4E7002921DB4A00501826
:103F3000800035188046A8689860E879D871062016
:103F400028569871002826DBAD88F01A6D052D15CE
:103F500045444019E0250005400D2D022843988076
:103F600052181F4B9200B6181A781970B271B5E743
:103F70005946002917D1002A22D0FF3191711949E1
:103F8000918017490A789A71174A9B1B5B415A43E3
:103F9000120D0A70A2E71548E1E713000029C5DAFF
:103FA0005A46002A0CD0124A1249D21A083A500234
:103FB000400D01439980104952080A43DA808DE789
:103FC0004446DEE7240100D000ED00E0CD01001002
:103FD000BC17002000E100E080E100E080E200E0AA
:103FE0007A2E002001BDFFFFAAAA000001BD00003B
:103FF000F617002000F0FFFF00F8FFFF10B50323C5
:1040000004009C430340FF20054ADB00944698408F
:1040100099406444226882430A43226010BDC0462E
:1040200000E400E0F0B5EFF3058101240443EFF371
:10403000108672B6214A1368002BFCD0BFF35F8F45
:104040001F4B204A0500ED1A6D416A43120D1E4DAB
:104050008900AF6852B27F58A7421CD0062159563A
:1040600091421CD012215956914222D01E215956FC
:10407000914220D02A2159560324914210D0134B4B
:1040800019781A708171BFF35F8F00220B4B1A6091
:1040900086F31088F0BDAB680D4C5C50EFE7002450
:1040A0006100091989005B18FF21997109499980FC
:1040B000E5E70124F4E70224F2E7C046240100D03A
:1040C000BC170020AAAA000000ED00E07A2E002014
:1040D000CD01001001BDFFFF054B064A1360064AE3
:1040E000136053609360D3601361536193617047B1
:1040F0008080808000E400E004E400E000B5074B2D
:1041000083B001000093002205230548FFF7D4FC8B
:10411000002801DB1F23181A03B000BDF83201107C
:10412000802E0020024B9C4661448900016070474C
:104130004000003410B50400FFF71AFD0100200014
:10414000FFF7F0FFFF232371BFF35F8F10BDC04661
:1041500010B50400FFF70CFD01002000FFF7E2FF9F
:10416000FF23A380BFF35F8F10BDC04610B50400CE
:104170000120FFF709FD044B9C466044800020604D
:10418000BFF35F8F10BDC04640000034034B9C4618
:10419000614489000160BFF35F8F704740000034C5
:1041A00070B506000D00140000291ED0002A1ED094
:1041B00073688068984763006A001B195219033BB3
:1041C000033A3168002808D0CB188A189D701178FE
:1041D00000290ED11470280008E08A18CB189470BA
:1041E0001978002900D051701D70200070BD0800A2
:1041F000FCE7597028001470F8E7C04683680B4844
:1042000010B5844661446244090112019A18591894
:1042100054684B6801209C4201D802D00020C0B2F3
:1042200010BD12680B689A42F9D8F7E7FFFFFF0F3D
:104230000A4B1968EFF3108072B60A68002AFCD0A6
:10424000BFF35F8F1B68BFF35F8F00221A6080F39C
:10425000108840BF002000217047C046382E002043
:10426000F8B54746CE4680B514001D000BAA0AAB30
:1042700012781B78804691460768002B12D1BE7BCE
:10428000002E44D0720092193968033A8918487890
:104290003300B873002800D1F8730020887048708C
:1042A000087003E01E005A00D218033A1A49380079
:1042B0008C464146896863448C461B0108996344D7
:1042C000996009991C605D60D9603B689C46002339
:1042D0006244937053701370797B3200FFF760FF74
:1042E0007873B04213D143462200187D2B0000F0B2
:1042F000AFFB041E07D04B46002B04D143463100D0
:10430000186800F023FF0C9B002B00D01C703000BD
:104310000CBC90469946F8BDFFFFFF0FF0B5DE4696
:1043200057464E4645460023E0B58BB00893684B90
:104330008200D45800239B46099000F0F7FA626887
:10434000EFF3108572B61368002BFCD0BFF35F8FBC
:1043500023689C465B7B9946002B00D16DE0A268E8
:104360005C4B90464B441B01984443461E685F6873
:1043700032003B00121A8B41002B00DC67E0320058
:104380003B00099800F064FB0023002298460023BC
:104390000692079300239A466368BFF35F8F5A46DD
:1043A0001A6085F310885346002B08D10028C4D129
:1043B0000BB03CBC90469946A246AB46F0BD089B6C
:1043C000414618024B461843D047626806000F006A
:1043D000EFF3108572B61368002BFCD0BFF35F8F2C
:1043E000002F52DB33003B4302D02369002B63D103
:1043F0002368DA7B002A07D051008A1819688C4696
:1044000049466244033A51709A7B002A01D14A46D8
:104410009A734A46DA73E2684B469446013B63441A
:104420001A7801321A705B4623616368BFF35F8FAD
:104430005A461A6085F310887FE7002300229846C9
:10444000002306920793002300209A46A4E7002B3E
:1044500002D1002A00D092E70021604600F094FDCE
:1044600043461A685B680692079343469B689A46E0
:104470004346DB689846E3684B44013B1B7808934E
:104480001B0203432361002086E72369002BAFD082
:10449000069A079B921BBB41002B15DB59460491E2
:1044A0000121039149460291414601915146200064
:1044B0000091FFF7D5FEB6E700F038FA32003B0076
:1044C00012184B41002BE9DA0122034B5242E5E777
:1044D000102E0020FFFFFF0FFFFFFF7F10B5144CD1
:1044E0006368002B04D00A211248FFF71BFE10BDA1
:1044F0002300114A1021206800F064FB032000F023
:1045000009FA032000F010FB0C49032000F05AFACE
:10451000FFF72EFB0A4B9C4603232375D0231B0673
:104520001B6860446375074B80006060DC60DAE7FD
:1045300004180020382E0020FD4100101D430010FB
:1045400040000034102E002000487047041800205E
:10455000F0B54E4657464546DE46E0B583B000927C
:1045600001930EAB1B78070099460023002698465E
:104570007A68EFF3108A72B61368002BFCD0BFF391
:104580005F8F3D68AC7B002C00D168E063001B1995
:104590002A68033BD2185178A346A973002900D199
:1045A000E973967056701670B968384A8C46009850
:1045B0000199A21812016244106051600C99280000
:1045C00091600D99D1602A68944663449E705E7034
:1045D0001E70697B2200FFF7E3FD6873844244D0BC
:1045E000FB681B19013B18787B68BFF35F8F1E6067
:1045F0008AF31088002C45D04346002B09D15B4636
:104600000002184303B03CBC90469946A246AB4614
:10461000F0BD4B46002B26D00C9B0D9900209847EF
:1046200003000B431FD004000D1E09DA009A019B02
:10463000121BAB4100920193002B09DBC84697E7A0
:1046400000F074F924184D4100940195002DF5DA1D
:1046500001230F4C5B4200930194C84688E7002376
:1046600000209B46C0E70020CCE7387D009A019BE4
:1046700000F0EEF980460028B2D02100386800F042
:1046800065FDADE701204042BCE7C046FFFFFF0FDC
:10469000FFFFFF7F407D7047F0B504000D00062648
:1046A0007642F717C64636196F4100B584B08F427F
:1046B00014D811D000F03AF932003B00121A8B41A5
:1046C000002B15DC002B3ED02000290000F06AF9F9
:1046D00004B004BC9046F0BD8642EBD9002600270A
:1046E00000F024F932003B00121A8B41002BE9DD67
:1046F000002302930193154B3200009314483B00B2
:10470000FFF726FF0028DFDB00239846BC46114A4E
:10471000114F7B6A9C4504D8B96AB142D4D29C45FA
:10472000D2D11168EFF3108072B60B68002BFCD069
:10473000BFF35F8F1368BFF35F8F4146196080F34B
:10474000108820BFE5E7002ABED0D1E73142001033
:1047500004180020382E00200040054070B50600E7
:1047600000F0E4F8FA2204000D009200002330006B
:10477000002103F053FE00196941002902DBFFF715
:104780008BFF70BD012001494042F8E7FFFFFF7F2A
:10479000F0B5EFF30583CE46474680B5050085B0FA
:1047A0000C00002B11D02B4A0020536AA34207D3E0
:1047B000926A0130AA4203D21C1B601E8441E0B2FF
:1047C00005B00CBC90469946F0BD234E0293019370
:1047D000224B0200009330000B00FFF7B9FE0028C7
:1047E000E1DD20BF7268EFF3108772B61368002B0B
:1047F000FCD0BFF35F8F3368C1B29C466246FF2393
:10480000527B03408A420BD05A009146624612689E
:10481000994490464A464244033A9278002A10D07E
:10482000F268000A90464344013B1A78C0B28242C3
:104830000CD07368BFF35F8F00221A6087F3108873
:10484000B1E733699842F4D13261F2E7604600F093
:104850007DFCEEE7004005400418002031420010C6
:10486000F8B5EFF30582CE464746100080B5103804
:10487000EFF3108C72B6204C2368002BFCD0BFF3F2
:104880005F8F0123190081401C4D1D4E716329600B
:104890001C4DA9462D782F00C7403B4015D0736AA8
:1048A000194E984683009E59B04517D3174A8D4339
:1048B0009B584A461570BFF35F8F002222608CF32D
:1048C0001088002B06D0984704E0BFF35F8F236069
:1048D0008CF310880CBC90469946F8BD0C4B9200A6
:1048E0009846424413681360BFF35F8F0023236030
:1048F0008CF31088EEE7C046280100D03C700540DC
:10490000004005407F2E0020502E0020042800206B
:10491000D03F054010B50100024A0348FFF7AAF84E
:1049200010BDC04620330110782E0020044A516A81
:1049300000E01900906A536A9942FAD17047C04664
:1049400000400540164A70B5546A00E01C00956AA4
:10495000536AA342FAD12A00230080185941050066
:104960000E008C4202D819D1824217D901220125AA
:104970006D42EE1752420A4C636A9342FCD39A424C
:104980000BD1074B2800996AA94203D305E0996A25
:10499000814202D2596A9142F9D070BD3200EAE7F1
:1049A00000400540064A536A9942FCD807D1044B9F
:1049B00002E05A6A914202D19A6A8242F9D3704760
:1049C0000040054070B504000D00EFF3108672B68C
:1049D0001A4A1368002BFCD0BFF35F8F002D1BD049
:1049E0002000FFF71DF9164988420AD02000FFF782
:1049F0001FF901212000FFF7D7F80123A340114A36
:104A00001360114BA400E550BFF35F8F00220B4BE6
:104A10001A6086F3108870BD0B4BA200D55001229E
:104A2000A2400A4920000B7893430B700449FFF71A
:104A30000DFA00212000FFF7B7F8E5E7280100D0C4
:104A40006148001038600540042800207F2E0020B7
:104A5000F0B5D6464F4646462E4CC0B5656A00E0D6
:104A60000D00A66A616AA942FAD1AB4209D806D004
:104A7000012420001CBC90469946A246F0BDB242DB
:104A8000F6D9EFF3108972B6234C21680029FCD0C7
:104A9000BFF35F8F0126214986408C460978204D5F
:104AA0000F0037438846F9B28A46614654460C7077
:104AB0001849041DA4004E636250840063510D6ABE
:104AC000002435421AD04D6A00E025008F6A4C6AF6
:104AD000AC42FAD1AB4219D801D1BA4216D8C2457C
:104AE00016D00C4B0F4A1E625E631F2318401E3BFC
:104AF000834013606346424601241A70BFF35F8F00
:104B00000022054B1A6089F31088B2E70024F5E70C
:104B10000124F3E700400540280100D07F2E00204B
:104B2000502E002080E200E010B5EFF3108472B642
:104B30000A490B68002BFCD0BFF35F8F0123834031
:104B4000074A0848136202789A430270BFF35F8FE6
:104B500000230B6084F3108810BDC046280100D0EC
:104B6000004005407F2E002070B506000D001400A7
:104B700000291ED0002A1ED0736880689847630001
:104B80006A001B195219033B033A3168002808D008
:104B9000CB188A189D70117800290ED11470280046
:104BA00008E08A18CB1894701978002900D0517049
:104BB0001D70200070BD0800FCE7597028001470BB
:104BC000F8E7C046F0B5DE4657464E464546E0B5E6
:104BD0008360002389B04260026806914373C9B2C2
:104BE0000133059101738373C1730492012900D8C5
:104BF000A4E00A004B1ED9B2931E0791072B00D8E0
:104C0000AEE00025CB080393049B564C591C564B31
:104C100056489B46564B9A46564B9C46564B0293DB
:104C2000524663465F465E4662401A40504B2740FC
:104C3000FB185A40064053460196664643403340AF
:104C40004B4E0A70B046019E0135B146C8444646F7
:104C500073401604360ECE701602120E4A721A04F3
:104C6000120E0B73CA731A021B0E4B75029B360E83
:104C70005C4063461C40404B120E9846029B4744E2
:104C80005840634618404B4643445840039BEDB29E
:104C90008E718A747C401831AB42C1D107990723C9
:104CA0000A009A43531CDBB2914247D0049C5A003D
:104CB000A446D218591C6244059DC9B2033A5170EA
:104CC0008D423BD94A005218981C6244C0B2033A44
:104CD0005070854232D942001218D91C6244C9B2C0
:104CE000033A51708D4229D94A005218181D624466
:104CF000C0B2033A5070854220D942001218591DA3
:104D00006244C9B2033A51708D4217D94A00521811
:104D1000981D6244C0B2033A507085420ED94200D9
:104D20001218D91D6244C9B2033A51708D4205D997
:104D30004A0052186244033A08335370FF23069A1C
:104D400013405900C918049B9C4600236144033951
:104D50004B7009B03CBC90469946A246AB46F0BDAC
:104D60000123A3E7010203047F7F7F7F0506070875
:104D700001010101808080800808080870B50400E6
:104D8000002907D04B0000685B18033BC3185A7812
:104D9000002A01D1080070BD5500AD18033D40192F
:104DA0000025467845705D702000FFF7DDFE31007C
:104DB00005002000FFF7E2FF290002002000FFF7B6
:104DC000D3FE0100E6E7C046F0B54E464546DE4656
:104DD0005746E0B50E0074000168A41985B0033C85
:104DE00001920A1905001078002850D043001B18C2
:104DF000033BCB185F78BC46002F1AD1019C002CD6
:104E000042D0EC7B002C04D063001B19CB18033B71
:104E10005E70AB7B002B00D1AE73EE7300282FD1F8
:104E20000023537005B03CBC90469946A246AB4661
:104E3000F0BD7A006244033A89184A78934600220A
:104E40004A7090465A7001003A002800FFF78CFE25
:104E50005B468146002B07D05B0029685B44033B1F
:104E6000CB185A78002A16D15A4649462800FFF72F
:104E70007BFE2968019B0A19002BC2D10028CFD0E4
:104E800043001B18033BCB1800219970C8E7019B16
:104E9000002BB6D1C4E750008018033809184878B1
:104EA000824640464870587059462800FFF75CFE1D
:104EB00053468346002B07D05B0029685344033BCD
:104EC000CB185A78002A06D1594652462800FFF7D7
:104ED0004BFE8346C8E75000801803380918404647
:104EE0004F7848705870514628000297FFF73CFEF3
:104EF0008246002F08D0BC467B0029686344033BF0
:104F0000CB185A78002A06D15146029A2800FFF79A
:104F10002BFE8246D8E75000801803380918404617
:104F20004F7848705870029928000397FFF71CFECD
:104F30008046002F08D0BC467B0029686344033BB1
:104F4000CB185A78002A06D1039A41462800FFF769
:104F50000BFE0290D8E703205043033809180020C5
:104F60004F784870587003992800FFF7FDFD39000D
:104F700002902800FFF702FF029902002800FFF7C5
:104F8000F3FD0390E0E7C046F0B54E464546DE46E9
:104F90005746E0B5467B040075000068AD19033D37
:104FA00085B0421901911178002952D04B005B184D
:104FB000033BC3185F78BC46002F1CD1019D002D18
:104FC00044D0E57B002D04D06B005B19C318033B74
:104FD0005E70A37B002B00D1A673E673002931D14C
:104FE000002330005370617305B03CBC9046994675
:104FF000A246AB46F0BD7A006244033A801842787C
:1050000093460022427090465A7020003A00FFF703
:10501000ABFD5B468146002B07D05B0021685B44FB
:10502000033BCB185A78002A17D15A46494620002C
:10503000FFF79AFD019B010020684219002BC0D1A7
:105040000029CDD04B005B18033BC318002098709B
:10505000C6E7019B002BB4D1C2E75000801803388B
:1050600009184878824640464870587059462000D2
:10507000FFF77AFD53468346002B07D05B0021687B
:105080005344033BCB185A78002A06D1594652465E
:105090002000FFF769FD8346C7E7500080180338FA
:1050A000091840464F7848705870514620000297C2
:1050B000FFF75AFD8246002F08D0BC467B002168CE
:1050C0006344033BCB185A78002A06D15146029A12
:1050D0002000FFF749FD8246D8E7500080180338CA
:1050E000091840464F78487058700299200003977D
:1050F000FFF73AFD8046002F08D0BC467B002168B0
:105100006344033BCB185A78002A06D1039A4146E0
:105110002000FFF729FD0290D8E703205043033811
:10512000091800204F784870587003992000FFF745
:105130001BFD390002902000FFF720FE02990200BB
:105140002000FFF711FD0390E0E7C04670B50400B2
:1051500000292CD0437B8B422ED005684800401894
:10516000033828188278002A21D053009B18033B6B
:10517000EB181A788A4202D11BE0002A08D05300AB
:105180009B18033BEB185A788A42F6D142785A7042
:1051900000230122837043702000FFF715FE617B1E
:1051A00002002000FFF7E0FC6073012000E0002017
:1051B00070BD42781A70EBE701221900FFF704FE78
:1051C00060730120F4E7C046F8B5CE4647460400B8
:1051D00080B506200D0000F03DFB061E52D0524B5C
:1051E0005249E3185A4253418022D20394465B420B
:1051F00013404F4A634413604E4A136018008A6894
:105200009043FBD1484B8021E3185A4253414A4A0C
:105210005B0049000620995200F01CFB2900C000E9
:1052200002F0E2F8C30932D1402290463F3A62626E
:10523000A362266BF30736D427008025E36A002398
:105240002C376D013D432B600620266300F002FBE6
:105250004146800002F0C8F8236B06009846DB0741
:105260003BD46022E36A5A406E2313402B604346CE
:105270002363802310229B013B431A602F4B23633F
:105280000323A36430000CBC90469946F8BD2C4A19
:1052900093423FD900232B4A90462B4A6262A36275
:1052A000266BF307C8D52200C02330329B0113437D
:1052B000224A06201A60656AA36AAD01ED1800F063
:1052C000C9FA224902F090F8AD020100280002F06C
:1052D0008BF80021FFF736FBAEE72200C023303207
:1052E0009B011343154A06201A60636AA26A9B0158
:1052F0009946914400F0AEFA4B4614499B029946F8
:1053000002F072F80100484602F06EF80021FFF743
:1053100019FBA6E77F2210409A0190460130400811
:105320001A008044030082E70080FCBF00C00040F8
:1053300000E0004000F00040A02E0020010300002B
:10534000FEFF0000C0FF3F00FFFF00004E0E000008
:10535000F8B5013A4C1F6401D20005001443002B3C
:1053600005D002222243012B2AD105331C432E6B88
:10537000F3070BD4E96A2A00802361406E242C32A3
:105380005B010C4013431C602E63F8BD2A00C02350
:1053900030329B0113430B4A06201A606F6AAB6AD6
:1053A000BF01FF1800F056FA074902F01DF8BF02CE
:1053B0000100380002F018F80021FFF7C3FAD9E71E
:1053C0001400D4E7010300004E0E0000F8B50C00F5
:1053D000611E8C41066B05002401F3070BD41023DA
:1053E000E96A2A004C401C4080232C325B011343A5
:1053F0001C602E63F8BD0200C02330329B011343B2
:105400000A4A1A60476A836ABF010620FF1800F043
:1054100021FA074901F0E8FFBF020100380001F05E
:10542000E3FF0021FFF78EFAD9E7C0460103000031
:105430004E0E0000F0B5DE46574645464E46E0B5F6
:1054400083B017000C9A05008B469A4200D973E08E
:105450001A0E92461E020C9A00233000514602F0AA
:1054600001F8454B6C009C466419A40064446368D1
:105470008046834200D260602B1FDAB2C0239B01BA
:1054800001922343012A35D9802212011A603B4B35
:10549000AD0059599946002950D04B46586901F042
:1054A000A3FF431C5800C0180338FDD223687F01B6
:1054B0007B40E0271F408023019A5B0123431F604C
:1054C000012A2CD9802380229B01234312011A60D8
:1054D00043464246636030000023514601F0C2FF5C
:1054E0004B465851012003B03CBC90469946A24619
:1054F000AB46F0BD5A46012A2AD0802212011A601A
:105500001E4BAD00595999460029C6D123687F0129
:105510007B40E0271F4080235B0123431F605A46E6
:105520002168514003220A401A6001225B469A40DA
:10553000A3681A42FCD0C5E70020D4E723687F01A6
:105540007B40E0271F4080235B0123431F60B9E7B6
:1055500002321A60023AA3681A42FCD023687F0123
:105560007B40E0271F408023044A5B0123431F60E8
:105570009146AD00D3E7C046008000403C290020A2
:1055800030B50C2083B000F0BBF9FEF755FA0028C7
:105590000ED0994B994A1A605A609A60DA601A6183
:1055A0005A619A61DA611A62954A5A6203B030BD53
:1055B000944CA06700F03AFA0122934B1A60636C96
:1055C000012BFCD10322914B1A608E4A936B012B65
:1055D000FCD1013300938E4A043301218D4800F041
:1055E0003FF905238C4A009301218C4800F038F9DB
:1055F0008B4B5A68FF2A02D8802252005A608022C0
:105600007D4C824B21691201854D1A60002907D01B
:10561000606901F0E9FE431C5800C0180338FDD250
:10562000E0217F4B02201A681140802252012A4358
:1056300011601968484003210140116004219A68F3
:105640001142FCD08022802192012A43090111607D
:10565000802252005A60734B2361734B5968FF29B3
:1056600000D85A6003227048674B01211A6002007B
:1056700093681942FCD0E02513681D4080235B012C
:1056800003431D6012684A40032111401960022142
:10569000654A93681942FCD0802380219B01034313
:1056A000090119608021614B490051606361604BC1
:1056B0005A68FF2A00D8596080225E4BE1691201C6
:1056C0005B4D1A60002907D0606901F08DFE431C14
:1056D0005800C0180338FDD2E02255490B681A4023
:1056E00080235B012B431A60802380229B012B4384
:1056F00012011A608022414B52004A60E3614E4B16
:105700005968FF2900D85A6080224C4B216A120147
:10571000494D1A60002907D0606901F065FE431CFD
:105720005800C0180338FDD2E02243490B681A40E4
:1057300080235B012B431A60802380229B012B4333
:1057400012011A6080235B004B602C4B3C4A2362A1
:105750003C4B5968914201D801325A6080223A4B41
:10576000616A1201374D1A60002907D0606901F0A3
:105770003BFE431C5800C0180338FDD2E0223149DB
:105780000B681A4080235B012B431A608023802220
:105790009B012B4312011A608023DB024B60184BE4
:1057A00063622A4B5A68FF2A02D8802252005A604C
:1057B0008022274BA1691201244D1A60002907D0CD
:1057C000606901F011FE431C5800C0180338FDD277
:1057D000E0221E490B681A4080235B012B431A60AC
:1057E000802380229B012B4312011A6080235B00DF
:1057F0004B600E4BA361D9E63C290020006CDC0213
:105800001BB70000008000403CB0004030B00040BA
:10581000002F685900800240008C864700C002407B
:1058200030800040001BB7003C80004040597307A7
:105830005480004054B000406080004060B00040A0
:10584000FFFF03006C8000406CB0004048800040C7
:1058500048B00040014B8000C05870473C290020F0
:10586000F8B50400214817001E000D0001F0BCFD32
:105870000100380001F0B8FD069A33041203134307
:105880002268002A21DB1A4A1A4EA21851424A41C4
:10589000802149018C4652420A40174962440A60FD
:1058A00016490A601700B1688F43FBD1C021221D41
:1058B0008901114321222560A0600A602268002A24
:1058C000FCDAE36008230B60F8BD3F2221680A4040
:1058D000AA42D8D1A2681205120D8242D3D1EE217C
:1058E000E268C9020A409A42CDD1EDE7001BB70039
:1058F0000040FDBF00C0004000E0004000F000405C
:105900008023024A9B000343D36270470080054016
:10591000184B194A10B5DA618022184BD2051A606B
:10592000174C184A146000291BD0E022164BD204F1
:105930001A60002804D18022134B12061A6010BD91
:1059400043011B1A9B001818104B000198420CD8F9
:105950000F4B18608022074BD20558600A4B1A6023
:10596000EDE7E022D2041A60E3E7094A1800136069
:10597000F0E7C046008005402131B76A00B005401D
:10598000FCFF01000820014000A00540FFFFFF00D0
:10599000EC2D002010B580241B4BE4051C60002872
:1059A0002BD00123194C1843194BDC61194C44408E
:1059B0001C62596298628021134BC9051960164810
:1059C00016490860E021C9041960002A04D1802228
:1059D000134B12061A6010BD53019B1A9B009A18B4
:1059E000104B12019A420BD80F4B1A60084B5A60A9
:1059F00080220B4BD2051A60EDE7054BD861DAE740
:105A0000094A13601A00F1E700B00540D3C007B09F
:105A1000008005402D3FF84FFCFF010008200140A9
:105A200000A00540FFFFFF00EC2D0020AA23064A3E
:105A30001B0113602F230549D360054B1960536880
:105A4000002BFCDA7047C0460040024000B0FA006C
:105A5000006002402D4B2E4A70B51A602D4A2E4B25
:105A60002E491A6010008B689843FBD12C4C2D4BAB
:105A70009C4209D2013B1D1BAD080135AD002D191B
:105A800008CC9847AC42FBD1FFF77AFD264A224B5F
:105A90001A60224A9368DB018033FBD14022234BFA
:105AA000234D24489A675A671A67DA66A84205D3D5
:105AB0000EE0FEF74DFB2000AC4209D20400036863
:105AC0000834002BF5D1FEF735FB2000AC42F5D3AE
:105AD000194C1A4DA168C022280002F035FEA560BD
