:020000041000EA
:1000000000B5324B212058609868022188439860DF
:10001000D860186158612E4B002199600221596106
:100020000121F02299502B49196001219960352056
:1000300000F044F80222904214D00621196600F024
:1000400034F8196E01211966002018661A6600F04E
:100050002CF8196E196E196E052000F02FF8012189
:100060000842F9D1002199601B49196000215960AB
:100070001A491B48016001219960EB211966A021F2
:10008000196600F012F800219960164914480160C1
:100090000121996001BC002800D000471248134993
:1000A000086003C880F30888084703B5996A0420EC
:1000B0000142FBD001200142F8D103BD02B5186610
:1000C0001866FFF7F2FF186E186E02BD00000240BE
:1000D000000000180000070000035F00212200005C
:1000E000F4000018222000A00001001008ED00E03C
:1000F00000000000000000000000000074B24E7A12
:1001000000200420F7010010C3010010C5010010F9
:10011000C1010010C1010010C1010010C101001097
:10012000C1010010C1010010C1010010C701001081
:10013000C1010010C1010010C9010010CB01001065
:10014000CD010010CD010010CD010010CD01001037
:10015000CD010010CD010010CD010010CD01001027
:10016000CD010010CD010010CD010010CD01001017
:10017000CD010010CD010010CD010010CD01001007
:10018000CD010010CD010010CD010010CD010010F7
:10019000CD010010CD010010CD010010CD010010E7
:1001A000CD010010CD010010CD010010CD010010D7
:1001B000CD010010CD010010CD010010CD010010C7
:1001C00000BE00BE00BE00BE00BE00BEEFF3058054
:1001D000103800BEF2EB8871404801106C480110E5
:1001E0003402001090A31AE700201F49086006C8D7
:1001F00081F3088810471D48006800282FD10DA4FE
:100200000ECC002902D000F012F8F9E71849194A7B
:10021000002000E001C19142FCD1174988471749ED
:1002200088471749884700BEFDE701C901C29A42C5
:10023000FBD370476C480110C0000020D42300207D
:10024000806B01100000042000000420806B01106E
:10025000001004200010042000000000704709482E
:1002600007F01CFA0047000008ED00E0000000D095
:10027000D8230020CC320020B55D0010913400104E
:10028000E15E00105756000006005250ABB36053B9
:100290000439011006005250861C03021439011063
:1002A000060052505422A29D2039011005005250E0
:1002B000DE65F468806B0110F8B5C0460448054B54
:1002C00010B5834203D0044B002B00D0984710BDDB
:1002D000D4230020D4230020000000000648074952
:1002E000091A8910CB0F591810B5491003D0044BC7
:1002F000002B00D0984710BDD4230020D423002029
:100300000000000010B5074C2378002B09D1FFF73F
:10031000D5FF054B002B02D0044800E000BF0123AD
:10032000237010BDF024002000000000282B0110D5
:10033000054B10B5002B03D00449054800E000BF71
:10034000FFF7CCFF10BDC04600000000F4240020E1
:10035000282B011070B5002800D070BD8025D02456
:10036000AD042E001930240603F0F8FC65626661C6
:10037000322004F0A3FBFA20A561400004F09EFBAC
:10038000F5E7C046F0B5DE4657464E464546040002
:10039000431E9841E0B515008BB0C0B20E00FFF7C8
:1003A000D9FF2800431E9841C0B2FFF7D3FF5C225B
:1003B0000021200008F076FB5548A564A660606027
:1003C00054490BF0A1F90121206260680BF07EF91D
:1003D000E061A06803F0C2FC4F4A6368944663443E
:1003E00019004B1E9941A068063103F031FCE36906
:1003F00080229946236A52029A46A36806AD98461F
:1004000000239B460593F8235B0202920393C023CB
:1004100002A91B03102228006768049308F048FB18
:1004200052460C3213035246D201134329001022C4
:1004300002A8079308F03CFB384B42460493802304
:100440009B031343344A0593BE18731E9E41063620
:100450003100404603F0FCFB424631000126501CAF
:1004600003F0F6FB009642464946380002230BF0A3
:10047000AFF9802252029046029202AA1300494626
:10048000524638000BF0FCF94A4696403B685A4603
:100490001E43F8235B02EA6042460793C0233E6096
:1004A000266A06921B032900102202A8089308F06E
:1004B000FFFA33000C33F2011B03134302A910228D
:1004C0002800039308F0F4FA23000C3307CD07C388
:1004D000134A636960681A40124BE1691343636110
:1004E0002B68114A1340A26852011343802212055F
:1004F0001343A361230032000C330BF0C1F9002039
:100500000BB03CBC90469946A246AB46F0BDC046F7
:1005100000002050282B01100000E0AF00000E402A
:10052000FFFFF50100000A401FFCFFE3F0B5D646CF
:100530004F4646468046431E9841C0B5C0B282B081
:100540008A469146FFF706FFFA220023D200504662
:10055000002108F013F9434600259C6C4E46E30E3B
:100560006201121BAB41F71736184F41910F8C46B1
:1005700000920193990063461943009B980000196B
:100580006941CB0642091A43C40620001100FC074A
:10059000720822437B108018594132003B0007F05B
:1005A000F9F843465862FC231B069C46074B6044FF
:1005B00018605246434600201A654A465A6502B002
:1005C0001CBC90469946A246F0BDC046E42F0020D0
:1005D000F8B51D000600431E9841C0B21400FFF795
:1005E000B9FEF36C002B26D05133FF331F685E68D1
:1005F0003B00334307D1114B00201F685E683B006E
:10060000334303D1F8BD0D4B1F605E6000210C48E1
:100610000C4A00196941002307F0D4F83A0033006E
:1006200008F0ACF80023084A80185941054A002315
:1006300007F0B0F8E6E70020E4E7C046D824002041
:1006400020A1070040420F0050C3000070B5040015
:10065000431E9841C0B2FFF77DFE01221300E569F9
:100660006168AB40086803430B60A26570BDC0467B
:1006700010B50400431E9841C0B2FFF76BFE012283
:10068000E069616882400B6893430B600023A365B7
:1006900010BDC046F0B50024012305002000C64669
:1006A000AB42604100B5C0B20F001600FFF752FE2A
:1006B000E123F80F5B02BB426041C0B2FFF74AFE84
:1006C0001C23F00FB3426041C0B2FFF743FE354830
:1006D00008F090FC3900002D59D0334804F024FF75
:1006E0000820022103F0B4FA09202F4C022103F064
:1006F000AFFA9A210120890008F09CF98046431E38
:100700009841C0B2FFF726FE434642461D605F6037
:100710009E60264B30001A60254B10321A6003F0A1
:100720001DFB0123D022B340120693623000214BFF
:100730000122082103F0BCFAC023226B1B021A40DD
:10074000802623007601303333431A6020000023D3
:100750000122082104F0ACFF6B1E9D4120001435DE
:10076000002104F0E3FF2800134903F011FC2800E6
:10077000012103F0C9FB5023A363626B183B34349F
:10078000344313404046236004BC9046F0BD0B4800
:1007900004F0CAFE0020022103F05AFA074C01209F
:1007A000A4E7C046EC2B011000800340882F0020F6
:1007B0008C2F002085010020F10000200040034024
:1007C000F0B5C6460700431E984100B53C0084B012
:1007D000C0B2FFF7BFFD80225934FF3452002549D3
:1007E00020000CF0ADF9051E3BD099239B00FB5C6B
:1007F000002B2FD100211022684608F053F9280061
:100800000CF02AF90023002100249846844213D0DA
:100810002B191A780134E4B22C2AF7D142461A7007
:100820006B464E1CF6B25C540C2E05D028000CF022
:1008300013F931008442EBD16B46187A28180BF07B
:1008400081F807F0F1FA98239B00F85004B004BC3B
:100850009046F0BD802122004900074808F0CAFBFD
:10086000C8E780220549520020000CF069F9051EF6
:10087000ECD0BAE73C2C01104C2C0110442C011098
:1008800070B50400431E98410D008AB0C0B2FFF756
:1008900061FD2800431E9841C0B2FFF75BFD2000B8
:1008A0000CF0DAF80026062802D030000AB070BD3D
:1008B00028000CF0D1F80528F7D90C22002107A850
:1008C00008F0F0F8227901A8303A93009B18627979
:1008D0005B0034329B18A2780693303A93009B1841
:1008E000E2785B00313A9B1822780593303A930006
:1008F0009B1862785B00303A9B182A780493303A50
:1009000093009B186A785B00303A9B18AA7803938F
:10091000303A93009B18EA785B00303A9B182A79AA
:100920000293303A93009B186A795B00303A9B1827
:1009300001930BF01BFC0600B7E7C046F0B5DE469E
:100940004E4645465746E0B50500431E98412E00E9
:100950008BB0C0B2FFF7FEFC80225936FF36520042
:100960007C4930000CF0ECF8041E00D1D4E02B6B75
:1009700001332B6399239B00EB5C002B00D0C4E078
:10098000754B06AEDA689B68002190463000102255
:10099000994608F087F820000CF05EF8002300214B
:1009A00000279A46874213D0E3191A780137FFB21D
:1009B0002C2AF7D152461A704B1CDBB29B46775457
:1009C0000C2B05D020000CF047F859468742EBD19C
:1009D0003778E719FB786B747378E25C1300413B5E
:1009E00059424B412B74412A07D000200BB03CBC2C
:1009F00090469946A246AB46F0BDB3780222E11874
:100A000004A89B460CF05CF8002304AA1000937025
:100A10000AF09EFF5B468246981C20180AF092FF5F
:100A20005346009001916420584307F071F94B4AF6
:100A30000290039100980199494B07F0D2F8020007
:100A40000B000298039907F0C3F80022454B07F00A
:100A5000E6F8454B002207F0BBF807F0B9F9286229
:100A60006962F378E35C4E2B06D0532B60D10023F0
:100A700042428B412A626B6233790322E1189B4622
:100A800005AB9A4618000CF01BF85246002350465E
:100A9000D3700AF05DFF5B468246D81C20180AF02E
:100AA00051FF5346009001916420584307F030F9FC
:100AB0002A4A0290039100980199294B07F091F876
:100AC00002000B000298039907F082F80022254BE0
:100AD00007F0A5F8244B002207F07AF807F078F920
:100AE000A862E9627379E35C452B06D0572B22D1CB
:100AF000002342428B41AA62EB62F37AE3185B78EF
:100B00002A2B1BD00420404270E78021320049008C
:100B1000164808F06FFA33E780221549520030007A
:100B20000CF00EF804000020002C00D15EE71EE758
:100B3000022040425AE70320404257E7307A39000A
:100B40002018FFF79DFE4346AB614B466861EB61A1
:100B50004BE7C046082C01100040054033333333C7
:100B60003333E33F006AF8400000E03F182C0110E7
:100B7000102C011010B50400431E984182B0C0B281
:100B8000FFF7E8FB2178154808F034FA216A144889
:100B900008F030FAA269E3690092019311482269D2
:100BA000636908F027FAA26AE36A0F4808F022FA9C
:100BB000226B636B10200021801859414134CB0611
:100BC00042091A43FF344B09084808F013FA226817
:100BD0006368074808F00EFA02B010BD4C2B0110F4
:100BE000682B01107C2B0110A02B0110B82B0110D9
:100BF000D02B0110F8B507001000431E9841C0B279
:100C000016000D00FFF7A6FB0A20B84280414042C3
:100C1000FFF7A0FB90210120490007F00BFF040023
:100C2000431E9841C0B2FFF795FB88235B00A76085
:100C30002573E650124B134A1C600123AB40124946
:100C40001360002003F0A4F9104E0021002003F0EF
:100C500085FB0121002003F057F9B56A00212A0025
:100C600000230B4812184B4122606360084A237B23
:100C70009446043365449B009D512000F8BDC04656
:100C8000902F0020386005404D03002000400540B3
:100C9000204E00000023837343737047F0B5454630
:100CA0009046894ADE4657464E4692460322E0B5B4
:100CB00094460500013281460300934602208BB022
:100CC0000C3501911A782F2A1ED0110081433C293E
:100CD0001AD06746511C51440C7816003C40022C37
:100CE00007D13100FD3420392140203A0131D2B200
:100CF00051441A700A785946114205D161460A409A
:100D0000012A01D020221A7001339D42DAD100233A
:100D10004A46019F137349460C226C480BF0D0FEE3
:100D200038000BF099FE022302009A43042A00D1F6
:100D300082E001003A00664808F05CF90722654944
:100D4000380007F0B5FE38000BF086FE06284AD0C2
:100D50003900072260480BF0B3FE434641463C2B66
:100D600000DD3C2103AB9C46624600275B4B00261E
:100D700031CB31C231CB31C21B6849B21360584B01
:100D80006246DF5798463C0063460AAD0020105685
:100D9000013288421ED09542F8D1002E1FD1604604
:100DA00000241B3001229A568A4205DD00229A5601
:100DB000914201DB1700012401339842F2D1002C4B
:100DC00001D043461F700BB03CBC90469946A246EA
:100DD000AB46F0BD954257D00C000126D6E7270060
:100DE00042461770DBE703213B793E4C1A00E05C7A
:100DF0000140022902D1203B1A00DBB23B71413B8A
:100E0000172B4FD803217B79E05C1A00014002299F
:100E100002D1203B1A00DBB27B71413B172B97D9E3
:100E2000FF2305211A40304808F0E4F807222F4933
:100E3000380007F03DFE8BE703223B78294CE15C4C
:100E40000A40022A01D1203BDBB23B70413B112B0F
:100E500022D803227B78E15C0A40022A01D1203BA0
:100E6000DBB27B70413B112B28D8BB78E35C5B077E
:100E70000CD5FB78E35C5B0700D564E707221C49CF
:100E8000380007F015FE5EE70F00A9E707221849B2
:100E9000380007F00DFEECE707221649380007F08E
:100EA00007FED6E7FF2304211A400F4808F0A2F8F6
:100EB00007220E49380007F0FBFDA3E707220D4982
:100EC000380007F0F5FDD0E7903B01101C2A002008
:100ED000682D0110842D0110EC2E0020982C01109B
:100EE000DF2F0020913B01108C2D0110B02D01103F
:100EF000602D0110582D0110F0B557464E46DE46C4
:100F00004546E0B5C34F8DB03E7801903C2E00D1F0
:100F1000CCE22F2138000BF02DFD002801D100F08C
:100F2000FCFCC31B1D000293FB189E78202132009D
:100F300088468A4300D075E108AC073200212000C2
:100F400007F0B0FD2A00390020000BF0B9FD0321A5
:100F50002278B14B1600985C0140022905D1203E51
:100F6000FD310E40203A985DD2B22270420705D47E
:100F700003221040012801D01D3222700321627823
:100F8000985C16000140022905D1203EFD310E403B
:100F9000203A985DD2B26270420705D40322104015
:100FA000012801D01D3262700321A278985C1600DE
:100FB0000140022905D1203EFD310E40203A985DC6
:100FC000D2B2A270420705D403221040012801D0FA
:100FD0001D32A2700321E278985C160001400229BC
:100FE00005D1203EFD310E40203A985DD2B2E2702C
:100FF000420705D403221040012801D01D32E270BF
:1010000003212279985C16000140022905D1203E77
:10101000FD310E40203A985DD2B22271420705D4CC
:1010200003221040012801D01D3222710321627970
:10103000985C16000140022905D1203EFD310E408A
:10104000203A985DD2B26271420705D40322104063
:10105000012801D01D3262710321A279985C16002B
:101060000140022905D1203EFD310E40203A985D15
:10107000D2B2A271420705D403221040012801D048
:101080001D32A2710421894660784E461A5CE578CB
:1010900011408846AC462578A17803955D5D5A5C81
:1010A00035400595454692462279002D00D09BE2B9
:1010B00065465D5D6479AB460425A94655464E46B6
:1010C00035400495059D002D01D000F0F3FC41252D
:1010D000039E6D42AA46B146CA445546192D01D910
:1010E00000F035FE373EF5B2AA46EE005644B60093
:1010F0004546002D01D000F0B9FC41256D42A846BF
:1011000080444546192D01D900F090FD3738C0B212
:101110003618B000861904987600002801D000F037
:10112000B0FC08004138C0B2192801D900F078FDA0
:101130003739C9B2761871008919C800091858469C
:10114000400701D500F0A9FC60464138C0B219281B
:1011500001D900F071FD60463738C0B20A3908186D
:1011600041000918C8000918985C400701D500F033
:101170009DFC10004138C0B2192801D900F059FD7A
:10118000373AD0B20A000A3A121851008A181B5D89
:10119000D10052185B0701D500F084FC2300413BCD
:1011A000DBB2192B01D900F03EFD373CE3B20A3A1D
:1011B000D418029B9C4667447B781E00303EF6B2F2
:1011C000092E00D908E2154B9C466644F30100261F
:1011D000134A96574236F618019A23099370230B47
:1011E0005370230D1370B3019371B3085371B30A95
:1011F00013710023B602360F24013443D470D37127
:101200001372537293720DB03CBC90469946A2463D
:10121000AB46F0BD1C2A0020913B0110606A000023
:10122000DF2F0020DB788B4300D002E208AC0722DE
:101230000021200007F036FC029A390020000BF054
:101240003FFC03212278974B9446985C0140022989
:1012500006D16146FF2020390140203A585CD2B2C5
:101260002270420705D403221040012801D01D320C
:10127000227003216278985C94460140022906D1CD
:101280006146FF2020390140203A585CD2B262709A
:10129000420705D403221040012801D01D3262709C
:1012A0000321A278985C94460140022906D1614648
:1012B000FF2020390140203A585CD2B2A270420788
:1012C00005D403221040012801D01D32A270032151
:1012D000E278985C94460140022906D16146FF20DD
:1012E00020390140203A585CD2B2E270420705D45E
:1012F00003221040012801D01D32E270032122791F
:10130000985C94460140022906D16146FF202039AD
:101310000140203A585CD2B22271420705D4032220
:101320001040012801D01D32227103216279985C9E
:1013300094460140022906D16146FF202039014030
:10134000203A585CD2B26271420705D403221040A1
:10135000012801D01D3262710420050080466178A9
:101360005A5C1540A2780395985C0592424625790F
:101370000490AB462078E578A9461D5C1540AC4644
:10138000039D002D06D0049D013A2A40012A01D177
:1013900000F027FC4A469A5C049D924604221540C0
:1013A00062466479A846002A01D000F001FC41227F
:1013B0005242944684446246192A01D900F0C0FC86
:1013C0003738C2B29446D00060448000039A002AA5
:1013D00000D095E34122524294468C446246192A39
:1013E00001D900F07BFC3739C9B242464118880068
:1013F00040184000002A00D07EE3059A11004139D0
:10140000C9B2192901D900F066FC373AD2B2801866
:1014100042001218D10052185146490700D567E31F
:1014200049464139C9B2192901D900F051FC494650
:101430003739C9B20A3A51184A005118CA008A18F5
:101440005946595C490700D54EE359464139C9B25E
:10145000192901D900F039FC59463739C9B20A3A7D
:1014600051184A0052181B5DD10052185B0700D575
:1014700037E32300413BDBB2192B01D900F022FCFA
:10148000373CE3B20A3AD418029B9C4667447A7808
:10149000303A93009B185B009E19034B9C466644B0
:1014A000F30194E6913B01104AEA00000D2200216D
:1014B00008A807F0F7FA92233E21380006930BF0B4
:1014C00059FAC21B013A791C08A807920BF0F8FAE6
:1014D00006AA07A908A800F065FDB44B40049A7855
:1014E0005F781E78D9785C795A7094461A791F70A3
:1014F0009970DA701C715E71AD4B400CDD5D6D074B
:1015000000D550E141256D42A846B8444546192D05
:1015100000D9D3E3373FFFB2FD00A8464744BD00E2
:10152000A84665465F5D7D0700D5D3E26746413F2B
:10153000192F00D9C0E30A37FFB2B8444546AF00BF
:101540005D5C47447F006D0700D5C0E241256D42D8
:10155000AC468C446546192D00D9ABE33739C9B286
:101560007F187900C919CF00C9199F5C7D0700D584
:10157000AAE21700413F192F00D97BE3373AD2B2D4
:101580000A3989184A005218D1005218195D4907C2
:1015900000D596E221004139192900D968E3373C8A
:1015A000E4B20A3A12195400A2189B5DD40014192F
:1015B0005B0700D592E23300413B192B00D95BE376
:1015C000373EF6B20A3CA41900267A4BC0019E575A
:1015D0003F239E1B3618FFE51A00413A192A00D90D
:1015E0006CE2373BDEB2EEE5032556463540012D71
:1015F00000D05DE5654625712025039E257062714A
:10160000E170A07066705C1EA34621245D462C5DCF
:101610004D46254200D176E2444687260494059C37
:10162000D346A046B601140062468C4601000398DA
:101630005EE5002307AE2A003900300007930BF067
:101640003FFA290008AC01310722791820000BF07D
:1016500037FA4246B378934305D1F3707378B37089
:1016600033783270737003212278514B1700985CE5
:101670000140022900D17CE22270420705D40322F6
:101680001040012801D01D32227003216278985C3D
:1016900017000140022900D164E26270420705D4BC
:1016A00003221040012801D01D3262700321A2786C
:1016B000985C17000140022900D14CE2A270420759
:1016C00005D403221040012801D01D32A27003214D
:1016D000E278985C17000140022900D150E2E270E4
:1016E000420705D403221040012801D01D32E270C8
:1016F00003212279985C17000140022900D14DE2B4
:101700002271420705D403221040012801D01D3266
:10171000227103216279985C17000140022900D1EF
:1017200035E26271420705D403221040012801D03E
:101730001D3262710421894660784F461A5CE57853
:1017400011408846AC462578A17802955D5D5A5CCB
:101750003D400495454692462279002D2CD0032524
:1017600057463D40012D27D1654625712025029F12
:1017700025706271E170A07067705C1EA346212421
:101780005D462C5D4D46254200D0BCE244460394A4
:10179000049CD346A046140062468C4601003800E3
:1017A000A227FF0026E0303FB5E6C046EC2E002021
:1017B000913B0110DF2F002065465D5D6479AB46EB
:1017C0000425A94655464F463D400395049D002DEE
:1017D00000D0EAE14125029F6D42AA46B946CA44BB
:1017E0005546192D00D9B6E2373FFFB2FD00AA4693
:1017F0005744BF004546002D00D036E241256D42DA
:10180000A84680444546192D00D98FE23738C0B22A
:10181000381887003F1803987F00002800D021E285
:1018200008004138C0B2192800D97DE23739C9B261
:101830007F187900C919C80009185846400700D513
:101840000CE260464138C0B2192800D976E2604601
:101850003738C0B20A39081841000918C8000918F9
:10186000985C400700D5F6E110004138C0B2192855
:1018700000D961E2373AD0B20A000A3A1218510090
:101880008A18D1005218195D490700D5E0E12100FE
:101890004139C9B2192900D94CE2373CE1B230785C
:1018A0000A3A54181A5C520700D5CEE10200413AB8
:1018B000192A00D93CE23738C0B2C10009188900A2
:1018C000091870781A5C520700D5BBE10200413A52
:1018D000192A00D926E23738C0B24118B678CA00B2
:1018E00052189B5D920052185B0700D5A7E13300A8
:1018F000413B192B00D913E2373EF6B2DF4B961964
:101900001B78DF4A5BB2964200D865E1DD4A42337C
:1019100094466644F2019E185EE404218946DA4B3F
:101920007878FC781A5C029411408C464C469D5D98
:10193000B978254064465A5CA84692463A79002C0C
:1019400005D0032455462C40012C00D1E9E0029C2F
:1019500055461C5D7F79A346042425404446A9468C
:10196000002C00D036E141246442A046B0444446F5
:10197000192C00D9E8E1373EF6B2F400A0464644FF
:10198000B6006446002C00D015E141246442A44610
:1019900084446446192C00D9B3E13738C0B23018FA
:1019A0008600361848467600002800D009E1080075
:1019B0004138C0B2192800D9A1E13739C9B2761827
:1019C00071008919C80009185846029C400700D5C3
:1019D000F4E020004138C0B2192800D98DE1373C2D
:1019E000E4B20A3909194C006418E1006418995CE2
:1019F000490700D5EBE011004139C9B2192900D9D6
:101A000079E1373AD1B222000A3A52185400A218AA
:101A1000DB5DD40014195B0700D5D5E03B00413BEA
:101A2000DBB2192B00D964E1373FFFB2B4269749E6
:101A30000A3C0A78E419413A53079B1A9B009B1A07
:101A40008A785B009B1A4A78E3337343413A9600E5
:101A5000B618CA7876009E19303AB2180026874B1D
:101A6000D2019E574036B618FFF7B6FB3038C0B2E9
:101A70003618B000861904987600002801D1FFF7C7
:101A800050FB3039C9B2761871008919C80009189D
:101A90005846400701D4FFF757FB60463038C0B2C4
:101AA000FFF75CFB303CE3B2FFF781FB303AD0B28A
:101AB000FFF768FB039E303EFFF715FB744BFFF703
:101AC00086FB303CE4B26CE5303AD2B258E53039AE
:101AD000C9B245E56746303FFFB22EE5303EF6B26B
:101AE00070E5303CE3B2CDE459463039C9B2B6E4D2
:101AF00049463039C9B29DE4059A303AD2B286E4FB
:101B00003039C9B271E444460494059CD346A046DA
:101B1000140062468C4601003000A226F600FFF752
:101B2000E7FA029D1F343C707A713D71F970B8700C
:101B30007E7021275C1EE75D4C46D346E146C446D5
:101B40003C4200D0CDE0029101003000A2261700F7
:101B5000F6002A0015E7203FFD31203A0F40D2B2AF
:101B6000D85DABE5203FFD31203A0F40D2B2D85DC1
:101B700093E5203FFD31203A0F40D2B2D85D7BE59E
:101B8000203FFD31203A0F40D2B2D85DA7E5203F7B
:101B9000FD31203A0F40D2B2D85DC2E5203FFD3181
:101BA000203A0F40D2B2D85DAAE5029F303F1CE632
:101BB0003038FFF706FC3038C0B2F0E6303CE4B213
:101BC0000FE73039C9B2FAE6303FFFB22EE7303ABC
:101BD000D1B218E7303ECFE6F20141339E18FFF74D
:101BE000FBFA5A4662714A4622712022059D2270F4
:101BF000E570A170607021245A1E145D4246224295
:101C000048D1039A0591904662460100A2200392B2
:101C1000049A5C469246CB46C000A946FFF7D6FB25
:101C20002421FFF787FA2423FFF7C1FA2420FFF7C6
:101C30006FFA2420FFF7A6FA2420FFF78FFA303E30
:101C4000F6B25BE63038C0B247E63038C0B234E6B0
:101C5000303CE1B223E6303AD0B20DE6604630388F
:101C6000C0B2F7E53039C9B2E2E53038C0B2CFE5ED
:101C7000242496E4242283E42426A3E4DF2F0020F6
:101C8000FF7F00000080FFFF913B0110EC2E002041
:101C900000433500039A5C46904662460392049ADC
:101CA000CB469246059A0591010087209146800116
:101CB000FFF78CFB242153E424273EE4A225ED000A
:101CC000A8462EE42423FFF7DDFB2421FFF7C7FB02
:101CD0002421FFF7AFFB2422FFF799FB2421FFF714
:101CE00084FB1700029A0291010030008726B6019A
:101CF00047E624279AE6242185E6242471E6242158
:101D00005DE624204BE6444687270394049CD34693
:101D1000A046BF01140062468C460100029869E5A6
:101D20002426EBE52420D8E5242181E524206FE555
:101D30002420C2E52421B2E524209DE5242089E564
:101D4000A220C000FFF742FBA226F60019E6A22659
:101D5000F600FFF7CDF9A227FF004BE5F0B5DE4610
:101D6000454657464E46E0B50D001400E1B001006F
:101D700008A89B460AF068FE290003A80AF064FE42
:101D8000220003A908A8FEF789FF05A8FFF7B4F809
:101D900002AA17239446634498460021002505A80B
:101DA000037800269C466346B340012200248946FE
:101DB000DB1113406D001D43754B1F322B40012179
:101DC000013A1940D2B24C405B08002AF7D149468B
:101DD00060AB5B18513BFF3B1C706E4B0F002B4000
:101DE000994620234C1CE4B2019049460120014051
:101DF0004A404946013B4908DBB28946002BF4D1F1
:101E0000390060AFB9464C44513C0231FF3CC9B285
:101E100001982270A12902D80136082EC3D10130C1
:101E20008045BDD136AA0021019201274026022516
:101E300040E080246442A04601344022FF34C020A8
:101E4000A44652420D4201D1424660464C0703D59A
:101E50002020024352B2D0B20C0703D51020024317
:101E600052B2D0B2CC0603D50820024352B2D0B24F
:101E70008C0603D50420024352B2D0B20E4203D0E6
:101E80000220024352B2D0B2CC0902D0012010434A
:101E9000C0B2A12808D860AAD218513AFF3A1278E5
:101EA000019C01332254DBB2A12B0CD80131C9B201
:101EB000FF2908D03A000A409446BAD100244020B5
:101EC0004022A046BEE7019EA22231000CA806F0E7
:101ED000EFFDA2223049300006F0EAFD5B465B07C9
:101EE00044D134AB9C462D4B584699462C490CADF9
:101EF0002B6832680B4034685B000A4090461A0039
:101F000063404C460A4023406F6842445A4073681D
:101F10000F4074687F000B4098463B0067404C467A
:101F20000B40434427405F40083502604760083655
:101F300008306545DCD12820A02202AB019C1B188B
:101F40009B5CA15C5B005B1859468B5402AB013271
:101F50001B189B5CA15C5B005B1859468B5461B0FD
:101F60003CBC90469946A246AB46F0BD02AA9446B8
:101F700059462725CF240123013965446444EA5C8E
:101F8000E05C52001218CA540133A32BF7D1E6E7E4
:101F90005153D0F2473C61E4B42C01108080808022
:101FA0007F7F7F7F0B68F0B5DE469B461368D74A7C
:101FB000574694464E4645466344E0B504005B44AC
:101FC000820743D15A46180019000C2A39D91A251C
:101FD000A846023DAC460B3D1C221027AA46656868
:101FE0004646A946A5684944A946256848442D1A8D
:101FF000A9460500D5414B446B401D00F54108182A
:10200000C91A69400D006646F5411B18401A684020
:102010000500FD41C9181B1A6B401D005646F541CD
:102020004018C91A69400D00D5411B18401A684074
:102030000C256D42A946CB445D46C9180C340C2DC5
:10204000CDD85A469500B24A52599746C2074FD446
:102050005A46180019000C2A45D91A25A846023DEF
:102060001C22AC461027E58846462D04A946A588C3
:10207000AA466589D1442D044944A9462589AA4622
:102080006588D1442D044844A94625880C34AA46C5
:10209000D1444D462D1AA9460500D5414B446B400D
:1020A0001D00F5410818C91A69400D006646F54142
:1020B0001B18401A68400500FD41C9181B1A6B40E7
:1020C0001D000D26F5414018C91A69400D00D54183
:1020D0001B18401A68400C256D42A946CB445D464A
:1020E000C9180C2DBFD85A4695008A4A52599746AE
:1020F0005A46180019000C2A5DD91A25A846023D37
:102100001C22AC461027657946462D02A946A579C2
:102110002D04AA462579D144AA46E579D1442D0655
:10212000AA46657AD1442D024944A946A57A2D04D0
:10213000AA46257AD144AA46E57AD1442D06AA4674
:102140006578D1442D024844A946A5782D04AA46B5
:102150002578D144AA46E578D1442D06AA46D14433
:102160004D462D1AA9460500D5414B446B401D0034
:10217000F5410818C91A69400D006646F5411B185B
:10218000401A68400500FD41C9181B1A6B401D002C
:102190000D26F5414018C91A69400D00D5411B189C
:1021A000401A68400C256D42A946CB445D46C918CB
:1021B0000C340C2DA7D85A469500574A52599746C9
:1021C000E27A12068018A27A12048018627A120249
:1021D0008018227A8018E27912068918A2791204EE
:1021E000891862791202891822798918E278120610
:1021F0009B18A27812049B18627812029B1822780E
:10220000D31812220C00D4414840001B05001524AD
:10221000E54143405B1B07241D00E5415940491B34
:1022200010240D00E5414840401B05001C24E541F9
:1022300043405B1B5940D3410A3ACB1A5840D34123
:10224000C01A3CBC90469946A246AB46F0BDA26877
:102250009446604462689446226861449B18D0E7C3
:10226000A27812049B182288D318CAE72279891809
:102270002588ED1863881B045B19C2E7227A801851
:10228000A2885118E28812048918F1E7A2888918F7
:1022900022689B18B5E7227A8018DBE7228980182C
:1022A000D8E7A2681202120A8018D3E72268120245
:1022B000120AD318A5E722689B18A2E762681202E7
:1022C000120A891822689B189BE7227989182268CC
:1022D0009B1896E7A27912048918A2888918C7E783
:1022E000A27A1204801822898018C9E7228910185E
:1022F000628912041018A2885118E2881204511839
:102300002288D21863881B049B187AE7EFBEADDEE3
:10231000B82D0110EC2D0110202E0110F0B5DE4675
:10232000454657464E46E0B51F00604B9BB0984669
:1023300004000D0016001900282206A806F0B8FBBC
:1023400041462822283110A806F0B2FB0022584B43
:102350003000390005F03CFC564B06000F00200011
:102360002900002205F034FC249B0400013B0D00F1
:10237000092B00D994E0249B5B109B4600D192E08E
:1023800006AB9A464C4B059399460023984632E09B
:10239000002A5FD0009A019B3000390005F021FC33
:1023A00005F0CEFC4B46413018702900029A039B81
:1023B000200005F016FC05F0C3FC4B464130587078
:1023C000009A019B3000390005F0E8FD029A039B5A
:1023D00006000F002000290005F0E0FD01239C46C7
:1023E0000733E0449C46063BE2449C4604000D0053
:1023F000E144D84545DA53461A685B680092019378
:1024000010AA43469446DB0063441A685B68029254
:102410000393012342461342BAD0009A019B300035
:10242000390005F0DEFB0022244B05F0D1FB05F05E
:10243000ABFC4B4629001870029A039B200005F064
:10244000D0FB1E4B002205F0C3FB05F09DFC4B4664
:102450005870B5E7069A079B3000390005F0C1FBBC
:1024600005F06EFC059B413018702900109A119BF5
:10247000200005F0B6FB05F063FC059B4130587069
:102480009EE75B465B009B46059A00235946100079
:1024900053541BB03CBC90469946A246AB46F0BD97
:1024A00003239B466CE7044B0593EDE7582E011080
:1024B0000080664000805640F42E00200000484016
:1024C000F8B5CE46474680B51E000BAB1D7880465A
:1024D000431E98410F00C0B29146FDF73BFF380004
:1024E000431E9841C0B2FDF735FF3000431E9841AE
:1024F000C0B2FDF72FFF98210120490006F09AFA9B
:102500000400431E9841C0B2FDF724FF0C2241464F
:1025100020000AF0D5FA2000072239000C300AF01A
:10252000CFFA4B463200002126488A26E374FEF794
:1025300061FB7600A051431E9841C0B2FDF70AFF2F
:102540000999089B8C46A259634493518C230A999C
:102550005B00D15000221C4B1C4E1A60FF21283218
:10256000300006F09FFAA81C0A2105F0C5F8902358
:102570005B00E35C2D2B1ED00122AB009A5102239D
:1025800089008B512023FF33E35CFD2B0ED0A81D67
:102590000A2105F0B1F80323280089008B51083087
:1025A0000A2105F0A9F8042389008B5120000CBCF6
:1025B00090469946F8BD2A3BAD00AB5189000133E6
:1025C0008B51F3E7AB6A0A0010290020582F002036
:1025D000F0B54546DE464E4657460400431E984138
:1025E000E0B5C0B28DB00D00FDF7B4FE804A07AB78
:1025F000984643CA43C311681960918899809279BB
:102600009A71012D00D101E3022D26D0032D00D1B6
:1026100008E1042D19D13C2303AA13803E22754DF5
:1026200005AE2B707449681C32800AF07FF90222D3
:10263000310006F03DFA23002100704A143312786D
:102640000C3152B22800FFF789FB00200DB03CBCD2
:1026500090469946A246AB46F0BD8A235B00E258FD
:10266000043BD358DA6C98239B00D05806F06AF9E3
:102670000022634B05F0B5FA05F040FC257C614B68
:10268000413DEDB26A005219657CD200413DEDB288
:10269000AD185D4305F078FB80B245191A2128007A
:1026A00005F052F82800CEB21A2105F04DF81A2193
:1026B00005F04AF8CFB2A9212800890005F044F8B6
:1026C0001A2105F041F82800CBB24F49994605F090
:1026D0003BF8242105F038F8CBB2092900D8A8E24C
:1026E0003733DBB2902203AD5200A25C49466B70D7
:1026F00022232A704131FF33E35CE9702100AB7083
:102700000023293141374136FF312F716E719946CF
:1027100008684968AB7100223C4B05F080FA002242
:102720003B4B05F04CFA00223A4B05F05AFA05F003
:10273000E5FB92235B000600E0560F0005F0E8FA87
:102740000022354B05F044FA05F01EFBC0B28100B3
:102750000818C300390030009A4605F015FBC0B2D6
:102760001430282104F0C8FF542651444E4376000B
:1027700003362A49300004F0E7FF122104F0E4FF99
:102780004131CBB29A462649300004F0DDFF1221D8
:1027900004F0DAFF53464131CFB23F023B439A4641
:1027A000BE21300004F0D0FF0A2104F0CDFF5346D3
:1027B0003031CFB2300013213F041F4304F0C4FF77
:1027C0000A2104F0C1FF4B46303109060F4305973B
:1027D00005AF3B713000132104F0B6FF43461434BB
:1027E0005A56280023003900FFF7B8FA2DE7C046F3
:1027F000A82E0110AC2F00206C250020D72F002020
:10280000000034402C040000A8440000000059409F
:1028100000C072400000144000004940988500004C
:102820006C070000D14B21009B4618000AF07EF88F
:102830005B460222CE49C61A06F03AF92023FF333E
:10284000E35C05A930330B700023701C58444B70B7
:102850000AF0FAF88A235B00E258043BD358C549D2
:10286000DA6C98239B00D658301C05F0FBFF00283B
:1028700000D0E1E10023002798469946BE49301C6C
:1028800005F0F0FF002803D0072398469946BA4F79
:10289000BA49301C05F0E6FF002803D00A23984609
:1028A0009946B64FB649301C05F0DCFF002803D02E
:1028B0000D2398469946B24FB249301C05F0D2FF1D
:1028C000002803D0112398469946AE4FAE49301CDC
:1028D00005F0C8FF002803D0142398469946AA4F54
:1028E000AA49301C05F0BEFF002803D017239846E4
:1028F0009946A64FA649301C05F0B4FF002803D026
:102900001B2398469946A24FA249301C05F0AAFF06
:10291000002803D01E23984699469E4F9E49301C9E
:1029200005F0A0FF002803D02123984699469A4F2E
:102930009A49301C05F096FF002803D025239846BD
:102940009946964F9649301C05F08CFF002803D01D
:10295000282398469946924F9249301C05F082FFF1
:10296000002803D02B23984699468E4F8E49301C61
:1029700005F078FF002803D02F23984699468A4F08
:102980008A49301C05F06EFF002803D03223984698
:102990009946864F8649301C05F064FF002803D015
:1029A000352398469946824F8249301C05F05AFFDC
:1029B000002803D03923984699467E4F7E49301C23
:1029C00005F050FF002803D03C23984699467A4FE3
:1029D000391C301C05F0EFFE7849071C05F042FF5A
:1029E000774B9A46002800D02BE1002518707549D6
:1029F000381C05F037FF002803D00723524607256F
:102A000013707149381C05F02DFF002803D00A23EC
:102A100052460A2513706D49381C05F023FF002823
:102A200003D00D2352460D2513706949381C05F05B
:102A300019FF002803D01123524611251370654950
:102A4000381C05F00FFF002803D01423524614252C
:102A500013706149381C05F005FF002803D01723C7
:102A60005246172513705D49381C05F0FBFE0028FF
:102A700003D01B2352461B2513705949381C05F0FF
:102A8000F1FE002803D01E2352461E25137055491F
:102A9000381C05F0E7FE002803D0212352462125EB
:102AA00013705149381C05F0DDFE002803D02523A2
:102AB0005246252513704D49381C05F0D3FE0028D9
:102AC00003D028235246282513704949381C05F0A5
:102AD000C9FE002803D02B2352462B2513704549ED
:102AE000381C05F0BFFE002803D02F2352462F25A7
:102AF00013704149381C05F0B5FE002803D032237D
:102B00005246322513703D49381C05F0ABFE0028B3
:102B100003D035235246352513703949381C05F04A
:102B2000A1FE002803D039235246392513703549B8
:102B3000381C05F097FE002803D03C2352463C2564
:102B40001370301C05F0FEFE0B0049460200009198
:102B500001952D4806F04EFA2300210014330C3164
:102B600042465846FFF7FAF86FE5C0466C2500204C
:102B7000BC2E0110000061440040034500803B452D
:102B800000C0734500609F450080BB4500A0D7454D
:102B90000020FD4500A00C4600B01A4600702D46EE
:102BA00000803B460090494600505C4600606A4603
:102BB000007078460098854600A08C460000704260
:102BC000D72F002000000C43000048430000824340
:102BD0000000AA430000C8430000E6430000074489
:102BE0000000164400002544000039440000484419
:102BF0000000574400006B4400007A440080844485
:102C000000808E4400009644C02E01100A2321004B
:102C100005ADE3740C310422280009F051FF0023B4
:102C20002B7123000A22143329002000FFF796F8A5
:102C30000BE53033DBB255E50323044F9946984644
:102C40001CE6032352461370D1E6C04600006144DF
:102C5000F0B505006B1E9D41C6468A2604008827F4
:102C6000EDB2280000B57600FDF774FBA3597F0094
:102C7000D859C36C1A6B197C90468E225200A25C04
:102C8000002A67D14246002A00D19FE0002923D0C4
:102C90005B7C654A303B654F13609B009046DA5978
:102CA000511C0FD062490E68002E07D00026002A62
:102CB00004DD604A9E58002E19D00026300004BC66
:102CC0009046F0BD293200215A4805F0EBFE012262
:102CD000574B00261A60F1E71E23FF33826DE15C3B
:102CE000554800F025F9A359D859C36CD0E7012104
:102CF0009950FDF7ABFC43461B6820009B00D95957
:102D0000FFF766FC322001F0D9FE28008A256D000D
:102D1000FDF720FB6059431E9841C0B2FDF71AFB36
:102D2000635946485B59984280414042FDF712FB87
:102D30006059FDF7AFFF21006059A2220F30143116
:102D400005F0B6FEA22263595A731E23A03AFF3340
:102D5000E254B3E73A4B98461B68002B40D1394800
:102D600000F0E6F81E230222FF33E254A359D8599B
:102D7000FDF76CFC642001F0A1FE2800FDF7EAFAE3
:102D8000A059431E9841C0B2FDF7E4FAA3592B485D
:102D90009B59984280414042FDF7DCFAA059FDF76B
:102DA00079FF2100A0591431A2220F3005F080FED6
:102DB000A222A359163E5A7301F068FF224B4246E5
:102DC000186059600123FF3E136077E71F4800F049
:102DD000AFF81E2342460126FF33E25476426DE7E8
:102DE000194B1E685F6801F051FF801BB941002933
:102DF00005D1174B984202D8012676425EE70023A0
:102E0000424613601533FF33E258043BD058FDF7B8
:102E10002FFC104806F002F8FA200126C00001F04D
:102E20004DFE76424AE7C046642A0020582F002013
:102E3000102900200C2F0020782F011020A107005E
:102E4000DC2A0020E82E0110E8240020582F011071
:102E5000000E2707102F0110F0B504008A25431E2D
:102E6000984183B06D00C0B2FDF774FA60598826AE
:102E7000431E9841C0B2FDF76DFA63597600985928
:102E8000431E9841C0B2FDF765FA63599B59D86C4F
:102E9000431E9841C0B2FDF75DFA63599B59DC6C43
:102EA000A06AE16A04F088FF0A4A0B4B04F0B7FEFF
:102EB00006000F00206A616A04F07EFF054A064B97
:102EC00004F0ADFE0623320000933B00FFF726FA24
:102ED00003B0F0BD48AFBC9AF2D77A3E70B504009B
:102EE0008A25431E98416D00C0B2FDF733FA605940
:102EF0008826431E9841C0B2FDF72CFA635976002C
:102F00009859431E9841C0B2FDF724FA63599B5962
:102F1000D86C431E9841C0B2FDF71CFA63599B5907
:102F2000DB6C187C013843425841C0B270BDC046CA
:102F30000FB4F0B54F46D6464646C0B5454B90B0A7
:102F400099461B68002B00D180E001F09FFE424AA9
:102F500014230690079104F035FC14001D00200096
:102F600029003E4A00230894099504F02BFC140024
:102F70001D00200029003A4A00230A940B9504F012
:102F800021FC16001F00374A0023300039000C9640
:102F90000D9704F017FC040000258046E10E600147
:102FA000001BA941C30D9C4666464B0233434202B7
:102FB00012196B41910E8C4666469901900131437E
:102FC000801A99410C9E0D9F00196941264C361AB2
:102FD0008F412000002105F0ADFF0A980B994B4668
:102FE0004A461D686B1C13601D4A002304F0EAFB6F
:102FF0001A4A824608980999002304F0E3FB164A0E
:10300000814606980799142304F0DCFB43464A46A0
:10301000010000930495534602960397134805F068
:10302000E9FF19A918980F9105F09CFF0A2005F0F7
:10303000A9FE0121200005F07DFF10B01CBC9046C8
:103040009946A246F0BC08BC04B0184705F0DEFF64
:103050007BE7C046542F00200060D71D00A493D604
:103060000087930340420F0040190020BC2F01103D
:1030700000B587B005AB04AA03A90B4800F018FC03
:10308000002803D10849094802F048FF059A04992D
:10309000039800F0D1FB064B01220093002106208B
:1030A00002F078FB07B000BD580F0200E42F0110BA
:1030B000C0EF0B0870B5194E8A2530686D00431EAD
:1030C0009841C0B2FDF746F933685A5988235B002E
:1030D000D4582000431E9841C0B2FDF73BF9336835
:1030E00020005A598C235B00D1580D4AFDF74AF94C
:1030F00043425841C0B2FDF72DF9336800225B59B5
:1031000020005959FDF712FA43425841C0B2FDF769
:1031100021F920000FF090FC70BDC046E82F002080
:10312000C0EF0B08F0B5C64680251C4B00B5002447
:1031300098461B4F0F266D0005E02020013405F056
:1031400021FEAC420DD0E15D404605F053FF330057
:1031500023400F2BF1D10A20013405F013FEAC42BD
:10316000F1D106220E490F4809F0AAFC02220E49AD
:103170000E4809F0A5FC01220D490E4809F0A0FCFB
:1031800001220D490D4809F09BFC01220C490D4814
:1031900009F096FC04BC9046F0BDC046CC3101104D
:1031A00000000410F82F002006000410EC2F00206F
:1031B000080004100030002009000410F42F002043
:1031C0000A000410F02F002000B5084B83B00193D3
:1031D000074B084A00930849084B094805F00AFFC5
:1031E000084805F01BFE03B000BDC046F42F0020C8
:1031F00000300020F02F0020F82F0020EC2F0020BE
:10320000D43101102032011030B5C1B00622174967
:10321000684609F055FC6B460222981D144909F0D6
:103220004FFC0122134902A809F04AFC092001229F
:103230001149684409F044FC0A2001220F496844FE
:1032400009F03EFCEFF3108572B680248021E40281
:10325000200049010FF028FC80226946520020001E
:103260000FF0FAFB85F3108841B030BDF82F002035
:10327000EC2F002000300020F42F0020F02F002041
:10328000F8B5DE4657464E4645460021E0B567484C
:10329000D02405F04FFE08232406A361642001F02A
:1032A0000DFC80239B046361614805F0B7FD614A12
:1032B0006149624805F09EFE614805F0AFFD614836
:1032C00005F0ACFD604805F0A9FDFFF77DFF5F4B01
:1032D00000249B465E4B5F4F9A465F4B5F4D99467D
:1032E0005F4B604E9846604805F098FEC1B2FF29DA
:1032F00020D05A2901D92039C9B20B000A3BDBB2D0
:103300004E2B00D98AE0594A9B00D3589F46584813
:1033100005F070FE5146280009F0E8FA53465C704B
:10332000FFF772FFFFF750FF4F4805F077FEC1B27D
:10333000FF29DED14F4805F05DFE0121642002F037
:1033400097FCFEE74C4805F055FE4946280009F079
:10335000CDFA4B465C70FFF757FFFFF735FFC2E72A
:10336000464805F047FE4146280009F0BFFA4346AB
:103370005C70FFF749FFFFF727FFB4E7404805F00F
:1033800039FE3100280009F0B1FA3378B470002B0F
:10339000EFD0320059460320C95C014002290AD00F
:1033A000137001321378002BE3D059460320C95C17
:1033B00001400229F4D1203B137001321378002B15
:1033C000E8D1D6E72F4805F015FE3900280009F0AE
:1033D0008DFA3B78BC713A00002BCAD059460320C5
:1033E000C95C014002290AD0137001321378002B06
:1033F000BFD059460320C95C01400229F4D1203BCB
:10340000137001321378002BE8D1B2E71E4805F0A3
:10341000F1FD0121642002F02BFCFEE70A001B48AD
:1034200005F0E8FDFFF7D0FE5DE7C046401900203B
:10343000603301106C3301107833011084330110B4
:10344000C0330110F033011024340110913B0110FE
:10345000F02F0020F82F0020003000200C35011044
:10346000F42F0020EC2F0020008793031830011068
:1034700010350110B0340110443501105C350110D5
:1034800034350110F8340110EC340110743501109A
:10349000F0B5DE4657464E464546E0B5D025802677
:1034A0009FB02D06B604192000F058FC19206E625A
:1034B00000F054FC6E621D206E6100F04FFC802312
:1034C0009B05AB62002200211D2000F0D9FB08F013
:1034D0001DFA0222B84BB9481A60FFF729FD1424DF
:1034E000370064206F6101F0E9FA013CAE616420AD
:1034F00001F0E4FA002CF4D1FFF714FEB04AB14910
:10350000B148FFF715FDFFF7B3FD5C22002107A8C6
:1035100005F0C8FAAD48FFF70BFDAD4B1B78313B0A
:10352000DBB2032B00D945E1AA4A9B009A58AA4B6B
:1035300000251B78A949303BDBB203930623009298
:1035400002930A2207AB0195A548FEF7B9FF0400D4
:10355000431E9841C0B2FCF7FDFEA24B00221C6046
:103560008E235B00E5520233E25424230322FF330F
:10357000E254200020229C4BFF321B782130303B4C
:10358000A3549A49FF3009F05FFA994808F03EF8D1
:103590009848FFF7CDFC032000F0E0FBD023082281
:1035A00096211B065A6289015A610020063AFDF7EE
:1035B00071F81A90431E9841C0B2FCF7CBFE1A9BDB
:1035C00005939923059A9B00D5528B4B9A468B4BBA
:1035D0009846002399462000FFF780FC002800D081
:1035E000B5E001212000FFF733FB5046002105F034
:1035F000A1FC002005F012FD002800DDD3E08023AF
:103600007F4EDB01326831005340E022D20113408B
:103610007C4A13600422684B1A60FC320B68134228
:10362000FCD0706880B205F02EF9774905F0DDF81E
:10363000764905F0C0F8764905F0C3F8011C7548D5
:1036400005F0B9F8051C05F045F9922340B25B007E
:10365000E0541A9B80210593059A6F4B4900D05482
:10366000C02332689B015340E022D2011340654AD7
:1036700013600422504B1A60614A13680B42FCD05D
:10368000506880B205F0FFF8644905F0AEF85E4975
:1036900005F0ABF8834605F055F906000F005846D3
:1036A0005E4905F0D1F800280BD05D4A5D4B300033
:1036B000390004F08DFA04F0B7FB05F043F9060079
:1036C0000F00594A594B3000390004F009FB00281B
:1036D0000BD0534A534B3000390004F070FA04F019
:1036E000A3FB05F02FF906000F0023002933FF3359
:1036F0001E605F604E49281C05F077F88421C905DB
:1037000005F05CF805F01EF9802500960197D0279A
:103710001E2602000B0040463F06AD0405F06AFC81
:10372000FF367D61A35D002B20D0012B29D0022B19
:1037300000D050E7DC20400001F0C0F9D023802207
:103740001B0692049A610A2001F0B8F941E72000B3
:10375000FFF782FB002800D143E70100200006228A
:103760000C3009F0ADF94B46E3743AE70A2001F05A
:10377000A5F9DC20BD61400001F0A0F9A35D012B9B
:10378000D5D1DC2001F09AF9D02380221B069204C7
:103790009A61DC2001F092F91E23FF33E35C022BD7
:1037A00000D018E7C6E7992300211A9A9B00D1544C
:1037B000FFF766FD1F4ABAE600E00440AC2D011099
:1037C0006C33011078330110643101108031011025
:1037D000F42F0020543101100030002094310110EA
:1037E000F82F0020E82F0020F02F0020EC2F0020E1
:1037F000B53000109C31011040190020B431011087
:1038000000C0044000D004403333533A6ABC343F14
:103810002D93E13A0000D8416602000000004040CC
:10382000333333333333FF3FCDCCCCCCCCCC13400C
:103830006666E63FCC1AD700F0B583B005000E00EF
:10384000140000F0A9FA002801D003B0F0BD154F14
:1038500001223B0000970121053001F09BFF33005E
:103860002A0000940121104802F0AAF92100280042
:10387000714303F069FF04000C4B00220093022106
:10388000042001F087FF230000940022012105207D
:1038900001F080FF00973B0002220021062001F08A
:1038A00079FFD2E7006CDC0200800240001BB70009
:1038B000F0B5DE4657464E464546E0B585B0039323
:1038C0004A4B070099464023FF339B4601910292E1
:1038D000474B994500D186E0464E474B4E4406245F
:1038E000994565D8651C29003000694303F02CFF19
:1038F000874245D0002C5BD029003000614303F0A3
:1039000023FF87425CD0631E9846002B2FD01900FE
:103910003000694303F018FF874254D0A31E9A4633
:10392000002B24D019003000694303F00DFF8742BB
:103930004DD0E31E9A46002B19D019003000694380
:1039400003F002FF874246D0231F9A46002B0ED079
:1039500019003000694303F0F7FE87423FD0052C81
:1039600005D02900300003F0EFFE87421CD044460A
:10397000651C29003000694303F0E6FE8742B9D197
:103980000029B7D12C005A4601201C4B5343019A01
:103990001360029B1D60039B1C6005B03CBC9046FD
:1039A0009946A246AB46F0BD0029E0D10124EAE7E2
:1039B00001235B429C46124BE3449C46E14487E76B
:1039C0000029A0D1DFE70029A8D14446DBE7002980
:1039D000AFD15446D7E70029B6D15446D3E70029E2
:1039E000BDD15446CFE70020D7E7C04670F72E0080
:1039F000704DF7FFB0710B0050F80C00001BB700C2
:103A000020D1FFFFD0231B061B68F0B59A00454666
:103A1000904641468A4ADE465258574693465A1EB9
:103A2000934130224E465B421A40864B00249C460E
:103A3000854BE0B59A4683B062440092E2081300D9
:103A40002600083300999B005D580836002D24D0CD
:103A5000A64224D95B46002B2AD001230F27994682
:103A60003900294013D04B4652464046A3401258D5
:103A70001A420CD107220800224092009040020016
:103A8000E30872483C339B001A502000D8472D09A8
:103A90000134002D01D0A642E2D8202E01D03400FE
:103AA000CCE703B03CBC90469946A246AB46F0BD7D
:103AB0000F232B4007D001214746A1406248C0593F
:103AC000084200D1A8E02B09611C002BE5D08E42F2
:103AD000E3D90F2213406BD12B0AA11C002BDCD0A1
:103AE0008E42DAD90F22134073D12B0BE11C002B2D
:103AF000D3D08E42D1D90F2213407BD12B0C211D64
:103B0000002BCAD08E42C8D90F2213400FD047468F
:103B10000E3A8A404C48C059104208D10720CA08C2
:103B2000014089008B403C324849920053502B0D94
:103B3000611D002BB1D08E42AFD90F22134006D0A9
:103B400047460E3A8A404048C05910426DD02B0E6D
:103B5000A11D002BA1D08E429FD90F2213400FD060
:103B600047460E3A8A403848C059104208D10720CB
:103B7000CA08014089008B403C32344992005350BE
:103B80002D0F0734002D00D187E701234146A340C4
:103B90002D4A525801921A4200D07EE70722E308CC
:103BA0001440A400A5403C33284A9B009D5074E774
:103BB00047460E3A8A402448C05910428CD107200B
:103BC000CA08014089008B403C3220499200535082
:103BD00082E747460E3A8A401B48C059104284D1BA
:103BE0000720CA08014089008B403C3217499200E7
:103BF00053507AE747460E3A8A401348C05910425C
:103C000000D07BE70720CA08014089008B403C3286
:103C10000E499200535071E70721214089008B40E3
:103C20003C320A49920053504DE70720CA08014030
:103C300089008B403C3205499200535087E7C046CB
:103C4000142A002000410140442F00200040014080
:103C5000094A830094464022634410B51C68C000A2
:103C60006240C02414408022520113431C60034B65
:103C70009C466044416010BD04C0014000400140CA
:103C80000A4B80009C4604236044002901D00C2389
:103C90000821002A00D10B00026853400C221A4070
:103CA00080235B01184302607047C04604C0014096
:103CB000F8B51D00D0231B061B6814005A1E934143
:103CC00030225B421340214AC60894460722024034
:103CD0009200914032001E483C3263449200B6008C
:103CE00011509B19002C11D08022920113431960AE
:103CF000D0231B061E68174FB600BB59002B11D0EE
:103D0000002D1ED0BD51002C16D1F8BDC02292014D
:103D100013431960D0231B061E680E4FB600BB5913
:103D2000002BEDD1002DEED000220B490D20BD510E
:103D300000F058F9002CE8D001210D2000F0E4F843
:103D4000E3E705490D2000F031FADBE700410140CF
:103D500000400140142A0020053A00100123D0221F
:103D60008340120693629361094A8300944640227D
:103D700063441968C0004A40C021114080225201AA
:103D800013431960034B9C4605236044436070470E
:103D900004C0014000400140024B18688007C00F7A
:103DA0007047C04600C00640EFF3108072B6034A69
:103DB0001368002BFCD0BFF35F8F70472C0100D03D
:103DC000BFF35F8F0022024B1A6080F310887047A8
:103DD0002C0100D0F8B5EFF3108772B60D4E3368A2
:103DE000002BFCD0BFF35F8F0725CB08C018012341
:103DF0000D40AB401D000478254007D123430370DC
:103E0000BFF35F8F356087F31088F8BD100002F0B4
:103E100085F8C0462C0100D0F8B5CE4647468C4602
:103E200080B5EFF3108872B6214D2C68002CFCD0C1
:103E3000BFF35F8F9A422CD80721012511408D4096
:103E4000D4080419267835421FD00721894606393F
:103E500009E04D460F001540AF40D40804192678FC
:103E60003D00374211D001329342F2D2012040424C
:103E7000BFF35F8F00220E4B1A6088F31088002872
:103E80000FDB0CBC90469946F8BD354325701000F9
:103E9000EEE7BFF35F8F00232B6088F310880120CB
:103EA00040426346002BECD0089802F037F8C04639
:103EB0002C0100D00021044B044ABFF35F8F02C3E2
:103EC0009342FAD17047C046000100D0800100D073
:103ED000044A1078431CDBB2172B00D9102313704F
:103EE0007047C046A818002000B5054B83B00100FC
:103EF000009318221F230348FFF78EFF03B000BD75
:103F0000A0350110382A002001238340002904D065
:103F1000034A1360034A13607047034A1360FBE7C8
:103F200080E200E000E100E080E100E00122824068
:103F3000034B1B681340581E8341D8B27047C046DC
:103F400000E100E001238340014A13607047C0464E
:103F500000E200E0084B10309B688000C358002B43
:103F600007D0064A00209B1A2F229A424041C0B235
:103F700070470020FCE7C04600ED00E0AC180020D0
:103F8000024B10309B688000C058704700ED00E085
:103F900070B50D00EFF3108672B60F4A1368002B50
:103FA000FCD0BFF35F8F0D4B10309B6884001B5912
:103FB0000B4A934203D09D4201D001F0C7FF074B4B
:103FC0009B681D51BFF35F8FBFF35F8F0022024BD1
:103FD0001A6086F3108870BD240100D000ED00E067
:103FE000CD010010F8B557464546DE464E468A4696
:103FF000E0B590460700EFF3108972B65F4A136888
:10400000002BFCD0BFF35F8F00205D4B18569B4602
:10401000002800DAA2E05A4644005A4D2418A400B1
:104020002E19B37910371370574BBA009B6893461B
:1040300099584B1B2F2B41D801230A009A43D3795F
:104040009446434514D90627D7571300002F06DAA4
:104050008DE00627DF571A00002F00DA87E07B008B
:10406000DB199B00EB18DF794745F2D8002A51D1C4
:10407000464A63465B1B5B415A43120D444BA11CED
:104080003380444B6918043B5B1A1B0542495B0DA6
:104090000B43738063460434043B2D195D1B434678
:1040A0002D05F3716D0D53462943B180B271012185
:1040B0006246B360394B3143136018E0384B994284
:1040C00052D1334B02343380324B2D19043B5D1BEC
:1040D0002D05314B6D0D1D43324B0121B380FF2364
:1040E000B3714346F37153467580B36031435A460A
:1040F000254B9B689950BFF35F8FBFF35F8F002202
:104100001E4B1A6089F310883CBC90469946A24623
:10411000AB46F8BD0627D757131D9C46002F2BDB57
:1041200004342D19E024938824025B051B15634495
:104130005B1B1B055B0D23436546341F641B240575
:10414000154D640D2C4394809071B3804346F371F8
:104150005346124AB7713260B360C8E701F0F6FE09
:104160005B460020185656E701F0F0FEA9E71A1D3D
:1041700094461A000C4BDFE70B4BDDE7240100D01F
:10418000DB2F0020AC18002000ED00E0AAAA000000
:1041900000A1FFFFDC18002000E0FFFF014880477E
:1041A000CD01001001BDFFFF01BD0000F0B5454687
:1041B000DE4657464E46E0B50D0083B0EFF310895A
:1041C00072B6584A1368002BFCD0BFF35F8F564B72
:1041D0009A68030010339F00D459544A9046944281
:1041E00034D0AC4245D0524EA21B2F2A2ED80122E9
:1041F0008240924651464F4A126811400191514601
:104200004D4A1160BFF35F8FEFF305829346002A9A
:1042100035D10123220006219A43936851569D42CD
:104220000AD16AE04B005B1806219B00F3189868DE
:104230005956A84228D01A000029F3DA019B002B16
:1042400019D052463D4B1A603A4B1A60364B9B6868
:10425000DC51BFF35F8FBFF35F8F0022314B1A60D9
:1042600089F3108803B03CBC90469946A246AB4601
:10427000F0BD1400EAE752462F4B1A60E6E793427E
:10428000C7D001F063FEC4E7002921DB4A005018C3
:10429000800035188046A8689860E879D8710620B3
:1042A00028569871002826DBAD88F01A6D052D156B
:1042B00045444019E0250005400D2D022843988013
:1042C00052181F4B9200B6181A781970B271B5E7E0
:1042D0005946002917D1002A22D0FF31917119497E
:1042E000918017490A789A71174A9B1B5B415A4380
:1042F000120D0A70A2E71548E1E713000029C5DA9C
:104300005A46002A0CD0124A1249D21A083A5002D0
:10431000400D01439980104952080A43DA808DE725
:104320004446DEE7240100D000ED00E0CD0100109E
:10433000AC18002000E100E080E100E080E200E055
:10434000DB2F002001BDFFFFAAAA000001BD000075
:10435000E618002000F0FFFF00F8FFFF10B5032370
:1043600004009C430340FF20054ADB00944698402C
:1043700099406444226882430A43226010BDC046CB
:1043800000E400E0F0B5EFF3058101240443EFF30E
:10439000108672B6214A1368002BFCD0BFF35F8FE2
:1043A0001F4B204A0500ED1A6D416A43120D1E4D48
:1043B0008900AF6852B27F58A7421CD006215956D7
:1043C00091421CD012215956914222D01E21595699
:1043D000914220D02A2159560324914210D0134BE8
:1043E00019781A708171BFF35F8F00220B4B1A602E
:1043F00086F31088F0BDAB680D4C5C50EFE70024ED
:104400006100091989005B18FF2199710949998098
:10441000E5E70124F4E70224F2E7C046240100D0D6
:10442000AC180020AAAA000000ED00E0DB2F00205D
:10443000CD01001001BDFFFF054B064A1360064A7F
:10444000136053609360D36013615361936170474D
:104450008080808000E400E004E400E000B5074BC9
:1044600083B001000093002205230548FFF7D4FC28
:10447000002801DB1F23181A03B000BDBC35011052
:10448000E12F0020024B9C46614489000160704787
:104490004000003410B50400FFF71AFD01002000B1
:1044A000FFF7F0FFFF232371BFF35F8F10BDC046FE
:1044B00010B50400FFF70CFD01002000FFF7E2FF3C
:1044C000FF23A380BFF35F8F10BDC04610B504006B
:1044D0000120FFF709FD044B9C46604480002060EA
:1044E000BFF35F8F10BDC04640000034034B9C46B5
:1044F000614489000160BFF35F8F70474000003462
:1045000070B506000D00140000291ED0002A1ED030
:1045100073688068984763006A001B195219033B4F
:10452000033A3168002808D0CB188A189D7011789A
:1045300000290ED11470280008E08A18CB18947056
:104540001978002900D051701D70200070BD08003E
:10455000FCE7597028001470F8E7C04683680B48E0
:1045600010B5844661446244090112019A18591831
:1045700054684B6801209C4201D802D00020C0B290
:1045800010BD12680B689A42F9D8F7E7FFFFFF0FDA
:104590000A4B1968EFF3108072B60A68002AFCD043
:1045A000BFF35F8F1B68BFF35F8F00221A6080F339
:1045B000108840BF002000217047C046842F002093
:1045C000F8B54746CE4680B514001D000BAA0AABCD
:1045D00012781B78804691460768002B12D1BE7B6B
:1045E000002E44D0720092193968033A891848782D
:1045F0003300B873002800D1F87300208870487029
:10460000087003E01E005A00D218033A1A49380015
:104610008C464146896863448C461B010899634473
:10462000996009991C605D60D9603B689C460023D5
:104630006244937053701370797B3200FFF760FF10
:104640007873B04213D143462200187D2B0000F04E
:10465000AFFB041E07D04B46002B04D1434631006C
:10466000186800F023FF0C9B002B00D01C7030005A
:104670000CBC90469946F8BDFFFFFF0FF0B5DE4633
:1046800057464E4645460023E0B58BB00893684B2D
:104690008200D45800239B46099000F0F7FA626824
:1046A000EFF3108572B61368002BFCD0BFF35F8F59
:1046B00023689C465B7B9946002B00D16DE0A26885
:1046C0005C4B90464B441B01984443461E685F6810
:1046D00032003B00121A8B41002B00DC67E03200F5
:1046E0003B00099800F064FB002300229846002359
:1046F0000692079300239A466368BFF35F8F5A467A
:104700001A6085F310885346002B08D10028C4D1C5
:104710000BB03CBC90469946A246AB46F0BD089B08
:10472000414618024B461843D047626806000F0006
:10473000EFF3108572B61368002BFCD0BFF35F8FC8
:10474000002F52DB33003B4302D02369002B63D19F
:104750002368DA7B002A07D051008A1819688C4632
:1047600049466244033A51709A7B002A01D14A4675
:104770009A734A46DA73E2684B469446013B6344B7
:104780001A7801321A705B4623616368BFF35F8F4A
:104790005A461A6085F310887FE700230022984666
:1047A000002306920793002300209A46A4E7002BDB
:1047B00002D1002A00D092E70021604600F094FD6B
:1047C00043461A685B680692079343469B689A467D
:1047D0004346DB689846E3684B44013B1B780893EB
:1047E0001B0203432361002086E72369002BAFD01F
:1047F000069A079B921BBB41002B15DB594604917F
:104800000121039149460291414601915146200000
:104810000091FFF7D5FEB6E700F038FA32003B0012
:1048200012184B41002BE9DA0122034B5242E5E713
:10483000342F0020FFFFFF0FFFFFFF7F10B5144C48
:104840006368002B04D00A211248FFF71BFE10BD3D
:104850002300114A1021206800F064FB032000F0BF
:1048600009FA032000F010FB0C49032000F05AFA6B
:10487000FFF72EFB0A4B9C4603232375D0231B0610
:104880001B6860446375074B80006060DC60DAE79A
:10489000F4180020842F00205D4500107D46001094
:1048A00040000034342F002000487047F4180020E6
:1048B000F0B54E4657464546DE46E0B583B0009219
:1048C00001930EAB1B7807009946002300269846FB
:1048D0007A68EFF3108A72B61368002BFCD0BFF32E
:1048E0005F8F3D68AC7B002C00D168E063001B1932
:1048F0002A68033BD2185178A346A973002900D136
:10490000E973967056701670B968384A8C460098EC
:104910000199A21812016244106051600C9928009C
:1049200091600D99D1602A68944663449E705E70D0
:104930001E70697B2200FFF7E3FD6873844244D058
:10494000FB681B19013B18787B68BFF35F8F1E6003
:104950008AF31088002C45D04346002B09D15B46D2
:104960000002184303B03CBC90469946A246AB46B1
:10497000F0BD4B46002B26D00C9B0D99002098478C
:1049800003000B431FD004000D1E09DA009A019B9F
:10499000121BAB4100920193002B09DBC84697E73D
:1049A00000F074F924184D4100940195002DF5DABA
:1049B00001230F4C5B4200930194C84688E7002313
:1049C00000209B46C0E70020CCE7387D009A019B81
:1049D00000F0EEF980460028B2D02100386800F0DF
:1049E00065FDADE701204042BCE7C046FFFFFF0F79
:1049F000FFFFFF7F407D7047F0B504000D000626E5
:104A00007642F717C64636196F4100B584B08F421B
:104A100014D811D000F03AF932003B00121A8B4141
:104A2000002B15DC002B3ED02000290000F06AF995
:104A300004B004BC9046F0BD8642EBD900260027A6
:104A400000F024F932003B00121A8B41002BE9DD03
:104A5000002302930193154B3200009314483B004E
:104A6000FFF726FF0028DFDB00239846BC46114AEB
:104A7000114F7B6A9C4504D8B96AB142D4D29C4597
:104A8000D2D11168EFF3108072B60B68002BFCD006
:104A9000BFF35F8F1368BFF35F8F4146196080F3E8
:104AA000108820BFE5E7002ABED0D1E7914500106D
:104AB000F4180020842F00200040054070B5060047
:104AC00000F0E4F8FA2204000D0092000023300008
:104AD000002103F053FE00196941002902DBFFF7B2
:104AE0008BFF70BD012001494042F8E7FFFFFF7FC7
:104AF000F0B5EFF30583CE46474680B5050085B097
:104B00000C00002B11D02B4A0020536AA34207D37C
:104B1000926A0130AA4203D21C1B601E8441E0B29B
:104B200005B00CBC90469946F0BD234E029301930C
:104B3000224B0200009330000B00FFF7B9FE002863
:104B4000E1DD20BF7268EFF3108772B61368002BA7
:104B5000FCD0BFF35F8F3368C1B29C466246FF232F
:104B6000527B03408A420BD05A009146624612683B
:104B7000994490464A464244033A9278002A10D01B
:104B8000F268000A90464344013B1A78C0B2824260
:104B90000CD07368BFF35F8F00221A6087F3108810
:104BA000B1E733699842F4D13261F2E7604600F030
:104BB0007DFCEEE700400540F41800209145001010
:104BC000F8B5EFF30582CE464746100080B51038A1
:104BD000EFF3108C72B6204C2368002BFCD0BFF38F
:104BE0005F8F0123190081401C4D1D4E71632960A8
:104BF0001C4DA9462D782F00C7403B4015D0736A45
:104C0000194E984683009E59B04517D3174A8D43D5
:104C10009B584A461570BFF35F8F002222608CF3C9
:104C20001088002B06D0984704E0BFF35F8F236005
:104C30008CF310880CBC90469946F8BD0C4B920042
:104C40009846424413681360BFF35F8F00232360CC
:104C50008CF31088EEE7C046280100D03C70054078
:104C600000400540E02F00209C2F0020002900205C
:104C7000D03F054010B50100024A0348FFF7AAF8EB
:104C800010BDC046E0350110D92F0020044A516AFA
:104C900000E01900906A536A9942FAD17047C04601
:104CA00000400540164A70B5546A00E01C00956A41
:104CB000536AA342FAD12A00230080185941050003
:104CC0000E008C4202D819D1824217D90122012547
:104CD0006D42EE1752420A4C636A9342FCD39A42E9
:104CE0000BD1074B2800996AA94203D305E0996AC2
:104CF000814202D2596A9142F9D070BD3200EAE78E
:104D000000400540064A536A9942FCD807D1044B3B
:104D100002E05A6A914202D19A6A8242F9D37047FC
:104D20000040054070B504000D00EFF3108672B628
:104D30001A4A1368002BFCD0BFF35F8F002D1BD0E5
:104D40002000FFF71DF9164988420AD02000FFF71E
:104D50001FF901212000FFF7D7F80123A340114AD2
:104D60001360114BA400E550BFF35F8F00220B4B83
:104D70001A6086F3108870BD0B4BA200D55001223B
:104D8000A2400A4920000B7893430B700449FFF7B7
:104D90000DFA00212000FFF7B7F8E5E7280100D061
:104DA000C14B00103860054000290020E02F002092
:104DB000F0B5D6464F4646462E4CC0B5656A00E073
:104DC0000D00A66A616AA942FAD1AB4209D806D0A1
:104DD000012420001CBC90469946A246F0BDB24278
:104DE000F6D9EFF3108972B6234C21680029FCD064
:104DF000BFF35F8F0126214986408C460978204DFC
:104E00000F0037438846F9B28A46614654460C7013
:104E10001849041DA4004E636250840063510D6A5A
:104E2000002435421AD04D6A00E025008F6A4C6A92
:104E3000AC42FAD1AB4219D801D1BA4216D8C24518
:104E400016D00C4B0F4A1E625E631F2318401E3B98
:104E5000834013606346424601241A70BFF35F8F9C
:104E60000022054B1A6089F31088B2E70024F5E7A9
:104E70000124F3E700400540280100D0E02F002086
:104E80009C2F002080E200E010B5EFF3108472B692
:104E90000A490B68002BFCD0BFF35F8F01238340CE
:104EA000074A0848136202789A430270BFF35F8F83
:104EB00000230B6084F3108810BDC046280100D089
:104EC00000400540E02F002070B506000D001400E2
:104ED00000291ED0002A1ED073688068984763009E
:104EE0006A001B195219033B033A3168002808D0A5
:104EF000CB188A189D70117800290ED114702800E3
:104F000008E08A18CB1894701978002900D05170E5
:104F10001D70200070BD0800FCE759702800147057
:104F2000F8E7C046F0B5DE4657464E464546E0B582
:104F30008360002389B04260026806914373C9B25E
:104F40000133059101738373C1730492012900D861
:104F5000A4E00A004B1ED9B2931E0791072B00D87C
:104F6000AEE00025CB080393049B564C591C564BCE
:104F700056489B46564B9A46564B9C46564B029378
:104F8000524663465F465E4662401A40504B274099
:104F9000FB185A400640534601966646434033404C
:104FA0004B4E0A70B046019E0135B146C844464694
:104FB00073401604360ECE701602120E4A721A0490
:104FC000120E0B73CA731A021B0E4B75029B360E20
:104FD0005C4063461C40404B120E9846029B47447F
:104FE0005840634618404B4643445840039BEDB23B
:104FF0008E718A747C401831AB42C1D10799072366
:105000000A009A43531CDBB2914247D0049C5A00D9
:10501000A446D218591C6244059DC9B2033A517086
:105020008D423BD94A005218981C6244C0B2033AE0
:105030005070854232D942001218D91C6244C9B25C
:10504000033A51708D4229D94A005218181D624402
:10505000C0B2033A5070854220D942001218591D3F
:105060006244C9B2033A51708D4217D94A005218AE
:10507000981D6244C0B2033A507085420ED9420076
:105080001218D91D6244C9B2033A51708D4205D934
:105090004A0052186244033A08335370FF23069AB9
:1050A00013405900C918049B9C46002361440339EE
:1050B0004B7009B03CBC90469946A246AB46F0BD49
:1050C0000123A3E7010203047F7F7F7F0506070812
:1050D00001010101808080800808080870B5040083
:1050E000002907D04B0000685B18033BC3185A78AF
:1050F000002A01D1080070BD5500AD18033D4019CC
:105100000025467845705D702000FFF7DDFE310018
:1051100005002000FFF7E2FF290002002000FFF752
:10512000D3FE0100E6E7C046F0B54E464546DE46F2
:105130005746E0B50E0074000168A41985B0033C21
:1051400001920A1905001078002850D043001B185E
:10515000033BCB185F78BC46002F1AD1019C002C72
:1051600042D0EC7B002C04D063001B19CB18033B0E
:105170005E70AB7B002B00D1AE73EE7300282FD195
:105180000023537005B03CBC90469946A246AB46FE
:10519000F0BD7A006244033A89184A7893460022A7
:1051A0004A7090465A7001003A002800FFF78CFEC2
:1051B0005B468146002B07D05B0029685B44033BBC
:1051C000CB185A78002A16D15A4649462800FFF7CC
:1051D0007BFE2968019B0A19002BC2D10028CFD081
:1051E00043001B18033BCB1800219970C8E7019BB3
:1051F000002BB6D1C4E7500080180338091848784E
:10520000824640464870587059462800FFF75CFEB9
:1052100053468346002B07D05B0029685344033B69
:10522000CB185A78002A06D1594652462800FFF773
:105230004BFE8346C8E750008018033809184046E3
:105240004F7848705870514628000297FFF73CFE8F
:105250008246002F08D0BC467B0029686344033B8C
:10526000CB185A78002A06D15146029A2800FFF737
:105270002BFE8246D8E750008018033809184046B4
:105280004F7848705870029928000397FFF71CFE6A
:105290008046002F08D0BC467B0029686344033B4E
:1052A000CB185A78002A06D1039A41462800FFF706
:1052B0000BFE0290D8E70320504303380918002062
:1052C0004F784870587003992800FFF7FDFD3900AA
:1052D00002902800FFF702FF029902002800FFF762
:1052E000F3FD0390E0E7C046F0B54E464546DE4686
:1052F0005746E0B5467B040075000068AD19033DD4
:1053000085B0421901911178002952D04B005B18E9
:10531000033BC3185F78BC46002F1CD1019D002DB4
:1053200044D0E57B002D04D06B005B19C318033B10
:105330005E70A37B002B00D1A673E673002931D1E8
:10534000002330005370617305B03CBC9046994611
:10535000A246AB46F0BD7A006244033A8018427818
:1053600093460022427090465A7020003A00FFF7A0
:10537000ABFD5B468146002B07D05B0021685B4498
:10538000033BCB185A78002A17D15A4649462000C9
:10539000FFF79AFD019B010020684219002BC0D144
:1053A0000029CDD04B005B18033BC3180020987038
:1053B000C6E7019B002BB4D1C2E750008018033828
:1053C000091848788246404648705870594620006F
:1053D000FFF77AFD53468346002B07D05B00216818
:1053E0005344033BCB185A78002A06D159465246FB
:1053F0002000FFF769FD8346C7E750008018033897
:10540000091840464F78487058705146200002975E
:10541000FFF75AFD8246002F08D0BC467B0021686A
:105420006344033BCB185A78002A06D15146029AAE
:105430002000FFF749FD8246D8E750008018033866
:10544000091840464F784870587002992000039719
:10545000FFF73AFD8046002F08D0BC467B0021684C
:105460006344033BCB185A78002A06D1039A41467D
:105470002000FFF729FD0290D8E7032050430338AE
:10548000091800204F784870587003992000FFF7E2
:105490001BFD390002902000FFF720FE0299020058
:1054A0002000FFF711FD0390E0E7C04670B504004F
:1054B00000292CD0437B8B422ED005684800401831
:1054C000033828188278002A21D053009B18033B08
:1054D000EB181A788A4202D11BE0002A08D0530048
:1054E0009B18033BEB185A788A42F6D142785A70DF
:1054F00000230122837043702000FFF715FE617BBB
:1055000002002000FFF7E0FC6073012000E00020B3
:1055100070BD42781A70EBE701221900FFF704FE14
:1055200060730120F4E7C046F8B5CE464746040054
:1055300080B506200D0000F03DFB061E52D0524BF8
:105540005249E3185A4253418022D20394465B42A7
:1055500013404F4A634413604E4A136018008A6830
:105560009043FBD1484B8021E3185A4253414A4AA9
:105570005B0049000620995200F01CFB2900C00086
:1055800002F0E2F8C30932D1402290463F3A62620B
:10559000A362266BF30736D427008025E36A002335
:1055A0002C376D013D432B600620266300F002FB83
:1055B0004146800002F0C8F8236B06009846DB07DE
:1055C0003BD46022E36A5A406E2313402B6043466B
:1055D0002363802310229B013B431A602F4B2363DC
:1055E0000323A36430000CBC90469946F8BD2C4AB6
:1055F00093423FD900232B4A90462B4A6262A36212
:10560000266BF307C8D52200C02330329B01134319
:10561000224A06201A60656AA36AAD01ED1800F0FF
:10562000C9FA224902F090F8AD020100280002F008
:105630008BF80021FFF736FBAEE72200C0233032A3
:105640009B011343154A06201A60636AA26A9B01F4
:105650009946914400F0AEFA4B4614499B02994694
:1056600002F072F80100484602F06EF80021FFF7E0
:1056700019FBA6E77F2210409A01904601304008AE
:105680001A008044030082E70080FCBF00C0004095
:1056900000E0004000F00040043000200103000062
:1056A000FEFF0000C0FF3F00FFFF00004E0E0000A5
:1056B000F8B5013A4C1F6401D20005001443002BD9
:1056C00005D002222243012B2AD105331C432E6B25
:1056D000F3070BD4E96A2A00802361406E242C3240
:1056E0005B010C4013431C602E63F8BD2A00C023ED
:1056F00030329B0113430B4A06201A606F6AAB6A73
:10570000BF01FF1800F056FA074902F01DF8BF026A
:105710000100380002F018F80021FFF7C3FAD9E7BA
:105720001400D4E7010300004E0E0000F8B50C0091
:10573000611E8C41066B05002401F3070BD4102376
:10574000E96A2A004C401C4080232C325B01134341
:105750001C602E63F8BD0200C02330329B0113434E
:105760000A4A1A60476A836ABF010620FF1800F0E0
:1057700021FA074901F0E8FFBF020100380001F0FB
:10578000E3FF0021FFF78EFAD9E7C04601030000CE
:105790004E0E0000F0B5DE46574645464E46E0B593
:1057A00083B017000C9A05008B469A4200D973E02B
:1057B0001A0E92461E020C9A00233000514602F047
:1057C00001F8454B6C009C466419A400644463686E
:1057D0008046834200D260602B1FDAB2C0239B0157
:1057E00001922343012A35D9802212011A603B4BD2
:1057F000AD0059599946002950D04B46586901F0DF
:10580000A3FF431C5800C0180338FDD223687F0152
:105810007B40E0271F408023019A5B0123431F60E8
:10582000012A2CD9802380229B01234312011A6074
:1058300043464246636030000023514601F0C2FFF8
:105840004B465851012003B03CBC90469946A246B5
:10585000AB46F0BD5A46012A2AD0802212011A60B6
:105860001E4BAD00595999460029C6D123687F01C6
:105870007B40E0271F4080235B0123431F605A4683
:105880002168514003220A401A6001225B469A4077
:10589000A3681A42FCD0C5E70020D4E723687F0143
:1058A0007B40E0271F4080235B0123431F60B9E753
:1058B00002321A60023AA3681A42FCD023687F01C0
:1058C0007B40E0271F408023044A5B0123431F6085
:1058D0009146AD00D3E7C046008000403C2A00203E
:1058E00030B50C2083B000F0BBF9FEF755FA002864
:1058F0000ED0994B994A1A605A609A60DA601A6120
:105900005A619A61DA611A62954A5A6203B030BDEF
:10591000944CA06700F03AFA0122934B1A60636C32
:10592000012BFCD10322914B1A608E4A936B012B01
:10593000FCD1013300938E4A043301218D4800F0DD
:105940003FF905238C4A009301218C4800F038F977
:105950008B4B5A68FF2A02D8802252005A6080225C
:105960007D4C824B21691201854D1A60002907D0B8
:10597000606901F0E9FE431C5800C0180338FDD2ED
:10598000E0217F4B02201A681140802252012A43F5
:1059900011601968484003210140116004219A6890
:1059A0001142FCD08022802192012A43090111601A
:1059B000802252005A60734B2361734B5968FF2950
:1059C00000D85A6003227048674B01211A60020018
:1059D00093681942FCD0E02513681D4080235B01C9
:1059E00003431D6012684A400321114019600221DF
:1059F000654A93681942FCD0802380219B010343B0
:105A0000090119608021614B490051606361604B5D
:105A10005A68FF2A00D8596080225E4BE169120162
:105A20005B4D1A60002907D0606901F08DFE431CB0
:105A30005800C0180338FDD2E02255490B681A40BF
:105A400080235B012B431A60802380229B012B4320
:105A500012011A608022414B52004A60E3614E4BB2
:105A60005968FF2900D85A6080224C4B216A1201E4
:105A7000494D1A60002907D0606901F065FE431C9A
:105A80005800C0180338FDD2E02243490B681A4081
:105A900080235B012B431A60802380229B012B43D0
:105AA00012011A6080235B004B602C4B3C4A23623E
:105AB0003C4B5968914201D801325A6080223A4BDE
:105AC000616A1201374D1A60002907D0606901F040
:105AD0003BFE431C5800C0180338FDD2E022314978
